:020000040000FA
:0600000002010702226567
:03002B000226D3D7
:030033000226B5ED
:03003B000226F9A1
:0300430002266929
:030053000222DBAB
:03006B0002268FDB
:100083000220BBE5C754F84401F5C77901220000FB
:100093000080FB120086B900030200F1E4792178A5
:1000A30008B800028004F709D8FCE479297802B87B
:1000B30000028004F709D8FCE49002817854791592
:1000C3008002F0A3D8FCD9FA7AD47B169001377852
:1000D3003279048015E493A3AD82AE838A828B8345
:1000E300F0A3AA82AB838D828E83D8E9D9E7758288
:1000F300197583B5740312011975829175830074A0
:100103000012011975D00075813F751881751902A8
:10011300759F00020096C09FF59FE473D09F22D085
:1001230083D082C09FE493C0E0740193C0E0740263
:1001330093F59F22FF0000B4000028002800283018
:1001430075A000A000A000A00000080008E001F0D6
:10015300001000100010001000100010005000509C
:1001630000500010001000D0070000000000000F36
:100173000001000500307507001000010081FF0039
:10018300000000FFFFFF8A06A8069006CC06FF02C8
:10019300020208025000A0000000E80302CC820122
:1001A3000000B68202C8820100002F1702C082013C
:1001B3000000BF0202C882010000301702BC8201A6
:1001C3000000D50202C882010000311702C6820175
:1001D3000000D70202C882010000321702CA820857
:1001E3000000D80202C882010000331702DC82013A
:1001F30000003417FF0100FF2002CC82010000B38E
:100203008202C882010000981702E0820000000009
:100213000002C28203000006031700380D380D38B0
:100223000D380D380D380D380D380D380D380D38A3
:100233000D380D380DDE0FF00FD80F020202020247
:1002430002020202010D000000100102CC82010033
:1002530000B08202C882010000DB1702D4820100D1
:1002630000400702C882010000DC1702D6820100A9
:1002730000898102C882010000DD1702D8820100D3
:1002830000608102C882010000DE1702DA820100E9
:1002930000C88002C882010000DF1702F882010053
:1002A30000EC8002C882010000E01702EA8201002C
:1002B30000FE8002C882010000E11702E88201000B
:1002C30000B68002C882010000E21702E682010044
:1002D300006E8102C882010000E31702E48201007C
:1002E30000E41701E8030577100AFFFFFF00013060
:1002F300750302010600000000000000000000007A
:1003030000000000000000000000000000000000EA
:1003130000FFFF0600800CE803140953696D706C3D
:1003230065424C455065726970686572616C05126F
:1003330050002003020A000201060302F0FF536982
:100343006D706C6520424C4520506572697068651C
:1003530072616CA0140000A6140A436861726163A1
:100363007465726973746963203100024368617252
:10037300616374657269737469632032000843684A
:100383006172616374657269737469632033001009
:10039300436861726163746572697374696320345D
:1003A300000243686172616374657269737469639F
:1003B3002035000243686172616374657269737406
:1003C300696320360002CC82010000B98202C88230
:1003D300010000F91802EE82030000C81602C4826D
:1003E300010000FA1802C8820100000B1902F08212
:1003F300010000C91602C4820100000C1902C88260
:100403000100001D1902F282020000CA1602C48212
:100413000100001E1902C8820100002F1902F48294
:10042300000000CB1602C282030000CC1602C48275
:10043300010000301902C882010000411902F6824E
:10044300040000CE1602C482010000421902C882D1
:10045300010000531902E282030000D31602C48292
:100463000100005419120122C68B03120122D98BF9
:10047300031201220A8C03120122448C031201226B
:100483009D8C03120122E48C031201222C8D031292
:1004930001225B8D031201228A8D03120122C18D79
:1004A30003120122088E03120122218E031201225C
:1004B300768E031201228F8E03120122DD8E031228
:1004C3000122178F03120122ACA802120122AFA945
:1004D30002120122E8A9021201220BAA021201222E
:1004E3001DAA021201225BAA02120122D7AA02123A
:1004F30001229FAB02120122C1AB0212012258ACAE
:1005030002120122AAAC02120122DBAC0212012266
:10051300E8AC0212012252AD02120122A9AD02126D
:100523000122ACAD02120122E5AD02120122E8ADB7
:1005330002120122F2AD0212012246AE0212012280
:1005430087AE02120122BAAE02120122F7AE0212E4
:100553000122F9AF021201229DB00212012206B15B
:100563000212012244B1021201220080031201226D
:100573002880031201225580031201228D80031269
:100583000122EB80031201223781031201229E8193
:1005930003120122DE81031201221B8203120122B4
:1005A300498203120122F38203120122FD82031204
:1005B30001220A83031201223D830312012249838C
:1005C300031201226183031201226B8303120122AE
:1005D300117F001201221F7F00120122377F0012B8
:1005E30001224E7F00120122B1A7011201225BA852
:1005F300011201226EA901120122EAA901120122AC
:1006030008AB0112012244AB01120122DFAB01123C
:100613000122C3AC011201228FAD011201221DAFD1
:10062300011201228EAF0112012248B001120122F0
:100633003AB1011201227AB1011201222EB2011242
:10064300012260B20112012256B40112012298B4B0
:1006530001120122B6B4011201221CB501120122BA
:10066300EBB501120122AFB601120122CEB801127D
:10067300012260C9021201224ACA02120122F5CAEA
:100683000212012246CB02120122F6CB02120122F0
:1006930067CC021201224CCD0212012280CD02123C
:1006A300012279CE02120122B6CE0212012292CF8A
:1006B30002120122D1CF02120122EDCF0212012236
:1006C3008FA60312012213A7031201223EA70312CE
:1006D300012258A803120122F983031201220F8475
:1006E300031201222D84031201223E8503120122EB
:1006F3004885031201227386031201226A870312BB
:100703000122D787031201224ED00212012284D183
:1007130002120122BBD10212012212D202120122C1
:1007230027D402120122FB820112012287830112C4
:100733000122EB8401120122F78401120122328586
:1007430001120122A18501120122AA8601120122AE
:10075300B387011201227A8801120122D78901127B
:100763000122F58901120122128A01120122BF8A94
:10077300011201223C8B01120122648B011201221E
:100783002E8E01120122338E011201224C9001128E
:1007930001229A90011201220A9101120122489129
:1007A30001120122249201120122E4920112012278
:1007B3003093011201223393011201227793011224
:1007C3000122BF9301120122FE9301120122209400
:1007D30001120122549401120122B7940112012241
:1007E30080DB021201228EDB02120122E1DB021204
:1007F300012200DC0212012245DC0212012289DD02
:100803000212012224DE0212012268DE02120122F8
:1008130092DE0212012201DF0212012247DF0212DD
:100823000122BEDF021201226FE0021201226C27B5
:10083300001201227C27001201221D28001201222E
:10084300792800120122362900120122522A0012AD
:100853000122842A00120122B32A00120122602CF1
:1008630000120122D72E0012012247310012012269
:1008730039320012012232330012012239350012BB
:1008830001222D38001201225C3900120122603B43
:1008930000120122703C00120122FF3D00120122CE
:1008A300F03E001201223E3F00120122AD3F001232
:1008B3000122D13F00120122224000120122C3442F
:1008C30000120122C4450012012225460012012212
:1008D300504600120122164700120122EAF60212C4
:1008E3000122F4F60212012239F7021201224DF716
:1008F30002120122DDF70212012216F8021201226E
:1009030051F8021201227AF802120122CEF80212E1
:100913000122E3F80212012205F9021201221AF957
:10092300021201222EF90212012243F902120122BC
:100933007DF902120122A9F902120122F2F902122F
:10094300012264FA02120122A7FA02120122D1FA49
:1009530002120122FCFA0212012299B003120122AF
:10096300108B02120122F38B021201226E8C0212EF
:100973000122A98C02120122FA8D02120122888E11
:10098300021201221A9102120122CC9102120122B7
:10099300D892021201224B9402120122A494021251
:1009A300012258EE021201229BEE021201221FEFD6
:1009B30002120122F6F1021201221BA203120122EA
:1009C300CDA203120122C9A30312012208A4031218
:1009D300012262A40312012287A803120122EAA8BA
:1009E3000312012287A903120122BCA903120122C7
:1009F300ECA90312012227AA0312012247AA031218
:100A0300012281E0021201220DE102120122CCE156
:100A130002120122E4E202120122FEE40212012286
:100A2300B8F301120122DDF301120122AAF401122B
:100A330001227EF501120122EBF5011201222BF6B0
:100A430001120122C7F601120122FBF70112012252
:100A5300D6F80112012235F901120122C1F901125E
:100A630001222FFA01120122BBFA0112012201FB1A
:100A73000112012273FB0112012205FC0112012262
:100A8300A6FC01120122C6FC011201220EFD011275
:100A9300012257FD0112012273FD0112012299FD6A
:100AA3000112012213FE0112012221FE0112012271
:100AB300B0FE0112012219FF0112012235E50212D3
:100AC3000122BAE502120122FCE502120122E0E64C
:100AD300021201224DE70212012291E702120122C2
:100AE300D5E70212012202E8021201222AE80212C9
:100AF300012262E802120122A0E802120122C7E8E1
:100B03000212012241E9021201228BE9021201229F
:100B1300DBB8011201227ABA01120122B2BC01121E
:100B2300012206BD0112012231BD011201220DBEB7
:100B3300011201223DBE011201226CBE01120122EB
:100B43007FBE01120122C0BE01120122EDBE0112BD
:100B530001223BBF0112012277BF01120122BCBF58
:100B63000112012209C00112012283C001120122D4
:100B7300C4C201120122AEC401120122EAC401124D
:100B8300012279C601120122BEC60112012231C718
:100B93000112012286C7011201228BC70112012211
:100BA30015C80112012234C90112012245C90112DB
:100BB30001220D9F02120122869F0212012240A5EB
:100BC300021201224BA602120122F4A702120122F1
:100BD30082A8021201221C5C001201229D5C0012F9
:100BE3000122CA5C00120122135D00120122145E6D
:100BF300001201226D5E00120122E95F0012012240
:100C03006B6000120122866000120122F76000125D
:100C13000122B461001201227762001201220563EE
:100C230000120122BC6300120122CF6300120122D1
:100C3300686400120122FF6400120122266500127B
:100C430001228F6500120122D96500120122276655
:100C530000120122CC66001201226A6700120122EF
:100C6300F76700120122686800120122AF680012C0
:100C73000122076900120122396900120122F36976
:100C830000120122FA6A00120122436B00120122B0
:100C9300606B001201227F6B00120122B26C001202
:100CA3000122696D001201228E6D00120122A36DD3
:100CB30000120122136E00120122546E001201224F
:100CC300786F00120122F96F001201224D95021272
:100CD3000122989502120122A4950212012278960C
:100CE300021201228F9602120122CC9602120122D5
:100CF300FD96021201223597021201228B970212EE
:100D03000122A19702120122DD9702120122F0971C
:100D1300021201221798021201224B980212012299
:100D2300719902120122BB9A02120122B79B02128D
:100D33000122D49C02120122FC7F001201222F7097
:100D4300001201226A7000120122BC7300120122F8
:100D5300187500120122D775001201223E79001284
:100D63000122287A00120122747A001201228E7A5B
:100D730000120122CB7A00120122D67A001201223C
:100D8300157B001201221E7B00120122C87B001278
:100D930001229F7C00120122F37C00120122507D6C
:100DA30000120122C27D001201228F95011201223D
:100DB300EE9801120122F4980112012225A00112DA
:100DC30001222CA4011201227099031201224D9ACF
:100DD30003120122919A03120122CB9A03120122D8
:100DE300639B03120122D29B03120122DB9B03129A
:100DF3000122E79B03120122019C031201222B9C77
:100E0300031201225B9C03120122A8F202120122A7
:100E1300B5F202120122CFF20212012202F30212F0
:100E2300012240F302120122A5F302120122BAF3B6
:100E330002120122C5F302120122D2F3021201228D
:100E4300E9F302120122F7F30212012202F4021261
:100E530001220EF4021201221DF40212012228F4CF
:100E6300021201224BF402120122EFF402120122B8
:100E7300FFF40212012219F50212012236F50212C1
:100E8300012251F50212012276F50212012281F5A7
:100E93000212012296F502120122AAF50212012280
:100EA3000BF60212012211F60212012217F60212A8
:100EB30001221DF60212012235F60212012268F602
:100EC3000212012235E601120122CCE601120122AF
:100ED30064E70112012254E8011201228BE8011296
:100EE30001229EE8011201220CE901120122A7EA64
:100EF30001120122CEEA0112012270EB011201223A
:100F0300A5EB01120122B6EB011201222FEC011213
:100F1300012250EC0112012268EC01120122C0ED02
:100F230001120122C9EF0112012219F20112012259
:100F33001CF3011201226BF30112012268C9011291
:100F4300012265CA0112012250CB011201225ACBA0
:100F5300011201227CCB0112012288CB0112012252
:100F6300DACC0112012209CD0112012239CE01127C
:100F730001227BCE01120122A7CF011201227DD0D3
:100F830001120122CFD0011201222ED1011201221E
:100F930065D101120122A0D1011201223BD5011218
:100FA300012254D501120122D6D501120122E4D522
:100FB3000112012239D60112012247D60112012260
:100FC300B4D60112012226D7011201226CD70112D5
:100FD30001220080021201222280021201220C82CD
:100FE30002120122B18502120122F48602120122A9
:100FF300CE870212012255AA031201227AAA0312F2
:101003000122EBAA031201226AB10212012273B177
:10101300021201227CB102120122ADB2021201229C
:10102300CCB40212012202B5021201223CB5021213
:10103300012272B502120122ACB502120122E0B5FF
:10104300021201220CB60212012255B6021201222B
:101053008FB602120122D7B6021201222DB7021255
:10106300012262B702120122BDB702120122F7B7B1
:101073000212012248B8021201227EB80212012292
:10108300B8B802120122E6B80212012209B902120B
:1010930001223EFF021201226AFF02120122C5FF52
:1010A30002120122CFFF02120122DFFF02120122EC
:1010B300899C03120122B09C03120122DA9C0312C1
:1010C30001226CB503120122824700120122E64974
:1010D300001201229D4B00120122FA4B0012012241
:1010E300FC4C00120122844D001201220B4E00120F
:1010F3000122304E001201222551001201229B5180
:10110300001201228A5200120122C452001201224B
:10111300045300120122A45400120122F9540012B4
:101123000122465500120122B45500120122DA555C
:1011330000120122F455001201220A570012012263
:101143001A5700120122A05800120122C05800129F
:101153000122F658001201227A5A00120122B95ACA
:1011630000120122F75B00120122CBE902120122D5
:1011730023EA021201226BEB02120122DAEB0212C2
:10118300012295EC02120122B4EC0212012208EDB5
:101193000212012246ED021201223CFF011201223A
:1011A3004DFF01120122B6B503120122F5B5031258
:1011B3000122E9FF02120122A7B303120122B7B3EE
:1011C30003120122D2B3031201223AB40312012201
:1011D300ADB10312012231B20312012297B20312FD
:1011E3000122A9AD03120122D2AD031201223FAEA7
:1011F3000312012293AE03120122ECAE0312012269
:101203001B930312012230930312012254940312FD
:101213000122BE94031201223295031201224C953E
:101223000312012263950312012276950312012210
:101233008E9503120122A39503120122C495031272
:1012430001221596031201227F8F03120122968F2A
:10125300031201220F9003120122E49003120122D0
:10126300B692031201224A9603120122DC9603125C
:1012730001225A9703120122E19703120122739864
:1012830003120122CA9803120122D49803120122E5
:10129300E39803120122F998031201220C99031215
:1012A30001226D990312012227AF0312012250AFCD
:1012B3000312012279AF0312012212B00312012299
:1012C30054B00312012297B902120122A1B90212EA
:1012D3000122E1B9021201222ABA0212012264BADE
:1012E30002120122BABA02120122D9BA021201224F
:1012F3005EBD0212012267BD02120122B8BD0212B5
:101303000122E1BD02120122F6BD0212012266BED4
:1013130002120122F4BE0212012238BF021201227C
:1013230060BF02120122DFBF0212012222C0021299
:1013330001225FC00212012271C00212012290C079
:101343000212012299C0021201225EC1021201227D
:101353000BAC031201225CAC03120122E5AC0312B5
:1013630001224BAD03120122579F03120122819FD9
:10137300031201227BA003120122AAA0031201225D
:1013830030A103120122B0B2031201228DA4031271
:101393000122C3A403120122FCA40312012255A6B5
:1013A3000312012244B4031201225AB4031201228C
:1013B30064B403120122BAB4031201228AC10212D5
:1013C300012247C20212012282C202120122AAC2D0
:1013D300021201220CC30212012258C3021201227B
:1013E300C3C3021201223FC4021201223BC50212EF
:1013F3000122C2C60212012245C702120122A9C755
:1014030002120122C0C702120122B6C8021201222F
:1014130002C90212012224FB0212012239FB021229
:101423000122ECFB021201222CFC0212012245FCD8
:101433000212012278FC02120122C5FC02120122CF
:10144300F9FC021201223BFD0212012231FF0212BA
:101453000122F5D701120122ACDB011201223EDD8C
:101463000112012295DD01120122B4DD01120122D4
:1014730032DE01120122C4DF01120122A8E00112AF
:101483000122B9E4011201228DE501120122EED5F8
:101493000212012228D602120122A1D8021201222D
:1014A30063D902120122E7DA02120122E187031251
:1014B30001224988031201226688031201224E8900
:1014C30003120122A989031201227A8A031201223B
:1014D300FFB5031201227CB60312012245B60312A3
:1014E3000122A8B603120122DE7F00E06670100815
:1014F300A3E066700A08A3E066700408A3E066220E
:10150300C3E7960809E7960809E7960809E79622CC
:10151300C3E09608A3E09608A3E09608A3E096220A
:10152300C008C3E096F50808A3E096420808A3E0C4
:1015330096420808A3E09645087001D3D008220814
:101543000808EAC0E0EBC0E086F0E7A4FA180986D1
:10155300F0E7A42AFA180986F0E7A42AFA180986FC
:10156300F0E7A42AFA1986F0E7A4FBE5F02AFA19B2
:101573000886F0E7A42BFBE5F03AFA190886F0E7B2
:10158300A42BFBE5F03AFA18180986F0E7A4C5F096
:101593002BFBE43AFA1908E7C5F0C6A426F6E5F0F2
:1015A3003BFBE43AFA1886F0E7A4F6E5F00826F6E2
:1015B300E43B08F6E43A08F6D0E0FBD0E0FA22E494
:1015C300CFC0E0E4CEC0E0E4CDC0E0E4CCC0E07541
:1015D300F020E626F608E633F608E633F608E633A7
:1015E300F6181818EC33FCED33FDEE33FEEF33FF42
:1015F300C3EC9709ED9709EE9709EF97191919406D
:101603000FFFEC97FC09ED97FD09EE97FE191906FC
:10161300D5F0BFECF709EDF709EEF709EFF7191964
:1016230019D0E0FCD0E0FDD0E0FED0E0FF22601650
:10163300080808C6C313C618C613C618C613C618A7
:10164300C613C6D5E0EA22700908080822601618F6
:101653001818C6C333C608C633C608C633C608C679
:1016630033C6D5E0EA22E627F60809E637F6080985
:10167300E637F60809E637F622E026F608A3E03651
:10168300F608A3E036F608A3E036F622E026F008D3
:10169300A3E036F008A3E036F008A3E036F022C357
:1016A300E697F60809E697F60809E697F60809E6C5
:1016B30097F622C3E096F008A3E096F008A3E0961D
:1016C300F008A3E096F022E056F608A3E056F608E9
:1016D300A3E056F608A3E056F622E056F008A3E08E
:1016E30056F008A3E056F008A3E056F022E0F6080F
:1016F300A3E0F608A3E0F608A3E0F622E6F008A3C9
:10170300E6F008A3E6F008A3E6F022E0FAA3E0FB84
:10171300A3E0FCA3E0FD22E0F8A3E0F9A3E0FAA331
:10172300E0FB22E8F0A3E9F0A3EAF0A3EBF022CA7E
:10173300C0E0E6F0A308DAFAD0E0FA22CAC0E0E09B
:10174300A3C582CCC582C583CDC583F0A3C582CC96
:10175300C582C583CDC583DAE6D0E0CA22C3E49847
:10176300F8E499F91217A18026C3E49AFAE49BFBE3
:10177300E920E7E91217A1E498F8E499F922C3E410
:1017830098F8E499F91217A1E498F8E499F9C3E4F5
:101793009AFAE49BFB22EB20E7CFE920E7E0B900CC
:1017A30010BB0008E88AF084F8AAF022E4FBC8FA28
:1017B30022EB70227B10C833C8C933C9335007C327
:1017C3009AC3DBF280069A50012ADBEAC833F4C8D5
:1017D300C933F4C9FA2275F008E4C833C8C933C958
:1017E30033C99AC99B5004C92AC93BD5F0ECFBC83D
:1017F30033F4C8E4C9FA22600D08C6A2E713C61879
:10180300C613C6D5E0F322600C08C6C313C618C6B8
:1018130013C6D5E0F422700422600D18C6C333C684
:1018230008C633C6D5E0F41822251810AF08F518FA
:10183300400C15198008F51840021519D2AF220083
:10184300C0D0251810AF08F518500C05198008F5FD
:101853001850020519D2AFD0D0222518F58210AF47
:1018630008F518400C15198008F51840021519D20F
:10187300AF851983222518F582E43519F5832225CE
:1018830018F8E43519F9222518FAE43519FB22254D
:1018930018FCE43519FD22E4732518C582C0E0E580
:1018A3001934FFC583C0E0E518C3958224F810AF4F
:1018B300088583198582188008858319858218D243
:1018C300AFCEF0A3E520F0A37808E608F0A3DEFA94
:1018D300EFF0A3E58124FAF8E608F0A3E608F0A305
:1018E300E608F0A30808E608F0A3E608F0A31581CC
:1018F3001581D0E0FED0E0F8158115811581E8C08F
:10190300E0EEC0E0222518C582C0E0E51934FFC52A
:1019130083C0E0E518C3958224F910AF08858319C5
:101923008582188008858319858218D2AFCEF0A3EB
:10193300E520F0A37808E608F0A3DEFAEFF0A3E5CC
:101943008124FBF8E608F0A3E608F0A30808E608FC
:10195300F0A3E608F0A315811581D0E0FED0E0F8EE
:1019630015811581E8C0E0EEC0E022851983851852
:1019730082E0A3FEE0A3F5207808E0A3F608DFFAEF
:10198300E0A3FFE0A3C0E0E0A3C0E0E0A3C0E0E089
:10199300A3C0E0E0A3C0E010AF08858218858319D7
:1019A3008008858218858319D2AFD083D082020143
:1019B3001F851983851882E0A3FEE0A3F52078082C
:1019C300E0A3F608DFFAE0A3FFE0A3C0E0E0A3C0D2
:1019D300E0E0A3C0E0E0A3C0E010AF088582188573
:1019E30083198008858218858319D2AFD083D0826A
:1019F30022C0D02518C582C0E0E51934FFC583C0D5
:101A0300E0E518C3958224F310AF08858319858216
:101A1300188008858319858218D2AFC8F0A3E9F02E
:101A2300A3EAF0A3EBF0A37908E709F0A3D8FAEC53
:101A3300F0A3EDF0A3EEF0A3EFF0A3D0E0F0A3D07A
:101A4300E0F0A3D0E0F0A3E520F0A3E5F0F0A322BB
:101A5300851983851882E0C0E0A3E0F9A3E0FAA327
:101A6300E0FBA37808E0F608A3DFFAE0FCA3E0FDBF
:101A7300A3E0FEA3E0FFA3E0C0E0A3E0C0E0A3E097
:101A8300F5D0A3E0F520A3E0A3F5F010AF0885831C
:101A9300198582188008858319858218D2AFD08270
:101AA300D083D0E0F8D0E032740480067402800260
:101AB3007401C0E0F40412185DD0E01217322274EE
:101AC30004800474028000CCC0E0EDC0E0E518C3DC
:101AD3009CCCAD1950011D10AF068C188D198006D2
:101AE3008C188D19D2AF12173FD0E0FDD0E0FC2245
:101AF300D083D082E9C0E0E493A3C386F0C5F09518
:101B0300F0F908E493A386F0C5F095F0700BE49325
:101B1300A3C3994005E9048002A3E475F002A42558
:101B230082F582E5F03583F583D0E0F9E493A3C031
:101B3300E0E493C0E022D083D082ECC0E0EDC0E0CB
:101B4300E493A3FCE493A3FDED4C600D121B85EC21
:101B530024FFFCED34FFFD80EFE493A3FCE493A3A7
:101B6300FDED4C600D121BC4EC24FFFCED34FFFDB6
:101B730080EFD0E0FDD0E0FCE493A3C0E0E493C0A9
:101B8300E022C0E0C3E49396087401939618400FD3
:101B9300E49366700808740193661870007019A3C3
:101BA300A3C3E49396087401939618A3A3400DD09E
:101BB300E0D0E0D0E0021B75A3A3A3A3A3A3D0E0CE
:101BC30022C0E0C0F088F0E49366700808740193C3
:101BD30066187000A8F0A3A3700BD0F0D0E0D0E09B
:0C1BE300D0E0021B75A3A3D0F0D0E022DC
:101BF00074F6121908EAFEEBFF8C088D09EE243406
:101C0000F8E43FF9E8FCE9FDEE2435121F03FAEE93
:101C10002437121F03F88508F0A4C885F00A850947
:101C2000F0A4250AF9EA28F8E439F97A257B0012AC
:101C300017A1EA8C828D83F0FA131313541FF8EE68
:101C400028F8E43FF9E8245DF582E439F583E0C043
:101C5000E074075AF8D0E0B800028004C313D8FC3F
:101C6000A2E0EE50082434F582E43F8018243612B6
:101C70001F03F5F0EA84A8F0EE28F8E43FF9E82421
:101C800038F582E439F583E0F97F030219B474F77B
:101C9000121908EAFEEBFFEE2434121F03C0E0EE37
:101CA0002435F582E43FF583D0E0F08E828F83A364
:101CB000A3A3A3A3A3A3C082C0838E828F83A3A365
:101CC000A3A3A3E0F8A3E0F9D083D082E0C398F502
:101CD00008A3E099F509EE247F121F036401703E0A
:101CE000EE2480F582E43FF583C082C0838E828F2C
:101CF00083A3A3A3A3A3E0240108A3E03400F9D0A5
:101D000083D082E0687003A3E06970127CB17D0427
:101D1000120C78EE247FF582E43FF583E4F0AC0802
:101D2000AD09EEFAEFFB121BF0E9F912265B7F0218
:101D30000219B4C082C083851882851983E0F8A394
:101D4000E0F9C3EA9CEB9D5010C3EC98ED99401B61
:101D5000C3EA98EB995014800EC3EA98EB994007B8
:101D6000C3EC98ED994004790180027900D083D0CA
:101D70008222EAC39CFAEB9DFB2274EF12190890B1
:101D80000376E064086005E06407702A9061C8E0AB
:101D900060249003A4E0F4601DE0F875F00BA4C883
:101DA000AAF02AF974A628FE740339FF8E828F8365
:101DB000A3A3A3E07003021E88906060E0C0E0EE81
:101DC0002468F582E43FF583D0E0F0750C21750DB1
:101DD00005750800750900E5D914F50AE5D954031D
:101DE000F50E60127403650E6043E50A600AEE2486
:101DF00067121F037002807590051CE06401601F6C
:101E0000121F0060047A0480027A00E50AC39AFA7D
:101E100095E0FB120B228A088B09EA45097005122E
:101E20000EA68064121F0070048A0C8B0DE50A60F8
:101E300012850C82850D83F50BE5D9F0A3150BE512
:101E40000B70F6121F00604474FC250AF50A780C2A
:101E5000121AAFAC0AA90EEEFAEFFB120D327402A1
:101E6000121842E97026AA08AB09121356793D8E62
:101E7000828F83A3A3A3A3E0FA7B00120984EEFA66
:101E8000EFFB120C9C120D447900806F7403650EF9
:101E90006051850A107511007810121AAFAC0CADA4
:101EA0000DAA08AB09120CF67402121842EE24684F
:101EB000121F0364807004747F8001E0F50C780CBD
:101EC000121AB3E50EF50C780C121AB3A90AAC0875
:101ED000AD099003A4E0FA7B0012095A74021218AB
:101EE000428013900376E06408600BAC0CAD0DEEFD
:101EF000FAEFFB120DBC120EB279017F0A0219B47F
:101F0000EE2483F582E43FF583E02274F21219088F
:101F100074FC12182CEAFEEBFF8909A2AFE433F53A
:101F200008C2AF021FD5E0601B780C121AAFAC0BD1
:101F3000A90EEEFAEFFB120D2C7402121842740473
:101F4000250BF50B7401250BF5D9850ED9E50B6032
:101F500018F50A850C82850D83E0F5D9A385820CDE
:101F600085830D150AE50A70EA75E195EE2463F89C
:101F7000E43FF97A007B00A2AFE433F50BC2AF88EF
:101F8000828983E0FCA3E0FDEC4D603A888289837E
:101F9000E0FAA3E0FB8A828B83E0FCA3E0FD888269
:101FA0008983ECF0A3EDF08A828B83E4F0A3F088C0
:101FB000828983E0FCA3E0FDEC4D700A888289836E
:101FC000A3A3E4F0A3F0E50BA2E092AF12135690A6
:101FD00004B8E004F0EE2463121F03F8A3E0F9E86C
:101FE000496064EE2463121F032402F8A3E0340066
:101FF000F988828983E5822402F50CE43583F50DA6
:10200000E0F50BA3E0F50EEE2462121F03640170ED
:10201000369061D0E0F8121F0060047C0480027CDE
:10202000007480C398FA95E0FBE50B2CF8E43400CB
:10203000F9E82402F8500109C3EA98EB99A2D265A5
:10204000D0334003021F269004B8E0604D9004B9DD
:10205000E0F89004B8E0C398500C74026509703A37
:102060009004BAE060348E828F83A3A3A3A3E0859B
:1020700018828519831220AA7402121878E8122097
:10208000AA9004B7E028F07402121892AA18AB19AB
:1020900079011209AE9004B8E4F0E508A2E092AF2D
:1020A00074041218427F070219B4F0A3E4F09004FC
:1020B000B8E0F8228521878522C622C0E074EB12A1
:1020C00019F4A2AFE433F508C2AF759B00906182AA
:1020D000E0A2E05030E591A2E0502A7591FE740133
:1020E0006521702112224E120DFE12223C121AC2DC
:1020F0001224057404121842E96401700579011272
:102100000E3A121D7A906182E0A2E5505DE591A23F
:10211000E550577591DF900376E064076005E06451
:1021200008702F12224E74016521703E120DFE12AE
:10213000223C121AC21224057404121842E96401E6
:1021400070057901120E3A7901EEFAEFFB121F0BBE
:102150008018E0640D7013900398E004F064287018
:1021600002E4F07A00E0F9120EB8906182E0A2E693
:102170004003022211E591A2E6400302221175916B
:10218000BF900376E064057008120DE6120DF28030
:1021900003120DEC752100120E46E9900377F079D9
:1021A00000120E3A120BE87A017B00900375E0F9F9
:1021B000121326907803E064427056900520E014D4
:1021C000F0704EC2AF1221C800782AD0E0F618D0C5
:1021D000E0F6E59F5407F87005750DFF8003750D57
:1021E0007FC4C0E07829E6F50A08E6550DF50B74C2
:1021F0000B780A12180AD0E0250AF8906270E0A263
:10220000E740F8E8C333906272F0906270E0D2E089
:10221000F0906181E0A2E35009E5E9A2E350037583
:10222000E9F7A3E0A2E75009E591A2E75003759111
:102230007FE508A2E092AF7F08021A538E828F8357
:10224000E0F8A3E0C82416F582E438F58322900371
:10225000A4E0F875F00BA4C8AAF02AF974A628FE29
:10226000740339FF22C0E0C0D0C082C08390618374
:10227000E0A2E05009E5BFA2E0500375BFFEE0A276
:10228000E15009E5BFA2E1500375BFFDE0A2E250B5
:1022900009E5BFA2E2500375BFFBE0A2E35009E5E8
:1022A000BFA2E3500375BFF7E0A2E45009E5BFA267
:1022B000E4500375BFEFE0A2E55009E5BFA2E55089
:1022C0000375BFDFE0A2E65009E5BFA2E650037543
:1022D000BFBFD083D082D0D0D0E032C0E074F21241
:1022E00019F4E5A7A2E6500FE5A1A2E6500953A70D
:1022F000BF75A1BF12232FE5A7A2E5500CE5A1A24F
:10230000E5500653A7DF75A1DFE5A7A2E15009E577
:10231000A1A2E1500375A1FDE5A7A2E2500CE5A141
:10232000A2E2500653A7FB75A1FB7F01021A53746A
:10233000F7121908752101900376E06406701512F2
:102340000D688A828B83A3A3A3A3A3A3E0FAA3E0CF
:10235000FB120DD4A2AFE433FED2AF90037CE06455
:102360000170187A207B00900375E0F912143A7A14
:10237000207B00900375E0F912132C906182E0D26B
:10238000E6F090051DE0602185C622801690037B53
:10239000E064017008E5C654F84405F5C653BEFC78
:1023A0001220B47401652160E4EEA2E092AF7F02D6
:1023B0000219B4008E238F248582288583278518EF
:1023C00082851983E0CEA3E0CF852882852783EB21
:1023D000C9EAC8EDCBECCA75F010C3E833C8E933DD
:1023E000C9EA33CAEB33CBC3EA9EF526EB9FF5254A
:1023F000B35004AB25AA26EC33CCED33CDD5F0DABF
:10240000AE23AF242274F11219088A088B098C0AB2
:102410008D0B90824C78081216CA740F12187878B7
:102420000C1216F090824C780C1216CA7808790CAF
:1024300012150390826050107808790C1216A27859
:10244000081215234014800E780C79081216A27811
:102450000C12152350047901800279007F080219BB
:10246000B474ED1219088A088B098C0A8D0B9082BE
:102470004C78081216CA7413121878780C1216F0D9
:1024800090824C780C1216CA780C79081215034009
:10249000117808790C1216A2AA08AB09AC0AAD0B88
:1024A00080227510007511007512007513017810E7
:1024B000790C1216A278107908121669AA10AB11BD
:1024C000AC12AD137F0C0219B490824C780812162E
:1024D000F08A828B8378081216DD7F040219B474A7
:1024E000F51219088C828D8378081216F08A828B77
:1024F0008378081216B6122537C3E09CF0A3E09D3E
:10250000122529402290827C78081216F08A828B4C
:1025100083780812168F8A828B83A3A3A3A3E02457
:1025200020F0A3E0344EF080A0F088828983C3E0DD
:102530009420A3E0944E22EA2404F8E43BF98C8230
:102540008D83A3A3A3A3E0FCA3E0FD88828983225B
:1025500074F5121908E9FE9004D3E0FAA3E0FBEE4B
:1025600029F8E433F9743128F582748139F583E070
:102570002AF508A3E03BF5097808121AAF90829873
:1025800012170E1223B474021218428A088B098C97
:102590000A8D0B74107808121631AA08AB097F0453
:1025A0000219B474F11219088A0C8B0D8C0E8D0F60
:1025B0007411121878121AC67411121878E02401D6
:1025C000F508A3E03400F509E4F50AF50B780C7979
:1025D0000812154290825C78081216F0780C79087F
:1025E000121542AA0CAB0DAC0EAD0F1223B474023F
:1025F0001218428B09EA450960047A0180027A00C8
:10260000EC2AFCE43DFD7413121878E0F8A3E0F91D
:10261000E8FEE9FFECF8EDF97A717B021217A18868
:10262000088909E4F50AF50B8E828F837808121663
:10263000FFECF8EDF97A717B021217A18A088B0979
:10264000740578081218198E828F83A3A3A3A3E5BB
:1026500008F0A3E509F07F080219B4C082C083E93D
:10266000906000F0D083D08222C0E074F21219F49E
:10267000A2AFE433FED2AFC2C0E5D1A2E4500675EA
:10268000D10F1212A2EEA2E092AF7F01021A53C044
:10269000E074F21219F4A2AFE433FED2AFE589A2DE
:1026A000E150031211FA758900C2C5EEA2E092AFA3
:1026B0007F01021A53C0E074F21219F4A2AFE4339E
:1026C000FED2AFE58BA2E050031211FA758B00C267
:1026D000E880D8C0E0C0D0E8C0E0E9C0E0A9A8D256
:1026E000AFC2C7E9A2E7E433F8E9A2E792AFD0E0CE
:1026F000F9D0E0F8D0D0D0E032C0E0C0D0E8C0E0FF
:10270000E9C0E0EAC0E0C082C083A2AFE433FAD2FD
:10271000AF9009DCE0F8A3E0687008539AFBA3745B
:10272000018022C2E99009DCE0F8740128F0745CB1
:1027300028F582E43409F583E0F5C19009DCE0C3B3
:1027400094804002E4F0EAA2E092AFD083D082D03D
:10275000E0FAD0E0F9D0E0F8D0D0D0E032C2AF0259
:0327600000002254
:10276400FFFFFFFFFFFFFFFFC082C083E9901797C1
:10277400F0D083D08202011F74F612189CE99002F3
:10278400E8F0900348E0F50875090074027808122F
:102794001819AA08AB091213989002E912312F9064
:1027A40002E912351C606F900348E075F003A4FA47
:1027B400ABF012139890030612312F9003061235D2
:1027C4001C700B9002E91234ED12139E80489003A2
:1027D400061244817AFF7BFF12116A7A0080198AFB
:1027E4000875090074027808121819123F2974FF39
:1027F40012292FE4F0A3F00A900348E0F8EAC39802
:1028040040DD79051208469002E8E0F91207327AB1
:10281400D07B08120AC2023FCC74F412189C8A08B6
:102824008B09EB548060479002E8E0F912130E8A9A
:102834000A8B0BAE0AAF0BEE4F602A8E828F83E0B9
:1028440064B0701A120858E960148E828F83A3A3AF
:10285400A3A3E0F9EE2405FAE43FFB120828EEFAFC
:10286400EFFB1212FCAA08E5096480FB80047A00DD
:102874007B00022A7F74F212189C74FB12182CEA53
:10288400FEEBFFEE4F60457403121878EEF0A3EFF1
:10289400F0851882851983ECF0A3EDF07402121808
:1028A40078E9F0AA18AB1912072CE9F508707574C9
:1028B40013121878E0F50AA3E0F50BE50A450B605E
:1028C400638E828F83122EB8EE4F700575080280D6
:1028D400537A067B001213988A0C8B0DA80CA90D51
:1028E400E8497005750813803B88828983E41229BE
:1028F4002FEEF0A3EF122A4BE50AF0A3E50BF090BC
:1029040002EC122A449002EC6017E0FCA3E080037E
:10291400EAFCEBFD8C828D83122A4470F38C828D49
:1029240083123B44A9087405024701F0A3124463CF
:10293400A32274F212189C8908890C750D00740383
:10294400780C121819850C0A850D0B9002EBF09087
:1029540002E912394F122A42602E12139E79008026
:102964001D890C750D007402780C1218199002E977
:10297400123DE88882F583A3A3E4F0A3F009900351
:1029840048E0F8E9C39840D9900348E0FA850AF092
:10299400A4CAA8F0850BF0A428FB1213988A0C8B08
:1029A4000DAE0CAF0DEE4F7003022A38900348E0D1
:1029B400FC850AF0A4CCA8F0850BF0A428FD7900CE
:1029C4001212E47C0080318D0C750D007403780CB8
:1029D4001218198A828B83122A3D88828983E4F033
:1029E400122A4AA3A3F0A3F00DEDC3950840D8EE34
:1029F400250AFEEF350BFF0C900348E0F8ECC39872
:102A040050288C0C750D007402780C121819900261
:102A1400E9122A3DE82402500109FAE9FB8A828B73
:102A240083EEF0A3EFF07D0080BFE5089002EBF0A9
:102A3400790080027913024704123DECF922A3A322
:102A44001234F1EA4B22A3124463A3A3A32274F425
:102A540012189C7900EAA2E0501F75080A750982D1
:102A64007808121AAF79107C047D007A997B1712CA
:102A740008407402121842E9F980007F0402196EBA
:102A8400C082C0839002EC12351C601C888289834A
:102A9400A3A3E06A7003A3E06B8882898370E8A330
:102AA400A3A3A31234ED80047A007B00022775747B
:102AB400F212189C74FD12182CEAFEEBFF851882A2
:102AC400851983E4F0A3F074021218787401F012EB
:102AD400351970141209FC1213989002EF12312F59
:102AE4001235197003022C4512322FEE2404F50A14
:102AF400E43FF50B850A82F583E024FE603C24FC68
:102B0400607424FE607E24FE7003022B9524FE7004
:102B140003022BA224FE7003022BAF24FE700302D7
:102B24002BBC24FE7003022BC924FC7003022BEA85
:102B340024FE7003022C02022C3E1209FC9002F1C6
:102B4400EAF0A3EB122C51120474E96003022C3E48
:102B54009002F1121AC68E828F83A3A3A3A3A31299
:102B640044818508828509831234ED1208107402A9
:102B7400121842022C3EAC18AD19EEFAEFFB120803
:102B84005E022C0DAC18AD19EEFAEFFB120864804E
:102B940078AC18AD19EEFAEFFB12086A806BAC182A
:102BA400AD19EEFAEFFB120870805EAC18AD19EEA9
:102BB400FAEFFB1208768051AC18AD19EEFAEFFB70
:102BC40012087C80447402121882880C890D780CD7
:102BD400121AAF7402121892EEFAEFFB1208827402
:102BE400021218428023AC18AD19EEFAEFFB12085A
:102BF40088E9F870167402121878E4F0803CAC1876
:102C0400AD19EEFAEFFB12088EE9F8E8602C8E821B
:102C14008F83A3E064146022850A82850B83E0908D
:102C240002F1F08518828519831234ED9002F212B4
:102C3400312FE8A3122C5112046EEEFAEFFB1207A7
:102C4400E67402121878E0F97403024701F07CF18B
:102C54007D028508828509831234F12274E81218F2
:102C64009C74FA12182C7404121878ECF0A3EDF08A
:102C74008A128B13EA2405F50EE43513F50FEA24C2
:102C840002F510E43513F511851082F5831234ED45
:102C94001205648A0A8B0B7508007C037D00790099
:102CA4007AF17B021212E4E50E2402F516E4350FE4
:102CB400F5177402121882880C890D780C121AAF59
:102CC400850E82850F83A3A3A3A3E0F50C750D00E5
:102CD400780C121AAFE50E2405F50CE4350FF50D4A
:102CE400780C121AAF8516828517831237F41207EF
:102CF4004A74061218428A0C8B0DE50C450D7003BC
:102D0400022E818020851882851983E08882898338
:102D1400F00508851882851983A3E0C0E0122EC24D
:102D2400D0E0F00508E50A24FBFAE50B34FFFBC309
:102D3400E5089AE49B4003022E817E007F00851201
:102D440082851383A3A3A3A3E0F5097809121AB318
:102D5400E4F514F5157814121AAF7514EE7515020E
:102D64007814121AAF9002EF121AC6740912187866
:102D7400121AC6E50A24F9F9AC0CAD0D851082854A
:102D840011831234ED1208B87409121842E9600371
:102D9400022E22850E82850F83A3A3A3A3A3A3A33C
:102DA400E0F89002EEE0687075E0F5148E15781482
:102DB400121AAF12447E850E82850F83A3A3A3A3A8
:102DC400A3A3A3A31234ED1212DE7402121842E973
:102DD400604C9002F212351C703BE4F51478141226
:102DE4001AAF7CFF7DFF7907851082851183123429
:102DF400ED12082274021218421235227017850E41
:102E040082850F8312461B7404121878123EDC125A
:102E14003825022EB5850C82850D83122EB8A8188C
:102E2400A919881489157814121AAF740412187821
:102E3400121AC68516828517831231251207567415
:102E4400041218428A0C8B0DEE4F7003022CFE12F2
:102E54002EC2EE122ECD1237DBEF122ECDF8A3E0E8
:102E64003400F9E50C450D6003022D09888289833D
:102E740074FFF00508122EC274FFF00508E508601F
:102E84001A1313543F123135120480E96009900279
:102E9400F21234ED12135679008016850E82850FD6
:102EA4008312461B7404121878123EDC123B4479D8
:102EB4000A0237AEA3A3A3A3E0FEA3E0FF22A8085F
:102EC4009002F2E0281237DB22F00508089002F2A3
:102ED400E0282274E812189C74FA12182C74021256
:102EE400187812312F7404121878ECF0A3EDF074F2
:102EF40002121878E024051237C4E0F50CA3E0F5BB
:102F04000D7402121878E02402F510A3E03400F5E1
:102F140011851082F5831234ED120564750800756D
:102F24000900EA24FCFEEB34FFFF8008050CE50CE5
:102F34007002050DA808C3EE98EF94005003023008
:102F4400E1A818A919880E890F780E121AAF8514F2
:102F540082851583A3A3A3A3124485121AAFE51493
:102F64002405F50EE43515F50F780E121AAF851405
:102F74008285158312312312074A74061218428A75
:102F84000E8B0FEA450F70030230E1EA2404F516B4
:102F9400E4350FF517851682F583E0F50CA3E0F50B
:102FA4000D8518828519831244818A828B83A3A399
:102FB400A3E0F98510828511831234ED120738E9F4
:102FC400F50960030230E174021218781237EBF548
:102FD400097809121AB3E4F512F5137812121AAF2C
:102FE4007512EE7513027812121AAF9002EF121ACC
:102FF400C67407121878121AC6EEF9AC0EAD0F8516
:1030040010828511831234ED1208B8740912184223
:10301400E9F50960030230E1E508703FE4F50EF5D7
:103024000F780E121AAF7CFF7DFF79098510828517
:1030340011831234ED12082274021218421238114C
:10304400700D740412187812311879110231159028
:1030540002EEE024029002F2F080149002F2E0FA10
:103064009002EEE0790024025001096A497072A8C6
:10307400089002EEE0FAE82AFAE43400FBEE9AEF54
:103084009B405A851682851783E0C0E09002F312B4
:103094002EC7D0E0F00508851682851783A3E0C00B
:1030A400E0089002F3122EC7D0E0F005089002EE7B
:1030B400124485121AAF12447EA8081237B81212AD
:1030C400CC74021218429002EEE02508F50874FF51
:1030D400650C700474FF650D6003022F30E5086011
:1030E4001F9002F2E0F5F0E50884123135120486EF
:1030F400E960099002F31234ED121356790080113D
:10310400E509700375090A7404121878123118A9B4
:10311400090237AE123953E50CF0A3E50DF022A3F2
:10312400A3124710AA0CAB0D22A3A3EAF0A3EBF061
:10313400229002F1F07CF17D0285108285118312C8
:1031440034F12274EC12189C74FC12182C123C54A6
:1031540074021218921234E71207508A0C8B0DEA8B
:10316400450D700302321F12322FA818A9198810B6
:1031740089117810121AAF7CFF7DFF790B850882C4
:103184008509831234ED1208227402121842123394
:1031940025700C850A82850B8312382202322C8E0C
:1031A400828F83A3A3A3A3E0F5127812121AB3E4C7
:1031B400F512F5137812121AAF7512F1751302781D
:1031C40012121AAF7810121AAF7409121878121A60
:1031D400C67409121878E0F9AC0CAD0D8508828527
:1031E40009831234ED1208B87409121842E9FE700A
:1031F400157CF17D028508828509831234ED120461
:103204008CE97009802074166E70027E009002F2C0
:103214001234ED121356EE7004800B7E01850A827F
:10322400850B83123B41EEF9023B56EE2402F5086E
:10323400E43FF5092274EC12189C74FC12182CEA71
:10324400FEEBFF8C0E8D0FEE2405F508E43FF50927
:1032540074021218928508828509831234ED1207CC
:10326400508A0C8B0DEA450D7003023315EE2402CF
:10327400F50AE43FF50BA818A919881089117810EC
:10328400121AAF7CFF7DFF790D1234E71208227405
:1032940002121842123325700B85088285098312A5
:1032A4003822807A8E828F83A3A3A3A3E0F51278B9
:1032B40012121AB3850882850983A3A3121AC6754C
:1032C40012F17513027812121AAF7810121AAF7431
:1032D40009121878121AC67409121878E0F912340F
:1032E400E31208B87409121842E9FE700F7CF17DEC
:1032F400021234E7120492E97009802074166E7089
:10330400027E009002F21234ED121356EE70048025
:103314000B7E01850882850983123B41EEF9023B4D
:103324005612352CF510A3E0F511EA45112274E884
:1033340012189C74FE12182C8A168B178C148D1577
:10334400EA2405F50CE43517F50DEA2402F50EE43C
:103354003517F50F850E82F5831234ED1205648A54
:10336400088B09750B007C037D0079007AF17B02E0
:103374001212E4750A00E50814F5100424FFF50898
:10338400E50934FFF50980549002F1E0FA9002EE69
:10339400E0F8EA28F8E43400F9E50898E5099950DA
:1033A4000D9002F1E0F8E510C3989002EEF0E0F51C
:1033B400127513007812121AAF12447E9002F2E0D2
:1033C4002AFAA3E03400FB1212CC740212184290C1
:1033D40002EEE0F89002F1E028F0050A850C8285FF
:1033E4000D83A3A3123DF840030234C89002F1E018
:1033F400C39508E4950940030234C8AE0AEE2EFED4
:10340400E433FF123507AC18AD19124499E439FBC3
:103414001207508A128B13AC12AD13EC4D701B754E
:103424000B011234F7123B459002F2122A44600356
:10343400121356A90B74020237B0851682851783BE
:10344400A3A3A3A3E0F50B780B121AB3E4F512F5CA
:10345400137812121AAF7512EE7513027812121A3B
:10346400AF9002EF121AC67407121878121AC6A97E
:1034740010850E82850F831234ED1208B874091278
:103484001842E9F50B709B9002F212351C6003029E
:10349400338CE4F512F5137812121AAF7CFF7DFF1A
:1034A400790F850E82850F831234ED12082274027F
:1034B400121842123522600302338C1234F7123888
:1034C400260234397CF17D02850E82850F83123405
:1034D400ED120498E9600302342C7900023439AC0B
:1034E4000CAD0D850A82850B831234F122E0FAA318
:1034F400E0FB22123507E0FAA3E0F9EA851482859D
:10350400158322850C82850D83E02EF8A3E03FF914
:1035140088828983229002EF12461FE849221235DD
:103524002CF8A3E0F9E849229002F2EAF0A3EBF0C8
:103534009002F2E02274E812189C74FA12182C74A7
:103544000412187812312F8C168D177404121878FF
:10355400E02405F50EA3E03400F50F740412187886
:10356400E024021237C41234ED1205648A0A8B0B6C
:103574007F007E00A818A919880889097808121AFA
:10358400AF850E82850F83A3A3A3A3E0F5088E095C
:103594007808121AAFE50E2405F508E4350FF5098D
:1035A4007808121AAF850E82850F83A3A31237F40D
:1035B40012074A74061218428A0C8B0D802912379E
:1035C400E5F00F1237E5F00F9002EE123B30121ABD
:1035D400AF12447EEFF81237B81212CC74021218EC
:1035E400429002EEE02FFFE50C450D7003023674A5
:1035F400851882851983123C66A3A3A3E0F9851478
:10360400828515831234ED120738E9FEE50C240493
:10361400F510E4350DF511EE70507404121878129B
:1036240037EBF5087808121AB3E4F508F5097808B9
:10363400121AAF7508EE7509027808121AAF9002D3
:10364400EF121AC67407121878121AC6E50A24FA79
:10365400F9AC0CAD0D8514828515831234ED120876
:10366400B87409121842E9FE6039123801123B4459
:10367400EF700302379B9002F2E0F5F0EF849002C2
:10368400F1F07CF17D028514828515831234ED12EC
:10369400049EE960099002F31234ED121356790086
:1036A4000237AE8F08EF703BE4F512F5137812126F
:1036B4001AAF7CFF7DFF791185148285158312343E
:1036C400ED120822740212184212381170091238CD
:1036D400011238250237AE9002EEE024049002F283
:1036E400F080359002EEE0F89002F2E0FAE824046B
:1036F400FCE43400FDEC6A4D600302367AE50A24EA
:10370400FAFAE50B34FFFBE50828F8E43400F9EA9B
:1037140098EB99500302367A851082851183E0C0B4
:10372400E09002F3E02FF8A3E034008882F583D020
:10373400E0F00F851082851183A3E0C0E01237D238
:10374400D0E0F00F740212188288088909780812F0
:103754001AAF7402121878121AC6850E82850F8366
:1037640012312312075674041218428A0C8B0DEA84
:10377400450D70030235C27402121878E0C0E012DD
:1037840037D2D0E0F00F7402121878A3E0C0E01230
:1037940037D2D0E00235CAEE70027E0A850E8285E9
:1037A4000F83123807123B44EEF974061218427F55
:1037B4001002196E9002F3E028FAA3E03400FB2211
:1037C400F514A3E03400F515851482F5832212372D
:1037D400D6229002F3E02FFAA3E034008A82F58324
:1037E400221237D674FF22123953A3A3A3A3E022D3
:1037F400124710850E82850F831234F122851082C0
:1038040085118312461F851682851783229002F341
:10381400EAF0A3EBF09002F312461FE84922123BB0
:103824004AE8F0A3E9F079112274EA12189C74FEB4
:1038340012182C8A088B098C128D13EA2405FEE4D5
:103844003509FFAC18AD198E828F831234ED12073F
:10385400508A0C8B0DEE2406F50EE43FF50FEA4575
:103864000D7003023925E5082402F50AE43509F54B
:103874000B8A828B83A3A3A3E0A2E5502885188238
:103884008519831234ED1208AC8A108B11EA4511A4
:10389400602079121234E385108285118312189AFC
:1038A400E9F50C707F850E82850F83E060097952FB
:1038B4008011750C0E806D850882850983A3A3A3EE
:1038C400A3E0F9E4F508F5097808121AAF8E828F9F
:1038D40083A3A3E0F5087808121AAF8E828F83A31E
:1038E400A3A3121AC68E828F831244811234E71264
:1038F40008BE7406121842E9F50C7011850E828513
:103904000F83E0702D1234E71204A4802574166529
:103914000C7011750C00741812187812394FE48069
:1039240010750C01124617851282851383E8F0A3E3
:10393400E9F0850E82850F83E0600479008002A996
:103944000C74021218427F0E02196E12395322E0CF
:10395400F8A3E0F58388822274EC12189C74F712A1
:10396400182C8A0A8B0B8C108D11EA2405FEE43581
:103974000BFF750C00AC18AD198E828F831234EDD9
:103984001207508A088B09EA45097003023B1BE5BC
:103994000A2402F50A5002050B8A828B83A3A3A38F
:1039A400E0A2E5502F8518828519831234ED1208A0
:1039B400AC8A0C8B0DEA450D604F7912AC08AD0949
:1039C4001234E7850C82850D8312189AE9F50C6090
:1039D40003023B1E850A82850B83E0F508A3E0F50C
:1039E40009AA08FB1208A0EA4B70197AFF7BFF12A0
:1039F40008A0EA4B7003023B118A828B83E508F02E
:103A0400A3E509F07508008008750C0E023B1E053D
:103A1400089002EBE0F8E508C3984003023B1185E7
:103A2400080E750F007403780E1218198A828B839E
:103A3400A3A3E0250EF8A3E0350F123EE570D08E67
:103A4400828F83123B3912312F8E828F83A3A3126C
:103A54003B3912312DEE2404F508E43FF5098508BD
:103A640082F583E088828983A3A3A3A3F0A3E4F06F
:103A7400EE2405F50EE43FF50F850E82F583123B27
:103A840039A3A3A3A312312D75120775130078125D
:103A9400121AAFEEFCEFFD740412188A1212CC74E1
:103AA40002121842E4F5127812121AAF85088285C0
:103AB4000983E0FC7D0079171234E71208227402AE
:103AC400121842740712187812312F7407121878DA
:103AD400E0FA4B603D850882850983123B30121A57
:103AE400AF850E82850F831244811212CC740212A8
:103AF400184274021218921234E71204AAE96026DA
:103B040074071218781234ED1213568019750C09C3
:103B14008008750C118003750C01124617851082FC
:103B2400851183123B44A90C74098028E0F50875BB
:103B340009007808221234F18882898322123B4AD0
:103B4400E8F0A3E9F022E0F8A3E0F9850E82850FFE
:103B5400832274041218427F0C02196E74EC12183A
:103B64009C123C54751000EE2402F50CE43FF50D54
:103B7400850C82F5831234ED1208A08A088B09EAB9
:103B840045097003023C38850A82850B83E0640191
:103B94006003023C2DAC08AD09AA0AAB0B120894D1
:103BA400E9606E850882850983122EBAEE2406F533
:103BB4000AE43FF50B8E828F83A3A3121AC68E826A
:103BC4008F83A3A3A3A3121AC6850A82850B83122B
:103BD4001AC679188E828F83123C661234ED12084D
:103BE400BE7406121842E9F8741668700B850A82CE
:103BF400850B83E4F0A38014E860128E828F831215
:103C040034ED850E82850F83EAF0A3EBF0881080F3
:103C140018780E121AAFAC08AD09EEFAEFFB1208D1
:103C24009A7402121842E9F510AA08AB091208A600
:103C3400E510700E850C82850D831234ED1204B0EC
:103C44008009741665107003751000A910023B5B9F
:103C5400EAFEEBFF8C0E8D0FEE2405F50AE43FF52A
:103C64000B22124710850C82850D832274EA1218E8
:103C74009C7508007509007E007F00750A00EC241D
:103C840002F510E43DF5118035EC65087003ED652F
:103C9400096003023D2588828983A3A3E06A700337
:103CA400A3E06B707C88828983A3A3A3A312461B21
:103CB400EE28FEEF39FFEA28FAEB39FB050A123D3C
:103CC400F5503A850A0C750D007403780C12181916
:103CD400851082851183123DE8123EE5601FE508D8
:103CE400450970A58C088D0988828983122EB888AD
:103CF400828983A3A3E02EFAA3E03F80BEE50AC332
:103D040094025003023DE3750800750900EE4F600C
:103D140010EEFAEFFB1213508A0E8B0FEA450F7068
:103D2400057900023DE5750B00023DB8850B0C7565
:103D34000D007403780C121819851082851183E024
:103D4400250CF50CA3E0350DF50DE50C2406F51452
:103D5400E4350DF515851482F583123EEA6042E5DB
:103D64000C2404F512E4350DF513851282F5831243
:103D74001AC6E50E2508FAE50F3509FB1212CC74B4
:103D840002121842851282851383E02508F508A3E0
:103D9400E03509F5098514828515831234ED121373
:103DA40056E50B600D7C087D007900AA0CAB0D1262
:103DB40012E4050BE50BC3950A5003023D30851050
:103DC4008285118312461B88828983A3A3A3A3A39C
:103DD400A3E50EF0A3E50F122A4BEEF0A3EFF07962
:103DE4000102394A123DEC22E0250CF8A3E0350D1E
:103DF400229002EBE0F8E50AC3982274F012189CB2
:103E04008A0E8B0F8C0A8D0B750D00750C0080507B
:103E14007916EE2406F508E43FF5098E828F83A314
:103E2400A3121AC68E828F83A3A3A3A3121AC685D4
:103E34000882850983121AC6850E82850F83A3A37F
:103E44001234ED1208BE7406121842E9F50D741608
:103E5400650D706C850882850983E4F0A3F0050C78
:103E64009002EBE0F8E50CC3985066AA0C8A08753A
:103E7400090074037808121819850A82850B83A334
:103E8400A3123F34E8FEE9FF8E828F83123EEA607C
:103E940040EA2401F508E43400F5099002EBE065FA
:103EA400087002E509601488828983A3A3A3A3A3ED
:103EB400A3A3A312351C6003023E147918023E1614
:103EC400E9609B1246177410121878123EDC123BFC
:103ED40044A90D7F0802196EE0FAA3E0F5838A82F3
:103EE40022F988828983124710EC4D2274F6121845
:103EF4009C7C0080010C900348E0F8ECC398501EB1
:103F04008C0875090074027808121819123F29E008
:103F14006A7003A3E06B70DDE8FAE9FB80047A00C1
:103F24007B00023FCC9002E9123F348882898322CD
:103F3400E02508F8A3E03509F92274F212189C8AE6
:103F4400088B09750A0080278E828F83A3A3A3A3FD
:103F5400122A4260031213567C087D007900EEFA9F
:103F6400EFFB1212E48E828F83E4F0A3F0050A12B1
:103F74003DF55027850A0C750D007403780C121852
:103F840019850882850983A3A3E0250CFEA3E035E7
:103F94000DFF8E828F8312351C70AD8508828509D2
:103FA4008374FFF0A3F002470474F612189C1208FD
:103FB400528A828B83E582458370067A007B008077
:103FC40007A3A3A3A31234ED7F0202196E74F412A3
:103FD400189C89088C828D83E06402703C1245BA77
:103FE400FEA3E0F9EEF8740268700374296970297D
:103FF400750A02750B00780A121AAF741012187839
:10400400121AC67410121878121AC6A90812117C52
:104014007406121842E9F980027901022A7F74E8D1
:1040240012189C74FB12182CE9851882851983F0E8
:104034008A168B17ECFEEDFF7510008E828F83A31A
:10404400A3A3E0A2E4502D741D1218781234ED12CB
:1040540008AC8A828B83E5824583700302445979D4
:104064000AEEFCEFFDAA16AB1712189AE9F51060D8
:104074000302445C741F121878E0F508A3E0F50904
:104084007421121878E0F50AA3E0F50B74231218D2
:1040940078E0F50EA3E0F50F8E828F83E064026072
:1040A400030243FAA312461B850882850983A3856C
:1040B4008212858313EE2406F50CE43FF50D888205
:1040C4008983124499F514E439F5157814121B39CF
:1040D400010000280128FC4007000228C1410328F0
:1040E4002F410029F04201291B430229BC42032924
:1040F400F04204299443FA43E50E450F600302435A
:10410400F5850C82850D8312461BE8FAE9FB8A8249
:104114008B83E0850A82850B831244A4121AAF8A2A
:10412400828B83A3E0FCA3E002437EE50E450F608F
:10413400030243F5850A82850B837401F012448ED1
:10414400850882850983F07C007D008E828F83A39D
:10415400A3A3A3E02401FAA3E03400FB120750EA6E
:104164004B60408A828B83E02402F8850A82850BA7
:1041740083E028F0EA2404F8E43BF988828983E0A8
:104184008512828513831244B21244A4121AAF8A90
:10419400828B83A3124481E5082403FAE43509FBE6
:1041A400024383850A82850B83E02404F07C047D2A
:1041B400007900AA12AB131212E402445CE50E4526
:1041C4000F60030243F512448EFEA3E0FF850A82CA
:1041D400850B837404F0EE850882850983F0EF85EE
:1041E4001282851383F07403121892EEFAEFFB1215
:1041F40007508A0C8B0DEA450D700302429F8A8298
:104204008B83A3A3122EB87401121882880E890F0F
:10421400780E121AAF7405121878121AC67CFF7D34
:10422400FF12075674041218428B0FEA450F7033BD
:10423400850C82850D83124485121AAF850C828504
:104244000D83A3121AC67C027D007ADE7B821205DE
:10425400527404121842E9700A740112187874FF37
:10426400F0A3F08E828F83E064027039750C0275BE
:104274000D00780C121AAF8E828F83A3124481E54D
:10428400082404FAE43509FB1212CC740212184211
:10429400850A82850B83E024028009740112187850
:1042A400EEF0A3EFF0740112187812447374011243
:1042B400187812446A0243EFE50E450F6003024387
:1042C400F5850C82850D83124709AA16AB171211C6
:1042D40082850A82850B837402F0850882850983AE
:1042E400EAF0851282851383EB0243F2E50E450F53
:1042F40060030243F512448EF8A3E0F9850A82852F
:104304000B837402F0E8850882850983F0E985123D
:10431400828513830243F2850C82850D831234ED6A
:104324001212C6EAFAF8C3950EE4950F405CE865EC
:104334000E450F70047A008021851882851983E068
:10434400FCE50E2CFCE4350FFDC3EC98ED94005015
:1043540003E08005E50ECAC39AFAEA850A82850B52
:1043640083F08A0A750B00780A121AAF850C8285CD
:104374000D83E0250EFCA3E0350FFDAA08AB09125E
:1043840012CC740212184202445C75100702445C99
:10439400E50E450F705B850C82850D8312461B85E7
:1043A4000A82850B837407F08882898312446B1216
:1043B4004463E0851282851383F0E82402FAE43929
:1043C400FB8A828B831244738A828B8312446AA38E
:1043D400A3122A4A124478F0E82405F85001098807
:1043E400828983124478A31244B2A3A3A3A3F080C6
:1043F4006775100B8062741D1218781234ED120860
:10440400528A828B83E5824583604A12461B880C5C
:10441400890DE8450D603E7425121878E0F5107892
:1044240010121AB3780E121AAF780A121AAF78085B
:10443400121AAF7407121878E0F9EEFCEFFDAA1611
:10444400AB17850C82850D8312189A7407121842D3
:10445400E9F510800375100EA91074050237B0F049
:1044640088828983A322A3E0850882850983221296
:1044740044B9F0221244B9A3A3229002EF124710C8
:1044840022E0F50E750F00780E22850C82850D83CF
:10449400123953E022E0FAA3E0F8E4C8F9EA28224A
:1044A400F08A828B83E0F50A750B00780A221244A5
:1044B400631244B922E0850882850983A3A3227488
:1044C400EE12189C74FE12182C8A088B09ECFEED6F
:1044D400FF890AAC18AD19EEFAEFFB1207508A0CEB
:1044E4008B0DEA450D70030245AB8518828519834F
:1044F4001234ED1208528A828B83E582458370035D
:104504000245A6A3A312461B880E890FE8450F7027
:10451400030245A67414121878E0F510A3E0F5110F
:10452400E50AF50B780B121AB37419121878121ADB
:10453400C67810121AAF741B121878E0F9AC0CADDF
:104544000DAA08AB09850E82850F8312189A74058B
:10455400121842E9F50B705274FE650A604C850C22
:1045640082850D83E0640270411245BAFAA3E0F932
:10457400EAF87402687003742969702E85108285C4
:104584001183124499F50CE439F50D780C121AAF25
:10459400EEFCEFFDAA08AB091208D6740212184209
:1045A4008008750B0E8003750B01A90B7402121899
:1045B400427F0A02196EA312461F88828983E02271
:1045C40074F612189C74FE12182C740C12187812BB
:1045D400461BE8851882851983F07401121878E95E
:1045E400F0E4F508F5097808121AAF75080278089E
:1045F400121AAF7404121882880889097808121AEA
:10460400AF79FE1208BE74061218427402121842E0
:10461400023FCC8E828F8312461F22E0F8A3E0F97A
:104624002274F712189CEAFEEBFF89089003061225
:104634004481121182EA5402600BA908EEFAEFFBDE
:10464400120744800279017F0102196E74F2121874
:104654009C74FE12182CEAFEEBFF890A7401650AA9
:1046640060147402650A60030246FF7901120AE0CD
:10467400E960030246FFEEFAEFFB1208A0EA4B6082
:10468400031208A6A818A919880889097808121A13
:10469400AF7508027509007808121AAF7508C2755B
:1046A40009827808121AAF7CFF7DFF7A017B001221
:1046B400074A74061218428038850882850983A344
:1046C400A3A3A3A3A3124709EEFAEFFB12116AE412
:1046D400F50CF50D780C121AAF7402121878121A30
:1046E400C67CFF7DFFAA08AB091207567404121892
:1046F400428A088B09E508450970BE740212184203
:104704007F0602196E12395312471022E0FCA3E00F
:10471400FD2274F412189C8A088B09ECFEEDFF90BC
:104724001797E0F4604B7A097B001212F6EA4B60AB
:10473400408A828B8374B1F0A3E4124778F08A82B2
:104744008B83A3A3E508F0A3E509124778A3EEF051
:10475400A3EFF0740C12187812461B8A828B83A381
:10476400A3A3A3A3A3A3123B44901797E0F91213A6
:1047740002022A7FF08A828B83A3A3A3A32274F06C
:1047840012189C74FA12182C8909ECFEEDFF7508B6
:10479400008A0A8B0B780A121AF3000410A849C580
:1047A40047E347FD47154833484B486E4886489AC7
:1047B40048C4483F49504967498249A849A849DA49
:1047C400487401650960030249A38E828F83E0F86F
:1047D400C3940340030249A3E890188302497F74F9
:1047E40002650960030249A38E828F8312510690E9
:1047F4001884E8F0A3E902497F74016509600302A3
:1048040049A31249D040030249A3E8900749024949
:104814007F7401650960030249A38E828F83E0F8E7
:10482400C3940540030249A3E890074A02497F74F0
:1048340001650960030249A31249D040030249A358
:10484400E890074B02497F7410650960030249A38D
:10485400750A10750B00780A121AAF7A4C7B07128E
:1048640012CC74021218420249C97401650960032A
:104874000249A31249D040030249A3E890075C020D
:10488400497F7401650960030249A38E828F83E026
:1048940090188702497F7404650960030249A38E56
:1048A400828F83780C1216F0908298780C1215235C
:1048B40050030249A390075E780C1216FF0249C9FF
:1048C400E960030249A31206EAE9700512112E8079
:1048D400559007F180617407650960030249A37567
:1048E4000A06750B00780A121AAF8E828F83A3AC66
:1048F40082AD83740212188A1212D2740212184200
:104904007C007D00AA18AB198E828F83E0F9121007
:10491400DAE9FEC3940A40030249C61206EAE970C2
:104924000CEEF91211347950121410806D74F22EB9
:10493400F582E43407F583740180407401650970DD
:104944005E1249D05059E890075D802F74016509C3
:10495400704D8E828F83E0F8C3940A5042E8901819
:104964008680187401650970368E828F83E0F8742E
:10497400F928C3940A5028E8901888F080477401F5
:104984006509701B9007F0E0F88E828F83E0900732
:10499400F0F0E87030E06401702B1211228026756B
:1049A40008188021C3EA9427EB940050157402651B
:1049B40009700F8E828F83125BE612056AE9F5088F
:1049C4008003750802A9087406024CF48E828F8352
:1049D400E0F8C3940222A90880031218427F04025B
:1049E400196E74F012189C74B112182C8C0A8D0B69
:1049F40090821C7420121892740612173F742012AD
:104A040018921210DAE9FF745F121878E0F509EFD2
:104A1400C3940A4003024B6875F006EFA4F50874CA
:104A2400411218927A0E74202508F912140AE970BA
:104A340009744D121878E0FE80027E00901883E01D
:104A440064027005750E018003750E007408650913
:104A540070047422800274212508F50D7C1B7D00EE
:104A64007900742612188A1212E474261218927AA3
:104A74001BA90D12140AE9702D7440121878E02451
:104A8400F9C3940A5020E50EF50D780D121AB3748B
:104A940027121892EEA2E0E433F9AA0AAB0B12062D
:104AA4000C74011218427C147D007900740C1218E5
:104AB4008A1212E4740C1218927A1074242508F9DC
:104AC40012140AE970347C1079FF740C12188A12DB
:104AD400134AE97025741C121878AC82AD837A04E9
:104AE40074252508F912140A740C121892EEA2E027
:104AF400E433F9AA0AAB0B1205F4AC18AD197A0C1D
:104B040074702FF912140AE97049AA18AB1912111A
:104B14000A7F00EF75F003A4F8A9F08518828519BF
:104B240083E58228F8E5831252BD12549E601D88E5
:104B3400828983A3A3E0F50E750F00780E121AAFD5
:104B4400AA0AAB0B1208C474021218420FEFC394E2
:104B54000440C0EEA2E1500C900748E0F9AA0AAB69
:104B64000B1208CA740465097028901883E0640263
:104B740070207A0090075CE060027A01900749E0B7
:104B84006004780480027800E84AF9AA0AAB0B12A0
:104B940006C07900744F024CF474F712189C120684
:104BA400EAE9704F9007F1E06401701512112E903C
:104BB40007F1E4F07C0AFDF97AF27B071212E48033
:104BC4002A750800A80874F228FEE43407FF8E82D0
:104BD4008F83E06401700BA9081211348E828F83D5
:104BE400E4F00508E508C3940A40D979501214107A
:104BF4001211220255D574F012189C74F012182C5C
:104C0400EAFEEBFF8C088D09750A0AE9600C146052
:104C14000914603B14607D024CF012111CE9F50A82
:104C2400C3940A4003024CF0E50845097003024CA2
:104C3400F0750C06750D00780C121AAFEEFCEFFD42
:104C4400AA08AB091212CC7402121842024CF07575
:104C54000C00750E06750F00780E121AAFEEFCEFFD
:104C6400FDE50C75F00EA4F8A9F0746A28FA74072F
:104C740039FB1212DE7402121842E9700B050CE5BE
:104C84000CC3940A506680CA850C0AE50AC3940AC8
:104C9400505A8049750C00AC18AD197A1075F0069D
:104CA400E50CA42423F912140AE9701C7C1079FF82
:104CB400AA18AB1912134AE9700EEEFCEFFDAA18FC
:104CC400AB191205D0E9600B050CE50CC3940A502E
:104CD4001B80C4850C0AE50AC3940A500FE50845F5
:104CE400096009AA08AB09A90A121116A90A7410C5
:104CF4001218427F0802196E74F412189C890975FF
:104D0400081574FF6A700374FF6B70277E00AC098A
:104D14007A027B00EEF91210F8E960037508000EC0
:104D2400EEC3940A40E8E50960537A467B11120BFE
:104D340004804A120AD48A0A8B0BAE0AAF0BEE4FD8
:104D440060387C007D00EE2405FAE43FFB8E828F00
:104D540083A3A3A3A3E0F91210DAE9F9C3940A50D8
:104D64000CAC097A027B001210F8750800E50960A2
:104D74000CEEFAEFFB12114680037508140249DAAF
:104D840074F212189CECFEEDFF750815740E1218DF
:104D940078E0F50AA3E0F50B74FF6A700374FF6B07
:104DA4007021750900AC0AAD0BEEFAEFFBA90912EC
:104DB40010FEE960037508000509E509C3940A506B
:104DC4003F80E2120AD48A828B83E5824583602D78
:104DD4007C007D00E5822405FAE43583FBA3A3A3CC
:104DE400A3E0F91210DAE9F9C3940A5013AC0AAD3E
:104DF4000BEEFAEFFB1210FE750800800375081421
:104E0400A9087F0602196EC082C083900762EAF087
:104E1400A3EBF0900748E0FC7D007A267B001205A6
:104E24006A900748E0F912082E0258EF74EE12183F
:104E34009C74EC12182C8A088B09EA240CF510E4F3
:104E44003509F5118A828B83A385820C85830DEA4B
:104E54002405F50EE43509F50FEA2409F50AE435CD
:104E640009F50BEA2403FEE43509FF8A828B83A348
:104E7400A3E024FA70030250F424FD7003025014DA
:104E8400147003024F0E14601024FD7003024FF7D8
:104E940014700302504C0250FA125BEC6044E0F5CB
:104EA400838882125106880C890DE8450D6033858C
:104EB4001082851183E0F50E780E121AB3EA240BE2
:104EC400F582E43509F583E0F9125BE00A0A0AEF9A
:104ED400FB850C82850D8312189A74011218420204
:104EE40050FA850A82850B83121AC690075E121740
:104EF4000E1206067402121842E970030250FA797F
:104F040001850A82850B830250C4750A00850C82D0
:104F1400850D83E06003024FC4850E82850F83E014
:104F2400A2E04003024FC49007FC125BEF6003024F
:104F34004FC47C0E7D007900AA18AB191212E485C7
:104F440010828511831258BAEA4B6010750A0675EF
:104F54000B00780A121AAFEA2410801B1258B612FA
:104F64000AD4EA4B70030250FA750A06750B0078EE
:104F74000A121AAFEA2405FCE43BFD740212188AF3
:104F84001212CC7402121842850E82850F83E0A29D
:104F9400E25004D2F08002C2F0A2F0E433F8740CC0
:104FA400121878125A6E121110E970117A027B00ED
:104FB400900748E0F912132679000250FC750A158F
:104FC400125BEC70030250FA12511B70030250FA88
:104FD400850C82850D83E0FC790112510C12189A1C
:104FE400E50A70030250FAFC79031258B61258719C
:104FF4000250EF125BEC70030250FA12511B700363
:105004000250FA850C82850D83E0FC79020250EC93
:105014007C007D00EA2404FAE43509FB8E828F8348
:10502400E0F91210DAE9F8C3940A40030250FAE5F1
:1050340008240AFCE43509FD7A0475F006E8A42482
:1050440025F91214040250FA1258B690075DE06074
:1050540007901886E0F9806B901883E07004790556
:105064008061120AD48A0C8B0DA80CA90DE8497032
:10507400030250FAE82404F50CE439F50D8508829E
:10508400850983A3A3A3A3A3A3A3E0A2E050398526
:105094000C82850D83E0F508602E850A82850B83DA
:1050A400A3E054027022740E121892E82405FAE464
:1050B40039FBA9081210DAE9700E79038E828F8306
:1050C4001258BA120600802EAC0EAD0F850C8285E4
:1050D4000D83E0F91258B6121152125BEC601712EC
:1050E400511B60127C00790012510C12189A800630
:1050F4001258B61210D4790174141218427F0A029D
:10510400196EE0F8A3E0F9228E828F83E0FAA3E01F
:10511400FB88828509832212587FF98909E84509A9
:105124002274F512189C74F212182CEAFE8C0A757B
:10513400F006E9A42420F508AC18AD197A0EF9128A
:10514400140AE970467C0679FFAA18AB1912134AAF
:10515400E97038740C1218781258BAEAF8E50A6043
:1051640005EEC8488004EEF4C858F8EA687001EB0C
:105174006015740C121878E8F0A3E4F0AC18AD19BB
:105184007A0EA908121404790180027900740E12AF
:1051940018427F0302196E74F212189C74E61218F6
:1051A4002C890A8A088B09ECFEEDFF740C12189204
:1051B4007A0E75F006E9A42420F912140AE96003B2
:1051C4000252807C0679FF740C12188A12134AE981
:1051D40060030252807470250AF50BAC18AD197A7D
:1051E4000CF912140AE9600302527CAA18AB1912D2
:1051F400110AE5084509701D7C0C7900AA18AB1941
:1052040012134AE970727C0C7D007900AA18AB195C
:105214001212E48051AC18AD19AA08AB091211049A
:105224008A0C8B0DA80CA90DE8497022EE4F604C36
:10523400AC18AD197A007B00121104EAF8EBF9EA14
:105244004B603988828983E508F0A3E509F012529E
:10525400F9FAEE6A7001EF601FEEF04F7008888271
:105264008983E4F0A3F0AA18AB1912110AAC18ADA3
:10527400197A0CA90B121404790180027900741AAA
:10528400121842024E0674F712189C7E00EE75F056
:1052940003A4F8A9F0EC28F8ED1252BDE06A7003FB
:1052A400A3E06B7006E8FAE9FB800B0EEEC39404EE
:1052B40040DB7A007B000255D539F9888289832244
:1052C40074F712189C7C00EC75F003A4F8A9F0EABA
:1052D40028F8EB1252BDE0F4FEA3E0F4FF888289C3
:1052E40083EEF0A3EFF01252F9F4F00CECC3940443
:1052F40040D50255D5E82402F582E439F583E0224D
:1053040074F412189C74F412182CEAFEEBFF8C0847
:105314008D099007FC125BEF704FEE4F700302543F
:105324007DEC4509700302547D12111CE990188923
:10533400F0C3940A4033750B007C0679FFE50B75C6
:10534400F00EA4FAABF074642AFA74073BFB121350
:105354004AE960030253DE050BE50BC3940A40D906
:10536400750A0AE50A901889F0901889E0C3940A2E
:10537400400302547D75F006E0A4FB9007FC125B29
:10538400EF705CEEFCEFFD7A0E74202BF91214041E
:105394007C0C7D0079FFAA18AB191212E4AC18AD8D
:1053A400197A0C901889E02470F9121404750A0E05
:1053B400750B00780A121AAFEEFCEFFD901889E025
:1053C4001255361212CC74021218429007FCE508EA
:1053D400F0A3E509F0790002547F850B0A8084E08C
:1053E400C8240612549860197A1B74212BF91214DC
:1053F400041254842406F582E438F583E4F0A3808F
:10540400D3125484240A12549860107A1B74222BE9
:10541400F9121404125484240A80DB125484240CD8
:1054240012549860107A1074232BF9121404125435
:1054340084240C80C112548D12549860307A1074F4
:10544400242BF912140412548DF582E438F583E008
:105454002410FCA3E03400FD7A0475F0069018894A
:10546400E0A42425F912140412548D80899007F0C5
:10547400E0600312115812114C7901740C0249DED8
:105484009007FCE0F8A3E0C8229007FCE0F8A3E052
:10549400C8240822F582E438F583125BE6EC4D2239
:1054A40074F412189C74F212182CEAFEEBFFE9C390
:1054B400940A5004EE4F700479028034AC18AD198C
:1054C4007A0E75F006E9A42420F912140AE9F50805
:1054D400701C750A06750B00780A121AAF74021252
:1054E4001892EEFAEFFB1212CC7402121842A908B9
:1054F400740E0249DE74F412189CEAFEEBFF750880
:1055040000750A06750B00780A121AAFEEFCEFFD5F
:10551400E5081255361212DE7402121842E96004CC
:10552400A908800B0508E508C3940A40D4790A0247
:1055340049E175F00EA4F8A9F0746428FA740739E7
:10554400FB2274F712189C750800E50875F00EA488
:10555400F8A9F0746428FE740739FFEEFCEFFD7AB5
:105564000E75F006E508A42420F912140AE960294E
:105574007C067D0079FFEEFAEFFB1212E47C067DD7
:105584000079FFEE2CFAE43FFB1212E4EE240CF552
:1055940082E43FF583E4F0A3F00508E508C3940A28
:1055A40040A89007F0E0600312115812114C8021BA
:1055B40074F712189C7E007F007C06EF1255367932
:1055C400FF12134AE970010E0FEFC3940A40EAEE8A
:1055D400F97F0102196E74F712189C7E00EEF9121D
:1055E4001134E9F90EEEC3940A5003E960EF80E147
:1055F40074F312189C74CB12182C8908901889E043
:105604006508701B7A017B00900748E0F912132C9F
:105614007A027B00900748E0F912132C121164758A
:10562400F006E508A4FF74202FFE74271218927A5E
:105634000EEEF912140AE960030256FC7C0679FFA7
:10564400742712188A12134AE960030256FC7C0E6E
:105654007D0079FF742712188A1212E47C1B7D00E6
:1056640079FF740C12188A1212E47C0C7D0079FF05
:10567400AA18AB191212E474271218927A0EEEF9D2
:10568400121404E9FE740C1218927A1B74212FF977
:10569400121404E9F509740C1218927A1B74222F5F
:1056A400F9121404E9F50A740C1218927A1074238E
:1056B4002FF9121404E9F50B740C1218927A107471
:1056C400242FF9121404E9F50C740C1218927A04BC
:1056D40074252FF9121404E9FFAC18AD197A0C746F
:1056E400702508F9121404E9F8E509450A450B4543
:1056F4000C4F48CE4EFE80027E00EEF9743512182F
:10570400427F0502196E74F712189CE9900748F05D
:105714001211220255D574F212189CEAFEEBFF54C2
:105724008070030257D9900748E0F912130E8A08D3
:105734008B09EA450970030257D27A01E50824056A
:10574400F50AE43509F50BE5082404F8E43509F90C
:10575400880C890D8508828B83E0245060361460A0
:105764000624E16058805D88828983E07059850849
:10577400828B83A3A3A3A3A3A3A3121AC6125BE0E1
:105784008508828B83A3A31258BA1210E6740212FE
:105794001842803388828983E0641E700F79008503
:1057A40008828B83A3A31258BA1210E0850C828559
:1057B4000D83E0F9AA0AAB0B120828800AAA081282
:1057C40010F2E9FAEA6007AA08AB091212FCEEFA31
:1057D400EF6480802AEE54026028EE6402FE7C00AE
:1057E4007D007A007B00121110E960047A018002C6
:1057F4007A027B00900748E0F9121326EEFAEFFBD9
:105804008068EEA2E050556401F508EFF5091258DE
:105814008F12115EE96033125BEC60291258871213
:105824005106E8FEE9FFEE4F601B7C007901125837
:105834008F8E828F8312189A7C00790312588F12EC
:10584400587112189A121164800C7A017B00900727
:1058540048E0F9121326AA08AB09800E5404600626
:10586400EE6404FA80047A007B00024E069007621C
:10587400E0F8A312587FF583888222125887E0F853
:10588400A3E022E0F5838882A3A3229007FC125BA5
:10589400D0E0FAA3E0FB227F0202196EC082C0832B
:1058A400900748E0F98A828B83A31258BA1208CA77
:1058B40080398E828F83E0FAA3E0FB22C082C0830A
:1058C40074FF12182C121128E9C3940285188285DA
:1058D4001983400474028002740AF0AC18AD197A7A
:1058E4000179051207087401121842D083D082028C
:1058F400011F74F012189C74E812182CEAFEEBFFD6
:10590400890A8C088D097C187D007900AA18AB19C6
:105914001212E4851882851983EEF0A3EFF0900744
:105924004AE0C0E07402121878D0E0F090074BE02F
:10593400C0E07403121878D0E0F0901888E0C0E05A
:105944007417121878D0E0F0901887E0A2E0E433DE
:10595400FCE0A2E15004D2F08002C2F0A2F0E433F1
:10596400F8E0A2E45004D2F08002C2F0A2F0E433E2
:10597400FAE0A2E55004D2F08002C2F0A2F0E433CF
:10598400F50E750F00E0A2E65004D2F08002C2F0DA
:10599400A2F0E433F50C750D00E0A2E25004D2F05D
:1059A4008002C2F07415121878E054FEFEA3E0FFE2
:1059B400EE4CFCEFFDEC54FDFCE828F8EC48F8ED67
:1059C40054FEF9EAFBE94BF9E8FAE954FDFB7409E2
:1059D400780E121819EB450F54FBFB740A780C125D
:1059E4001819EAF8EB450DF9E854FBFAA2F0E43390
:1059F400F50C750D007402780C121819EA450CF8B0
:105A04007415121878E8F0A3E9F090074BE0601DD4
:105A1400750C10780C121AAF7C4C7D0774061218A2
:105A240078AA82AB831212CC740212184290075CDB
:105A3400E06011E50A60097415121878E04402F078
:105A44007801800278007414121878E048F0900706
:105A540049E0600478048002780074141218781203
:105A64005A6E1205FA7418024CF4E048F0AC08AD12
:105A740009AA18AB192274F712189C12091E75088A
:105A840000E50875F00EA4F8A9F0746428FE740704
:105A940039FF7C0679FFEEFAEFFB12134AE970092D
:105AA400EEFAEFFB79001209240508E508C3940A0D
:105AB40040CF0255D574F612189C74FD12182CEAC6
:105AC400FEEBFF9007FE125BEF7039750800750955
:105AD400087808121AAF7508027509007808121AB6
:105AE400AF7508C27509827808121AAF7CFF7DFF72
:105AF4007A017B0012074A74061218429007FEEAE4
:105B0400F0A3EBF09007FE125BEF7003025BC2752B
:105B140008FF7808121AB3E4F508F5097808121A90
