:020000040000FA
:0600000002010702226D5F
:03002B000226DBCF
:030033000226BDE5
:03003B0002270198
:0300430002267121
:030053000222E3A3
:03006B00022697D3
:100083000220C3E5C754F84401F5C77901220000F3
:100093000080FB120086B900030200F1E4792178A5
:1000A30008B800028004F709D8FCE479297802B87B
:1000B30000028004F709D8FCE49002817854791592
:1000C3008002F0A3D8FCD9FA7AD47B169001377852
:1000D3003279048015E493A3AD82AE838A828B8345
:1000E300F0A3AA82AB838D828E83D8E9D9E7758288
:1000F3003F7583B57403120119758291758300747A
:100103000012011975D00075813F751881751902A8
:10011300759F00020096C09FF59FE473D09F22D085
:1001230083D082C09FE493C0E0740193C0E0740263
:1001330093F59F22FF0000B4000028002800283018
:1001430075A000A000A000A00000080008E001F0D6
:10015300001000100010001000100010005000509C
:1001630000500010001000D0070000000000000F36
:100173000001000500307507001000010081FF0039
:10018300000000FFFFFF8A06A8069006CC06FF02C8
:10019300020208025000A0000000E80302D182011D
:1001A3000000BB8202E3820100002F1702C5820117
:1001B3000000BF0202E382010000301702C3820184
:1001C3000000D50202E382010000311702C9820157
:1001D3000000D70202E382010000321702DF820827
:1001E3000000D80202E382010000331702E182011A
:1001F30000003417FF0100FF2002D182010000B587
:100203008202E382010000981702EF8200000000DF
:100213000002C78203000006031700380D380D38AB
:100223000D380D380D380D380D380D380D380D38A3
:100233000D380D380DDE0FF00FD80F020202020247
:1002430002020202010D000000100102D18201002E
:1002530000B88202E382010000DB1702D7820100AB
:1002630000400702E382010000DC1702D98201008B
:1002730000898102E382010000DD1702DB820100B5
:1002830000608102E382010000DE1702DD820100CB
:1002930000C88002E382010000DF1702CD82010063
:1002A30000EC8002E382010000E01702ED8201000E
:1002B30000FE8002E382010000E11702EB820100ED
:1002C30000B68002E382010000E21702E982010026
:1002D300006E8102E382010000E31702E582010060
:1002E30000E41701E8030577100AFFFFFF00013060
:1002F300750302010600000000000000000000007A
:1003030000000000000000000000000000000000EA
:1003130000FFFF0600800CE803140953696D706C3D
:1003230065424C455065726970686572616C05126F
:1003330050002003020A000201060302F0FF536982
:100343006D706C6520424C4520506572697068651C
:1003530072616CA6140000AC140A43686172616395
:100363007465726973746963203100024368617252
:10037300616374657269737469632032000843684A
:100383006172616374657269737469632033001009
:10039300436861726163746572697374696320345D
:1003A300000243686172616374657269737469639F
:1003B3002035000A436861726163746572697374FE
:1003C300696320360002D182010000BE8202E3820B
:1003D300010000F91802F382030000C81602CB8261
:1003E300010000FA1802E3820100000B1902F582F2
:1003F300010000C91602CB820100000C1902E3823E
:100403000100001D1902F782020000CA1602CB8206
:100413000100001E1902E3820100002F1902F98274
:10042300000000CB1602C782030000CC1602CB8269
:10043300010000301902E382010000411902FB822E
:10044300040000CE1602CB82010000421902E382AF
:10045300010000531902E782030000D31602CB8286
:100463000100005419120122C68B03120122D98BF9
:10047300031201220A8C03120122448C031201226B
:100483009D8C03120122E48C031201222C8D031292
:1004930001225B8D031201228A8D03120122C18D79
:1004A30003120122088E03120122218E031201225C
:1004B300768E031201228F8E03120122DD8E031228
:1004C3000122178F03120122ACA802120122AFA945
:1004D30002120122E8A9021201220BAA021201222E
:1004E3001DAA021201225BAA02120122D7AA02123A
:1004F30001229FAB02120122C1AB0212012258ACAE
:1005030002120122AAAC02120122DBAC0212012266
:10051300E8AC0212012252AD02120122A9AD02126D
:100523000122ACAD02120122E5AD02120122E8ADB7
:1005330002120122F2AD0212012246AE0212012280
:1005430087AE02120122BAAE02120122F7AE0212E4
:100553000122F9AF021201229DB00212012206B15B
:100563000212012244B1021201220080031201226D
:100573002880031201225580031201228D80031269
:100583000122EB80031201223781031201229E8193
:1005930003120122DE81031201221B8203120122B4
:1005A300498203120122F38203120122FD82031204
:1005B30001220A83031201223D830312012249838C
:1005C300031201226183031201226B8303120122AE
:1005D300197F00120122277F001201223F7F0012A0
:1005E3000122567F00120122B6A70112012260A840
:1005F3000112012273A901120122EFA901120122A2
:100603000DAB0112012249AB01120122E4AB01122D
:100613000122C8AC0112012294AD0112012222AFC2
:100623000112012293AF011201224DB001120122E6
:100633003FB1011201227FB10112012233B2011233
:10064300012265B2011201225BB4011201229DB4A1
:1006530001120122BBB40112012221B501120122B0
:10066300F0B501120122B4B601120122D3B801126E
:10067300012260C9021201224ACA02120122F5CAEA
:100683000212012246CB02120122F6CB02120122F0
:1006930067CC021201224CCD0212012280CD02123C
:1006A300012279CE02120122B6CE0212012292CF8A
:1006B30002120122D1CF02120122EDCF0212012236
:1006C3008FA60312012213A7031201223EA70312CE
:1006D300012258A803120122F983031201220F8475
:1006E300031201222D84031201223E8503120122EB
:1006F3004885031201227386031201226A870312BB
:100703000122D7870312012205D6021201223BD709
:100713000212012272D702120122C9D70212012248
:10072300DED9021201220083011201228C830112FD
:100733000122F08401120122FC8401120122378577
:1007430001120122A68501120122AF8601120122A4
:10075300B887011201227F8801120122DC8901126C
:100763000122FA8901120122178A01120122C48A85
:1007730001120122418B01120122698B0112012214
:10078300338E01120122388E01120122519001127F
:1007930001229F90011201220F91011201224D911A
:1007A30001120122299201120122E992011201226E
:1007B3003593011201223893011201227C93011215
:1007C3000122C493011201220394011201222594F0
:1007D30001120122599401120122BC940112012237
:1007E300A5DB02120122B3DB0212012206DC021294
:1007F300012225DC021201226ADC02120122AEDD93
:100803000212012249DE021201228DDE02120122AE
:10081300B7DE0212012226DF021201226CDF02126E
:100823000122E3DF0212012294E002120122742763
:10083300001201228427001201222528001201221E
:100843008128001201223E29001201225A2A001295
:1008530001228C2A00120122BB2A00120122682CD9
:1008630000120122DF2E001201224F310012012259
:100873004132001201223A330012012241350012A3
:100883000122353800120122643900120122683B2B
:1008930000120122783C00120122073E00120122BD
:1008A300F83E00120122463F00120122B53F00121A
:1008B3000122D93F001201222A4000120122CB4417
:1008C30000120122CC45001201222D460012012202
:1008D3005846001201221E47001201220FF702128E
:1008E300012219F7021201225EF70212012272F7A6
:1008F3000212012202F8021201223BF80212012223
:1009030076F8021201229FF802120122F3F8021272
:10091300012208F9021201222AF9021201223FF9E7
:100923000212012253F90212012268F90212012272
:10093300A2F902120122CEF90212012217FA0212BF
:10094300012289FA02120122CCFA02120122F6FADA
:100953000212012221FB02120122B1B00312012271
:10096300108B02120122F38B021201226E8C0212EF
:100973000122A98C02120122FA8D02120122888E11
:10098300021201221A9102120122CC9102120122B7
:10099300D892021201224B9402120122A494021251
:1009A30001227DEE02120122C0EE0212012244EF67
:1009B300021201221BF2021201221BA203120122C4
:1009C300CDA203120122C9A30312012208A4031218
:1009D300012262A40312012287A803120122EAA8BA
:1009E3000312012287A903120122BCA903120122C7
:1009F300ECA90312012227AA0312012247AA031218
:100A03000122A6E00212012232E102120122F1E1E7
:100A13000212012209E30212012223E5021201223A
:100A2300BDF301120122E2F301120122AFF401121C
:100A3300012283F501120122F0F50112012230F6A1
:100A430001120122CCF60112012200F80112012247
:100A5300DBF8011201223AF901120122C6F901124F
:100A6300012234FA01120122C0FA0112012206FB0B
:100A73000112012278FB011201220AFC0112012258
:100A8300ABFC01120122CBFC0112012213FD011266
:100A930001225CFD0112012278FD011201229EFD5B
:100AA3000112012218FE0112012226FE0112012267
:100AB300B5FE011201221EFF011201225AE50212A4
:100AC3000122DFE50212012221E60212012205E7DB
:100AD3000212012272E702120122B6E70212012278
:100AE300FAE70212012227E8021201224FE802125A
:100AF300012287E802120122C5E802120122ECE872
:100B03000212012266E902120122B0E90212012255
:100B1300E0B8011201227FBA01120122B7BC01120F
:100B230001220BBD0112012236BD0112012212BEA8
:100B33000112012242BE0112012271BE01120122E1
:100B430084BE01120122C5BE01120122F2BE0112AE
:100B5300012240BF011201227CBF01120122C1BF49
:100B6300011201220EC00112012288C001120122CA
:100B7300C9C201120122B3C401120122EFC401123E
:100B830001227EC601120122C3C60112012236C709
:100B9300011201228BC70112012290C70112012207
:100BA3001AC80112012239C9011201224AC90112CC
:100BB30001220D9F02120122869F0212012240A5EB
:100BC300021201224BA602120122F4A702120122F1
:100BD30082A802120122245C00120122A55C0012E9
:100BE3000122D25C001201221B5D001201221C5E55
:100BF30000120122755E00120122F15F0012012230
:100C03007360001201228E6000120122FF60001245
:100C13000122BC61001201227F62001201220D63D6
:100C230000120122C46300120122D76300120122C1
:100C33007064001201220765001201222E65001262
:100C43000122976500120122E165001201222F663D
:100C530000120122D46600120122726700120122DF
:100C6300FF6700120122706800120122B7680012A8
:100C730001220F6900120122416900120122FB695E
:100C830000120122026B001201224B6B001201229F
:100C9300686B00120122876B00120122BA6C0012EA
:100CA3000122716D00120122966D00120122AB6DBB
:100CB300001201221B6E001201225C6E001201223F
:100CC300806F001201220170001201224D95021261
:100CD3000122989502120122A4950212012278960C
:100CE300021201228F9602120122CC9602120122D5
:100CF300FD96021201223597021201228B970212EE
:100D03000122A19702120122DD9702120122F0971C
:100D1300021201221798021201224B980212012299
:100D2300719902120122BB9A02120122B79B02128D
:100D33000122D49C02120122F97F00120122377092
:100D430000120122727000120122C47300120122E8
:100D5300207500120122DF7500120122467900126C
:100D63000122307A001201227C7A00120122967A43
:100D730000120122D37A00120122DE7A001201222C
:100D83001D7B00120122267B00120122D07B001260
:100D93000122A77C00120122FB7C00120122587D54
:100DA30000120122CA7D0012012294950112012230
:100DB300F39801120122F998011201222AA00112CB
:100DC300012231A4011201227099031201224D9ACA
:100DD30003120122919A03120122CB9A03120122D8
:100DE300639B03120122D29B03120122DB9B03129A
:100DF3000122E79B03120122019C031201222B9C77
:100E0300031201225B9C03120122CDF20212012282
:100E1300DAF202120122F4F20212012227F3021281
:100E2300012265F302120122CAF302120122DFF347
:100E330002120122EAF302120122F7F30212012243
:100E43000EF4021201221CF40212012227F40212F0
:100E5300012233F40212012242F4021201224DF460
:100E63000212012270F40212012214F5021201226D
:100E730024F5021201223EF5021201225BF5021251
:100E8300012276F5021201229BF502120122A6F538
:100E930002120122BBF502120122CFF50212012236
:100EA30030F60212012236F6021201223CF6021239
:100EB300012242F6021201225AF6021201228DF693
:100EC300021201223AE601120122D1E601120122A5
:100ED30069E70112012259E80112012290E8011287
:100EE3000122A3E80112012211E901120122ACEA55
:100EF30001120122D3EA0112012275EB0112012230
:100F0300AAEB01120122BBEB0112012234EC011204
:100F1300012255EC011201226DEC01120122C5EDF3
:100F230001120122CEEF011201221EF2011201224F
:100F330021F30112012270F3011201226DC9011282
:100F430001226ACA0112012255CB011201225FCB91
:100F53000112012281CB011201228DCB0112012248
:100F6300DFCC011201220ECD011201223ECE01126D
:100F7300012280CE01120122ACCF0112012282D0C4
:100F830001120122D4D00112012233D10112012214
:100F93006AD101120122A5D10112012240D5011209
:100FA300012259D501120122DBD501120122E9D513
:100FB300011201223ED6011201224CD60112012256
:100FC300B9D6011201222BD70112012271D70112C6
:100FD30001220080021201222280021201220C82CD
:100FE30002120122B18502120122F48602120122A9
:100FF300CE870212012255AA031201227AAA0312F2
:101003000122EBAA031201226AB10212012273B177
:10101300021201227CB102120122ADB2021201229C
:10102300CCB40212012202B5021201223CB5021213
:10103300012272B502120122ACB502120122E0B5FF
:10104300021201220CB60212012255B6021201222B
:101053008FB602120122D7B6021201222DB7021255
:10106300012262B702120122BDB702120122F7B7B1
:101073000212012248B8021201227EB80212012292
:10108300B8B802120122E6B80212012209B902120B
:101093000122BFB303120122EBB30312012246B4B0
:1010A3000312012250B40312012260B4031201227D
:1010B300899C03120122B09C03120122DA9C0312C1
:1010C300012292B5031201228A4700120122EE493E
:1010D30000120122A54B00120122024C0012012230
:1010E300044D001201228C4D00120122134E0012F6
:1010F3000122384E001201222D5100120122A35168
:1011030000120122925200120122CC52001201223B
:101113000C5300120122AC5400120122015500129B
:1011230001224E5500120122BC5500120122E25544
:1011330000120122FC550012012212570012012253
:10114300225700120122A85800120122C858001287
:101153000122FE5800120122825A00120122C15AB2
:1011630000120122FF5B00120122F0E902120122A8
:1011730048EA0212012290EB02120122FFEB021253
:101183000122BAEC02120122D9EC021201222DED46
:10119300021201226BED0212012241FF0112012210
:1011A30052FF01120122DCB5031201221BB6031206
:1011B3000122E67F0012012263FF0212012273FF64
:1011C300021201228EFF02120122F6FF02120122F5
:1011D300C5B10312012249B203120122AFB20312B5
:1011E300012233AF031201225CAF03120122C9AF04
:1011F300031201221DB00312012276B00312012251
:101203001B930312012230930312012254940312FD
:101213000122BE94031201223295031201224C953E
:101223000312012263950312012276950312012210
:101233008E9503120122A39503120122C495031272
:1012430001221596031201227F8F03120122968F2A
:10125300031201220F9003120122E49003120122D0
:10126300B692031201224A9603120122DC9603125C
:1012730001225A9703120122E19703120122739864
:1012830003120122CA9803120122D49803120122E5
:10129300E39803120122F998031201220C99031215
:1012A30001226D9903120122A9AD03120122D2ADCD
:1012B30003120122FBAD0312012294AE0312012299
:1012C300ACAE03120122EEAE0312012297B9021251
:1012D3000122A1B902120122E1B9021201222ABAA2
:1012E3000212012264BA02120122BABA02120122C4
:1012F300D9BA021201225EBD0212012267BD021297
:101303000122B8BD02120122E1BD02120122F6BD83
:101313000212012266BE02120122F4BE021201224F
:1013230038BF0212012260BF02120122DFBF021284
:10133300012222C0021201225FC00212012271C0E7
:101343000212012290C00212012299C0021201224C
:101353005EC1021201220BAC031201225CAC031228
:101363000122E5AC031201224BAD03120122579F68
:1013730003120122819F031201227BA00312012287
:10138300AAA00312012230A103120122C8B2031240
:1013930001228DA403120122C3A403120122FCA47F
:1013A3000312012255A6031201226AB40312012279
:1013B30080B4031201228AB403120122E0B403129F
:1013C30001228AC10212012247C20212012282C2F1
:1013D30002120122AAC2021201220CC3021201222A
:1013E30058C302120122C3C3021201223FC40212D4
:1013F30001223BC502120122C2C60212012245C7C5
:1014030002120122A9C702120122C0C7021201223D
:10141300B6C80212012202C90212012249FB0212BA
:1014230001225EFB0212012211FC0212012251FC75
:10143300021201226AFC021201229DFC0212012205
:10144300EAFC021201221EFD0212012260FD0212B9
:10145300012256FF02120122FAD701120122B1DB47
:101463000112012243DD011201229ADD0112012240
:10147300B9DD0112012237DE01120122C9DF011297
:101483000122ADE001120122BEE40112012292E524
:10149300011201224ED00212012288D0021201222F
:1014A30009D302120122E8D3021201226CD50212DF
:1014B3000122E1870312012249880312012266886F
:1014C300031201224E8903120122A9890312012268
:1014D3007A8A0312012225B603120122A2B603124D
:1014E30001226BB603120122CEB603120122F7B614
:1014F30003E066701008A3E066700A08A3E0667054
:101503000408A3E06622C3E7960809E7960809E7FB
:10151300960809E79622C3E09608A3E09608A3E09D
:101523009608A3E09622C008C3E096F50808A3E056
:1015330096420808A3E096420808A3E0964508707F
:1015430001D3D00822080808EAC0E0EBC0E086F027
:10155300E7A4FA180986F0E7A42AFA180986F0E73F
:10156300A42AFA180986F0E7A42AFA1986F0E7A450
:10157300FBE5F02AFA190886F0E7A42BFBE5F03A1D
:10158300FA190886F0E7A42BFBE5F03AFA181809D4
:1015930086F0E7A4C5F02BFBE43AFA1908E7C5F097
:1015A300C6A426F6E5F03BFBE43AFA1886F0E7A476
:1015B300F6E5F00826F6E43B08F6E43A08F6D0E050
:1015C300FBD0E0FA22E4CFC0E0E4CEC0E0E4CDC03B
:1015D300E0E4CCC0E075F020E626F608E633F60832
:1015E300E633F608E633F6181818EC33FCED33FD52
:1015F300EE33FEEF33FFC3EC9709ED9709EE97093E
:10160300EF97191919400FFFEC97FC09ED97FD09A6
:10161300EE97FE191906D5F0BFECF709EDF709EEC1
:10162300F709EFF7191919D0E0FCD0E0FDD0E0FE7F
:10163300D0E0FF226016080808C6C313C618C613F5
:10164300C618C613C618C613C6D5E0EA2270090821
:101653000808226016181818C6C333C608C633C64E
:1016630008C633C608C633C6D5E0EA22E627F6081D
:1016730009E637F60809E637F60809E637F622E001
:1016830026F608A3E036F608A3E036F608A3E0360C
:10169300F622E026F008A3E036F008A3E036F008CF
:1016A300A3E036F022C3E697F60809E697F60809A1
:1016B300E697F60809E697F622C3E096F008A3E05A
:1016C30096F008A3E096F008A3E096F022E056F621
:1016D30008A3E056F608A3E056F608A3E056F62260
:1016E300E056F008A3E056F008A3E056F008A3E0A4
:1016F30056F022E0F608A3E0F608A3E0F608A3E01C
:10170300F622E6F008A3E6F008A3E6F008A3E6F065
:1017130022E0FAA3E0FBA3E0FCA3E0FD22E0F8A3B0
:10172300E0F9A3E0FAA3E0FB22E8F0A3E9F0A3EADF
:10173300F0A3EBF022CAC0E0E6F0A308DAFAD0E0A7
:10174300FA22CAC0E0E0A3C582CCC582C583CDC559
:1017530083F0A3C582CCC582C583CDC583DAE6D029
:10176300E0CA22C3E498F8E499F91217A78026C3C4
:10177300E49AFAE49BFBE920E7E91217A7E498F857
:10178300E499F922C3E498F8E499F91217A7E498C5
:10179300F8E499F9C3E49AFAE49BFB22EB20E7CF40
:1017A300E920E7E0B90010BB0008E88AF084F8AA52
:1017B300F022E4FBC8FA22EB70227B10C833C8C9BD
:1017C30033C9335007C39AC3DBF280069A50012A08
:1017D300DBEAC833F4C8C933F4C9FA2275F008E464
:1017E300C833C8C933C933C99AC99B5004C92AC964
:1017F3003BD5F0ECFBC833F4C8E4C9FA22600D080A
:10180300C6A2E713C618C613C6D5E0F322600C08B8
:10181300C6C313C618C613C6D5E0F42270042260EB
:101823000D18C6C333C608C633C6D5E0F41822253F
:101833001810AF08F518400C15198008F518400268
:101843001519D2AF2200C0D0251810AF08F51850D3
:101853000C05198008F51850020519D2AFD0D02213
:101863002518F58210AF08F518400C15198008F5F6
:101873001840021519D2AF851983222518F582E481
:101883003519F583222518F8E43519F9222518FAB4
:10189300E43519FB222518FCE43519FD22E47325F0
:1018A30018C582C0E0E51934FFC583C0E0E518C35D
:1018B300958224F810AF08858319858218800885DE
:1018C3008319858218D2AFCEF0A3E520F0A3780860
:1018D300E608F0A3DEFAEFF0A3E58124FAF8E608C0
:1018E300F0A3E608F0A3E608F0A30808E608F0A3CF
:1018F300E608F0A315811581D0E0FED0E0F815814C
:1019030015811581E8C0E0EEC0E0222518C582C02C
:10191300E0E51934FFC583C0E0E518C3958224F9D7
:1019230010AF0885831985821880088583198582FD
:1019330018D2AFCEF0A3E520F0A37808E608F0A311
:10194300DEFAEFF0A3E58124FBF8E608F0A3E6084E
:10195300F0A30808E608F0A3E608F0A315811581B3
:10196300D0E0FED0E0F815811581E8C0E0EEC0E0DC
:1019730022851983851882E0A3FEE0A3F520780869
:10198300E0A3F608DFFAE0A3FFE0A3C0E0E0A3C012
:10199300E0E0A3C0E0E0A3C0E0E0A3C0E010AF0834
:1019A3008582188583198008858218858319D2AFAB
:1019B300D083D08202011F851983851882E0A3FE9C
:1019C300E0A3F5207808E0A3F608DFFAE0A3FFE040
:1019D300A3C0E0E0A3C0E0E0A3C0E0E0A3C0E01048
:1019E300AF08858218858319800885821885831935
:1019F300D2AFD083D08222C0D02518C582C0E0E503
:101A03001934FFC583C0E0E518C3958224F310AFF2
:101A1300088583198582188008858319858218D2E1
:101A2300AFC8F0A3E9F0A3EAF0A3EBF0A37908E7CA
:101A330009F0A3D8FAECF0A3EDF0A3EEF0A3EFF0D6
:101A4300A3D0E0F0A3D0E0F0A3D0E0F0A3E520F032
:101A5300A3E5F0F0A322851983851882E0C0E0A3F3
:101A6300E0F9A3E0FAA3E0FBA37808E0F608A3DF1C
:101A7300FAE0FCA3E0FDA3E0FEA3E0FFA3E0C0E0E7
:101A8300A3E0C0E0A3E0F5D0A3E0F520A3E0A3F535
:101A9300F010AF088583198582188008858319851E
:101AA3008218D2AFD082D083D0E0F8D0E032740471
:101AB3008006740280027401C0E0F404121863D03B
:101AC300E0121738227404800474028000CCC0E052
:101AD300EDC0E0E518C39CCCAD1950011D10AF0655
:101AE3008C188D1980068C188D19D2AF121745D01A
:101AF300E0FDD0E0FC22D083D082E9C0E0E493A3F0
:101B0300C386F0C5F095F0F908E493A386F0C5F019
:101B130095F0700BE493A3C3994005E9048002A3F5
:101B2300E475F002A42582F582E5F03583F583D0D0
:101B3300E0F9E493A3C0E0E493C0E022D083D08231
:101B4300ECC0E0EDC0E0E493A3FCE493A3FDED4C13
:101B5300600D121B8BEC24FFFCED34FFFD80EFE4E2
:101B630093A3FCE493A3FDED4C600D121BCAEC247C
:101B7300FFFCED34FFFD80EFD0E0FDD0E0FCE4930B
:101B8300A3C0E0E493C0E022C0E0C3E493960874EA
:101B930001939618400FE4936670080874019366E6
:101BA3001870007019A3A3C3E49396087401939665
:101BB30018A3A3400DD0E0D0E0D0E0021B7BA3A389
:101BC300A3A3A3A3D0E022C0E0C0F088F0E493660F
:101BD30070080874019366187000A8F0A3A3700B33
:101BE300D0F0D0E0D0E0D0E0021B7BA3A3D0F0D0B4
:021BF300E022EE
:101BF80074F612190EEAFEEBFF8C088D09EE2434F8
:101C0800F8E43FF9E8FCE9FDEE2435121F0BFAEE83
:101C18002437121F0BF88508F0A4C885F00A850937
:101C2800F0A4250AF9EA28F8E439F97A257B0012A4
:101C380017A7EA8C828D83F0FA131313541FF8EE5A
:101C480028F8E43FF9E8245DF582E439F583E0C03B
:101C5800E074075AF8D0E0B800028004C313D8FC37
:101C6800A2E0EE50082434F582E43F8018243612AE
:101C78001F0BF5F0EA84A8F0EE28F8E43FF9E82411
:101C880038F582E439F583E0F97F030219BA74F76D
:101C980012190EEAFEEBFFEE2434121F0BC0E0EE21
:101CA8002435F582E43FF583D0E0F08E828F83A35C
:101CB800A3A3A3A3A3A3C082C0838E828F83A3A35D
:101CC800A3A3A3E0F8A3E0F9D083D082E0C398F5FA
:101CD80008A3E099F509EE247F121F0B6401703EFA
:101CE800EE2480F582E43FF583C082C0838E828F24
:101CF80083A3A3A3A3A3E0240108A3E03400F9D09D
:101D080083D082E0687003A3E06970127CB17D041F
:101D1800120C78EE247FF582E43FF583E4F0AC08FA
:101D2800AD09EEFAEFFB121BF8E9F91226637F0200
:101D38000219BAC082C083851882851983E0F8A386
:101D4800E0F9C3EA9CEB9D5010C3EC98ED99401B59
:101D5800C3EA98EB995014800EC3EA98EB994007B0
:101D6800C3EC98ED994004790180027900D083D0C2
:101D78008222EAC39CFAEB9DFB2274EF12190E90A3
:101D88000376E064086005E06407702A9061C8E0A3
:101D980060249003A4E0F4601DE0F875F00BA4C87B
:101DA800AAF02AF974A628FE740339FF8E828F835D
:101DB800A3A3A3E07003021E90906060E0C0E0EE71
:101DC8002468F582E43FF583D0E0F0750C21750DA9
:101DD80005750800750900E5D914F50AE5D9540315
:101DE800F50E60127403650E6043E50A600AEE247E
:101DF80067121F0B7002807590051CE06401601F5C
:101E0800121F0860047A0480027A00E50AC39AFA6D
:101E180095E0FB120B228A088B09EA450970051226
:101E28000EA68064121F0870048A0C8B0DE50A60E8
:101E380012850C82850D83F50BE5D9F0A3150BE50A
:101E48000B70F6121F08604474FC250AF50A780C1A
:101E5800121AB5AC0AA90EEEFAEFFB120D32740293
:101E6800121848E97026AA08AB0912135C793D8E4E
:101E7800828F83A3A3A3A3E0FA7B00120984EEFA5E
:101E8800EFFB120C9C120D447900806F7403650EF1
:101E98006051850A107511007810121AB5AC0CAD96
:101EA8000DAA08AB09120CF67402121848EE246841
:101EB800121F0B64807004747F8001E0F50C780CAD
:101EC800121AB9E50EF50C780C121AB9A90AAC0861
:101ED800AD099003A4E0FA7B0012095A74021218A3
:101EE800488013900376E06408600BAC0CAD0DEEEF
:101EF800FAEFFB120DBC120EB279017F0A0219BA71
:101F0800EE2483F582E43FF583E02274F212190E81
:101F180074FC121832EAFEEBFF8909A2AFE433F52C
:101F280008C2AF021FDDE0601B780C121AB5AC0BBB
:101F3800A90EEEFAEFFB120D2C7402121848740465
:101F4800250BF50B7401250BF5D9850ED9E50B602A
:101F580018F50A850C82850D83E0F5D9A385820CD6
:101F680085830D150AE50A70EA75E195EE2463F894
:101F7800E43FF97A007B00A2AFE433F50BC2AF88E7
:101F8800828983E0FCA3E0FDEC4D603A8882898376
:101F9800E0FAA3E0FB8A828B83E0FCA3E0FD888261
:101FA8008983ECF0A3EDF08A828B83E4F0A3F088B8
:101FB800828983E0FCA3E0FDEC4D700A8882898366
:101FC800A3A3E4F0A3F0E50BA2E092AF12135C9098
:101FD80004B8E004F0EE2463121F0BF8A3E0F9E85C
:101FE800496064EE2463121F0B2402F8A3E0340056
:101FF800F988828983E5822402F50CE43583F50D9E
:10200800E0F50BA3E0F50EEE2462121F0B640170DD
:10201800369061D0E0F8121F0860047C0480027CCE
:10202800007480C398FA95E0FBE50B2CF8E43400C3
:10203800F9E82402F8500109C3EA98EB99A2D2659D
:10204800D0334003021F2E9004B8E0604D9004B9CD
:10205800E0F89004B8E0C398500C74026509703A2F
:102068009004BAE060348E828F83A3A3A3A3E08593
:1020780018828519831220B2740212187EE8122081
:10208800B29004B7E028F07402121898AA18AB1995
:1020980079011209AE9004B8E4F0E508A2E092AF25
:1020A80074041218487F070219BAF0A3E4F09004E8
:1020B800B8E0F8228521878522C622C0E074EB1299
:1020C80019FAA2AFE433F508C2AF759B009061829C
:1020D800E0A2E05030E591A2E0502A7591FE74012B
:1020E80065217021122256120DFE122244121AC8BE
:1020F80012240D7404121848E9640170057901125C
:102108000E3A121D82906182E0A2E5505DE591A22F
:10211800E550577591DF900376E064076005E06449
:1021280008702F12225674016521703E120DFE129E
:102138002244121AC812240D7404121848E96401C2
:1021480070057901120E3A7901EEFAEFFB121F13AE
:102158008018E0640D7013900398E004F064287010
:1021680002E4F07A00E0F9120EB8906182E0A2E68B
:102178004003022219E591A2E64003022219759153
:10218800BF900376E064057008120DE6120DF28028
:1021980003120DEC752100120E46E9900377F079D1
:1021A80000120E3A120BE87A017B00900375E0F9F1
:1021B80012132C907803E064427056900520E014C6
:1021C800F0704EC2AF1221D000782AD0E0F618D0B5
:1021D800E0F6E59F5407F87005750DFF8003750D4F
:1021E8007FC4C0E07829E6F50A08E6550DF50B74BA
:1021F8000B780A121810D0E0250AF8906270E0A255
:10220800E740F8E8C333906272F0906270E0D2E081
:10221800F0906181E0A2E35009E5E9A2E35003757B
:10222800E9F7A3E0A2E75009E591A2E75003759109
:102238007FE508A2E092AF7F08021A598E828F8349
:10224800E0F8A3E0C82416F582E438F58322900369
:10225800A4E0F875F00BA4C8AAF02AF974A628FE21
:10226800740339FF22C0E0C0D0C082C0839061836C
:10227800E0A2E05009E5BFA2E0500375BFFEE0A26E
:10228800E15009E5BFA2E1500375BFFDE0A2E250AD
:1022980009E5BFA2E2500375BFFBE0A2E35009E5E0
:1022A800BFA2E3500375BFF7E0A2E45009E5BFA25F
:1022B800E4500375BFEFE0A2E55009E5BFA2E55081
:1022C8000375BFDFE0A2E65009E5BFA2E65003753B
:1022D800BFBFD083D082D0D0D0E032C0E074F21239
:1022E80019FAE5A7A2E6500FE5A1A2E6500953A7FF
:1022F800BF75A1BF122337E5A7A2E5500CE5A1A23F
:10230800E5500653A7DF75A1DFE5A7A2E15009E56F
:10231800A1A2E1500375A1FDE5A7A2E2500CE5A139
:10232800A2E2500653A7FB75A1FB7F01021A59745C
:10233800F712190E752101900376E06406701512E4
:102348000D688A828B83A3A3A3A3A3A3E0FAA3E0C7
:10235800FB120DD4A2AFE433FED2AF90037CE0644D
:102368000170187A207B00900375E0F91214407A06
:10237800207B00900375E0F9121332906182E0D25D
:10238800E6F090051DE0602185C622801690037B4B
:10239800E064017008E5C654F84405F5C653BEFC70
:1023A8001220BC7401652160E4EEA2E092AF7F02C6
:1023B8000219BA008E238F248582288583278518E1
:1023C80082851983E0CEA3E0CF852882852783EB19
:1023D800C9EAC8EDCBECCA75F010C3E833C8E933D5
:1023E800C9EA33CAEB33CBC3EA9EF526EB9FF52542
:1023F800B35004AB25AA26EC33CCED33CDD5F0DAB7
:10240800AE23AF242274F112190E8A088B098C0AA4
:102418008D0B90824978081216D0740F12187E78A6
:102428000C1216F6908249780C1216D07808790C9E
:1024380012150990826150107808790C1216A87844
:10244800081215294014800E780C79081216A878FD
:102458000C12152950047901800279007F080219AD
:10246800BA74ED12190E8A088B098C0A8D0B9082AA
:102478004978081216D0741312187E780C1216F6C2
:10248800908249780C1216D0780C790812150940F8
:10249800117808790C1216A8AA08AB09AC0AAD0B7A
:1024A80080227510007511007512007513017810DF
:1024B800790C1216A87810790812166FAA10AB11A9
:1024C800AC12AD137F0C0219BA9082497808121623
:1024D800F68A828B8378081216E37F040219BA748D
:1024E800F512190E8C828D8378081216F68A828B63
:1024F8008378081216BC12253FC3E09CF0A3E09D28
:10250800122531402290828178081216F68A828B31
:102518008378081216958A828B83A3A3A3A3E02449
:1025280020F0A3E0344EF080A0F088828983C3E0D5
:102538009420A3E0944E22EA2404F8E43BF98C8228
:102548008D83A3A3A3A3E0FCA3E0FD888289832253
:1025580074F512190EE9FE9004D3E0FAA3E0FBEE3D
:1025680029F8E433F9743128F582748139F583E068
:102578002AF508A3E03BF5097808121AB590826D90
:102588001217141223BC74021218488A088B098C7B
:102598000A8D0B74107808121637AA08AB097F0445
:1025A8000219BA74F112190E8A0C8B0D8C0E8D0F4C
:1025B800741112187E121ACC741112187EE02401BC
:1025C800F508A3E03400F509E4F50AF50B780C7971
:1025D8000812154890825D78081216F6780C79086A
:1025E800121548AA0CAB0DAC0EAD0F1223BC740229
:1025F8001218488B09EA450960047A0180027A00BA
:10260800EC2AFCE43DFD741312187EE0F8A3E0F90F
:10261800E8FEE9FFECF8EDF97A717B021217A7885A
:10262800088909E4F50AF50B8E828F83780812175A
:1026380005ECF8EDF97A717B021217A78A088B0965
:102648007405780812181F8E828F83A3A3A3A3E5AD
:1026580008F0A3E509F07F080219BAC082C083E92F
:10266800906000F0D083D08222C0E074F21219FA90
:10267800A2AFE433FED2AFC2C0E5D1A2E4500675E2
:10268800D10F1212A2EEA2E092AF7F01021A59C036
:10269800E074F21219FAA2AFE433FED2AFE589A2D0
:1026A800E150031211FA758900C2C5EEA2E092AF9B
:1026B8007F01021A59C0E074F21219FAA2AFE4338A
:1026C800FED2AFE58BA2E050031211FA758B00C25F
:1026D800E880D8C0E0C0D0E8C0E0E9C0E0A9A8D24E
:1026E800AFC2C7E9A2E7E433F8E9A2E792AFD0E0C6
:1026F800F9D0E0F8D0D0D0E032C0E0C0D0E8C0E0F7
:10270800E9C0E0EAC0E0C082C083A2AFE433FAD2F5
:10271800AF9009DCE0F8A3E0687008539AFBA37453
:10272800018022C2E99009DCE0F8740128F0745CA9
:1027380028F582E43409F583E0F5C19009DCE0C3AB
:1027480094804002E4F0EAA2E092AFD083D082D035
:10275800E0FAD0E0F9D0E0F8D0D0D0E032C2AF0251
:032768000000224C
:10276C00FFFFFFFFFFFFFFFFC082C083E9901797B9
:10277C00F0D083D08202011F74F61218A2E99002E5
:10278C00E8F0900348E0F508750900740278081227
:10279C00181FAA08AB0912139E9002E91231379048
:1027AC0002E9123524606F900348E075F003A4FA37
:1027BC00ABF012139E9003061231379003061235BC
:1027CC0024700B9002E91234F51213A48048900384
:1027DC00061244897AFF7BFF12116A7A0080198AEB
:1027EC00087509007402780812181F123F3174FF23
:1027FC00122937E4F0A3F00A900348E0F8EAC398F2
:10280C0040DD79051208469002E8E0F91207327AA9
:10281C00D07B08120AC2023FD474F41218A28A08A0
:10282C008B09EB548060479002E8E0F91213148A8C
:10283C000A8B0BAE0AAF0BEE4F602A8E828F83E0B1
:10284C0064B0701A120858E960148E828F83A3A3A7
:10285C00A3A3E0F9EE2405FAE43FFB120828EEFAF4
:10286C00EFFB121302AA08E5096480FB80047A00CE
:10287C007B00022A8774F21218A274FB121832EA37
:10288C00FEEBFFEE4F6045740312187EEEF0A3EFE3
:10289C00F0851882851983ECF0A3EDF07402121800
:1028AC007EE9F0AA18AB1912072CE9F508707574BB
:1028BC001312187EE0F50AA3E0F50BE50A450B6050
:1028CC00638E828F83122EC0EE4F700575080280C6
:1028DC00537A067B0012139E8A0C8B0DA80CA90D43
:1028EC00E8497005750813803B88828983E41229B6
:1028FC0037EEF0A3EF122A53E50AF0A3E50BF090A4
:10290C0002EC122A4C9002EC6017E0FCA3E080036E
:10291C00EAFCEBFD8C828D83122A4C70F38C828D39
:10292C0083123B4CA9087405024709F0A312446BAF
:10293C00A32274F21218A28908890C750D00740375
:10294C00780C12181F850C0A850D0B9002EBF09079
:10295C0002E9123957122A4A602E1213A479008008
:10296C001D890C750D007402780C12181F9002E969
:10297C00123DF08882F583A3A3E4F0A3F009900341
:10298C0048E0F8E9C39840D9900348E0FA850AF08A
:10299C00A4CAA8F0850BF0A428FB12139E8A0C8BFA
:1029AC000DAE0CAF0DEE4F7003022A40900348E0C1
:1029BC00FC850AF0A4CCA8F0850BF0A428FD7900C6
:1029CC001212EA7C0080318D0C750D007403780CAA
:1029DC0012181F8A828B83122A4588828983E4F01D
:1029EC00122A52A3A3F0A3F00DEDC3950840D8EE24
:1029FC00250AFEEF350BFF0C900348E0F8ECC3986A
:102A0C0050288C0C750D007402780C12181F900253
:102A1C00E9122A45E82402500109FAE9FB8A828B63
:102A2C0083EEF0A3EFF07D0080BFE5089002EBF0A1
:102A3C0079008002791302470C123DF4F922A3A30A
:102A4C001234F9EA4B22A312446BA3A3A32274F40D
:102A5C001218A27900EAA2E0501F75080A750982C3
:102A6C007808121AB579107C047D007A997B1712BC
:102A7C0008407402121848E9F980007F04021974A6
:102A8C00C082C0839002EC123524601C888289833A
:102A9C00A3A3E06A7003A3E06B8882898370E8A328
:102AAC00A3A3A31234F580047A007B0002277D7463
:102ABC00F21218A274FD121832EAFEEBFF8518828E
:102ACC00851983E4F0A3F0740212187E7401F012DD
:102ADC00352170141209FC12139E9002EF1231373B
:102AEC001235217003022C4D123237EE2404F50AF4
:102AFC00E43FF50B850A82F583E024FE603C24FC60
:102B0C00607424FE607E24FE7003022B9D24FE70F4
:102B1C0003022BAA24FE7003022BB724FE700302BF
:102B2C002BC424FE7003022BD124FC7003022BF265
:102B3C0024FE7003022C0A022C461209FC9002F1AE
:102B4C00EAF0A3EB122C59120474E96003022C4630
:102B5C009002F1121ACC8E828F83A3A3A3A3A3128B
:102B6C0044898508828509831234F5120810740291
:102B7C00121848022C46AC18AD19EEFAEFFB1208ED
:102B8C005E022C15AC18AD19EEFAEFFB120864803E
:102B9C0078AC18AD19EEFAEFFB12086A806BAC1822
:102BAC00AD19EEFAEFFB120870805EAC18AD19EEA1
:102BBC00FAEFFB1208768051AC18AD19EEFAEFFB68
:102BCC0012087C80447402121888880C890D780CC9
:102BDC00121AB57402121898EEFAEFFB12088274EE
:102BEC00021218488023AC18AD19EEFAEFFB12084C
:102BFC0088E9F87016740212187EE4F0803CAC1868
:102C0C00AD19EEFAEFFB12088EE9F8E8602C8E8213
:102C1C008F83A3E064146022850A82850B83E09085
:102C2C0002F1F08518828519831234F59002F212A4
:102C3C003137E8A3122C5912046EEEFAEFFB12078F
:102C4C00E6740212187EE0F97403024709F07CF175
:102C5C007D028508828509831234F92274E81218E2
:102C6C00A274FA121832740412187EECF0A3EDF070
:102C7C008A128B13EA2405F50EE43513F50FEA24BA
:102C8C0002F510E43513F511851082F5831234F535
:102C9C001205648A0A8B0B7508007C037D00790091
:102CAC007AF17B021212EAE50E2402F516E4350FD6
:102CBC00F5177402121888880C890D780C121AB545
:102CCC00850E82850F83A3A3A3A3E0F50C750D00DD
:102CDC00780C121AB5E50E2405F50CE4350FF50D3C
:102CEC00780C121AB58516828517831237FC1207D9
:102CFC004A74061218488A0C8B0DE50C450D7003AE
:102D0C00022E898020851882851983E08882898328
:102D1C00F00508851882851983A3E0C0E0122ECA3D
:102D2C00D0E0F00508E50A24FBFAE50B34FFFBC301
:102D3C00E5089AE49B4003022E897E007F008512F1
:102D4C0082851383A3A3A3A3E0F5097809121AB90A
:102D5C00E4F514F5157814121AB57514EE75150200
:102D6C007814121AB59002EF121ACC740912187E4C
:102D7C00121ACCE50A24F9F9AC0CAD0D851082853C
:102D8C0011831234F51208B87409121848E960035B
:102D9C00022E2A850E82850F83A3A3A3A3A3A3A32C
:102DAC00E0F89002EEE0687075E0F5148E1578147A
:102DBC00121AB5124486850E82850F83A3A3A3A392
:102DCC00A3A3A3A31234F51212E47402121848E957
:102DDC00604C9002F2123524703BE4F51478141216
:102DEC001AB57CFF7DFF790785108285118312341B
:102DFC00F5120822740212184812352A7017850E23
:102E0C0082850F83124623740412187E123EE4123C
:102E1C00382D022EBD850C82850D83122EC0A8186C
:102E2C00A919881489157814121AB5740412187E0D
:102E3C00121ACC85168285178312312D12075674FF
:102E4C00041218488A0C8B0DEE4F7003022D0612DB
:102E5C002ECAEE122ED51237E3EF122ED5F8A3E0C0
:102E6C003400F9E50C450D6003022D11888289832D
:102E7C0074FFF00508122ECA74FFF00508E508600F
:102E8C001A1313543F12313D120480E96009900269
:102E9C00F21234F512135C79008016850E82850FC0
:102EAC0083124623740412187E123EE4123B4C79B2
:102EBC000A0237B6A3A3A3A3E0FEA3E0FF22A8084F
:102ECC009002F2E0281237E322F00508089002F293
:102EDC00E0282274E81218A274FA12183274021242
:102EEC00187E123137740412187EECF0A3EDF074D6
:102EFC000212187EE024051237CCE0F50CA3E0F5A5
:102F0C000D740212187EE02402F510A3E03400F5D3
:102F1C0011851082F5831234F5120564750800755D
:102F2C000900EA24FCFEEB34FFFF8008050CE50CDD
:102F3C007002050DA808C3EE98EF94005003023000
:102F4C00E9A818A919880E890F780E121AB58514DC
:102F5C0082851583A3A3A3A312448D121AB5E5147D
:102F6C002405F50EE43515F50F780E121AB58514F7
:102F7C008285158312312B12074A74061218488A5F
:102F8C000E8B0FEA450F70030230E9EA2404F516A4
:102F9C00E4350FF517851682F583E0F50CA3E0F503
:102FAC000D8518828519831244898A828B83A3A389
:102FBC00A3E0F98510828511831234F5120738E9E4
:102FCC00F50960030230E9740212187E1237F3F52A
:102FDC00097809121AB9E4F512F5137812121AB518
:102FEC007512EE7513027812121AB59002EF121ABE
:102FFC00CC740712187E121ACCEEF9AC0EAD0F85FC
:10300C0010828511831234F51208B874091218480D
:10301C00E9F50960030230E9E508703FE4F50EF5C7
:10302C000F780E121AB57CFF7DFF79098510828509
:10303C0011831234F512082274021218481238192E
:10304C00700D740412187E123120791102311D900A
:10305C0002EEE024029002F2F080149002F2E0FA08
:10306C009002EEE0790024025001096A497072A8BE
:10307C00089002EEE0FAE82AFAE43400FBEE9AEF4C
:10308C009B405A851682851783E0C0E09002F312AC
:10309C002ECFD0E0F00508851682851783A3E0C0FB
:1030AC00E0089002F3122ECFD0E0F005089002EE6B
:1030BC0012448D121AB5124486A8081237C0121287
:1030CC00D274021218489002EEE02508F50874FF3D
:1030DC00650C700474FF650D6003022F38E5086001
:1030EC001F9002F2E0F5F0E5088412313D120486DF
:1030FC00E960099002F31234F512135C7900801127
:10310C00E509700375090A740412187E123120A99E
:10311C00090237B612395BE50CF0A3E50DF022A3DA
:10312C00A3124718AA0CAB0D22A3A3EAF0A3EBF051
:10313C00229002F1F07CF17D0285108285118312C0
:10314C0034F92274EC1218A274FC121832123C5C82
:10315C0074021218981234EF1207508A0C8B0DEA75
:10316C00450D7003023227123237A818A91988109E
:10317C0089117810121AB57CFF7DFF790B850882B6
:10318C008509831234F5120822740212184812337E
:10319C002D700C850A82850B8312382A0232348EEC
:1031AC00828F83A3A3A3A3E0F5127812121AB9E4B9
:1031BC00F512F5137812121AB57512F1751302780F
:1031CC0012121AB57810121AB5740912187E121A46
:1031DC00CC740912187EE0F9AC0CAD0D8508828513
:1031EC0009831234F51208B87409121848E9FE70F4
:1031FC00157CF17D028508828509831234F5120451
:10320C008CE97009802074166E70027E009002F2B8
:10321C001234F512135CEE7004800B7E01850A8269
:10322C00850B83123B49EEF9023B5EEE2402F50856
:10323C00E43FF5092274EC1218A274FC121832EA5D
:10324C00FEEBFF8C0E8D0FEE2405F508E43FF5091F
:10325C0074021218988508828509831234F51207B6
:10326C00508A0C8B0DEA450D700302331DEE2402BF
:10327C00F50AE43FF50BA818A919881089117810E4
:10328C00121AB57CFF7DFF790D1234EF12082274EF
:10329C000212184812332D700B850882850983128F
:1032AC00382A807A8E828F83A3A3A3A3E0F51278A9
:1032BC0012121AB9850882850983A3A3121ACC7538
:1032CC0012F17513027812121AB57810121AB5741D
:1032DC000912187E121ACC740912187EE0F91234F5
:1032EC00EB1208B87409121848E9FE700F7CF17DD6
:1032FC00021234EF120492E97009802074166E7079
:10330C00027E009002F21234F512135CEE7004800F
:10331C000B7E01850882850983123B49EEF9023B3D
:10332C005E123534F510A3E0F511EA45112274E86C
:10333C001218A274FE1218328A168B178C148D1563
:10334C00EA2405F50CE43517F50DEA2402F50EE434
:10335C003517F50F850E82F5831234F51205648A44
:10336C00088B09750B007C037D0079007AF17B02D8
:10337C001212EA750A00E50814F5100424FFF5088A
:10338C00E50934FFF50980549002F1E0FA9002EE61
:10339C00E0F8EA28F8E43400F9E50898E5099950D2
:1033AC000D9002F1E0F8E510C3989002EEF0E0F514
:1033BC00127513007812121AB51244869002F2E0BC
:1033CC002AFAA3E03400FB1212D2740212184890AD
:1033DC0002EEE0F89002F1E028F0050A850C8285F7
:1033EC000D83A3A3123E0040030234D09002F1E0FF
:1033FC00C39508E4950940030234D0AE0AEE2EFEC4
:10340C00E433FF12350FAC18AD191244A1E439FBAB
:10341C001207508A128B13AC12AD13EC4D701B7546
:10342C000B011234FF123B4D9002F2122A4C600336
:10343C0012135CA90B74020237B8851682851783A8
:10344C00A3A3A3A3E0F50B780B121AB9E4F512F5BC
:10345C00137812121AB57512EE7513027812121A2D
:10346C00B59002EF121ACC740712187E121ACCA95E
:10347C0010850E82850F831234F51208B874091268
:10348C001848E9F50B709B9002F212352460030288
:10349C003394E4F512F5137812121AB57CFF7DFF04
:1034AC00790F850E82850F831234F512082274026F
:1034BC0012184812352A60030233941234FF123862
:1034CC002E0234417CF17D02850E82850F831234ED
:1034DC00F5120498E960030234347900023441ACEB
:1034EC000CAD0D850A82850B831234F922E0FAA308
:1034FC00E0FB2212350FE0FAA3E0F9EA851482858D
:10350C00158322850C82850D83E02EF8A3E03FF90C
:10351C0088828983229002EF124627E849221235CD
:10352C0034F8A3E0F9E849229002F2EAF0A3EBF0B8
:10353C009002F2E02274E81218A274FA1218327493
:10354C000412187E1231378C168D17740412187EE3
:10355C00E02405F50EA3E03400F50F740412187E78
:10356C00E024021237CC1234F51205648A0A8B0B54
:10357C007F007E00A818A919880889097808121AF2
:10358C00B5850E82850F83A3A3A3A3E0F5088E094E
:10359C007808121AB5E50E2405F508E4350FF5097F
:1035AC007808121AB5850E82850F83A3A31237FCF7
:1035BC0012074A74061218488A0C8B0D8029123790
:1035CC00EDF00F1237EDF00F9002EE123B38121A9D
:1035DC00B5124486EFF81237C01212D274021218C8
:1035EC00489002EEE02FFFE50C450D700302367C8F
:1035FC00851882851983123C6EA3A3A3E0F9851468
:10360C00828515831234F5120738E9FEE50C240483
:10361C00F510E4350DF511EE7050740412187E128D
:10362C0037F3F5087808121AB9E4F508F5097808A3
:10363C00121AB57508EE7509027808121AB59002BF
:10364C00EF121ACC740712187E121ACCE50A24FA5F
:10365C00F9AC0CAD0D8514828515831234F5120866
:10366C00B87409121848E9FE6039123809123B4C3B
:10367C00EF70030237A39002F2E0F5F0EF849002B2
:10368C00F1F07CF17D028514828515831234F512DC
:10369C00049EE960099002F31234F512135C790070
:1036AC000237B68F08EF703BE4F512F5137812125F
:1036BC001AB57CFF7DFF7911851482851583123430
:1036CC00F5120822740212184812381970091238AF
:1036DC000912382D0237B69002EEE024049002F263
:1036EC00F080359002EEE0F89002F2E0FAE8240463
:1036FC00FCE43400FDEC6A4D6003023682E50A24DA
:10370C00FAFAE50B34FFFBE50828F8E43400F9EA93
:10371C0098EB995003023682851082851183E0C0A4
:10372C00E09002F3E02FF8A3E034008882F583D018
:10373C00E0F00F851082851183A3E0C0E01237DA28
:10374C00D0E0F00F740212188888088909780812E2
:10375C001AB5740212187E121ACC850E82850F834C
:10376C0012312B12075674041218488A0C8B0DEA6E
:10377C00450D70030235CA740212187EE0C0E012C7
:10378C0037DAD0E0F00F740212187EA3E0C0E0121A
:10379C0037DAD0E00235D2EE70027E0A850E8285D1
:1037AC000F8312380F123B4CEEF974061218487F37
:1037BC00100219749002F3E028FAA3E03400FB2203
:1037CC00F514A3E03400F515851482F58322123725
:1037DC00DE229002F3E02FFAA3E034008A82F58314
:1037EC00221237DE74FF2212395BA3A3A3A3E022BB
:1037FC00124718850E82850F831234F922851082A8
:10380C00851183124627851682851783229002F331
:10381C00EAF0A3EBF09002F3124627E84922123BA0
:10382C0052E8F0A3E9F079112274EA1218A274FE9E
:10383C001218328A088B098C128D13EA2405FEE4C7
:10384C003509FFAC18AD198E828F831234F512072F
:10385C00508A0C8B0DEE2406F50EE43FF50FEA456D
:10386C000D700302392DE5082402F50AE43509F53B
:10387C000B8A828B83A3A3A3E0A2E5502885188230
:10388C008519831234F51208AC8A108B11EA451194
:10389C00602079121234EB8510828511831218A0E6
:1038AC00E9F50C707F850E82850F83E060097952F3
:1038BC008011750C0E806D850882850983A3A3A3E6
:1038CC00A3E0F9E4F508F5097808121AB58E828F91
:1038DC0083A3A3E0F5087808121AB58E828F83A310
:1038EC00A3A3121ACC8E828F831244891234EF1246
:1038FC0008BE7406121848E9F50C7011850E828505
:10390C000F83E0702D1234EF1204A4802574166519
:10391C000C7011750C00741812187E123957E48053
:10392C0010750C0112461F851282851383E8F0A3D3
:10393C00E9F0850E82850F83E0600479008002A98E
:10394C000C74021218487F0E02197412395B22E0B3
:10395C00F8A3E0F58388822274EC1218A274F71293
:10396C0018328A0A8B0B8C108D11EA2405FEE43573
:10397C000BFF750C00AC18AD198E828F831234F5C9
:10398C001207508A088B09EA45097003023B23E5AC
:10399C000A2402F50A5002050B8A828B83A3A3A387
:1039AC00E0A2E5502F8518828519831234F5120890
:1039BC00AC8A0C8B0DEA450D604F7912AC08AD0941
:1039CC001234EF850C82850D831218A0E9F50C607A
:1039DC0003023B26850A82850B83E0F508A3E0F5FC
:1039EC0009AA08FB1208A0EA4B70197AFF7BFF1298
:1039FC0008A0EA4B7003023B198A828B83E508F01E
:103A0C00A3E509F07508008008750C0E023B26052D
:103A1C00089002EBE0F8E508C3984003023B1985D7
:103A2C00080E750F007403780E12181F8A828B8390
:103A3C00A3A3E0250EF8A3E0350F123EED70D08E57
:103A4C00828F83123B411231378E828F83A3A31254
:103A5C003B41123135EE2404F508E43FF5098508A5
:103A6C0082F583E088828983A3A3A3A3F0A3E4F067
:103A7C00EE2405F50EE43FF50F850E82F583123B1F
:103A8C0041A3A3A3A3123135751207751300781245
:103A9C00121AB5EEFCEFFD74041218901212D274C7
:103AAC0002121848E4F5127812121AB585088285AC
:103ABC000983E0FC7D0079171234EF12082274029E
:103ACC00121848740712187E123137740712187EB8
:103ADC00E0FA4B603D850882850983123B38121A47
:103AEC00B5850E82850F831244891212D27402128C
:103AFC00184874021218981234EF1204AAE96026BE
:103B0C00740712187E1234F512135C8019750C09A7
:103B1C008008750C118003750C0112461F851082EC
:103B2C00851183123B4CA90C74098028E0F50875AB
:103B3C0009007808221234F98882898322123B52B8
:103B4C00E8F0A3E9F022E0F8A3E0F9850E82850FF6
:103B5C00832274041218487F0C02197474EC121826
:103B6C00A2123C5C751000EE2402F50CE43FF50D3E
:103B7C00850C82F5831234F51208A08A088B09EAA9
:103B8C0045097003023C40850A82850B83E0640181
:103B9C006003023C35AC08AD09AA0AAB0B120894C1
:103BAC00E9606E850882850983122EC2EE2406F523
:103BBC000AE43FF50B8E828F83A3A3121ACC8E825C
:103BCC008F83A3A3A3A3121ACC850A82850B83121D
:103BDC001ACC79188E828F83123C6E1234F512082F
:103BEC00BE7406121848E9F8741668700B850A82C0
:103BFC00850B83E4F0A38014E860128E828F83120D
:103C0C0034F5850E82850F83EAF0A3EBF0881080E3
:103C1C0018780E121AB5AC08AD09EEFAEFFB1208C3
:103C2C009A7402121848E9F510AA08AB091208A6F2
:103C3C00E510700E850C82850D831234F51204B0DC
:103C4C008009741665107003751000A910023B638F
:103C5C00EAFEEBFF8C0E8D0FEE2405F50AE43FF522
:103C6C000B22124718850C82850D832274EA1218D8
:103C7C00A27508007509007E007F00750A00EC240F
:103C8C0002F510E43DF5118035EC65087003ED6527
:103C9C00096003023D2D88828983A3A3E06A700327
:103CAC00A3E06B707C88828983A3A3A3A312462311
:103CBC00EE28FEEF39FFEA28FAEB39FB050A123D34
:103CCC00FD503A850A0C750D007403780C12181F00
:103CDC00851082851183123DF0123EED601FE508C0
:103CEC00450970A58C088D0988828983122EC0889D
:103CFC00828983A3A3E02EFAA3E03F80BEE50AC32A
:103D0C0094025003023DEB750800750900EE4F60FC
:103D1C0010EEFAEFFB1213568A0E8B0FEA450F705A
:103D2C00057900023DED750B00023DC0850B0C754D
:103D3C000D007403780C12181F851082851183E016
:103D4C00250CF50CA3E0350DF50DE50C2406F5144A
:103D5C00E4350DF515851482F583123EF26042E5CB
:103D6C000C2404F512E4350DF513851282F583123B
:103D7C001ACCE50E2508FAE50F3509FB1212D274A0
:103D8C0002121848851282851383E02508F508A3D2
:103D9C00E03509F5098514828515831234F5121363
:103DAC005CE50B600D7C087D007900AA0CAB0D1254
:103DBC0012EA050BE50BC3950A5003023D3885103A
:103DCC008285118312462388828983A3A3A3A3A38C
:103DDC00A3E50EF0A3E50F122A53EEF0A3EFF07952
:103DEC0001023952123DF422E0250CF8A3E0350D06
:103DFC00229002EBE0F8E50AC3982274F01218A2A4
:103E0C008A0E8B0F8C0A8D0B750D00750C00805073
:103E1C007916EE2406F508E43FF5098E828F83A30C
:103E2C00A3121ACC8E828F83A3A3A3A3121ACC85C0
:103E3C000882850983121ACC850E82850F83A3A371
:103E4C001234F51208BE7406121848E9F50D7416F2
:103E5C00650D706C850882850983E4F0A3F0050C70
:103E6C009002EBE0F8E50CC3985066AA0C8A087532
:103E7C0009007403780812181F850A82850B83A326
:103E8C00A3123F3CE8FEE9FF8E828F83123EF26064
:103E9C0040EA2401F508E43400F5099002EBE065F2
:103EAC00087002E509601488828983A3A3A3A3A3E5
:103EBC00A3A3A31235246003023E1C7918023E1EF4
:103ECC00E9609B12461F741012187E123EE4123BDE
:103EDC004CA90D7F08021974E0FAA3E0F5838A82DD
:103EEC0022F988828983124718EC4D2274F6121835
:103EFC00A27C0080010C900348E0F8ECC398501EA3
:103F0C008C087509007402780812181F123F31E0F2
:103F1C006A7003A3E06B70DDE8FAE9FB80047A00B9
:103F2C007B00023FD49002E9123F3C8882898322B5
:103F3C00E02508F8A3E03509F92274F21218A28AD8
:103F4C00088B09750A0080278E828F83A3A3A3A3F5
:103F5C00122A4A600312135C7C087D007900EEFA89
:103F6C00EFFB1212EA8E828F83E4F0A3F0050A12A3
:103F7C003DFD5027850A0C750D007403780C121842
:103F8C001F850882850983A3A3E0250CFEA3E035D9
:103F9C000DFF8E828F8312352470AD8508828509C2
:103FAC008374FFF0A3F002470C74F61218A21208E7
:103FBC00528A828B83E582458370067A007B00806F
:103FCC0007A3A3A3A31234F57F0202197474F4128D
:103FDC0018A289088C828D83E06402703C1245C261
:103FEC00FEA3E0F9EEF87402687003742969702975
:103FFC00750A02750B00780A121AB5741012187E25
:10400C00121ACC741012187E121ACCA90812117C38
:10401C007406121848E9F980027901022A8774E8BB
:10402C001218A274FB121832E9851882851983F0D4
:10403C008A168B17ECFEEDFF7510008E828F83A312
:10404C00A3A3E0A2E4502D741D12187E1234F512B5
:10405C0008AC8A828B83E5824583700302446179C4
:10406C000AEEFCEFFDAA16AB171218A0E9F51060CA
:10407C0003024464741F12187EE0F508A3E0F509EE
:10408C00742112187EE0F50AA3E0F50B74231218C4
:10409C007EE0F50EA3E0F50F8E828F83E064026064
:1040AC0003024402A3124623850882850983A38553
:1040BC008212858313EE2406F50CE43FF50D8882FD
:1040CC0089831244A1F514E439F5157814121B3FB9
:1040DC00010000280128044107000228C9410328D7
:1040EC0037410029F842012923430229C4420329FC
:1040FC00F84204299C430244E50E450F6003024339
:10410C00FD850C82850D83124623E8FAE9FB8A8231
:10411C008B83E0850A82850B831244AC121AB58A14
:10412C00828B83A3E0FCA3E0024386E50E450F607F
:10413C00030243FD850A82850B837401F0124496B9
:10414C00850882850983F07C007D008E828F83A395
:10415C00A3A3A3E02401FAA3E03400FB120750EA66
:10416C004B60408A828B83E02402F8850A82850B9F
:10417C0083E028F0EA2404F8E43BF988828983E0A0
:10418C008512828513831244BA1244AC121AB58A72
:10419C00828B83A3124489E5082403FAE43509FBD6
:1041AC0002438B850A82850B83E02404F07C047D1A
:1041BC00007900AA12AB131212EA024464E50E4510
:1041CC000F60030243FD124496FEA3E0FF850A82B2
:1041DC00850B837404F0EE850882850983F0EF85E6
:1041EC001282851383F07403121898EEFAEFFB1207
:1041FC0007508A0C8B0DEA450D70030242A78A8288
:10420C008B83A3A3122EC07401121888880E890FF9
:10421C00780E121AB5740512187E121ACC7CFF7D1A
:10422C00FF12075674041218488B0FEA450F7033AF
:10423C00850C82850D8312448D121AB5850C8285EE
:10424C000D83A3121ACC7C027D007ACF7B821205DF
:10425C00527404121848E9700A740112187E74FF23
:10426C00F0A3F08E828F83E064027039750C0275B6
:10427C000D00780C121AB58E828F83A3124489E537
:10428C00082404FAE43509FB1212D27402121848FD
:10429C00850A82850B83E024028009740112187E42
:1042AC00EEF0A3EFF0740112187E12447B7401122D
:1042BC00187E1244720243F7E50E450F6003024369
:1042CC00FD850C82850D83124711AA16AB171211AE
:1042DC0082850A82850B837402F0850882850983A6
:1042EC00EAF0851282851383EB0243FAE50E450F43
:1042FC0060030243FD124496F8A3E0F9850A828517
:10430C000B837402F0E8850882850983F0E9851235
:10431C00828513830243FA850C82850D831234F552
:10432C001212CCEAFAF8C3950EE4950F405CE865DE
:10433C000E450F70047A008021851882851983E060
:10434C00FCE50E2CFCE4350FFDC3EC98ED9400500D
:10435C0003E08005E50ECAC39AFAEA850A82850B4A
:10436C0083F08A0A750B00780A121AB5850C8285BF
:10437C000D83E0250EFCA3E0350FFDAA08AB091256
:10438C0012D2740212184802446475100702446475
:10439C00E50E450F705B850C82850D8312462385D7
:1043AC000A82850B837407F0888289831244731206
:1043BC00446BE0851282851383F0E82402FAE43919
:1043CC00FB8A828B8312447B8A828B83124472A376
:1043DC00A3122A52124480F0E82405F850010988EF
:1043EC00828983124480A31244BAA3A3A3A3F080AE
:1043FC006775100B8062741D12187E1234F512084A
:10440C00528A828B83E5824583604A124623880C4C
:10441C00890DE8450D603E742512187EE0F5107884
:10442C0010121AB9780E121AB5780A121AB5780841
:10443C00121AB5740712187EE0F9EEFCEFFDAA16FD
:10444C00AB17850C82850D831218A07407121848BF
:10445C00E9F510800375100EA91074050237B8F039
:10446C0088828983A322A3E085088285098322128E
:10447C0044C1F0221244C1A3A3229002EF124718A8
:10448C0022E0F50E750F00780E22850C82850D83C7
:10449C0012395BE022E0FAA3E0F8E4C8F9EA28223A
:1044AC00F08A828B83E0F50A750B00780A2212449D
:1044BC006B1244C122E0850882850983A3A3227470
:1044CC00EE1218A274FE1218328A088B09ECFEED5B
:1044DC00FF890AAC18AD19EEFAEFFB1207508A0CE3
:1044EC008B0DEA450D70030245B38518828519833F
:1044FC001234F51208528A828B83E582458370034D
:10450C000245AEA3A3124623880E890FE8450F700F
:10451C00030245AE741412187EE0F510A3E0F511F9
:10452C00E50AF50B780B121AB9741912187E121AC7
:10453C00CC7810121AB5741B12187EE0F9AC0CADC5
:10454C000DAA08AB09850E82850F831218A074057D
:10455C00121848E9F50B705274FE650A604C850C14
:10456C0082850D83E0640270411245C2FAA3E0F922
:10457C00EAF87402687003742969702E85108285BC
:10458C0011831244A1F50CE439F50D780C121AB50F
:10459C00EEFCEFFDAA08AB091208D67402121848FB
:1045AC008008750B0E8003750B01A90B7402121891
:1045BC00487F0A021974A312462788828983E02255
:1045CC0074F61218A274FE121832740C12187E12A1
:1045DC004623E8851882851983F0740112187EE948
:1045EC00F0E4F508F5097808121AB5750802780890
:1045FC00121AB57404121888880889097808121AD6
:10460C00B579FE1208BE74061218487402121848C6
:10461C00023FD48E828F8312462722E0F8A3E0F962
:10462C002274F71218A2EAFEEBFF89089003061217
:10463C004489121182EA5402600BA908EEFAEFFBCE
:10464C00120744800279017F0102197474F2121866
:10465C00A274FE121832EAFEEBFF890A7401650A95
:10466C0060147402650A60030247077901120AE0BC
:10467C00E96003024707EEFAEFFB1208A0EA4B6071
:10468C00031208A6A818A919880889097808121A0B
:10469C00B57508027509007808121AB57508C77542
:1046AC0009827808121AB57CFF7DFF7A017B001213
:1046BC00074A74061218488038850882850983A336
:1046CC00A3A3A3A3A3124711EEFAEFFB12116AE402
:1046DC00F50CF50D780C121AB5740212187E121A1C
:1046EC00CC7CFF7DFFAA08AB091207567404121884
:1046FC00488A088B09E508450970BE7402121848EF
:10470C007F0602197412395B12471822E0FCA3E0F1
:10471C00FD2274F41218A28A088B09ECFEEDFF90AE
:10472C001797E0F4604B7A097B001212FCEA4B609D
:10473C00408A828B8374B1F0A3E4124780F08A82A2
:10474C008B83A3A3E508F0A3E509124780A3EEF041
:10475C00A3EFF0740C12187E1246238A828B83A36B
:10476C00A3A3A3A3A3A3123B4C901797E0F9121396
:10477C0008022A87F08A828B83A3A3A3A32274F056
:10478C001218A274FA1218328909ECFEEDFF7508A2
:10479C00008A0A8B0B780A121AF9000410B049CD62
:1047AC0047EB4705481D483B48534876488E48A27E
:1047BC0048CC48474958496F498A49B049B049E201
:1047CC00487401650960030249AB8E828F83E0F85F
:1047DC00C3940340030249ABE890188302498774E1
:1047EC0002650960030249AB8E828F8312510E90D1
:1047FC001884E8F0A3E90249877401650960030293
:10480C0049AB1249D840030249ABE8900749024929
:10481C00877401650960030249AB8E828F83E0F8CF
:10482C00C3940540030249ABE890074A02498774D8
:10483C0001650960030249AB1249D840030249AB38
:10484C00E890074B0249877410650960030249AB75
:10485C00750A10750B00780A121AB57A4C7B071280
:10486C0012D274021218480249D17401650960030E
:10487C000249AB1249D840030249ABE890075C02ED
:10488C0049877401650960030249AB8E828F83E00E
:10489C009018870249877404650960030249AB8E3E
:1048AC00828F83780C1216F690826D780C12152973
:1048BC0050030249AB90075E780C1217050249D1E0
:1048CC00E960030249AB1206EAE9700512112E8069
:1048DC00559007F180617407650960030249AB7557
:1048EC000A06750B00780A121AB58E828F83A3AC58
:1048FC0082AD8374021218901212D87402121848E6
:10490C007C007D00AA18AB198E828F83E0F91210FF
:10491C00DAE9FEC3940A40030249CE1206EAE970B2
:10492C000CEEF91211347950121416806D74F22EAB
:10493C00F582E43407F583740180407401650970D5
:10494C005E1249D85059E890075D802F74016509B3
:10495C00704D8E828F83E0F8C3940A5042E8901811
:10496C008680187401650970368E828F83E0F87426
:10497C00F928C3940A5028E8901888F080477401ED
:10498C006509701B9007F0E0F88E828F83E090072A
:10499C00F0F0E87030E06401702B12112280267563
:1049AC0008188021C3EA9427EB9400501574026513
:1049BC0009700F8E828F83125BEE12056AE9F5087F
:1049CC008003750802A9087406024CFC8E828F8342
:1049DC00E0F8C3940222A90880031218487F04024D
:1049EC00197474F01218A274B11218328C0A8D0B4F
:1049FC0090821C7420121898740612174574201299
:104A0C0018981210DAE9FF745F12187EE0F509EFBE
:104A1C00C3940A4003024B7075F006EFA4F50874BA
:104A2C00411218987A0E74202508F9121410E970A6
:104A3C0009744D12187EE0FE80027E00901883E00F
:104A4C0064027005750E018003750E00740865090B
:104A5C0070047422800274212508F50D7C1B7D00E6
:104A6C00790074261218901212EA74261218987A89
:104A7C001BA90D121410E9702D744012187EE0243D
:104A8C00F9C3940A5020E50EF50D780D121AB9747D
:104A9C0027121898EEA2E0E433F9AA0AAB0B12061F
:104AAC000C74011218487C147D007900740C1218D7
:104ABC00901212EA740C1218987A1074242508F9C2
:104ACC00121410E970347C1079FF740C12189012C7
:104ADC001350E97025741C12187EAC82AD837A04D5
:104AEC0074252508F9121410740C121898EEA2E013
:104AFC00E433F9AA0AAB0B1205F4AC18AD197A0C15
:104B0C0074702FF9121410E97049AA18AB1912110C
:104B1C000A7F00EF75F003A4F8A9F08518828519B7
:104B2C0083E58228F8E5831252C51254A6601D88CD
:104B3C00828983A3A3E0F50E750F00780E121AB5C7
:104B4C00AA0AAB0B1208C474021218480FEFC394D4
:104B5C000440C0EEA2E1500C900748E0F9AA0AAB61
:104B6C000B1208CA740465097028901883E064025B
:104B7C0070207A0090075CE060027A01900749E0AF
:104B8C006004780480027800E84AF9AA0AAB0B1298
:104B9C0006C07900744F024CFC74F71218A212066E
:104BAC00EAE9704F9007F1E06401701512112E9034
:104BBC0007F1E4F07C0AFDF97AF27B071212EA8025
:104BCC002A750800A80874F228FEE43407FF8E82C8
:104BDC008F83E06401700BA9081211348E828F83CD
:104BEC00E4F00508E508C3940A40D979501214166C
:104BFC001211220255DD74F01218A274F012183240
:104C0C00EAFEEBFF8C088D09750A0AE9600C14604A
:104C1C000914603B14607D024CF812111CE9F50A72
:104C2C00C3940A4003024CF8E50845097003024C92
:104C3C00F8750C06750D00780C121AB5EEFCEFFD2C
:104C4C00AA08AB091212D27402121848024CF87559
:104C5C000C00750E06750F00780E121AB5EEFCEFEF
:104C6C00FDE50C75F00EA4F8A9F0746A28FA740727
:104C7C0039FB1212E47402121848E9700B050CE5AA
:104C8C000CC3940A506680CA850C0AE50AC3940AC0
:104C9C00505A8049750C00AC18AD197A1075F00695
:104CAC00E50CA42423F9121410E9701C7C1079FF74
:104CBC00AA18AB19121350E9700EEEFCEFFDAA18EE
:104CCC00AB191205D0E9600B050CE50CC3940A5026
:104CDC001B80C4850C0AE50AC3940A500FE50845ED
:104CEC00096009AA08AB09A90A121116A90A7410BD
:104CFC001218487F0802197474F41218A2890975E5
:104D0C00081574FF6A700374FF6B70277E00AC0982
:104D1C007A027B00EEF91210F8E960037508000EB8
:104D2C00EEC3940A40E8E50960537A467B11120BF6
:104D3C0004804A120AD48A0A8B0BAE0AAF0BEE4FD0
:104D4C0060387C007D00EE2405FAE43FFB8E828FF8
:104D5C0083A3A3A3A3E0F91210DAE9F9C3940A50D0
:104D6C000CAC097A027B001210F8750800E509609A
:104D7C000CEEFAEFFB12114680037508140249E29F
:104D8C0074F21218A2ECFEEDFF750815740E1218D1
:104D9C007EE0F50AA3E0F50B74FF6A700374FF6BF9
:104DAC007021750900AC0AAD0BEEFAEFFBA90912E4
:104DBC0010FEE960037508000509E509C3940A5063
:104DCC003F80E2120AD48A828B83E5824583602D70
:104DDC007C007D00E5822405FAE43583FBA3A3A3C4
:104DEC00A3E0F91210DAE9F9C3940A5013AC0AAD36
:104DFC000BEEFAEFFB1210FE750800800375081419
:104E0C00A9087F06021974C082C083900762EAF079
:104E1C00A3EBF0900748E0FC7D007A267B0012059E
:104E2C006A900748E0F912082E0258F774EE12182F
:104E3C00A274EC1218328A088B09EA240CF510E4DF
:104E4C003509F5118A828B83A385820C85830DEA43
:104E5C002405F50EE43509F50FEA2409F50AE435C5
:104E6C0009F50BEA2403FEE43509FF8A828B83A340
:104E7C00A3E024FA70030250FC24FD700302501CC2
:104E8C00147003024F1614601024FD7003024FFFC0
:104E9C00147003025054025102125BF46044E0F5AA
:104EAC0083888212510E880C890DE8450D6033857C
:104EBC001082851183E0F50E780E121AB9EA240BD4
:104ECC00F582E43509F583E0F9125BE80A0A0AEF8A
:104EDC00FB850C82850D831218A0740112184802F0
:104EEC005102850A82850B83121ACC90075E121729
:104EFC00141206067402121848E970030251027962
:104F0C0001850A82850B830250CC750A00850C82C0
:104F1C00850D83E06003024FCC850E82850F83E004
:104F2C00A2E04003024FCC9007FC125BF760030237
:104F3C004FCC7C0E7D007900AA18AB191212EA85B1
:104F4C0010828511831258C2EA4B6010750A0675DF
:104F5C000B00780A121AB5EA2410801B1258BE12E4
:104F6C000AD4EA4B7003025102750A06750B0078DD
:104F7C000A121AB5EA2405FCE43BFD7402121890DF
:104F8C001212D27402121848850E82850F83E0A289
:104F9C00E25004D2F08002C2F0A2F0E433F8740CB8
:104FAC0012187E125A76121110E970117A027B00D7
:104FBC00900748E0F912132C7900025104750A1578
:104FCC00125BF4700302510212512370030251025E
:104FDC00850C82850D83E0FC79011251141218A006
:104FEC00E50A7003025102FC79031258BE1258797B
:104FFC000250F7125BF4700302510212512370033A
:10500C00025102850C82850D83E0FC79020250F47A
:10501C007C007D00EA2404FAE43509FB8E828F8340
:10502C00E0F91210DAE9F8C3940A4003025102E5E0
:10503C0008240AFCE43509FD7A0475F006E8A4247A
:10504C0025F912140A0251021258BE90075DE06055
:10505C0007901886E0F9806B901883E0700479054E
:10506C008061120AD48A0C8B0DA80CA90DE849702A
:10507C0003025102E82404F50CE439F50D8508828D
:10508C00850983A3A3A3A3A3A3A3E0A2E05039851E
:10509C000C82850D83E0F508602E850A82850B83D2
:1050AC00A3E054027022740E121898E82405FAE456
:1050BC0039FBA9081210DAE9700E79038E828F83FE
:1050CC001258C2120600802EAC0EAD0F850C8285D4
:1050DC000D83E0F91258BE121152125BF4601712D4
:1050EC00512360127C0079001251141218A0800612
:1050FC001258BE1210D4790174141218487F0A0287
:10510C001974E0F8A3E0F9228E828F83E0FAA3E011
:10511C00FB888285098322125887F98909E8450999
:10512C002274F51218A274F2121832EAFE8C0A7567
:10513C00F006E9A42420F508AC18AD197A0EF91282
:10514C001410E970467C0679FFAA18AB191213509B
:10515C00E97038740C12187E1258C2EAF8E50A602D
:10516C0005EEC8488004EEF4C858F8EA687001EB04
:10517C006015740C12187EE8F0A3E4F0AC18AD19AD
:10518C007A0EA90812140A790180027900740E12A1
:10519C0018487F0302197474F21218A274E61218DC
:1051AC0032890A8A088B09ECFEEDFF740C121898F0
:1051BC007A0E75F006E9A42420F9121410E96003A4
:1051CC000252887C0679FF740C121890121350E965
:1051DC0060030252887470250AF50BAC18AD197A6D
:1051EC000CF9121410E96003025284AA18AB1912BC
:1051FC00110AE5084509701D7C0C7900AA18AB1939
:10520C00121350E970727C0C7D007900AA18AB194E
:10521C001212EA8051AC18AD19AA08AB091211048C
:10522C008A0C8B0DA80CA90DE8497022EE4F604C2E
:10523C00AC18AD197A007B00121104EAF8EBF9EA0C
:10524C004B603988828983E508F0A3E509F0125395
:10525C0001FAEE6A7001EF601FEEF04F7008888261
:10526C008983E4F0A3F0AA18AB1912110AAC18AD9B
:10527C00197A0CA90B12140A790180027900741A9C
:10528C00121848024E0E74F71218A27E00EE75F03A
:10529C0003A4F8A9F0EC28F8ED1252C5E06A7003EB
:1052AC00A3E06B7006E8FAE9FB800B0EEEC39404E6
:1052BC0040DB7A007B000255DD39F9888289832234
:1052CC0074F71218A27C00EC75F003A4F8A9F0EAAC
:1052DC0028F8EB1252C5E0F4FEA3E0F4FF888289B3
:1052EC0083EEF0A3EFF0125301F4F00CECC3940432
:1052FC0040D50255DDE82402F582E439F583E0223D
:10530C0074F41218A274F4121832EAFEEBFF8C0833
:10531C008D099007FC125BF7704FEE4F700302542F
:10532C0085EC4509700302548512111CE99018890B
:10533C00F0C3940A4033750B007C0679FFE50B75BE
:10534C00F00EA4FAABF074642AFA74073BFB121348
:10535C0050E960030253E6050BE50BC3940A40D9F0
:10536C00750A0AE50A901889F0901889E0C3940A26
:10537C00400302548575F006E0A4FB9007FC125B19
:10538C00F7705CEEFCEFFD7A0E74202BF912140A08
:10539C007C0C7D0079FFAA18AB191212EAAC18AD7F
:1053AC00197A0C901889E02470F912140A750A0EF7
:1053BC00750B00780A121AB5EEFCEFFD901889E017
:1053CC0012553E1212D274021218489007FCE508CE
:1053DC00F0A3E509F07900025487850B0A8084E07C
:1053EC00C824061254A060197A1B74212BF91214CC
:1053FC000A12548C2406F582E438F583E4F0A38079
:10540C00D312548C240A1254A060107A1B74222BD1
:10541C00F912140A12548C240A80DB12548C240CBA
:10542C001254A060107A1074232BF912140A12541F
:10543C008C240C80C11254951254A060307A1074D4
:10544C00242BF912140A125495F582E438F583E0F2
:10545C002410FCA3E03400FD7A0475F00690188942
:10546C00E0A42425F912140A12549580899007F0AF
:10547C00E0600312115812114C7901740C0249E6C8
:10548C009007FCE0F8A3E0C8229007FCE0F8A3E04A
:10549C00C8240822F582E438F583125BEEEC4D2229
:1054AC0074F41218A274F2121832EAFEEBFFE9C37C
:1054BC00940A5004EE4F700479028034AC18AD1984
:1054CC007A0E75F006E9A42420F9121410E9F508F7
:1054DC00701C750A06750B00780A121AB574021244
:1054EC001898EEFAEFFB1212D27402121848A9089F
:1054FC00740E0249E674F41218A2EAFEEBFF75086A
:10550C0000750A06750B00780A121AB5EEFCEFFD51
:10551C00E50812553E1212E47402121848E96004B0
:10552C00A908800B0508E508C3940A40D4790A023F
:10553C0049E975F00EA4F8A9F0746428FA740739D7
:10554C00FB2274F71218A2750800E50875F00EA47A
:10555C00F8A9F0746428FE740739FFEEFCEFFD7AAD
:10556C000E75F006E508A42420F9121410E9602940
:10557C007C067D0079FFEEFAEFFB1212EA7C067DC9
:10558C000079FFEE2CFAE43FFB1212EAEE240CF544
:10559C0082E43FF583E4F0A3F00508E508C3940A20
:1055AC0040A89007F0E0600312115812114C8021B2
:1055BC0074F71218A27E007F007C06EF12553E791C
:1055CC00FF121350E970010E0FEFC3940A40EAEE7C
:1055DC00F97F0102197474F71218A27E00EEF91209
:1055EC001134E9F90EEEC3940A5003E960EF80E13F
:1055FC0074F31218A274CB1218328908901889E02F
:10560C006508701B7A017B00900748E0F912133291
:10561C007A027B00900748E0F9121332121164757C
:10562C00F006E508A4FF74202FFE74271218987A50
:10563C000EEEF9121410E960030257047C0679FF90
:10564C007427121890121350E960030257047C0E51
:10565C007D0079FF74271218901212EA7C1B7D00D2
:10566C0079FF740C1218901212EA7C0C7D0079FFF1
:10567C00AA18AB191212EA74271218987A0EEEF9BE
:10568C0012140AE9FE740C1218987A1B74212FF963
:10569C0012140AE9F509740C1218987A1B74222F4B
:1056AC00F912140AE9F50A740C1218987A1074237A
:1056BC002FF912140AE9F50B740C1218987A10745D
:1056CC00242FF912140AE9F50C740C1218987A04A8
:1056DC0074252FF912140AE9FFAC18AD197A0C7461
:1056EC00702508F912140AE9F8E509450A450B4535
:1056FC000C4F48CE4EFE80027E00EEF97435121827
:10570C00487F0502197474F71218A2E9900748F043
:10571C001211220255DD74F21218A2EAFEEBFF54AC
:10572C008070030257E1900748E0F91213148A08BD
:10573C008B09EA450970030257DA7A01E50824055A
:10574C00F50AE43509F50BE5082404F8E43509F904
:10575C00880C890D8508828B83E024506036146098
:10576C000624E16058805D88828983E07059850841
:10577C00828B83A3A3A3A3A3A3A3121ACC125BE8CB
:10578C008508828B83A3A31258C21210E6740212EE
:10579C001848803388828983E0641E700F790085F5
:1057AC0008828B83A3A31258C21210E0850C828549
:1057BC000D83E0F9AA0AAB0B120828800AAA08127A
:1057CC0010F2E9FAEA6007AA08AB09121302EEFA22
:1057DC00EF6480802AEE54026028EE6402FE7C00A6
:1057EC007D007A007B00121110E960047A018002BE
:1057FC007A027B00900748E0F912132CEEFAEFFBCB
:10580C008068EEA2E050556401F508EFF5091258D6
:10581C009712115EE96033125BF4602912588F12F3
:10582C00510EE8FEE9FFEE4F601B7C007901125827
:10583C00978E828F831218A07C00790312589712CE
:10584C0058791218A0121164800C7A017B00900711
:10585C0048E0F912132CAA08AB09800E5404600618
:10586C00EE6404FA80047A007B00024E0E9007620C
:10587C00E0F8A3125887F58388822212588FE0F83B
:10588C00A3E022E0F5838882A3A3229007FC125B9D
:10589C00D8E0FAA3E0FB227F02021974C082C08315
:1058AC00900748E0F98A828B83A31258C21208CA67
:1058BC0080398E828F83E0FAA3E0FB22C082C08302
:1058CC0074FF121832121128E9C3940285188285CC
:1058DC001983400474028002740AF0AC18AD197A72
:1058EC000179051207087401121848D083D082027E
:1058FC00011F74F01218A274E8121832EAFEEBFFC2
:10590C00890A8C088D097C187D007900AA18AB19BE
:10591C001212EA851882851983EEF0A3EFF0900736
:10592C004AE0C0E0740212187ED0E0F090074BE021
:10593C00C0E0740312187ED0E0F0901888E0C0E04C
:10594C00741712187ED0E0F0901887E0A2E0E433D0
:10595C00FCE0A2E15004D2F08002C2F0A2F0E433E9
:10596C00F8E0A2E45004D2F08002C2F0A2F0E433DA
:10597C00FAE0A2E55004D2F08002C2F0A2F0E433C7
:10598C00F50E750F00E0A2E65004D2F08002C2F0D2
:10599C00A2F0E433F50C750D00E0A2E25004D2F055
:1059AC008002C2F0741512187EE054FEFEA3E0FFD4
:1059BC00EE4CFCEFFDEC54FDFCE828F8EC48F8ED5F
:1059CC0054FEF9EAFBE94BF9E8FAE954FDFB7409DA
:1059DC00780E12181FEB450F54FBFB740A780C124F
:1059EC00181FEAF8EB450DF9E854FBFAA2F0E43382
:1059FC00F50C750D007402780C12181FEA450CF8A2
:105A0C00741512187EE8F0A3E9F090074BE0601DC6
:105A1C00750C10780C121AB57C4C7D077406121894
:105A2C007EAA82AB831212D2740212184890075CC1
:105A3C00E06011E50A6009741512187EE04402F06A
:105A4C00780180027800741412187EE048F09007F8
:105A5C0049E06004780480027800741412187E12F5
:105A6C005A761205FA7418024CFCE048F0AC08ADFA
:105A7C0009AA18AB192274F71218A212091E75087C
:105A8C0000E50875F00EA4F8A9F0746428FE7407FC
:105A9C0039FF7C0679FFEEFAEFFB121350E970091F
:105AAC00EEFAEFFB79001209240508E508C3940A05
:105ABC0040CF0255DD74F61218A274FD121832EAAA
:105ACC00FEEBFF9007FE125BF77039750800750945
:105ADC00087808121AB57508027509007808121AA8
:105AEC00B57508C77509827808121AB57CFF7DFF59
:105AFC007A017B0012074A74061218489007FEEAD6
:105B0C00F0A3EBF09007FE125BF77003025BCA7513
:105B1C0008FF7808121AB9E4F508F5097808121A82
