:020000040000FA
:060000000201070222A527
:03002B0002271396
:030033000226F5AD
:03003B0002273960
:030043000226A9E9
:0300530002231B6A
:03006B000226CF9B
:100083000220FBE5C754F84401F5C77901220000BB
:100093000080FB120086B900030200F1E4792178A5
:1000A30008B800028004F709D8FCE479297802B87B
:1000B30000028004F709D8FCE4900281786B79157B
:1000C3008002F0A3D8FCD9FA7AEB7B16900137783B
:1000D3006C79048015E493A3AD82AE838A828B830B
:1000E300F0A3AA82AB838D828E83D8E9D9E7758288
:1000F300BD7583B5740312011975829175830074FC
:100103000012011975D00075813F751881751902A8
:10011300759F00020096C09FF59FE473D09F22D085
:1001230083D082C09FE493C0E0740193C0E0740263
:1001330093F59F22FF0000B4000028002800283018
:1001430075A000A000A000A00000080008E001F0D6
:10015300001000100010001000100010005000509C
:1001630000500010001000D0070000000000000F36
:100173000001000500307507001000010081FF0039
:10018300000000FFFFFFC406E206CA060607FF02DF
:10019300020208025000A0000000E80302D182011D
:1001A3000000BB8202E382010000461702C5820100
:1001B3000000BF0202E382010000471702C382016D
:1001C3000000D50202E382010000481702C9820140
:1001D3000000D70202E382010000491702DF820810
:1001E3000000D80202E3820100004A1702E1820103
:1001F30000004B17FF0100FF2002D182010000B570
:100203008202E382010000AF1702EF8200000000C8
:100213000002C78203000006031700720D720D72FD
:100223000D720D720D720D720D720D720D720D72D3
:100233000D720D720D18102A101210020202020222
:1002430002020202010D000000100102D18201002E
:1002530000B88202E382010000F21702D782010094
:1002630000400702E382010000F31702D982010074
:1002730000898102E382010000F41702DB8201009E
:1002830000608102E382010000F51702DD820100B4
:1002930000C88002E382010000F61702CD8201004C
:1002A30000EC8002E382010000F71702ED820100F7
:1002B30000FE8002E382010000F81702EB820100D6
:1002C30000B68002E382010000F91702E98201000F
:1002D300006E8102E382010000FA1702E582010049
:1002E30000FB1701E8030577100AFFFFFF00013049
:1002F300750302010600000000000000000000007A
:1003030000000000000000000000000000000000EA
:1003130000FFFF0600800CE803140953696D706C3D
:1003230065424C455065726970686572616C05126F
:1003330050002003020A000201060302F0FF536982
:100343006D706C6520424C4520506572697068651C
:1003530072616CE0140000E6140A43686172616321
:100363007465726973746963203100024368617252
:10037300616374657269737469632032000843684A
:100383006172616374657269737469632033001009
:10039300436861726163746572697374696320345D
:1003A300000243686172616374657269737469639F
:1003B3002035000A436861726163746572697374FE
:1003C30069632036002043686172616374657269F2
:1003D3007374696320370002D182010000BE820278
:1003E300E382010000101902F382030000C9160220
:1003F300CB82010000111902E382010000221902DD
:10040300F582010000CA1602CB8201000023190203
:10041300E382010000341902F782020000CB1602C6
:10042300CB82010000351902E38201000046190264
:10043300F982010000CC1602C782030000CD160228
:10044300CB82010000471902E38201000058190220
:10045300FB82040000CF1602CB820100005919026F
:10046300E3820100006A1902FD82030000D4160230
:10047300CB820100006B1902E3820100007C1902A8
:10048300E782000000D51602C782030000E91602C6
:10049300CB820100007D1900000000000000001263
:1004A3000122FB8B031201220E8C031201223F8CCB
:1004B30003120122798C03120122D28C031201222E
:1004C300198D03120122618D03120122908D0312F3
:1004D3000122BF8D03120122F68D031201223D8EEC
:1004E30003120122568E03120122AB8E0312012244
:1004F300C48E03120122128F031201224C8F0312A6
:100503000122ACA802120122AFA902120122E8A91A
:10051300021201220BAA021201221DAA02120122B7
:100523005BAA02120122D7AA021201229FAB021276
:100533000122C1AB0212012258AC02120122AAAC61
:1005430002120122DBAC02120122E8AC02120122E8
:1005530052AD02120122A9AD02120122ACAD021268
:100563000122E5AD02120122E8AD02120122F2AD31
:100573000212012246AE0212012287AE02120122AA
:10058300BAAE02120122F7AE02120122F9AF021231
:1005930001229DB00212012206B10212012244B1CE
:1005A300021201221A84031201224284031201223D
:1005B3006F8403120122A78403120122058503120B
:1005C3000122518503120122B88503120122F88505
:1005D30003120122358603120122638603120122CC
:1005E3000D870312012217870312012224870312A6
:1005F30001225787031201226387031201227B879B
:1006030003120122858703120122F4B3031201228C
:1006130002B4031201221AB40312012231B40312E9
:100623000122B8A70112012262A80112012275A9B1
:1006330001120122F1A9011201220FAB01120122C1
:100643004BAB01120122E6AB01120122CAAC01122B
:10065300012296AD0112012224AF0112012295AFAE
:10066300011201224FB00112012241B101120122F4
:1006730081B10112012235B20112012267B20112C6
:1006830001225DB4011201229FB401120122BDB403
:100693000112012223B501120122F2B50112012236
:1006A300B6B601120122D5B80112012260C90212A5
:1006B30001224ACA02120122F5CA0212012246CBC2
:1006C30002120122F6CB0212012267CC021201228E
:1006D3004CCD0212012280CD0212012279CE0212E8
:1006E3000122B6CE0212012292CF02120122D1CFF1
:1006F30002120122EDCF02120122C4A6031201222B
:1007030048A70312012273A7031201228DA8031223
:100713000122138803120122298803120122478828
:100723000312012258890312012262890312012252
:100733008D8A03120122848B03120122F18B03128F
:100743000122F5D5021201222BD70212012262D710
:1007530002120122B9D702120122CED902120122BA
:100763000283011201228E8301120122F2840112FB
:100773000122FE8401120122398501120122A8857A
:1007830001120122B18601120122BA87011201224C
:10079300818801120122DE8901120122FC890112E2
:1007A3000122198A01120122C68A01120122438BF6
:1007B300011201226B8B01120122358E01120122DB
:1007C3003A8E01120122539001120122A1900112CB
:1007D30001221191011201224F91011201222B9248
:1007E30001120122EB92011201223793011201221D
:1007F3003A93011201227E9301120122C693011240
:1008030001220594011201222794011201225B9413
:1008130001120122BE940112012295DB0212012270
:10082300A3DB02120122F6DB0212012215DC021203
:1008330001225ADC021201229EDD0212012239DE5C
:10084300021201227DDE02120122A7DE0212012220
:1008530016DF021201225CDF02120122D3DF021231
:10086300012284E002120122AC2700120122BC27DC
:10087300001201225D2800120122B9280012012270
:10088300762900120122922A00120122C42A0012A0
:100893000122F32A00120122A02C00120122172F99
:1008A3000012012287310012012279320012012243
:1008B3007233001201227935001201226D380012C1
:1008C30001229C3900120122A03B00120122B03CFC
:1008D300001201223F3E00120122303F001201228A
:1008E3007E3F00120122ED3F00120122114000124F
:1008F3000122624000120122034500120122044634
:1009030000120122654600120122904600120122C4
:1009130056470012012241FB021201224BFB021235
:10092300012290FB02120122A4FB0212012234FCD9
:10093300021201226DFC02120122A8FC0212012202
:10094300D1FC0212012225FD021201223AFD0212FC
:1009530001225CFD0212012271FD0212012285FDBA
:10096300021201229AFD02120122D4FD0212012277
:1009730000FE0212012249FE02120122BBFE0212F4
:100983000122FEFE0212012228FF0212012253FF5E
:1009930002120122E6B003120122108B021201227D
:1009A300F38B021201226E8C02120122A98C021215
:1009B3000122FA8D02120122888E021201221A915B
:1009C30002120122CC9102120122D89202120122B8
:1009D3004B9402120122A494021201226DEE021220
:1009E3000122B0EE0212012234EF021201220BF2B5
:1009F3000212012250A20312012202A303120122B6
:100A0300FEA3031201223DA40312012297A40312A1
:100A13000122BCA8031201221FA903120122BCA9AF
:100A230003120122F1A90312012221AA03120122B6
:100A33005CAA031201227CAA0312012296E002128D
:100A4300012222E102120122E1E102120122F9E272
:100A53000212012213E502120122BFF30112012245
:100A6300E4F301120122B1F40112012285F501120E
:100A73000122F2F50112012232F601120122CEF611
:100A83000112012202F801120122DDF801120122F2
:100A93003CF901120122C8F90112012236FA0112AE
:100AA3000122C2FA0112012208FB011201227AFB80
:100AB300011201220CFC01120122ADFC01120122E0
:100AC300CDFC0112012215FD011201225EFD01126E
:100AD30001227AFD01120122A0FD011201221AFE58
:100AE3000112012228FE01120122B7FE0112012286
:100AF30020FF011201224AE502120122CFE5021270
:100B0300012211E602120122F5E60212012262E736
:100B130002120122A6E702120122EAE702120122CF
:100B230017E8021201223FE80212012277E80212BB
:100B33000122B5E802120122DCE80212012256E981
:100B430002120122A0E902120122E2B801120122DB
:100B530081BA01120122B9BC011201220DBD011299
:100B6300012238BD0112012214BE0112012244BE2A
:100B73000112012273BE0112012286BE011201225B
:100B8300C7BE01120122F4BE0112012242BF0112AB
:100B930001227EBF01120122C3BF0112012210C034
:100BA300011201228AC001120122CBC201120122C9
:100BB300B5C401120122F1C40112012280C601123F
:100BC3000122C5C60112012238C7011201228DC7B5
:100BD3000112012292C7011201221CC80112012233
:100BE3003BC9011201224CC9011201220D9F0212BD
:100BF3000122869F0212012240A5021201224BA666
:100C030002120122F4A70212012282A80212012277
:100C13005C5C00120122DD5C001201220A5D0012FD
:100C23000122535D00120122545E00120122AD5EC7
:100C330000120122296000120122AB60001201227E
:100C4300C66000120122376100120122F461001212
:100C53000122B76200120122456300120122FC63E4
:100C6300001201220F6400120122A8640012012263
:100C73003F6500120122666500120122CF65001252
:100C830001221966001201226766001201220C6715
:100C930000120122AA670012012237680012012202
:100CA300A86800120122EF680012012247690012AE
:100CB3000122796900120122336A001201223A6B80
:100CC30000120122836B00120122A06B0012012289
:100CD300BF6B00120122F26C00120122A96D0012F7
:100CE3000122CE6D00120122E36D00120122536E28
:100CF30000120122946E00120122B86F0012012229
:100D03003970001201224D950212012298950212A8
:100D13000122A495021201227896021201228F96D3
:100D230002120122CC9602120122FD960212012226
:100D33003597021201228B9702120122A197021208
:100D43000122DD9702120122F09702120122179865
:100D5300021201224B9802120122719902120122FE
:100D6300BB9A02120122B79B02120122D49C0212E7
:100D73000122FC7F001201226F7000120122AA706F
:100D830000120122FC730012012258750012012285
:100D93001776001201227E7900120122687A00126E
:100DA3000122B47A00120122CE7A001201220B7BB7
:100DB30000120122167B00120122557B0012012230
:100DC3005E7B00120122087C00120122DF7C0012EC
:100DD3000122337D00120122907D00120122027E46
:100DE30000120122969501120122F59801120122A7
:100DF300FB98011201222CA00112012233A401123B
:100E03000122A59903120122829A03120122C69A92
:100E130003120122009B03120122989B0312012259
:100E2300079C03120122109C031201221C9C031233
:100E33000122369C03120122609C03120122909C22
:100E430003120122FFF6021201220CF70212012201
:100E530026F70212012259F70212012297F7021212
:100E63000122FCF70212012211F8021201221CF8DE
:100E73000212012229F80212012240F80212012271
:100E83004EF80212012259F80212012265F80212E9
:100E9300012274F8021201227FF802120122A2F841
:100EA3000212012246F90212012256F9021201220C
:100EB30070F9021201228DF902120122A8F902121D
:100EC3000122CDF902120122D8F902120122EDF911
:100ED3000212012201FA0212012262FA0212012213
:100EE30068FA021201226EFA0212012274FA021245
:100EF30001228CFA02120122BFFA021201223CE6FD
:100F030001120122D3E6011201226BE70112012231
:100F13005BE80112012292E801120122A5E8011205
:100F2300012213E901120122AEEA01120122D5EADC
:100F33000112012277EB01120122ACEB0112012213
:100F4300BDEB0112012236EC0112012257EC011212
:100F530001226FEC01120122C7ED01120122D0EF31
:100F63000112012220F20112012223F301120122B4
:100F730072F3011201226FC9011201226CCA01121C
:100F8300012257CB0112012261CB0112012283CB33
:100F9300011201228FCB01120122E1CC01120122A5
:100FA30010CD0112012240CE0112012282CE011284
:100FB3000122AECF0112012284D001120122D6D028
:100FC3000112012235D1011201226CD10112012239
:100FD300A7D10112012242D5011201225BD50112D0
:100FE3000122DDD501120122EBD50112012240D6E7
:100FF300011201224ED601120122BBD60112012297
:101003002DD70112012273D701120122008002128F
:1010130001222280021201220C8202120122B185D6
:1010230002120122F48602120122CE870212012249
:101033008AAA03120122AFAA0312012220AB0312D0
:1010430001226AB10212012273B1021201227CB1A0
:1010530002120122ADB202120122CCB40212012209
:1010630002B5021201223CB50212012272B502122C
:101073000122ACB502120122E0B5021201220CB624
:101083000212012255B6021201228FB60212012268
:10109300D7B6021201222DB70212012262B7021241
:1010A3000122BDB702120122F7B70212012248B88A
:1010B300021201227EB802120122B8B802120122E2
:1010C300E6B80212012209B902120122517F00126D
:1010D30001227D7F00120122D87F00120122E27FCC
:1010E30000120122F27F00120122BE9C0312012290
:1010F300E59C031201220F9D0312012210B6031275
:101103000122C24700120122264A00120122DD4BAE
:10111300001201223A4C001201223C4D001201221E
:10112300C44D001201224B4E00120122704E0012D8
:101133000122655100120122DB5100120122CA5221
:10114300001201220453001201224453001201220F
:10115300E45400120122395500120122865500126F
:101163000122F455001201221A56001201223456AC
:10117300001201224A57001201225A57001201227B
:10118300E0580012012200590012012236590012C0
:101193000122BA5A00120122F95A00120122375CC5
:1011A30000120122E0E90212012238EA02120122AE
:1011B30080EB02120122EFEB02120122AAEC0212CF
:1011C3000122C9EC021201221DED021201225BED84
:1011D3000212012243FF0112012254FF01120122D4
:1011E3005AB60312012299B60312012293B70312CE
:1011F3000122C1B403120122D1B403120122ECB4BF
:101203000312012254B503120122FAB1031201227F
:101213007EB203120122E4B20312012268AF031269
:10122300012291AF03120122FEAF0312012252B039
:1012330003120122ABB003120122509303120122C5
:10124300659303120122899403120122F39403127A
:1012530001226795031201228195031201229895B9
:1012630003120122AB9503120122C395031201223B
:10127300D89503120122F995031201224A9603120B
:101283000122B48F03120122CB8F03120122449057
:1012930003120122199103120122EB92031201227C
:1012A3007F96031201221197031201228F970312D3
:1012B3000122169803120122A89803120122FF9813
:1012C3000312012209990312012218990312012220
:1012D3002E9903120122419903120122A2990312AA
:1012E3000122DEAD0312012207AE0312012230AE4A
:1012F30003120122C9AE03120122E1AE031201223D
:1013030023AF0312012297B902120122A1B90212DB
:101313000122E1B9021201222ABA0212012264BA9D
:1013230002120122BABA02120122D9BA021201220E
:101333005EBD0212012267BD02120122B8BD021274
:101343000122E1BD02120122F6BD0212012266BE94
:1013530002120122F4BE0212012238BF021201223C
:1013630060BF02120122DFBF0212012222C0021259
:1013730001225FC00212012271C00212012290C039
:101383000212012299C0021201225EC1021201223D
:1013930040AC0312012291AC031201221AAD0312D5
:1013A300012280AD031201228C9F03120122B69FFA
:1013B30003120122B0A003120122DFA003120122B3
:1013C30065A103120122FDB203120122C2A403127A
:1013D3000122F8A40312012231A5031201228AA6D5
:1013E300031201227BFF0212012291FF021201224A
:1013F3009BFF021201225EB5031201228AC102126F
:10140300012247C20212012282C202120122AAC28F
:10141300021201220CC30212012258C3021201223A
:10142300C3C3021201223FC4021201223BC50212AE
:101433000122C2C60212012245C702120122A9C714
:1014430002120122C0C702120122B6C802120122EF
:1014530002C9021201220080031201221580031225
:101463000122C88003120122088103120122218173
:1014730003120122548103120122A18103120122CA
:10148300D581031201221782031201220D84031254
:101493000122FCD701120122B3DB0112012245DD37
:1014A300011201229CDD01120122BBDD0112012286
:1014B30039DE01120122CBDF01120122AFE001125A
:1014C3000122C0E40112012294E5011201224ED04F
:1014D3000212012288D00212012209D30212012230
:1014E300D8D3021201225CD502120122BDF20212EC
:1014F300012225F30212012242F3021201224CF4CB
:1015030002120122BDF402120122B3F502120122DA
:10151300A3B60312012220B703120122E9B6031274
:1015230001224CB70312012275B703E0667010085D
:10153300A3E066700A08A3E066700408A3E06622CD
:10154300C3E7960809E7960809E7960809E796228C
:10155300C3E09608A3E09608A3E09608A3E09622CA
:10156300C008C3E096F50808A3E096420808A3E084
:1015730096420808A3E09645087001D3D0082208D4
:101583000808EAC0E0EBC0E086F0E7A4FA18098691
:10159300F0E7A42AFA180986F0E7A42AFA180986BC
:1015A300F0E7A42AFA1986F0E7A4FBE5F02AFA1972
:1015B3000886F0E7A42BFBE5F03AFA190886F0E772
:1015C300A42BFBE5F03AFA18180986F0E7A4C5F056
:1015D3002BFBE43AFA1908E7C5F0C6A426F6E5F0B2
:1015E3003BFBE43AFA1886F0E7A4F6E5F00826F6A2
:1015F300E43B08F6E43A08F6D0E0FBD0E0FA22E454
:10160300CFC0E0E4CEC0E0E4CDC0E0E4CCC0E07500
:10161300F020E626F608E633F608E633F608E63366
:10162300F6181818EC33FCED33FDEE33FEEF33FF01
:10163300C3EC9709ED9709EE9709EF97191919402C
:101643000FFFEC97FC09ED97FD09EE97FE191906BC
:10165300D5F0BFECF709EDF709EEF709EFF7191924
:1016630019D0E0FCD0E0FDD0E0FED0E0FF22601610
:10167300080808C6C313C618C613C618C613C61867
:10168300C613C6D5E0EA22700908080822601618B6
:101693001818C6C333C608C633C608C633C608C639
:1016A30033C6D5E0EA22E627F60809E637F6080945
:1016B300E637F60809E637F622E026F608A3E03611
:1016C300F608A3E036F608A3E036F622E026F00893
:1016D300A3E036F008A3E036F008A3E036F022C317
:1016E300E697F60809E697F60809E697F60809E685
:1016F30097F622C3E096F008A3E096F008A3E096DD
:10170300F008A3E096F022E056F608A3E056F608A8
:10171300A3E056F608A3E056F622E056F008A3E04D
:1017230056F008A3E056F008A3E056F022E0F608CE
:10173300A3E0F608A3E0F608A3E0F622E6F008A388
:10174300E6F008A3E6F008A3E6F022E0FAA3E0FB44
:10175300A3E0FCA3E0FD22E0F8A3E0F9A3E0FAA3F1
:10176300E0FB22E8F0A3E9F0A3EAF0A3EBF022CA3E
:10177300C0E0E6F0A308DAFAD0E0FA22CAC0E0E05B
:10178300A3C582CCC582C583CDC583F0A3C582CC56
:10179300C582C583CDC583DAE6D0E0CA22C3E49807
:1017A300F8E499F91217E18026C3E49AFAE49BFB63
:1017B300E920E7E91217E1E498F8E499F922C3E490
:1017C30098F8E499F91217E1E498F8E499F9C3E475
:1017D3009AFAE49BFB22EB20E7CFE920E7E0B9008C
:1017E30010BB0008E88AF084F8AAF022E4FBC8FAE8
:1017F30022EB70227B10C833C8C933C9335007C3E7
:101803009AC3DBF280069A50012ADBEAC833F4C894
:10181300C933F4C9FA2275F008E4C833C8C933C917
:1018230033C99AC99B5004C92AC93BD5F0ECFBC8FC
:1018330033F4C8E4C9FA22600D08C6A2E713C61838
:10184300C613C6D5E0F322600C08C6C313C618C678
:1018530013C6D5E0F422700422600D18C6C333C644
:1018630008C633C6D5E0F41822251810AF08F518BA
:10187300400C15198008F51840021519D2AF220043
:10188300C0D0251810AF08F518500C05198008F5BD
:101893001850020519D2AFD0D0222518F58210AF07
:1018A30008F518400C15198008F51840021519D2CF
:1018B300AF851983222518F582E43519F58322258E
:1018C30018F8E43519F9222518FAE43519FB22250D
:1018D30018FCE43519FD22E4732518C582C0E0E540
:1018E3001934FFC583C0E0E518C3958224F810AF0F
:1018F300088583198582188008858319858218D203
:10190300AFCEF0A3E520F0A37808E608F0A3DEFA53
:10191300EFF0A3E58124FAF8E608F0A3E608F0A3C4
:10192300E608F0A30808E608F0A3E608F0A315818B
:101933001581D0E0FED0E0F8158115811581E8C04E
:10194300E0EEC0E0222518C582C0E0E51934FFC5EA
:1019530083C0E0E518C3958224F910AF0885831985
:101963008582188008858319858218D2AFCEF0A3AB
:10197300E520F0A37808E608F0A3DEFAEFF0A3E58C
:101983008124FBF8E608F0A3E608F0A30808E608BC
:10199300F0A3E608F0A315811581D0E0FED0E0F8AE
:1019A30015811581E8C0E0EEC0E022851983851812
:1019B30082E0A3FEE0A3F5207808E0A3F608DFFAAF
:1019C300E0A3FFE0A3C0E0E0A3C0E0E0A3C0E0E049
:1019D300A3C0E0E0A3C0E010AF0885821885831997
:1019E3008008858218858319D2AFD083D082020103
:1019F3001F851983851882E0A3FEE0A3F5207808EC
:101A0300E0A3F608DFFAE0A3FFE0A3C0E0E0A3C091
:101A1300E0E0A3C0E0E0A3C0E010AF088582188532
:101A230083198008858218858319D2AFD083D08229
:101A330022C0D02518C582C0E0E51934FFC583C094
:101A4300E0E518C3958224F310AF088583198582D6
:101A5300188008858319858218D2AFC8F0A3E9F0EE
:101A6300A3EAF0A3EBF0A37908E709F0A3D8FAEC13
:101A7300F0A3EDF0A3EEF0A3EFF0A3D0E0F0A3D03A
:101A8300E0F0A3D0E0F0A3E520F0A3E5F0F0A3227B
:101A9300851983851882E0C0E0A3E0F9A3E0FAA3E7
:101AA300E0FBA37808E0F608A3DFFAE0FCA3E0FD7F
:101AB300A3E0FEA3E0FFA3E0C0E0A3E0C0E0A3E057
:101AC300F5D0A3E0F520A3E0A3F5F010AF088583DC
:101AD300198582188008858319858218D2AFD08230
:101AE300D083D0E0F8D0E032740480067402800220
:101AF3007401C0E0F40412189DD0E012177222742E
:101B030004800474028000CCC0E0EDC0E0E518C39B
:101B13009CCCAD1950011D10AF068C188D19800691
:101B23008C188D19D2AF12177FD0E0FDD0E0FC22C4
:101B3300D083D082E9C0E0E493A3C386F0C5F095D7
:101B4300F0F908E493A386F0C5F095F0700BE493E5
:101B5300A3C3994005E9048002A3E475F002A42518
:101B630082F582E5F03583F583D0E0F9E493A3C0F1
:101B7300E0E493C0E022D083D082ECC0E0EDC0E08B
:101B8300E493A3FCE493A3FDED4C600D121BC5ECA1
:101B930024FFFCED34FFFD80EFE493A3FCE493A367
:101BA300FDED4C600D121C04EC24FFFCED34FFFD35
:101BB30080EFD0E0FDD0E0FCE493A3C0E0E493C069
:101BC300E022C0E0C3E49396087401939618400F93
:101BD300E49366700808740193661870007019A383
:101BE300A3C3E49396087401939618A3A3400DD05E
:101BF300E0D0E0D0E0021BB5A3A3A3A3A3A3D0E04E
:101C030022C0E0C0F088F0E4936670080874019382
:101C130066187000A8F0A3A3700BD0F0D0E0D0E05A
:0C1C2300D0E0021BB5A3A3D0F0D0E0225B
:101C300074F6121948EAFEEBFF8C088D09EE243485
:101C4000F8E43FF9E8FCE9FDEE2435121F43FAEE13
:101C50002437121F43F88508F0A4C885F00A8509C7
:101C6000F0A4250AF9EA28F8E439F97A257B00126C
:101C700017E1EA8C828D83F0FA131313541FF8EEE8
:101C800028F8E43FF9E8245DF582E439F583E0C003
:101C9000E074075AF8D0E0B800028004C313D8FCFF
:101CA000A2E0EE50082434F582E43F801824361276
:101CB0001F43F5F0EA84A8F0EE28F8E43FF9E824A1
:101CC00038F582E439F583E0F97F030219F474F7FB
:101CD000121948EAFEEBFFEE2434121F43C0E0EE77
:101CE0002435F582E43FF583D0E0F08E828F83A324
:101CF000A3A3A3A3A3A3C082C0838E828F83A3A325
:101D0000A3A3A3E0F8A3E0F9D083D082E0C398F5C1
:101D100008A3E099F509EE247F121F436401703E89
:101D2000EE2480F582E43FF583C082C0838E828FEB
:101D300083A3A3A3A3A3E0240108A3E03400F9D064
:101D400083D082E0687003A3E06970127CB17D04E7
:101D5000120CB2EE247FF582E43FF583E4F0AC0888
:101D6000AD09EEFAEFFB121C30E9F912269B7F0257
:101D70000219F4C082C083851882851983E0F8A314
:101D8000E0F9C3EA9CEB9D5010C3EC98ED99401B21
:101D9000C3EA98EB995014800EC3EA98EB99400778
:101DA000C3EC98ED994004790180027900D083D08A
:101DB0008222EAC39CFAEB9DFB2274EF1219489031
:101DC0000376E064086005E06407702A9061C8E06B
:101DD00060249003A4E0F4601DE0F875F00BA4C843
:101DE000AAF02AF974A628FE740339FF8E828F8325
:101DF000A3A3A3E07003021EC8906060E0C0E0EE01
:101E00002468F582E43FF583D0E0F0750C21750D70
:101E100005750800750900E5D914F50AE5D95403DC
:101E2000F50E60127403650E6043E50A600AEE2445
:101E300067121F437002807590051CE06401601FEB
:101E4000121F4060047A0480027A00E50AC39AFAFD
:101E500095E0FB120B5C8A088B09EA4509700512B4
:101E60000EE08064121F4070048A0C8B0DE50A603E
:101E700012850C82850D83F50BE5D9F0A3150BE5D2
:101E80000B70F6121F40604474FC250AF50A780CAA
:101E9000121AEFAC0AA90EEEFAEFFB120D6C7402E7
:101EA000121882E97026AA08AB09121396793D8EA2
:101EB000828F83A3A3A3A3E0FA7B001209BEEEFAEC
:101EC000EFFB120CD6120D7E7900806F7403650E45
:101ED0006051850A107511007810121AEFAC0CAD24
:101EE0000DAA08AB09120D307402121882EE246894
:101EF000121F4364807004747F8001E0F50C780C3D
:101F0000121AF3E50EF50C780C121AF3A90AAC08B4
:101F1000AD099003A4E0FA7B001209947402121830
:101F2000828013900376E06408600BAC0CAD0DEE7C
:101F3000FAEFFB120DF6120EEC79017F0A0219F48A
:101F4000EE2483F582E43FF583E02274F21219480F
:101F500074FC12186CEAFEEBFF8909A2AFE433F5BA
:101F600008C2AF022015E0601B780C121AEFAC0B10
:101F7000A90EEEFAEFFB120D6674021218827404B9
:101F8000250BF50B7401250BF5D9850ED9E50B60F2
:101F900018F50A850C82850D83E0F5D9A385820C9E
:101FA00085830D150AE50A70EA75E195EE2463F85C
:101FB000E43FF97A007B00A2AFE433F50BC2AF88AF
:101FC000828983E0FCA3E0FDEC4D603A888289833E
:101FD000E0FAA3E0FB8A828B83E0FCA3E0FD888229
:101FE0008983ECF0A3EDF08A828B83E4F0A3F08880
:101FF000828983E0FCA3E0FDEC4D700A888289832E
:10200000A3A3E4F0A3F0E50BA2E092AF1213969025
:1020100004B8E004F0EE2463121F43F8A3E0F9E8EB
:10202000496064EE2463121F432402F8A3E03400E5
:10203000F988828983E5822402F50CE43583F50D65
:10204000E0F50BA3E0F50EEE2462121F436401706D
:10205000369061D0E0F8121F4060047C0480027C5E
:10206000007480C398FA95E0FBE50B2CF8E434008B
:10207000F9E82402F8500109C3EA98EB99A2D26565
:10208000D0334003021F669004B8E0604D9004B95D
:10209000E0F89004B8E0C398500C74026509703AF7
:1020A0009004BAE060348E828F83A3A3A3A3E0855B
:1020B00018828519831220EA74021218B8E81220D7
:1020C000EA9004B7E028F074021218D2AA18AB19EB
:1020D00079011209E89004B8E4F0E508A2E092AFB3
:1020E00074041218827F070219F4F0A3E4F090043C
:1020F000B8E0F8228521878522C622C0E074EB1261
:102100001A34A2AFE433F508C2AF759B0090618228
:10211000E0A2E05030E591A2E0502A7591FE7401F2
:102120006521702112228E120E3812227C121B029F
:102130001224457404121882E964017005790112B1
:102140000E74121DBA906182E0A2E5505DE591A285
:10215000E550577591DF900376E064076005E06411
:1021600008702F12228E74016521703E120E3812F3
:10217000227C121B021224457404121882E96401A5
:1021800070057901120E747901EEFAEFFB121F4B04
:102190008018E0640D7013900398E004F0642870D8
:1021A00002E4F07A00E0F9120EF2906182E0A2E619
:1021B0004003022251E591A2E640030222517591AB
:1021C000BF900376E064057008120E20120E2C807A
:1021D00003120E26752100120E80E9900377F07924
:1021E00000120E74120C227A017B00900375E0F944
:1021F000121366907803E064427056900520E01454
:10220000F0704EC2AF12220800782AD0E0F618D043
:10221000E0F6E59F5407F87005750DFF8003750D16
:102220007FC4C0E07829E6F50A08E6550DF50B7481
:102230000B780A12184AD0E0250AF8906270E0A2E2
:10224000E740F8E8C333906272F0906270E0D2E049
:10225000F0906181E0A2E35009E5E9A2E350037543
:10226000E9F7A3E0A2E75009E591A2E750037591D1
:102270007FE508A2E092AF7F08021A938E828F83D7
:10228000E0F8A3E0C82416F582E438F58322900331
:10229000A4E0F875F00BA4C8AAF02AF974A628FEE9
:1022A000740339FF22C0E0C0D0C082C08390618334
:1022B000E0A2E05009E5BFA2E0500375BFFEE0A236
:1022C000E15009E5BFA2E1500375BFFDE0A2E25075
:1022D00009E5BFA2E2500375BFFBE0A2E35009E5A8
:1022E000BFA2E3500375BFF7E0A2E45009E5BFA227
:1022F000E4500375BFEFE0A2E55009E5BFA2E55049
:102300000375BFDFE0A2E65009E5BFA2E650037502
:10231000BFBFD083D082D0D0D0E032C0E074F21200
:102320001A34E5A7A2E6500FE5A1A2E6500953A78B
:10233000BF75A1BF12236FE5A7A2E5500CE5A1A2CE
:10234000E5500653A7DF75A1DFE5A7A2E15009E537
:10235000A1A2E1500375A1FDE5A7A2E2500CE5A101
:10236000A2E2500653A7FB75A1FB7F01021A9374EA
:10237000F7121948752101900376E0640670151272
:102380000DA28A828B83A3A3A3A3A3A3E0FAA3E055
:10239000FB120E0EA2AFE433FED2AF90037CE064DA
:1023A0000170187A207B00900375E0F912147A7A94
:1023B000207B00900375E0F912136C906182E0D2EB
:1023C000E6F090051DE0602185C622801690037B13
:1023D000E064017008E5C654F84405F5C653BEFC38
:1023E0001220F47401652160E4EEA2E092AF7F0256
:1023F0000219F4008E238F2485822885832785186F
:1024000082851983E0CEA3E0CF852882852783EBE0
:10241000C9EAC8EDCBECCA75F010C3E833C8E9339C
:10242000C9EA33CAEB33CBC3EA9EF526EB9FF52509
:10243000B35004AB25AA26EC33CCED33CDD5F0DA7E
:10244000AE23AF242274F11219488A088B098C0A32
:102450008D0B908249780812170A740F1218B878F9
:102460000C121730908249780C12170A7808790CF0
:1024700012154390826150107808790C1216E27898
:10248000081215634014800E780C79081216E27851
:102490000C12156350047901800279007F0802193B
:1024A000F474ED1219488A088B098C0A8D0B9082FE
:1024B00049780812170A74131218B8780C121730DA
:1024C000908249780C12170A780C7908121543404B
:1024D000117808790C1216E2AA08AB09AC0AAD0B08
:1024E00080227510007511007512007513017810A7
:1024F000790C1216E2781079081216A9AA10AB11FD
:10250000AC12AD137F0C0219F490824978081217AF
:10251000308A828B83780812171D7F040219F474A5
:10252000F51219488C828D8378081217308A828BB5
:102530008378081216F6122577C3E09CF0A3E09D7D
:10254000122569402290828178081217308A828B86
:102550008378081216CF8A828B83A3A3A3A3E024D7
:1025600020F0A3E0344EF080A0F088828983C3E09D
:102570009420A3E0944E22EA2404F8E43BF98C82F0
:102580008D83A3A3A3A3E0FCA3E0FD88828983221B
:1025900074F5121948E9FE9004D3E0FAA3E0FBEECB
:1025A00029F8E433F9743128F582748139F583E030
:1025B0002AF508A3E03BF5097808121AEF90826D1E
:1025C00012174E1223F474021218828A088B098C97
:1025D0000A8D0B74107808121671AA08AB097F04D3
:1025E0000219F474F11219488A0C8B0D8C0E8D0FA0
:1025F00074111218B8121B0674111218B8E02401D5
:10260000F508A3E03400F509E4F50AF50B780C7938
:102610000812158290825D7808121730780C7908BC
:10262000121582AA0CAB0DAC0EAD0F1223F474027E
:102630001218828B09EA450960047A0180027A0047
:10264000EC2AFCE43DFD74131218B8E0F8A3E0F99D
:10265000E8FEE9FFECF8EDF97A717B021217E188E8
:10266000088909E4F50AF50B8E828F837808121722
:102670003FECF8EDF97A717B021217E18A088B09B9
:10268000740578081218598E828F83A3A3A3A3E53B
:1026900008F0A3E509F07F080219F4C082C083E9BD
:1026A000906000F0D083D08222C0E074F2121A341D
:1026B000A2AFE433FED2AFC2C0E5D1A2E4500675AA
:1026C000D10F1212DCEEA2E092AF7F01021A93C08A
:1026D000E074F2121A34A2AFE433FED2AFE589A25D
:1026E000E15003121234758900C2C5EEA2E092AF28
:1026F0007F01021A93C0E074F2121A34A2AFE433DD
:10270000FED2AFE58BA2E05003121234758B00C2EB
:10271000E880D8C0E0C0D0E8C0E0E9C0E0A9A8D215
:10272000AFC2C7E9A2E7E433F8E9A2E792AFD0E08D
:10273000F9D0E0F8D0D0D0E032C0E0C0D0E8C0E0BE
:10274000E9C0E0EAC0E0C082C083A2AFE433FAD2BD
:10275000AF9009DCE0F8A3E0687008539AFBA3741B
:10276000018022C2E99009DCE0F8740128F0745C71
:1027700028F582E43409F583E0F5C19009DCE0C373
:1027800094804002E4F0EAA2E092AFD083D082D0FD
:10279000E0FAD0E0F9D0E0F8D0D0D0E032C2AF0219
:0327A00000002214
:1027A400FFFFFFFFFFFFFFFFC082C083E99017AE6A
:1027B400F0D083D08202011F74F61218DCE9900273
:1027C400E8F0900348E0F5087509007402780812EF
:1027D4001859AA08AB091213D89002E912316F9064
:1027E40002E912355C606F900348E075F003A4FAC7
:1027F400ABF01213D890030612316F900306123512
:102804005C700B9002E912352D1213DE80489003A0
:10281400061244C17AFF7BFF1211A47A0080198A40
:102824000875090074027808121859123F6974FF78
:1028340012296FE4F0A3F00A900348E0F8EAC39881
:1028440040DD79051208809002E8E0F912076C7AFD
:102854000A7B09120AFC02400C74F41218DC8A0880
:102864008B09EB548060479002E8E0F912134E8A1A
:102874000A8B0BAE0AAF0BEE4F602A8E828F83E079
:1028840064B0701A120892E960148E828F83A3A335
:10289400A3A3E0F9EE2405FAE43FFB120862EEFA82
:1028A400EFFB12133CAA08E5096480FB80047A005C
:1028B4007B00022ABF74F21218DC74FB12186CEA53
:1028C400FEEBFFEE4F604574031218B8EEF0A3EF71
:1028D400F0851882851983ECF0A3EDF074021218C8
:1028E400B8E9F0AA18AB19120766E9F5087075740F
:1028F400131218B8E0F50AA3E0F50BE50A450B60DE
:10290400638E828F83122EF8EE4F70057508028055
:10291400537A067B001213D88A0C8B0DA80CA90DD0
:10292400E8497005750813803B88828983E412297D
:102934006FEEF0A3EF122A8BE50AF0A3E50BF090FB
:1029440002EC122A849002EC6017E0FCA3E08003FE
:10295400EAFCEBFD8C828D83122A8470F38C828DC9
:1029640083123B84A9087405024741F0A31244A3CF
:10297400A32274F21218DC8908890C750D00740303
:10298400780C121859850C0A850D0B9002EBF09007
:1029940002E912398F122A82602E1213DE79008026
:1029A4001D890C750D007402780C1218599002E9F7
:1029B400123E288882F583A3A3E4F0A3F0099003D0
:1029C40048E0F8E9C39840D9900348E0FA850AF052
:1029D400A4CAA8F0850BF0A428FB1213D88A0C8B88
:1029E4000DAE0CAF0DEE4F7003022A78900348E051
:1029F400FC850AF0A4CCA8F0850BF0A428FD79008E
:102A04001213247C0080318D0C750D007403780C36
:102A14001218598A828B83122A7D88828983E4F072
:102A2400122A8AA3A3F0A3F00DEDC3950840D8EEB3
:102A3400250AFEEF350BFF0C900348E0F8ECC39831
:102A440050288C0C750D007402780C1218599002E1
:102A5400E9122A7DE82402500109FAE9FB8A828BF3
:102A640083EEF0A3EFF07D0080BFE5089002EBF069
:102A7400790080027913024744123E2CF922A3A361
:102A8400123531EA4B22A31244A3A3A3A32274F464
:102A94001218DC7900EAA2E0501F75080A75098251
:102AA4007808121AEF79107C047D007AB07B171233
:102AB400087A7402121882E9F980007F040219AEC0
:102AC400C082C0839002EC12355C601C88828983CA
:102AD400A3A3E06A7003A3E06B8882898370E8A3F0
:102AE400A3A3A312352D80047A007B000227B574BA
:102AF400F21218DC74FD12186CEAFEEBFF851882E2
:102B0400851983E4F0A3F074021218B87401F0126A
:102B140035597014120A361213D89002EF12316F1D
:102B24001235597003022C8512326FEE2404F50A13
:102B3400E43FF50B850A82F583E024FE603C24FC27
:102B4400607424FE607E24FE7003022BD524FE7084
:102B540003022BE224FE7003022BEF24FE70030217
:102B64002BFC24FE7003022C0924FC7003022C2A83
:102B740024FE7003022C42022C7E120A369002F1CB
:102B8400EAF0A3EB122C911204AEE96003022C7E4E
:102B94009002F1121B068E828F83A3A3A3A3A31218
:102BA40044C185088285098312352D12084A7402AE
:102BB400121882022C7EAC18AD19EEFAEFFB120843
:102BC40098022C4DAC18AD19EEFAEFFB12089E805A
:102BD40078AC18AD19EEFAEFFB1208A4806BAC18B0
:102BE400AD19EEFAEFFB1208AA805EAC18AD19EE2F
:102BF400FAEFFB1208B08051AC18AD19EEFAEFFBF6
:102C04001208B6804474021218C2880C890D780C1C
:102C1400121AEF74021218D2EEFAEFFB1208BC7407
:102C2400021218828023AC18AD19EEFAEFFB1208D9
:102C3400C2E9F8701674021218B8E4F0803CAC18BB
:102C4400AD19EEFAEFFB1208C8E9F8E8602C8E82A1
:102C54008F83A3E064146022850A82850B83E0904D
:102C640002F1F085188285198312352D9002F21233
:102C7400316FE8A3122C911204A8EEFAEFFB1208AC
:102C84002074021218B8E0F97403024741F07CF191
:102C94007D028508828509831235312274E8121871
:102CA400DC74FA12186C74041218B8ECF0A3EDF08A
:102CB4008A128B13EA2405F50EE43513F50FEA2482
:102CC40002F510E43513F511851082F58312352DC4
:102CD40012059E8A0A8B0B7508007C037D0079001F
:102CE4007AF17B02121324E50E2402F516E4350F63
:102CF400F51774021218C2880C890D780C121AEF99
:102D0400850E82850F83A3A3A3A3E0F50C750D00A4
:102D1400780C121AEFE50E2405F50CE4350FF50DC9
:102D2400780C121AEF85168285178312383412072D
:102D34008474061218828A0C8B0DE50C450D700301
:102D4400022EC18020851882851983E088828983B8
:102D5400F00508851882851983A3E0C0E0122F02CC
:102D6400D0E0F00508E50A24FBFAE50B34FFFBC3C9
:102D7400E5089AE49B4003022EC17E007F00851281
:102D840082851383A3A3A3A3E0F5097809121AF398
:102D9400E4F514F5157814121AEF7514EE7515028E
:102DA4007814121AEF9002EF121B0674091218B865
:102DB400121B06E50A24F9F9AC0CAD0D85108285C9
:102DC400118312352D1208F27409121882E9600376
:102DD400022E62850E82850F83A3A3A3A3A3A3A3BC
:102DE400E0F89002EEE0687075E0F5148E15781442
:102DF400121AEF1244BE850E82850F83A3A3A3A3E8
:102E0400A3A3A3A312352D12131E7402121882E970
:102E1400604C9002F212355C703BE4F514781412A5
:102E24001AEF7CFF7DFF79078510828511831235A7
:102E34002D12085C74021218821235627017850E06
:102E440082850F8312465B74041218B8123F1C1259
:102E54003865022EF5850C82850D83122EF8A8188C
:102E6400A919881489157814121AEF74041218B861
:102E7400121B06851682851783123165120790741A
:102E8400041218828A0C8B0DEE4F7003022D3E1231
:102E94002F02EE122F0D12381BEF122F0DF8A3E0A4
:102EA4003400F9E50C450D6003022D4988828983BD
:102EB40074FFF00508122F0274FFF00508E508609E
:102EC4001A1313543F1231751204BAE960099002BF
:102ED400F212352D12139679008016850E82850F15
:102EE4008312465B74041218B8123F1C123B847997
:102EF4000A0237EEA3A3A3A3E0FEA3E0FF22A808DF
:102F04009002F2E02812381B22F00508089002F221
:102F1400E0282274E81218DC74FA12186C74021295
:102F240018B812316F74041218B8ECF0A3EDF074F1
:102F3400021218B8E02405123804E0F50CA3E0F5F9
:102F44000D74021218B8E02402F510A3E03400F561
:102F540011851082F58312352D12059E75080075B2
:102F64000900EA24FCFEEB34FFFF8008050CE50CA5
:102F74007002050DA808C3EE98EF940050030231C7
:102F840021A818A919880E890F780E121AEF851432
:102F940082851583A3A3A3A31244C5121AEFE514D3
:102FA4002405F50EE43515F50F780E121AEF851485
:102FB4008285158312316312078474061218828A7B
:102FC4000E8B0FEA450F7003023121EA2404F51633
:102FD400E4350FF517851682F583E0F50CA3E0F5CB
:102FE4000D8518828519831244C18A828B83A3A319
:102FF400A3E0F985108285118312352D120772E939
:10300400F509600302312174021218B812382BF545
:10301400097809121AF3E4F512F5137812121AEF6B
:103024007512EE7513027812121AEF9002EF121B4A
:103034000674071218B8121B06EEF9AC0EAD0F8514
:10304400108285118312352D1208F2740912188228
:10305400E9F5096003023121E508703FE4F50EF556
:103064000F780E121AEF7CFF7DFF79098510828597
:10307400118312352D12085C740212188212385111
:10308400700D74041218B812315879110231559028
:1030940002EEE024029002F2F080149002F2E0FAD0
:1030A4009002EEE0790024025001096A497072A886
:1030B400089002EEE0FAE82AFAE43400FBEE9AEF14
:1030C4009B405A851682851783E0C0E09002F31274
:1030D4002F07D0E0F00508851682851783A3E0C08A
:1030E400E0089002F3122F07D0E0F005089002EEFA
:1030F4001244C5121AEF1244BEA8081237F812136C
:103104000C74021218829002EEE02508F50874FF90
:10311400650C700474FF650D6003022F70E5086090
:103124001F9002F2E0F5F0E508841231751204C034
:10313400E960099002F312352D121396790080117B
:10314400E509700375090A74041218B8123158A9F4
:10315400090237EE123993E50CF0A3E50DF022A332
:10316400A3124750AA0CAB0D22A3A3EAF0A3EBF0E1
:10317400229002F1F07CF17D028510828511831288
:1031840035312274EC1218DC74FC12186C123C9465
:1031940074021218D212352712078A8A0C8B0DEA90
:1031A400450D700302325F12326FA818A9198810F6
:1031B40089117810121AEF7CFF7DFF790B85088244
:1031C40085098312352D12085C7402121882123399
:1031D40065700C850A82850B8312386202326C8E0C
:1031E400828F83A3A3A3A3E0F5127812121AF3E447
:1031F400F512F5137812121AEF7512F1751302789D
:1032040012121AEF7810121AEF74091218B8121B5E
:103214000674091218B8E0F9AC0CAD0D8508828566
:10322400098312352D1208F27409121882E9FE700E
:10323400157CF17D0285088285098312352D1204DF
:10324400C6E97009802074166E70027E009002F246
:1032540012352D121396EE7004800B7E01850A82BE
:10326400850B83123B81EEF9023B96EE2402F508AE
:10327400E43FF5092274EC1218DC74FC12186CEAB1
:10328400FEEBFF8C0E8D0FEE2405F508E43FF509E7
:1032940074021218D285088285098312352D12070B
:1032A4008A8A0C8B0DEA450D7003023355EE240215
:1032B400F50AE43FF50BA818A919881089117810AC
:1032C400121AEF7CFF7DFF790D12352712085C740A
:1032D40002121882123365700B85088285098312E5
:1032E4003862807A8E828F83A3A3A3A3E0F5127839
:1032F40012121AF3850882850983A3A3121B06758B
:1033040012F17513027812121AEF7810121AEF7470
:10331400091218B8121B0674091218B8E0F912350C
:10332400231208F27409121882E9FE700F7CF17DF1
:10333400021235271204CCE97009802074166E70CD
:10334400027E009002F212352D121396EE70048064
:103354000B7E01850882850983123B81EEF9023BCD
:103364009612356CF510A3E0F511EA45112274E8C4
:103374001218DC74FE12186C8A168B178C148D15B7
:10338400EA2405F50CE43517F50DEA2402F50EE4FC
:103394003517F50F850E82F58312352D12059E8A99
:1033A400088B09750B007C037D0079007AF17B02A0
:1033B400121324750A00E50814F5100424FFF50817
:1033C400E50934FFF50980549002F1E0FA9002EE29
:1033D400E0F8EA28F8E43400F9E50898E50999509A
:1033E4000D9002F1E0F8E510C3989002EEF0E0F5DC
:1033F400127513007812121AEF1244BE9002F2E012
:103404002AFAA3E03400FB12130C740212188290FF
:1034140002EEE0F89002F1E028F0050A850C8285BE
:103424000D83A3A3123E3840030235089002F1E055
:10343400C39508E495094003023508AE0AEE2EFE52
:10344400E433FF123547AC18AD191244D9E439FB03
:1034540012078A8A128B13AC12AD13EC4D701B75D4
:103464000B01123537123B859002F2122A84600355
:10347400121396A90B74020237F0851682851783FE
:10348400A3A3A3A3E0F50B780B121AF3E4F512F54A
:10349400137812121AEF7512EE7513027812121ABB
:1034A400EF9002EF121B0674071218B8121B06A93C
:1034B40010850E82850F8312352D1208F2740912BD
:1034C4001882E9F50B709B9002F212355C600302DE
:1034D40033CCE4F512F5137812121AEF7CFF7DFF5A
:1034E400790F850E82850F8312352D12085C7402C4
:1034F40012188212356260030233CC123537123847
:10350400660234797CF17D02850E82850F83123543
:103514002D1204D2E9600302346C7900023479ACD0
:103524000CAD0D850A82850B8312353122E0FAA396
:10353400E0FB22123547E0FAA3E0F9EA851482851C
:10354400158322850C82850D83E02EF8A3E03FF9D4
:1035540088828983229002EF12465FE8492212355D
:103564006CF8A3E0F9E849229002F2EAF0A3EBF048
:103574009002F2E02274E81218DC74FA12186C74E7
:10358400041218B812316F8C168D1774041218B8FF
:10359400E02405F50EA3E03400F50F74041218B806
:1035A400E0240212380412352D12059E8A0A8B0B70
:1035B4007F007E00A818A919880889097808121ABA
:1035C400EF850E82850F83A3A3A3A3E0F5088E09DC
:1035D4007808121AEFE50E2405F508E4350FF5090D
:1035E4007808121AEF850E82850F83A3A31238344C
:1035F40012078474061218828A0C8B0D80291238E3
:1036040025F00F123825F00F9002EE123B70121ABB
:10361400EF1244BEEFF81237F812130C74021218AA
:10362400829002EEE02FFFE50C450D70030236B4E4
:10363400851882851983123CA6A3A3A3E0F98514F7
:103644008285158312352D120772E9FEE50C2404D8
:10365400F510E4350DF511EE705074041218B8121B
:10366400382BF5087808121AF3E4F508F5097808F8
:10367400121AEF7508EE7509027808121AEF900213
:10368400EF121B0674071218B8121B06E50A24FA77
:10369400F9AC0CAD0D85148285158312352D1208F5
:1036A400F27409121882E9FE6039123841123B841F
:1036B400EF70030237DB9002F2E0F5F0EF84900242
:1036C400F1F07CF17D0285148285158312352D126B
:1036D40004D8E960099002F312352D12139679008B
:1036E4000237EE8F08EF703BE4F512F513781212EF
:1036F4001AEF7CFF7DFF79118514828515831235BD
:103704002D12085C74021218821238517009123892
:10371400411238650237EE9002EEE024049002F282
:10372400F080359002EEE0F89002F2E0FAE824042A
:10373400FCE43400FDEC6A4D60030236BAE50A2469
:10374400FAFAE50B34FFFBE50828F8E43400F9EA5B
:1037540098EB9950030236BA851082851183E0C034
:10376400E09002F3E02FF8A3E034008882F583D0E0
:10377400E0F00F851082851183A3E0C0E0123812B7
:10378400D0E0F00F74021218C28808890978081270
:103794001AEF74021218B8121B06850E82850F8365
:1037A40012316312079074041218828A0C8B0DEA8A
:1037B400450D700302360274021218B8E0C0E0121C
:1037C4003812D0E0F00F74021218B8A3E0C0E0126F
:1037D4003812D0E002360AEE70027E0A850E828527
:1037E4000F83123847123B84EEF974061218827F55
:1037F400100219AE9002F3E028FAA3E03400FB2291
:10380400F514A3E03400F515851482F583221238EB
:1038140016229002F3E02FFAA3E034008A82F583A3
:103824002212381674FF22123993A3A3A3A3E02211
:10383400124750850E82850F8312353122851082FE
:1038440085118312465F851682851783229002F3C1
:10385400EAF0A3EBF09002F312465FE84922123B30
:103864008AE8F0A3E9F079112274EA1218DC74FEF4
:1038740012186C8A088B098C128D13EA2405FEE455
:103884003509FFAC18AD198E828F8312352D1207BE
:103894008A8A0C8B0DEE2406F50EE43FF50FEA45FB
:1038A4000D7003023965E5082402F50AE43509F5CB
:1038B4000B8A828B83A3A3A3E0A2E55028851882F8
:1038C40085198312352D1208E68A108B11EA4511E9
:1038D400602079121235238510828511831218DA3B
:1038E400E9F50C707F850E82850F83E060097952BB
:1038F4008011750C0E806D850882850983A3A3A3AE
:10390400A3E0F9E4F508F5097808121AEF8E828F1E
:1039140083A3A3E0F5087808121AEF8E828F83A39D
:10392400A3A3121B068E828F831244C11235271261
:1039340008F87406121882E9F50C7011850E828558
:103944000F83E0702D1235271204DE80257416656E
:103954000C7011750C0074181218B812398FE480A9
:1039640010750C01124657851282851383E8F0A363
:10397400E9F0850E82850F83E0600479008002A956
:103984000C74021218827F0E0219AE12399322E0CF
:10399400F8A3E0F58388822274EC1218DC74F71221
:1039A400186C8A0A8B0B8C108D11EA2405FEE43501
:1039B4000BFF750C00AC18AD198E828F8312352D58
:1039C40012078A8A088B09EA45097003023B5BE502
:1039D4000A2402F50A5002050B8A828B83A3A3A34F
:1039E400E0A2E5502F85188285198312352D12081F
:1039F400E68A0C8B0DEA450D604F7912AC08AD09CF
:103A0400123527850C82850D831218DAE9F50C60CE
:103A140003023B5E850A82850B83E0F508A3E0F58B
:103A240009AA08FB1208DAEA4B70197AFF7BFF1225
:103A340008DAEA4B7003023B518A828B83E508F073
:103A4400A3E509F07508008008750C0E023B5E05BD
:103A5400089002EBE0F8E508C3984003023B518567
:103A6400080E750F007403780E1218598A828B831E
:103A7400A3A3E0250EF8A3E0350F123F2570D08EE6
:103A8400828F83123B7912316F8E828F83A3A312AC
:103A94003B7912316DEE2404F508E43FF5098508FD
:103AA40082F583E088828983A3A3A3A3F0A3E4F02F
:103AB400EE2405F50EE43FF50F850E82F583123BE7
:103AC40079A3A3A3A312316D75120775130078129D
:103AD400121AEFEEFCEFFD74041218CA12130C74E0
:103AE40002121882E4F5127812121AEF8508828500
:103AF4000983E0FC7D00791712352712085C7402F3
:103B040012188274071218B812316F74071218B899
:103B1400E0FA4B603D850882850983123B70121AD6
:103B2400EF850E82850F831244C112130C740212A6
:103B3400188274021218D21235271204E4E960269E
:103B440074071218B812352D1213968019750C09C2
:103B54008008750C118003750C011246578510827C
:103B6400851183123B84A90C74098028E0F508753B
:103B740009007808221235318882898322123B8A0F
:103B8400E8F0A3E9F022E0F8A3E0F9850E82850FBE
:103B9400832274041218827F0C0219AE74EC12187A
:103BA400DC123C94751000EE2402F50CE43FF50D94
:103BB400850C82F58312352D1208DA8A088B09EAFE
:103BC40045097003023C78850A82850B83E0640111
:103BD4006003023C6DAC08AD09AA0AAB0B1208CE17
:103BE400E9606E850882850983122EFAEE2406F5B3
:103BF4000AE43FF50B8E828F83A3A3121B068E82E9
:103C04008F83A3A3A3A3121B06850A82850B8312A9
:103C14001B0679188E828F83123CA612352D12084A
:103C2400F87406121882E9F8741668700B850A8213
:103C3400850B83E4F0A38014E860128E828F8312D4
:103C4400352D850E82850F83EAF0A3EBF088108072
:103C540018780E121AEFAC08AD09EEFAEFFB120851
:103C6400D47402121882E9F510AA08AB091208E00C
:103C7400E510700E850C82850D8312352D1204EA31
:103C84008009741665107003751000A910023B9B1F
:103C9400EAFEEBFF8C0E8D0FEE2405F50AE43FF5EA
:103CA4000B22124750850C82850D832274EA121868
:103CB400DC7508007509007E007F00750A00EC249D
:103CC40002F510E43DF5118035EC65087003ED65EF
:103CD400096003023D6588828983A3A3E06A7003B7
:103CE400A3E06B707C88828983A3A3A3A312465BA1
:103CF400EE28FEEF39FFEA28FAEB39FB050A123EFB
:103D040035503A850A0C750D007403780C12185955
:103D1400851082851183123E28123F25601FE50815
:103D2400450970A58C088D0988828983122EF8882C
:103D3400828983A3A3E02EFAA3E03F80BEE50AC3F1
:103D440094025003023E23750800750900EE4F608B
:103D540010EEFAEFFB1213908A0E8B0FEA450F70E8
:103D6400057900023E25750B00023DF8850B0C75A4
:103D74000D007403780C121859851082851183E0A4
:103D8400250CF50CA3E0350DF50DE50C2406F51412
:103D9400E4350DF515851482F583123F2A6042E55A
:103DA4000C2404F512E4350DF513851282F5831203
:103DB4001B06E50E2508FAE50F3509FB12130C74F2
:103DC40002121882851282851383E02508F508A360
:103DD400E03509F50985148285158312352D1213F2
:103DE40096E50B600D7C087D007900AA0CAB0D12E2
:103DF4001324050BE50BC3950A5003023D7085108F
:103E04008285118312465B88828983A3A3A3A3A31B
:103E1400A3E50EF0A3E50F122A8BEEF0A3EFF079E1
:103E24000102398A123E2C22E0250CF8A3E0350D5C
:103E3400229002EBE0F8E50AC3982274F01218DC31
:103E44008A0E8B0F8C0A8D0B750D00750C0080503B
:103E54007916EE2406F508E43FF5098E828F83A3D4
:103E6400A3121B068E828F83A3A3A3A3121B068512
:103E74000882850983121B06850E82850F83A3A3FE
:103E840012352D1208F87406121882E9F50D74160D
:103E9400650D706C850882850983E4F0A3F0050C38
:103EA4009002EBE0F8E50CC3985066AA0C8A0875FA
:103EB400090074037808121859850A82850B83A3B4
:103EC400A3123F74E8FEE9FF8E828F83123F2A60BB
:103ED40040EA2401F508E43400F5099002EBE065BA
:103EE400087002E509601488828983A3A3A3A3A3AD
:103EF400A3A3A312355C6003023E547918023E5614
:103F0400E9609B12465774101218B8123F1C123BFA
:103F140084A90D7F080219AEE0FAA3E0F5838A8232
:103F240022F988828983124750EC4D2274F61218C4
:103F3400DC7C0080010C900348E0F8ECC398501E30
:103F44008C0875090074027808121859123F69E048
:103F54006A7003A3E06B70DDE8FAE9FB80047A0081
:103F64007B0002400C9002E9123F7488828983220C
:103F7400E02508F8A3E03509F92274F21218DC8A66
:103F8400088B09750A0080278E828F83A3A3A3A3BD
:103F9400122A8260031213967C087D007900EEFADF
:103FA400EFFB1213248E828F83E4F0A3F0050A1230
:103FB4003E355027850A0C750D007403780C1218D1
:103FC40059850882850983A3A3E0250CFEA3E03567
:103FD4000DFF8E828F8312355C70AD850882850952
:103FE4008374FFF0A3F002474474F61218DC12083D
:103FF4008C8A828B83E582458370067A007B0080FD
:1040040007A3A3A3A312352D7F020219AE74F412E1
:1040140018DC89088C828D83E06402703C1245FAB6
:10402400FEA3E0F9EEF8740268700374296970293C
:10403400750A02750B00780A121AEF74101218B878
:10404400121B0674101218B8121B06A9081211B616
:104054007406121882E9F980027901022ABF74E811
:104064001218DC74FB12186CE9851882851983F028
:104074008A168B17ECFEEDFF7510008E828F83A3DA
:10408400A3A3E0A2E4502D741D1218B812352D120A
:1040940008E68A828B83E58245837003024499791A
:1040A4000AEEFCEFFDAA16AB171218DAE9F5106058
:1040B4000302449C741F1218B8E0F508A3E0F50944
:1040C40074211218B8E0F50AA3E0F50B7423121852
:1040D400B8E0F50EA3E0F50F8E828F83E0640260F2
:1040E4000302443AA312465B850882850983A385AB
:1040F4008212858313EE2406F50CE43FF50D8882C5
:1041040089831244D9F514E439F5157814121B790E
:104114000100002801283C4107000228014203282D
:104124006F410029304301295B430229FC420329E2
:1041340030430429D4433A44E50E450F6003024456
:1041440035850C82850D8312465BE8FAE9FB8A8289
:104154008B83E0850A82850B831244E4121AEF8A6A
:10416400828B83A3E0FCA3E00243BEE50E450F600F
:1041740003024435850A82850B837401F01244CE10
:10418400850882850983F07C007D008E828F83A35D
:10419400A3A3A3E02401FAA3E03400FB12078AEAF4
:1041A4004B60408A828B83E02402F8850A82850B67
:1041B40083E028F0EA2404F8E43BF988828983E068
:1041C4008512828513831244F21244E4121AEF8A90
:1041D400828B83A31244C1E5082403FAE43509FB66
:1041E4000243C3850A82850B83E02404F07C047DAA
:1041F400007900AA12AB1312132402449CE50E4565
:104204000F60030244351244CEFEA3E0FF850A8208
:10421400850B837404F0EE850882850983F0EF85AD
:104224001282851383F074031218D2EEFAEFFB1294
:10423400078A8A0C8B0DEA450D70030242DF8A82DD
:104244008B83A3A3122EF874011218C2880E890F4F
:10425400780E121AEF74051218B8121B067CFF7D33
:10426400FF12079074041218828B0FEA450F703303
:10427400850C82850D831244C5121AEF850C828544
:104284000D83A3121B067C027D007ACF7B8212056C
:104294008C7404121882E9700A74011218B874FF3D
:1042A400F0A3F08E828F83E064027039750C02757E
:1042B4000D00780C121AEF8E828F83A31244C1E58D
:1042C400082404FAE43509FB12130C740212188250
:1042D400850A82850B83E02402800974011218B8D0
:1042E400EEF0A3EFF074011218B81244B374011283
:1042F40018B81244AA02442FE50E450F6003024485
:1043040035850C82850D83124749AA16AB17121105
:10431400BC850A82850B837402F085088285098333
:10432400EAF0851282851383EB024432E50E450FD1
:1043340060030244351244CEF8A3E0F9850A82856D
:104344000B837402F0E8850882850983F0E98512FD
:1043540082851383024432850C82850D8312352DA8
:10436400121306EAFAF8C3950EE4950F405CE8656B
:104374000E450F70047A008021851882851983E028
:10438400FCE50E2CFCE4350FFDC3EC98ED940050D5
:1043940003E08005E50ECAC39AFAEA850A82850B12
:1043A40083F08A0A750B00780A121AEF850C82854D
:1043B4000D83E0250EFCA3E0350FFDAA08AB09121E
:1043C400130C740212188202449C75100702449C58
:1043D400E50E450F705B850C82850D8312465B8567
:1043E4000A82850B837407F0888289831244AB1296
:1043F40044A3E0851282851383F0E82402FAE439A9
:10440400FB8A828B831244B38A828B831244AAA3CD
:10441400A3122A8A1244B8F0E82405F85001098846
:104424008289831244B8A31244F2A3A3A3A3F08005
:104434006775100B8062741D1218B812352D12089E
:104444008C8A828B83E5824583604A12465B880CA2
:10445400890DE8450D603E74251218B8E0F5107812
:1044640010121AF3780E121AEF780A121AEF78085B
:10447400121AEF74071218B8E0F9EEFCEFFDAA1651
:10448400AB17850C82850D831218DA740712188213
:10449400E9F510800375100EA91074050237F0F0C9
:1044A40088828983A322A3E0850882850983221256
:1044B40044F9F0221244F9A3A3229002EF124750C8
:1044C40022E0F50E750F00780E22850C82850D838F
:1044D400123993E022E0FAA3E0F8E4C8F9EA2822CA
:1044E400F08A828B83E0F50A750B00780A22124465
:1044F400A31244F922E0850882850983A3A32274C8
:10450400EE1218DC74FE12186C8A088B09ECFEEDAE
:10451400FF890AAC18AD19EEFAEFFB12078A8A0C70
:104524008B0DEA450D70030245EB851882851983CE
:1045340012352D12088C8A828B83E58245837003A1
:104544000245E6A3A312465B880E890FE8450F7067
:10455400030245E674141218B8E0F510A3E0F5114F
:10456400E50AF50B780B121AF374191218B8121B1A
:10457400067810121AEF741B1218B8E0F9AC0CADDF
:104584000DAA08AB09850E82850F831218DA74050B
:10459400121882E9F50B705274FE650A604C850CA2
:1045A40082850D83E0640270411245FAFAA3E0F9B2
:1045B400EAF87402687003742969702E8510828584
:1045C40011831244D9F50CE439F50D780C121AEF65
:1045D400EEFCEFFDAA08AB0912091074021218824E
:1045E4008008750B0E8003750B01A90B7402121859
:1045F400827F0A0219AEA312465F88828983E02271
:1046040074F61218DC74FE12186C740C1218B812BA
:10461400465BE8851882851983F074011218B8E99D
:10462400F0E4F508F5097808121AEF75080278081D
:10463400121AEF74041218C2880889097808121A29
:10464400EF79FE1208F874061218827402121882A6
:1046540002400C8E828F8312465F22E0F8A3E0F9B9
:104664002274F71218DCEAFEEBFF890890030612A5
:1046740044C11211BCEA5402600BA908EEFAEFFB24
:1046840012077E800279017F010219AE74F21218BA
:10469400DC74FE12186CEAFEEBFF890A7401650AE9
:1046A40060147402650A600302473F7901120B1A11
:1046B400E9600302473FEEFAEFFB1208DAEA4B60C7
:1046C400031208E0A818A919880889097808121A99
:1046D400EF7508027509007808121AEF7508C77596
:1046E40009827808121AEF7CFF7DFF7A017B0012A1
:1046F400078474061218828038850882850983A38A
:10470400A3A3A3A3A3124749EEFAEFFB1211A4E457
:10471400F50CF50D780C121AEF74021218B8121B6E
:10472400067CFF7DFFAA08AB0912079074041218D7
:10473400828A088B09E508450970BE740212188242
:104744007F060219AE12399312475022E0FCA3E00F
:10475400FD2274F41218DC8A088B09ECFEEDFF903C
:1047640017AEE0F4604B7A097B00121336EA4B6013
:10477400408A828B8374B1F0A3E41247B8F08A8232
:104784008B83A3A3E508F0A3E5091247B8A3EEF0D1
:10479400A3EFF0740C1218B812465B8A828B83A3C1
:1047A400A3A3A3A3A3A3123B849017AEE0F912130F
:1047B40042022ABFF08A828B83A3A3A3A32274F0AC
:1047C4001218DC74FA12186C8909ECFEEDFF7508F6
:1047D400008A0A8B0B780A121B33000410E849057F
:1047E4004823483D48554873488B48AE48C648DA84
:1047F4004804497F499049A749C249E849E8491A08
:10480400497401650960030249E38E828F83E0F8ED
:10481400C3940340030249E3E890189A0249BF7421
:1048240002650960030249E38E828F831251469028
:10483400189BE8F0A3E90249BF740165096003020B
:1048440049E3124A1040030249E3E8900749024948
:10485400BF7401650960030249E38E828F83E0F827
:10486400C3940540030249E3E890074A0249BF7430
:1048740001650960030249E3124A1040030249E357
:10488400E890074B0249BF7410650960030249E3CD
:10489400750A10750B00780A121AEF7A4C7B07120E
:1048A400130C7402121882024A0974016509600328
:1048B4000249E3124A1040030249E3E890075C020C
:1048C40049BF7401650960030249E38E828F83E066
:1048D40090189E0249BF7404650960030249E38E7F
:1048E400828F83780C12173090826D780C121563C6
:1048F40050030249E390075E780C12173F024A09FD
:10490400E960030249E3120724E970051211688083
:10491400559007F180617407650960030249E375E6
:104924000A06750B00780A121AEF8E828F83A3ACE5
:1049340082AD8374021218CA1213127402121882FE
:104944007C007D00AA18AB198E828F83E0F91211C6
:1049540014E9FEC3940A4003024A06120724E970CC
:104964000CEEF912116E7950121450806D74F22EFF
:10497400F582E43407F5837401804074016509709D
:104984005E124A105059E890075D802F7401650942
:10499400704D8E828F83E0F8C3940A5042E89018D9
:1049A4009D80187401650970368E828F83E0F874D7
:1049B400F928C3940A5028E890189FF0804774019E
:1049C4006509701B9007F0E0F88E828F83E09007F2
:1049D400F0F0E87030E06401702B12115C802675F1
:1049E40008188021C3EA9427EB94005015740265DB
:1049F40009700F8E828F83125C261205A4E9F508D4
:104A04008003750802A9087406024D348E828F83D0
:104A1400E0F8C3940222A90880031218827F0402DA
:104A240019AE74F01218DC74B112186C8C0A8D0B68
:104A340090821C74201218D2740612177F742012EC
:104A440018D2121114E9FF745F1218B8E0F509EFD7
:104A5400C3940A4003024BA875F006EFA4F508744A
:104A6400411218D27A0E74202508F912144AE970FA
:104A740009744D1218B8E0FE80027E0090189AE086
:104A840064027005750E018003750E0074086509D3
:104A940070047422800274212508F50D7C1B7D00AE
:104AA400790074261218CA12132474261218D27AA2
:104AB4001BA90D12144AE9702D74401218B8E02491
:104AC400F9C3940A5020E50EF50D780D121AF3740B
:104AD400271218D2EEA2E0E433F9AA0AAB0B1206AD
:104AE4004674011218827C147D007900740C12182B
:104AF400CA121324740C1218D27A1074242508F9DB
:104B040012144AE970347C1079FF740C1218CA121A
:104B1400138AE97025741C1218B8AC82AD837A0428
:104B240074252508F912144A740C1218D2EEA2E066
:104B3400E433F9AA0AAB0B12062EAC18AD197A0CA1
:104B440074702FF912144AE97049AA18AB1912119A
:104B5400447F00EF75F003A4F8A9F0851882851945
:104B640083E58228F8E5831252FD1254DE601D8825
:104B7400828983A3A3E0F50E750F00780E121AEF55
:104B8400AA0AAB0B1208FE74021218820FEFC39428
:104B94000440C0EEA2E1500C900748E0F9AA0AAB29
:104BA4000B12090474046509702890189AE06402D1
:104BB40070207A0090075CE060027A01900749E077
:104BC4006004780480027800E84AF9AA0AAB0B1260
:104BD40006FA7900744F024D3474F71218DC120788
:104BE40024E9704F9007F1E0640170151211689088
:104BF40007F1E4F07C0AFDF97AF27B0712132480B2
:104C04002A750800A80874F228FEE43407FF8E828F
:104C14008F83E06401700BA90812116E8E828F835A
:104C2400E4F00508E508C3940A40D97950121450F9
:104C340012115C02561574F01218DC74F012186C20
:104C4400EAFEEBFF8C088D09750A0AE9600C146012
:104C54000914603B14607D024D30121156E9F50AC7
:104C6400C3940A4003024D30E50845097003024D20
:104C740030750C06750D00780C121AEFEEFCEFFD82
:104C8400AA08AB0912130C7402121882024D307573
:104C94000C00750E06750F00780E121AEFEEFCEF7D
:104CA400FDE50C75F00EA4F8A9F0746A28FA7407EF
:104CB40039FB12131E7402121882E9700B050CE5FD
:104CC4000CC3940A506680CA850C0AE50AC3940A88
:104CD400505A8049750C00AC18AD197A1075F0065D
:104CE400E50CA42423F912144AE9701C7C1079FF02
:104CF400AA18AB1912138AE9700EEEFCEFFDAA187C
:104D0400AB1912060AE9600B050CE50CC3940A50B2
:104D14001B80C4850C0AE50AC3940A500FE50845B4
:104D2400096009AA08AB09A90A121150A90A74104A
:104D34001218827F080219AE74F41218DC890975FE
:104D4400081574FF6A700374FF6B70277E00AC094A
:104D54007A027B00EEF9121132E960037508000E45
:104D6400EEC3940A40E8E50960537A807B11120B84
:104D74003E804A120B0E8A0A8B0BAE0AAF0BEE4F23
:104D840060387C007D00EE2405FAE43FFB8E828FC0
:104D940083A3A3A3A3E0F9121114E9F9C3940A505D
:104DA4000CAC097A027B00121132750800E5096027
:104DB4000CEEFAEFFB1211808003750814024A1AF4
:104DC40074F21218DCECFEEDFF750815740E12185F
:104DD400B8E0F50AA3E0F50B74FF6A700374FF6B87
:104DE4007021750900AC0AAD0BEEFAEFFBA90912AC
:104DF4001138E960037508000509E509C3940A50F0
:104E04003F80E2120B0E8A828B83E5824583602DFC
:104E14007C007D00E5822405FAE43583FBA3A3A38B
:104E2400A3E0F9121114E9F9C3940A5013AC0AADC2
:104E34000BEEFAEFFB1211387508008003750814A5
:104E4400A9087F060219AEC082C083900762EAF007
:104E5400A3EBF0900748E0FC7D007A267B00120566
:104E6400A4900748E0F912086802592F74EE12184A
:104E7400DC74EC12186C8A088B09EA240CF510E433
:104E84003509F5118A828B83A385820C85830DEA0B
:104E94002405F50EE43509F50FEA2409F50AE4358D
:104EA40009F50BEA2403FEE43509FF8A828B83A308
:104EB400A3E024FA700302513424FD700302505419
:104EC400147003024F4E14601024FD700302503717
:104ED40014700302508C02513A125C2C6044E0F5C9
:104EE400838882125146880C890DE8450D6033850C
:104EF4001082851183E0F50E780E121AF3EA240B62
:104F0400F582E43509F583E0F9125C200A0A0AEF18
:104F1400FB850C82850D831218DA74011218820243
:104F2400513A850A82850B83121B0690075E12177D
:104F34004E1206407402121882E9700302513A7943
:104F440001850A82850B83025104750A00850C824F
:104F5400850D83E06003025004850E82850F83E093
:104F6400A2E040030250049007FC125C2F6003028D
:104F740050047C0E7D007900AA18AB191213248505
:104F840010828511831258FAEA4B6010750A06756F
:104F94000B00780A121AEFEA2410801B1258F6123A
:104FA4000B0EEA4B700302513A750A06750B007832
:104FB4000A121AEFEA2405FCE43BFD74021218CA33
:104FC40012130C7402121882850E82850F83E0A2DC
:104FD400E25004D2F08002C2F0A2F0E433F8740C80
:104FE4001218B8125AAE12114AE970117A027B00F3
:104FF400900748E0F9121366790002513C750A15CE
:10500400125C2C700302513A12515B700302513A44
:10501400850C82850D83E0FC790112514C1218DA5B
:10502400E50A700302513AFC79031258F61258B19A
:1050340002512F125C2C700302513A12515B70031F
:1050440002513A850C82850D83E0FC790202512CD1
:105054007C007D00EA2404FAE43509FB8E828F8308
:10506400E0F9121114E9F8C3940A400302513AE535
:1050740008240AFCE43509FD7A0475F006E8A42442
:1050840025F912144402513A1258F690075DE06073
:105094000790189DE0F9806B90189AE070047905E8
:1050A4008061120B0E8A0C8B0DA80CA90DE84970B7
:1050B4000302513AE82404F50CE439F50D8508821D
:1050C400850983A3A3A3A3A3A3A3E0A2E0503985E6
:1050D4000C82850D83E0F508602E850A82850B839A
:1050E400A3E054027022740E1218D2E82405FAE4E4
:1050F40039FBA908121114E9700E79038E828F838B
:105104001258FA12063A802EAC0EAD0F850C828529
:105114000D83E0F91258F612118C125C2C601712F0
:10512400515B60127C00790012514C1218DA80062F
:105134001258F612110E790174141218827F0A02A1
:1051440019AEE0F8A3E0F9228E828F83E0FAA3E09F
:10515400FB8882850983221258BFF98909E8450929
:105164002274F51218DC74F212186CEAFE8C0A75BB
:10517400F006E9A42420F508AC18AD197A0EF9124A
:10518400144AE970467C0679FFAA18AB1912138AEF
:10519400E97038740C1218B81258FAEAF8E50A6083
:1051A40005EEC8488004EEF4C858F8EA687001EBCC
:1051B4006015740C1218B8E8F0A3E4F0AC18AD193B
:1051C4007A0EA908121444790180027900740E122F
:1051D40018827F030219AE74F21218DC74E61218F6
:1051E4006C890A8A088B09ECFEEDFF740C1218D244
:1051F4007A0E75F006E9A42420F912144AE9600332
:105204000252C07C0679FF740C1218CA12138AE980
:1052140060030252C07470250AF50BAC18AD197AFC
:105224000CF912144AE960030252BCAA18AB191211
:105234001144E5084509701D7C0C7900AA18AB19C6
:1052440012138AE970727C0C7D007900AA18AB19DC
:105254001213248051AC18AD19AA08AB0912113EDF
:105264008A0C8B0DA80CA90DE8497022EE4F604CF6
:10527400AC18AD197A007B0012113EEAF8EBF9EA9A
:105284004B603988828983E508F0A3E509F012535D
:1052940039FAEE6A7001EF601FEEF04F70088882F1
:1052A4008983E4F0A3F0AA18AB19121144AC18AD29
:1052B400197A0CA90B121444790180027900741A2A
:1052C400121882024E4674F71218DC7E00EE75F056
:1052D40003A4F8A9F0EC28F8ED1252FDE06A70037B
:1052E400A3E06B7006E8FAE9FB800B0EEEC39404AE
:1052F40040DB7A007B0002561539F98882898322C3
:1053040074F71218DC7C00EC75F003A4F8A9F0EA39
:1053140028F8EB1252FDE0F4FEA3E0F4FF88828942
:1053240083EEF0A3EFF0125339F4F00CECC39404C1
:1053340040D5025615E82402F582E439F583E022CB
:1053440074F41218DC74F412186CEAFEEBFF8C0887
:105354008D099007FC125C2F704FEE4F70030254BE
:10536400BDEC450970030254BD121156E99018A012
:10537400F0C3940A4033750B007C0679FFE50B7586
:10538400F00EA4FAABF074642AFA74073BFB121310
:105394008AE9600302541E050BE50BC3940A40D945
:1053A400750A0AE50A9018A0F09018A0E0C3940AC0
:1053B40040030254BD75F006E0A4FB9007FC125CA8
:1053C4002F705CEEFCEFFD7A0E74202BF91214445E
:1053D4007C0C7D0079FFAA18AB19121324AC18AD0C
:1053E400197A0C9018A0E02470F9121444750A0E6E
:1053F400750B00780A121AEFEEFCEFFD9018A0E08E
:1054040012557612130C74021218829007FCE508E8
:10541400F0A3E509F079000254BF850B0A8084E00B
:10542400C824061254D860197A1B74212BF912145B
:10543400441254C42406F582E438F583E4F0A380CE
:10544400D31254C4240A1254D860107A1B74222B29
:10545400F91214441254C4240A80DB1254C4240CD8
:105464001254D860107A1074232BF9121444125475
:10547400C4240C80C11254CD1254D860307A1074F4
:10548400242BF91214441254CDF582E438F583E048
:105494002410FCA3E03400FD7A0475F0069018A0F3
:1054A400E0A42425F91214441254CD80899007F005
:1054B400E060031211921211867901740C024A1EE3
:1054C4009007FCE0F8A3E0C8229007FCE0F8A3E012
:1054D400C8240822F582E438F583125C26EC4D22B8
:1054E40074F41218DC74F212186CEAFEEBFFE9C3D0
:1054F400940A5004EE4F700479028034AC18AD194C
:105504007A0E75F006E9A42420F912144AE9F50884
:10551400701C750A06750B00780A121AEF740212D1
:1055240018D2EEFAEFFB12130C7402121882A908B7
:10553400740E024A1E74F41218DCEAFEEBFF7508BE
:1055440000750A06750B00780A121AEFEEFCEFFDDF
:10555400E50812557612131E7402121882E96004CB
:10556400A908800B0508E508C3940A40D4790A0207
:105574004A2175F00EA4F8A9F0746428FA74073966
:10558400FB2274F71218DC750800E50875F00EA408
:10559400F8A9F0746428FE740739FFEEFCEFFD7A75
:1055A4000E75F006E508A42420F912144AE96029CE
:1055B4007C067D0079FFEEFAEFFB1213247C067D56
:1055C4000079FFEE2CFAE43FFB121324EE240CF5D1
:1055D40082E43FF583E4F0A3F00508E508C3940AE8
:1055E40040A89007F0E06003121192121186802106
:1055F40074F71218DC7E007F007C06EF1255767972
:10560400FF12138AE970010E0FEFC3940A40EAEE09
:10561400F97F010219AE74F71218DC7E00EEF9125C
:10562400116EE9F90EEEC3940A5003E960EF80E1CC
:1056340074F31218DC74CB12186C89089018A0E06B
:105644006508701B7A017B00900748E0F912136C1F
:105654007A027B00900748E0F912136C12119E75D0
:10566400F006E508A4FF74202FFE74271218D27ADE
:105674000EEEF912144AE9600302573C7C0679FFE6
:1056840074271218CA12138AE9600302573C7C0E6D
:105694007D0079FF74271218CA1213247C1B7D0025
:1056A40079FF740C1218CA1213247C0C7D0079FF44
:1056B400AA18AB1912132474271218D27A0EEEF911
:1056C400121444E9FE740C1218D27A1B74212FF9B7
:1056D400121444E9F509740C1218D27A1B74222F9F
:1056E400F9121444E9F50A740C1218D27A107423CE
:1056F4002FF9121444E9F50B740C1218D27A1074B1
:10570400242FF9121444E9F50C740C1218D27A04FB
:1057140074252FF9121444E9FFAC18AD197A0C74EE
:10572400702508F9121444E9F8E509450A450B45C2
:105734000C4F48CE4EFE80027E00EEF974351218EE
:10574400827F050219AE74F71218DCE9900748F05D
:1057540012115C02561574F21218DCEAFEEBFF54C7
:10576400807003025819900748E0F912134E8A0812
:105774008B09EA450970030258127A01E5082405E9
:10578400F50AE43509F50BE5082404F8E43509F9CC
:10579400880C890D8508828B83E024506036146060
:1057A4000624E16058805D88828983E07059850809
:1057B400828B83A3A3A3A3A3A3A3121B06125C201F
:1057C4008508828B83A3A31258FA12112074021243
:1057D4001882803388828983E0641E700F79008583
:1057E40008828B83A3A31258FA12111A850C82859E
:1057F4000D83E0F9AA0AAB0B120862800AAA081208
:10580400112CE9FAEA6007AA08AB0912133CEEFA74
:10581400EF6480802AEE54026028EE6402FE7C006D
:105824007D007A007B0012114AE960047A0180024B
:105834007A027B00900748E0F9121366EEFAEFFB58
:105844008068EEA2E050556401F508EFF50912589E
:10585400CF121198E96033125C2C60291258C712D8
:105864005146E8FEE9FFEE4F601B7C0079011258B7
:10587400CF8E828F831218DA7C0079031258CF12EC
:1058840058B11218DA12119E800C7A017B0090072D
:1058940048E0F9121366AA08AB09800E54046006A6
:1058A400EE6404FA80047A007B00024E469007629C
:1058B400E0F8A31258BFF5838882221258C7E0F893
:1058C400A3E022E0F5838882A3A3229007FC125C64
:1058D40010E0FAA3E0FB227F020219AEC082C0836B
:1058E400900748E0F98A828B83A31258FA120904BC
:1058F40080398E828F83E0FAA3E0FB22C082C083CA
:1059040074FF12186C121162E9C39402851882851F
:105914001983400474028002740AF0AC18AD197A39
:105924000179051207427401121882D083D08202D1
:10593400011F74F01218DC74E812186CEAFEEBFF15
:10594400890A8C088D097C187D007900AA18AB1986
:10595400121324851882851983EEF0A3EFF09007C3
:105964004AE0C0E074021218B8D0E0F090074BE0AF
:10597400C0E074031218B8D0E0F090189FE0C0E0C3
:1059840074171218B8D0E0F090189EE0A2E0E43347
:10599400FCE0A2E15004D2F08002C2F0A2F0E433B1
:1059A400F8E0A2E45004D2F08002C2F0A2F0E433A2
:1059B400FAE0A2E55004D2F08002C2F0A2F0E4338F
:1059C400F50E750F00E0A2E65004D2F08002C2F09A
:1059D400A2F0E433F50C750D00E0A2E25004D2F01D
:1059E4008002C2F074151218B8E054FEFEA3E0FF62
:1059F400EE4CFCEFFDEC54FDFCE828F8EC48F8ED27
:105A040054FEF9EAFBE94BF9E8FAE954FDFB7409A1
:105A1400780E121859EB450F54FBFB740A780C12DC
:105A24001859EAF8EB450DF9E854FBFAA2F0E4330F
:105A3400F50C750D007402780C121859EA450CF82F
:105A440074151218B8E8F0A3E9F090074BE0601D54
:105A5400750C10780C121AEF7C4C7D077406121822
:105A6400B8AA82AB8312130C740212188290075CDA
:105A7400E06011E50A600974151218B8E04402F0F8
:105A840078018002780074141218B8E048F0900786
:105A940049E0600478048002780074141218B81283
:105AA4005AAE1206347418024D34E048F0AC08AD16
:105AB40009AA18AB192274F71218DC1209587508D0
:105AC40000E50875F00EA4F8A9F0746428FE7407C4
:105AD40039FF7C0679FFEEFAEFFB12138AE97009AD
:105AE400EEFAEFFB790012095E0508E508C3940A93
:105AF40040CF02561574F61218DC74FD12186CEAC5
:105B0400FEEBFF9007FE125C2F70397508007509D3
:105B1400087808121AEF7508027509007808121A35
