:020000040000FA
:060000000201070221B914
:03002B000223FFAE
:03003B0002242577
:030043000223D9BC
:0300530002222F57
:1000830002200FE5C754F84401F5C77901220000A7
:100093000080FB120086B900030200F1E4791A78AC
:1000A30002B800028004F709D8FCE4791C7802B88E
:1000B30000028004F709D8FCE490028178A5791A3C
:1000C3008002F0A3D8FCD9FA7A257B1C90013778FB
:1000D300E579018015E493A3AD82AE838A828B8395
:1000E300F0A3AA82AB838D828E83D8E9D9E7758288
:1000F3009D7583DD740312011975829175830074F4
:100103000012011975D00075813F751881751902A8
:10011300759F00020096C09FF59FE473D09F22D085
:1001230083D082C09FE493C0E0740193C0E0740263
:1001330093F59F22BF03CB030104FB03FF0000B42D
:10014300000028002800283075A000A000A000A00F
:100153000000080008E001F000100010001000107B
:10016300001000100050005000500010001000D08C
:10017300070000000000000F0001000500307507B4
:10018300001000010081FF00000000FFFFFF0202DA
:100193000267850100005085025D850100007F1C18
:1001A300025785010000B802025D85010000801C32
:1001B300025585010000CE02FFFF0100FF20026708
:1001C300850100004D85025D85010000AE1C0253D0
:1001D300850000000000025B85030000FA0217009F
:1001E300050C050C050C050C050C050C050C050C84
:1001F300050C050C050C050C050CE50D030EDF0DB8
:1002030001E803057710020AFFFFFF00FEFFCFD5C9
:10021300261A9EA00000000012012271CA031201D7
:100223002284CA03120122A5CA0312012210CB039E
:1002330012012251CB0312012272CB03120122932A
:10024300CB03120122D4CB031201226CCC03120183
:1002530022B4CC0312012219B5031201222CB503D7
:100263001201225DB50312012297B503120122F098
:10027300B50312012237B6031201227FB60312011E
:1002830022AEB603120122DDB60312012214B70314
:100293001201225BB70312012274B703120122C9B0
:1002A300B703120122F7B70312012231B803120177
:1002B3002205A70212012208A80212012235A80270
:1002C30012012286A802120122A9A802120122BB4E
:1002D300A802120122BEA802120122FCA8021201E6
:1002E3002270A902120122DCA902120122A4AA028D
:1002F300120122C0AA02120122F7AA02120122311C
:10030300AB02120122C8AB021201221AAC02120183
:10031300224BAC021201224EAC021201227FAC022C
:100323001201228CAC02120122A4AC021201220E91
:10033300AD0212012211AD021201221EAD02120101
:100343002221AD0212012278AD0212012289AD02EF
:10035300120122C2AD02120122C5AD02120122F91D
:10036300AD02120122FCAD0212012250AE021201B3
:100373002299AE02120122A9AE02120122DCAE02C0
:10038300120122E9AE02120122ECAE021201225442
:10039300AF0212012256B002120122FAB002120178
:1003A3002263B102120122A1B10212012293CF02F0
:1003B3001201228BD002120122BFD0021201225558
:1003C300D102120122A0D10212012204D20212018F
:1003D300228ED20212012247D30212012269D602CF
:1003E300120122E6D70212012209D8021201221FAA
:1003F3009D03120122C49E03120122E49E031201F3
:100403002205A00312012258A003120122FCFB02C1
:1004130012012224FC0212012251FC021201228940
:10042300FC02120122E7FC0212012233FD02120137
:10043300229AFD02120122DAFD0212012217FE02A4
:1004430012012245FE02120122EFFE02120122F9DD
:10045300FE0212012206FF0212012239FF021201DB
:100463002245FF021201225DFF0212012267FF02F1
:100473001201225EDA031201226CDA0312012284D2
:10048300DA031201229CDA03120122B3DA03120106
:1004930022D7E90112012281EA01120122FDEA01B8
:1004A3001201221BEC0112012257EC01120122F26C
:1004B300EC01120122D6ED0112012299EE01120183
:1004C3002211EF011201229FF00112012210F1010A
:1004D300120122CAF101120122BCF201120122FC13
:1004E300F201120122B0F301120122E2F30112011F
:1004F30022D8F5011201221AF60112012238F6015F
:10050300120122BDF60112012281F701120122A07C
:10051300F90112012295AD03120122ABAD031201C1
:1005230022C9AD03120122DAAE03120122E4AE03A3
:100533001201220FB00312012206B103120122732A
:10054300B1031201222D8A03120122D18A0312015F
:1005530022088B031201225F8B03120122748D0385
:100563001201226D85011201221E86011201223A17
:100573008601120122FB8601120122128701120158
:100583002224870112012277870112012282870127
:100593001201225888011201223589011201229287
:1005A3008901120122228A01120122D98A01120130
:1005B30022E78D01120122D68F01120122889001B8
:1005C300120122519101120122969401120122403B
:1005D3009501120122699601120122259801120147
:1005E30022C598011201221899011201225799017B
:1005F3001201222A9A011201225E9A01120122EBB0
:100603009A01120122A1C7011201222DC801120170
:100613002291C9011201229DC901120122D8C901E7
:1006230012012247CA0112012250CB0112012259A1
:10063300CC0112012220CD011201227DCE01120133
:10064300229BCE01120122B8CE0112012283CF01D7
:10065300120122ABCF0112012275D2011201227ABB
:10066300D20112012293D401120122E1D401120119
:100673002251D5011201228FD5011201226BD6011D
:100683001201222BD70112012277D7011201227AFC
:10069300D701120122BED70112012206D80112018D
:1006A3002245D80112012267D8011201229BD801E9
:1006B300120122FED8011201222385031201222CEA
:1006C30085031201223A85031201228D850312014B
:1006D30022AC8503120122F185031201223587031F
:1006E300120122D087031201221488031201223E31
:1006F3008803120122AD8803120122F38803120139
:10070300226A89031201221B8A0312012298240000
:10071300120122A82400120122492500120122A558
:1007230025001201226226001201227E27001201F7
:1007330022B02700120122DF27001201228C290098
:10074300120122032C00120122732E0012012265D2
:100753002F001201225E30001201226532001201C5
:10076300225935001201228836001201228C3800EA
:100773001201229C39001201222B3B001201221C80
:100783003C001201226A3C00120122D93C001201F2
:1007930022FD3C001201224E3D00120122EF4100D6
:1007A300120122F042001201225143001201227C65
:1007B3004300120122424400120122A8A90312019C
:1007C30022B2A903120122F7A9031201220BAA03E1
:1007D3001201229BAA03120122C3AA03120122FEC1
:1007E300AA0312012227AB031201225BAB031201FE
:1007F3002270AB03120122DBAB03120122FCAB0319
:1008030012012210AC0312012225AC031201225F54
:10081300AC03120122C4AC0312012207AD0312017F
:100823002231AD031201226DAD0312012250D70311
:10083300120122159C02120122F89C02120122735A
:100843009D02120122AE9D02120122FF9E0212019D
:1008530022889F02120122A0A10212012232A402C5
:10086300120122E4A40212012203A6021201225C55
:10087300A602120122008003120122438003120107
:1008830022C780031201229A810312012271840379
:1008930012012262C5031201220FC6031201221C98
:1008A300C7031201225BC703120122B5C70312015A
:1008B30022BAD0031201221DD103120122BAD1039D
:1008C300120122E8D10312012209D20312012244A8
:1008D300D20312012264D203120122238F031201D5
:1008E30022AF8F031201226E90031201228691031D
:1008F300120122A09303120122DFC5021201220476
:10090300C602120122D8C60212012245C7021201F1
:10091300229BC70212012237C8021201226BC902AD
:1009230012012246CA02120122A5CA02120122762C
:10093300CB0212012202CC0212012205CC021201C7
:10094300224FCC02120122C1CC021201226CCD0231
:100953001201228CCD02120122D4CD02120122F007
:10096300CD021201226ACE0212012278CE021201B6
:100973002207CF0212012270CF02120122899803AB
:100983001201220E990312012250990312012234FB
:100993009A03120122A19A03120122E59A0312017A
:1009A30022299B03120122569B031201227E9B03E1
:1009B300120122B69B03120122F49B031201221B94
:1009C3009C03120122959C03120122DF9C03120156
:1009D30022F35C00120122C05E00120122AE60000D
:1009E3001201220261001201222D6100120122DB99
:1009F30061001201220B62001201223A620012010D
:100A0300224D62001201228E6200120122BA62009C
:100A13001201220863001201223F63001201228B9C
:100A23006300120122EA63001201227D64001201B5
:100A33002267650012012256660012012236680001
:100A4300120122556D00120122AE6D001201229790
:100A53006F00120122667100120122E87100120177
:100A63002236730012012247730012012200C803C9
:100A7300120122EBC8031201222EC9031201227DA7
:100A8300C903120122CEC9031201221FCA03120194
:100A930022AE44001201222F45001201225C4500C0
:100AA300120122A54500120122A64600120122F5D9
:100AB3004600120122714800120122F3480012017C
:100AC30022504900120122A34900120122924A0036
:100AD300120122274C00120122F14C0012012201C3
:100AE3004D001201222B4D001201222E4D00120146
:100AF30022114E00120122FC4E00120122A94F00C6
:100B03001201220650001201225F5000120122C37B
:100B130050001201226B51001201220752001201F0
:100B2300229452001201220953001201226553003C
:100B3300120122C45300120122EB5300120122A915
:100B430054001201229A5600120122E356001201A8
:100B5300221357001201228657001201220C59005A
:100B6300120122BC5900120122E159001201222074
:100B73005A00120122355A00120122785A0012013A
:100B830022E85A00120122325B001201223C5C006F
:100B9300120122BD5C001201221FBC021201226A53
:100BA300BC0212012276BC021201224ABD021201CA
:100BB3002261BD021201229EBD02120122CFBD029B
:100BC30012012207BE021201225DBE02120122732C
:100BD300BE02120122AFBE02120122C2BE021201E4
:100BE30022E9BE021201221DBF0212012243C002EA
:100BF3001201228DC10212012289C202120122A610
:100C0300C302120122F67F00120122CFF602120163
:100C1300227DFA02120122B1FB021201226A730041
:100C23001201222D7600120122337600120122F0E6
:100C330078001201224A7B00120122D7930312018A
:100C4300226E94031201222C95031201225695035E
:100C53001201228C9703120122E19B011201221C33
:100C63009C0112012270A601120122DCA7011201CC
:100C730022D9A8011201225EAC0112012244AD0166
:100C830012012290AD01120122AAAD01120122EB41
:100C9300AD01120122F4AD01120122A4AE01120131
:100CA3002274AF01120122BBAF0112012221B00154
:100CB30012012293B00112012249C203120122261A
:100CC300C3031201226AC303120122A4C303120144
:100CD300223CC403120122ABC403120122B4C40395
:100CE300120122C0C403120122DAC4031201220436
:100CF300C50312012234C503120122ADF901120109
:100D030022BAF901120122D4F90112012207FA01D0
:100D130012012245FA01120122AAFA01120122BF8D
:100D2300FA01120122D6FA01120122E4FA01120198
:100D330022F3FA0112012208FB011201221DFB0119
:100D430012012228FB0112012234FB01120122416C
:100D5300FB0112012250FB011201225BFB01120174
:100D63002280FB0112012224FC0112012239FC0121
:100D73001201224EFC0112012268FC01120122859C
:100D8300FC01120122A2FC01120122ADFC0112019D
:100D93002259FD011201223AFE011201225FFE01D6
:100DA3001201226AFE011201227FFE011201229327
:100DB300FE01120122F4FE01120122FAFE011201C8
:100DC3002200FF0112012206FF011201221EFF0170
:100DD30012012251FF01120122C7B102120122E9BD
:100DE300B102120122B1B2021201226BB502120149
:100DF3002281B602120122A2B7021201227CB8029A
:100E03001201222BB902120122928E02120122290F
:100E13008F02120122C18F02120122B1900212012C
:100E230022E89002120122FB900212012269910230
:100E33001201220493021201222B9302120122CDEA
:100E4300930212012202940212012213940212014C
:100E5300228C9402120122AD9402120122C5940243
:100E63001201221D960212012226980212012276F5
:100E73009A02120122799B02120122C89B021201DB
:100E830022008002120122FD8002120122E8810267
:100E9300120122F281021201221482021201222083
:100EA3008202120122728302120122A18302120121
:100EB30022D184021201221385021201223F8602EB
:100EC300120122158702120122678702120122C62C
:100ED3008702120122FD87021201223888021201C1
:100EE30022D38B02120122EC8B021201226E8C029E
:100EF3001201227C8C02120122D18C02120122DF08
:100F03008C021201224C8D02120122BE8D021201AB
:100F130022048E0212012272D20312012297D203FB
:100F230012012208D3031201222CD9021201223505
:100F3300D9021201223ED9021201226FDA021201F2
:100F4300228EDC02120122C4DC02120122FEDC0228
:100F530012012234DD021201226EDD02120122A2ED
:100F6300DD02120122CEDD0212012217DE0212017E
:100F73002251DE0212012299DE02120122EFDE0269
:100F830012012224DF021201227FDF02120122B9A1
:100F9300DF021201220AE00212012240E0021201E2
:100FA300227AE0021201229DE00212012243DB03B6
:100FB3001201226FDB03120122CADB03120122D4C6
:100FC300DB03120122E4DB03120122F4F00212011B
:100FD3002233F102120122BCF102120122D1F102E9
:100FE3001201221CF20212012250F2021201228F7C
:100FF300F2021201229EF20212012253F3021201A3
:1010030022ACF302120122FBF30212012254F40276
:1010130012012261F5021201225AF60212012297ED
:10102300F602120122DEDC03120122DFB1011201FA
:10103300225FB401120122D3B50112012230B6019D
:10104300120122D9B601120122D6B7011201225E82
:10105300B801120122EAB8011201220FB9011201EB
:10106300225FB90112012200BC0112012271BC01ED
:101073001201225DBD0112012297BD01120122D787
:10108300BD0112012277BF01120122A8BF01120183
:1010930022FDBF011201224AC001120122BBC0017D
:1010A300120122DEC001120122F8C0011201220E38
:1010B300C2011201221EC201120122AFC301120199
:1010C30022CFC30112012205C40112012289C501E5
:1010D30012012202C60112012241C601120122732A
:1010E300C701120122E1CE0312012245CF031201EF
:1010F3002200D0031201221FD00312012273D00356
:10110300120122CADE03120122F0DD031201222F93
:10111300DE03120122B7DE03120122EEDB0312010A
:1011230022FEDB0312012216DC031201225FDC0321
:1011330012012264D803120122E8D8031201224EBD
:10114300D903120122F37F00120122F4BB0312011F
:101153002209BC031201222DBD0312012297BD03F4
:101163001201220BBE0312012225BE031201223CEF
:10117300BE031201224FBE0312012267BE031201F6
:10118300227CBE031201229DBE03120122EEBE0386
:101193001201227DB10312012294B1031201220D27
:1011A300B203120122E2B203120122B4B403120108
:1011B3002223BF03120122B5BF0312012233C0034E
:1011C300120122BAC0031201224CC103120122A34D
:1011D300C103120122ADC103120122BCC1031201DA
:1011E30022D2C103120122E5C10312012246C20326
:1011F300120122C6D503120122EFD50312012218D0
:10120300D603120122B1D603120122C9D603120159
:10121300220BD7031201222BE10212012235E10234
:1012230012012275E102120122BEE102120122F82B
:10123300E1021201224EE2021201226DE2021201C8
:1012430022F2E402120122FBE4021201224CE50223
:1012530012012275E5021201228AE502120122FA25
:10126300E50212012288E602120122CCE6021201F3
:1012730022F4E60212012273E702120122B6E70208
:10128300120122F3E70212012205E80212012224CD
:10129300E8021201222DE802120122F2E8021201F1
:1012A3002228D40312012279D40312012202D50386
:1012B30012012268D50312012299B803120122C335
:1012C300B803120122BDB903120122E2B9031201CC
:1012D3002283BA0312012209BB0312012267D90335
:1012E300120122DFCC0312012215CD031201224E7B
:1012F300CD03120122A7CE0312012268DC031201DF
:10130300227EDC0312012288DC031201223EDD036C
:101313001201221EE902120122DBE9021201221646
:10132300EA021201223EEA02120122A0EA0212019B
:1013330022ECEA0212012257EB02120122D3EB0242
:10134300120122CFEC0212012256EE02120122D91F
:10135300EE021201223DEF0212012254EF021201AA
:10136300224AF00212012296F0021201228EA503F4
:10137300120122A3A50312012256A60312012296EB
:10138300A603120122AFA603120122E2A603120151
:10139300222FA70312012263A703120122A5A70389
:1013A3001201229BA903120122D6D901120122EBB9
:1013B300D9011201220EDA011201224BDA011201C4
:1013C300221ADD0112012244DE0112012256DF013D
:1013D300120122C1E101120122C7E301120122EA33
:1013E300E30112012289E501120122DBE501120169
:1013F3002269E6011201221AE80112012256E901CB
:10140300120122D3FF0112012265A1031201225D01
:101413007F00120122877F0012012239DE031201AD
:101423002270DE0312012299DE03E066701008A326
:10143300E066700A08A3E066700408A3E06622C3AE
:10144300E09608A3E09608A3E09608A3E096A2D24C
:1014530065D03322C3E7960809E7960809E796089B
:1014630009E79622C3E09608A3E09608A3E096084E
:10147300A3E09622C008C3E096F50808A3E09642CD
:101483000808A3E096420808A3E09645087001D334
:10149300D00822080808EAC0E0EBC0E086F0E7A421
:1014A300FA180986F0E7A42AFA180986F0E7A42AAD
:1014B300FA180986F0E7A42AFA1986F0E7A4FBE5EF
:1014C300F02AFA190886F0E7A42BFBE5F03AFA199B
:1014D3000886F0E7A42BFBE5F03AFA18180986F022
:1014E300E7A4C5F02BFBE43AFA1908E7C5F0C6A454
:1014F30026F6E5F03BFBE43AFA1886F0E7A4F6E5B6
:10150300F00826F6E43B08F6E43A08F6D0E0FBD010
:10151300E0FA22E4CFC0E0E4CEC0E0E4CDC0E0E4F2
:10152300CCC0E075F020E626F608E633F608E6338D
:10153300F608E633F6181818EC33FCED33FDEE33FA
:10154300FEEF33FFC3EC9709ED9709EE9709EF9789
:10155300191919400FFFEC97FC09ED97FD09EE9758
:10156300FE191906D5F0BFECF709EDF709EEF709F7
:10157300EFF7191919D0E0FCD0E0FDD0E0FED0E080
:10158300FF22E4C396F608E496F608E496F608E428
:1015930096F6226016080808C6C313C618C613C6F3
:1015A30018C613C618C613C6D5E0EA227009080880
:1015B30008226016181818C6C333C608C633C608EF
:1015C300C633C608C633C6D5E0EA22E627F60809BD
:1015D300E637F60809E637F60809E637F622E02685
:1015E300F608A3E036F608A3E036F608A3E036F6DD
:1015F30022E026F008A3E036F008A3E036F008A3C3
:10160300E036F022C3E697F60809E697F60809E6FE
:1016130097F60809E697F622C3E096F008A3E0964A
:10162300F008A3E096F008A3E096F022E657F60848
:1016330009E657F60809E657F60809E657F622E0E1
:1016430056F608A3E056F608A3E056F608A3E056BC
:10165300F622E056F008A3E056F008A3E056F0089F
:10166300A3E056F022E066F608A3E066F608A3E0DE
:1016730066F608A3E066F622E0F608A3E0F608A300
:10168300E0F608A3E0F622E6F008A3E6F008A3E6F6
:10169300F008A3E6F022E0FAA3E0FBA3E0FCA3E05A
:1016A300FD22EAF0A3EBF0A3ECF0A3EDF022E0F8C7
:1016B300A3E0F9A3E0FAA3E0FB22E8F0A3E9F0A397
:1016C300EAF0A3EBF022CAC0E0E6F0A308DAFAD00E
:1016D300E0FA22CAC0E0E0A3C582CCC582C583CDAF
:1016E300C583F0A3C582CCC582C583CDC583DAE6A5
:1016F300D0E0CA22C3E498F8E499F9121738802697
:10170300C3E49AFAE49BFBE920E7E9121738E4986B
:10171300F8E499F922C3E498F8E499F9121738E444
:1017230098F8E499F9C3E49AFAE49BFB22EB20E7E7
:10173300CFE920E7E0B90010BB0008E88AF084F89D
:10174300AAF022E4FBC8FA22EB70227B10C833C84C
:10175300C933C9335007C39AC3DBF280069A5001D9
:101763002ADBEAC833F4C8C933F4C9FA2275F0088E
:10177300E4C833C8C933C933C99AC99B5004C92AB9
:10178300C93BD5F0ECFBC833F4C8E4C9FA22600DB9
:1017930008C6A2E713C618C613C6D5E0F322600C29
:1017A30008C6C313C618C613C6D5E0F422700422B4
:1017B300600D18C6C333C608C633C6D5E0F4182275
:1017C300251810AF08F518400C15198008F51840B6
:1017D300021519D2AF2200C0D0251810AF08F51892
:1017E300500C05198008F51850020519D2AFD0D056
:1017F300222518F58210AF08F518400C151980083A
:10180300F51840021519D2AF851983222518F582E0
:10181300E43519F583222518F8E43519F92225183A
:10182300FAE43519FB222518FCE43519FD22E4738B
:101833002518C582C0E0E51934FFC583C0E0E5186B
:10184300C3958224F810AF08858319858218800810
:10185300858319858218D2AFCEF0A3E520F0A37853
:1018630008E608F0A3DEFAEFF0A3E58124FAF8E630
:1018730008F0A3E608F0A3E608F0A30808E608F0DA
:10188300A3E608F0A315811581D0E0FED0E0F8159A
:101893008115811581E8C0E0EEC0E0222518C582DC
:1018A300C0E0E51934FFC583C0E0E518C395822481
:1018B300F910AF08858319858218800885831985F7
:1018C3008218D2AFCEF0A3E520F0A37808E608F0A3
:1018D300A3DEFAEFF0A3E58124FBF8E608F0A3E624
:1018E30008F0A30808E608F0A3E608F0A31581159D
:1018F30081D0E0FED0E0F815811581E8C0E0EEC0AC
:10190300E022851983851882E0A3FEE0A3F5207801
:1019130008E0A3F608DFFAE0A3FFE0A3C0E0E0A33A
:10192300C0E0E0A3C0E0E0A3C0E0E0A3C0E010AFEC
:10193300088582188583198008858218858319D2C2
:10194300AFD083D08202011F851983851882E0A35B
:10195300FEE0A3F5207808E0A3F608DFFAE0A3FF92
:10196300E0A3C0E0E0A3C0E0E0A3C0E0E0A3C0E0E8
:1019730010AF0885821885831980088582188583AE
:1019830019D2AFD083D08222C0D02518C582C0E03F
:10199300E51934FFC583C0E0E518C3958224F3102D
:1019A300AF08858319858218800885831985821875
:1019B300D2AFC8F0A3E9F0A3EAF0A3EBF0A3790850
:1019C300E709F0A3D8FAECF0A3EDF0A3EEF0A3EF50
:1019D300F0A3D0E0F0A3D0E0F0A3D0E0F0A3E520A3
:1019E300F0A3E5F0F0A322851983851882E0C0E017
:1019F300A3E0F9A3E0FAA3E0FBA37808E0F608A3C9
:101A0300DFFAE0FCA3E0FDA3E0FEA3E0FFA3E0C058
:101A1300E0A3E0C0E0A3E0F5D0A3E0F520A3E0A3BA
:101A2300F5F010AF0885831985821880088583191E
:101A3300858218D2AFD082D083D0E0F8D0E0327460
:101A4300048006740280027401C0E0F4041217F4E7
:101A5300D0E01216C9227404800474028000CCC042
:101A6300E0EDC0E0E518C39CCCAD1950011D10AFEB
:101A7300068C188D1980068C188D19D2AF1216D6C4
:101A8300D0E0FDD0E0FC22D083D082E9C0E0E49333
:101A9300A3C386F0C5F095F0F908E493A386F0C5D7
:101AA300F095F0700BE493A3C3994005E904800219
:101AB300A3E475F002A42582F582E5F03583F5836E
:101AC300D0E0F9E493A3C0E0E493C0E022D083D054
:101AD30082ECC0E0EDC0E0E493A3FCE493A3FDED4E
:101AE3004C600D121B1CEC24FFFCED34FFFD80EF5A
:101AF300E493A3FCE493A3FDED4C600D121B5BEC9C
:101B030024FFFCED34FFFD80EFD0E0FDD0E0FCE4EA
:101B130093A3C0E0E493C0E022C0E0C3E49396083B
:101B23007401939618400FE4936670080874019348
:101B3300661870007019A3A3C3E493960874019305
:101B43009618A3A3400DD0E0D0E0D0E0021B0CA375
:101B5300A3A3A3A3A3D0E022C0E0C0F088F0E49342
:101B63006670080874019366187000A8F0A3A37048
:101B73000BD0F0D0E0D0E0D0E0021B0CA3A3D0F058
:031B8300D0E0228D
:101B880074F612189FEAFEEBFF8C088D09EE2434D8
:101B9800F8E43FF9E8FCE9FDEE2435121E54FAEEAC
:101BA8002437121E54F88508F0A4C885F00A850960
:101BB800F0A4250AF9EA28F8E439F97A257B001215
:101BC8001738EA8C828D83F0FA131313541FF8EE3A
:101BD80028F8E43FF9E8245DF582E439F583E0C0AC
:101BE800E074075AF8D0E0B800028004C313D8FCA8
:101BF800A2E0EE50082434F582E43F80182436121F
:101C08001E54F5F0EA84A8F0EE28F8E43FF9E82439
:101C180038F582E439F583E0F97F0302194B74F74C
:101C280012189FEAFEEBFFEE2434121E54C0E0EEB9
:101C38002435F582E43FF583D0E0F08E828F83A3CC
:101C4800A3A3A3A3A3A3C082C0838E828F83A3A3CD
:101C5800A3A3A3E0F8A3E0F9D083D082E0C398F56A
:101C680008A3E099F509EE247F121E546401703E22
:101C7800EE2480F582E43FF583C082C0838E828F94
:101C880083A3A3A3A3A3E0240108A3E03400F9D00D
:101C980083D082E0687003A3E06970127CC07D067F
:101CA800120B39EE247FF582E43FF583E4F0AC08AB
:101CB800AD09EEFAEFFB121B88E9F91223CB7F027C
:101CC80002194B74EF12189F900369E064086005CD
:101CD800E06407702A9061C8E06024900397E0F4FC
:101CE800601DE0F875F00DA4C8AAF02AF9749928C7
:101CF800FE740339FF8E828F83A3A3A3E0700302CF
:101D08001DD9906060E0C0E0EE2468F582E43FF5FC
:101D180083D0E0F0750CFC750D0675080075090098
:101D2800E5D914F50AE5D95403F50E601274036574
:101D38000E6043E50A600AEE2467121E54700280A2
:101D4800759006F7E06401601F121E5160047A0462
:101D580080027A00E50AC39AFA95E0FB1209E38A41
:101D6800088B09EA45097005120DBB8064121E51E3
:101D780070048A0C8B0DE50A6012850C82850D8330
:101D8800F50BE5D9F0A3150BE50B70F6121E5160A3
:101D98004474FC250AF50A780C121A46AC0AA90EF6
:101DA800EEFAEFFB120BFF74021217D9E97026AA9C
:101DB80008AB091212A7793D8E828F83A3A3A3A330
:101DC800E0FA7B0012085DEEFAEFFB120B5D120CD5
:101DD8005F7900806F7403650E6051850A10751174
:101DE800007810121A46AC0CAD0DAA08AB09120BFC
:101DF800C374021217D9EE2468121E54648070044A
:101E0800747F8001E0F50C780C121A4AE50EF50C87
:101E1800780C121A4AA90AAC08AD09900397E0FA9F
:101E28007B0012082D74021217D98013900369E001
:101E38006408700BAC0CAD0DEEFAEFFB120C2F1210
:101E48000DC779017F0A02194BEE2483F582E43F1E
:101E5800F583E02274F212189F74FC1217C3EAFE8D
:101E6800EBFF8909A2AFE433F508C2AF021F26E0F1
:101E7800601B780C121A46AC0BA90EEEFAEFFB1297
:101E88000BF974021217D97404250BF50B7401258C
:101E98000BF5D9850ED9E50B6018F50A850C8285F6
:101EA8000D83E0F5D9A385820C85830D150AE50A13
:101EB80070EA75E195EE2463F8E43FF97A007B0057
:101EC800A2AFE433F50BC2AF88828983E0FCA3E0BC
:101ED800FDEC4D603A88828983E0FAA3E0FB8A82B0
:101EE8008B83E0FCA3E0FD88828983ECF0A3EDF00E
:101EF8008A828B83E4F0A3F088828983E0FCA3E0E4
:101F0800FDEC4D700A88828983A3A3E4F0A3F0E571
:101F18000BA2E092AF1212A79006C7E004F0EE24DD
:101F280063121E54F8A3E0F9E8496064EE246312D2
:101F38001E542402F8A3E03400F988828983E582DC
:101F48002402F50CE43583F50DE0F50BA3E0F50E5E
:101F5800EE2462121E54640170369061D0E0F812CB
:101F68001E5160047C0480027C007480C398FA953A
:101F7800E0FBE50B2CF8E43400F9E82402F8500102
:101F880009C3EA98EB99A2D265D0334003021E77C1
:101F98009006C7E0604D9006C8E0F89006C7E0C319
:101FA80098500C74026509703A9006C9E060348E46
:101FB800828F83A3A3A3A3E0851882851983121FA8
:101FC800FB740212180FE8121FFB9006C6E028F0F7
:101FD8007402121829AA18AB1979011208879006F9
:101FE800C7E4F0E508A2E092AF74041217D97F079E
:101FF80002194BF0A3E4F09006C7E0F822000000B5
:10200800851A87851BC622C0E074EB12198BA2AF14
:10201800E433F508C2AF759B00906182E0A2E050FE
:1020280030E591A2E0502A7591FE7401651A70217D
:102038001221A2120CEF122190121A5912230774BE
:10204800041217D9E9640170057901120D1F121CD9
:10205800CB906182E0A2E5505DE591A2E55057750D
:1020680091DF900369E064076005E06408702F124F
:1020780021A27401651A703E120CEF122190121AF7
:102088005912230774041217D9E9640170057901FC
:10209800120D1F7901EEFAEFFB121E5C8018E06446
:1020A8000D701390038BE004F064287002E4F07A5A
:1020B80000E0F9120DCD906182E0A2E64003022112
:1020C80065E591A2E640030221657591BF90036919
:1020D800E064057008120CD7120CE38003120CDDC3
:1020E800751A00120D3DE990036AF07900120D1F70
:1020F800120AA37A017B00900368E0F91212779024
:102108007803E0644270569006FBE014F0704EC20B
:10211800AF12211C00781DD0E0F618D0E0F6E59F3C
:102128005407F87005750DFF8003750D7FC4C0E076
:10213800781CE6F50A08E6550DF50B740B780A12BB
:1021480017A1D0E0250AF8906270E0A2E740F8E80D
:10215800C333906272F0906270E0D2E0F0906181D7
:10216800E0A2E35009E5E9A2E3500375E9F7A3E02B
:10217800A2E75009E591A2E7500375917FE508A20F
:10218800E092AF7F080219EA8E828F83E0F8A3E01D
:10219800C82416F582E438F58322900397E0F87591
:1021A800F00DA4C8AAF02AF9749928FE740339FF1F
:1021B80022C0E0C0D0C082C083906183E0A2E0501A
:1021C80009E5BFA2E0500375BFFEE0A2E15009E5B2
:1021D800BFA2E1500375BFFDE0A2E25009E5BFA22E
:1021E800E2500375BFFBE0A2E35009E5BFA2E3504C
:1021F8000375BFF7E0A2E45009E5BFA2E4500375F8
:10220800BFEFE0A2E55009E5BFA2E5500375BFDFC7
:10221800E0A2E65009E5BFA2E6500375BFBFD08330
:10222800D082D0D0D0E032C0E074F212198BE5A78A
:10223800A2E6500FE5A1A2E6500953A7BF75A1BFBA
:10224800122283E5A7A2E5500CE5A1A2E5500653AA
:10225800A7DF75A1DFE5A7A2E15009E5A1A2E1503A
:102268000375A1FDE5A7A2E2500CE5A1A2E2500684
:1022780053A7FB75A1FB7F010219EA74F712189F97
:10228800751A01900369E064067015120C838A823E
:102298008B83A3A3A3A3A3A3E0FAA3E0FB120CC51B
:1022A800A2AFE433FED2AF90036FE0640170187AF6
:1022B800207B00900368E0F91213917A207B00904C
:1022C8000368E0F912127D906182E0D2E6F0900690
:1022D800F8E0602185C61B801690036EE0640170EB
:1022E80008E5C654F84405F5C653BEFC1220087428
:1022F80001651A60E4EEA2E092AF7F0202194B7406
:10230800F112189F8A088B098C0A8D0B90854178E9
:1023180008121642740F12180F780C12167B90854B
:1023280041780C1216427808790C1214579084EDF3
:1023380050107808790C1216077808121477401490
:10234800800E780C7908121607780C12147750044E
:102358007901800279007F0802194B74ED12189FE9
:102368008A088B098C0A8D0B9085417808121642D1
:10237800741312180F780C12167B908541780C1282
:102388001642780C790812145740117808790C1203
:102398001607AA08AB09AC0AAD0B802275100075A8
:1023A80011007512007513017810790C1216077850
:1023B8001079081215CEAA10AB11AC12AD137F0C10
:1023C80002194BC082C083E9906000F0D083D082AC
:1023D80022C0E074F212198BA2AFE433FED2AFC26E
:1023E800C0E5D1A2E4500675D10F1211EDEEA2E0BE
:1023F80092AF7F010219EAC0E0C0D0E8C0E0E9C0AE
:10240800E0A9A8D2AFC2C7E9A2E7E433F8E9A2E796
:1024180092AFD0E0F9D0E0F8D0D0D0E032C0E0C040
:10242800D0E8C0E0E9C0E0EAC0E0C082C083A2AF63
:10243800E433FAD2AF900F5DE0F8A3E06870085378
:102448009AFBA374018022C2E9900F5DE0F8740141
:1024580028F074DD28F582E4340EF583E0F5C190A8
:102468000F5DE0C394804002E4F0EAA2E092AFD0AE
:1024780083D082D0E0FAD0E0F9D0E0F8D0D0D0E034
:0724880032C2AF0200002286
:10249000FFFFFFFFFFFFFFFFC082C083E9901CAD7D
:1024A000F0D083D08202011F74F6121833E9900233
:1024B000DCF090033BE0F50875090074027808121F
:1024C00017B0AA08AB091212EF9002DD122E5B9032
:1024D00002DD123248606F90033BE075F003A4FA0E
:1024E000ABF01212EF9002FA122E5B9002FA123247
:1024F00048700B9002DD1232191212F580489002DA
:10250000FA1241AD7AFF7BFF1210E57A0080198A3A
:1025100008750900740278081217B0123C5574FF50
:1025200012265BE4F0A3F00A90033BE0F8EAC398BC
:1025300040DD79051207259002DCE0F91206117AD8
:10254000AF7B07120983023CF874F41218338A082F
:102550008B09EB548060479002DCE0F912125F8A2D
:102560000A8B0BAE0AAF0BEE4F602A8E828F83E090
:1025700064B0701A120737E960148E828F83A3A3A8
:10258000A3A3E0F9EE2405FAE43FFB120707EEFAF5
:10259000EFFB12124DAA08E5096480FB80047A0063
:1025A0007B000227AB74F212183374FB1217C3EAD4
:1025B000FEEBFFEE4F6045740312180FEEF0A3EF31
:1025C000F0851882851983ECF0A3EDF074021218DF
:1025D0000FE9F0AA18AB1912060BE9F5087075742B
:1025E0001312180FE0F50AA3E0F50BE50A450B609E
:1025F000638E828F83122BE4EE4F70057508028084
:10260000537A067B001212EF8A0C8B0DA80CA90DD1
:10261000E8497005750813803B88828983E4122697
:102620005BEEF0A3EF122777E50AF0A3E50BF0903D
:1026300002E01227709002E06017E0FCA3E0800344
:10264000EAFCEBFD8C828D8312277070F38C828DF7
:1026500083123870A908740502442DF0A312418F2B
:10266000A32274F21218338908890C750D007403C3
:10267000780C1217B0850C0A850D0B9002DFF090D4
:1026800002DD12367B12276E602E1212F579008061
:102690001D890C750D007402780C1217B09002DDC4
:1026A000123B148882F583A3A3E4F0A3F0099003FE
:1026B0003BE0F8E9C39840D990033BE0FA850AF083
:1026C000A4CAA8F0850BF0A428FB1212EF8A0C8B89
:1026D0000DAE0CAF0DEE4F700302276490033BE08C
:1026E000FC850AF0A4CCA8F0850BF0A428FD7900A5
:1026F0001212357C0080318D0C750D007403780C3E
:102700001217B08A828B8312276988828983E4F04A
:10271000122776A3A3F0A3F00DEDC3950840D8EEE1
:10272000250AFEEF350BFF0C90033BE0F8ECC39855
:1027300050288C0C750D007402780C1217B09002A2
:10274000DD122769E82402500109FAE9FB8A828B2D
:1027500083EEF0A3EFF07D0080BFE5089002DFF08C
:10276000790080027913024430123B18F922A3A3A6
:1027700012321DEA4B22A312418FA3A3A32274F4A9
:102780001218337900EAA2E0501F7508B375098466
:102790007808121A4679107C047D007AAF7B1C12EF
:1027A000071F74021217D9E9F980007F0402190586
:1027B000C082C0839002E0123248601C8882898304
:1027C000A3A3E06A7003A3E06B8882898370E8A307
:1027D000A3A3A312321980047A007B000224A174FF
:1027E000F212183374FD1217C3EAFEEBFF8518824C
:1027F000851983E4F0A3F0740212180F7401F0122B
:10280000324570141208D51212EF9002E3122E5BBB
:102810001232457003022971122F5BEE2404F50A6F
:10282000E43FF50B850A82F583E024FE603C24FC3E
:10283000607424FE607E24FE70030228C124FE70B2
:10284000030228CE24FE70030228DB24FE7003025C
:1028500028E824FE70030228F524FC7003022916E0
:1028600024FE700302292E02296A1208D59002E57F
:10287000EAF0A3EB12297D120263E9600302296AE0
:102880009002E5121A5D8E828F83A3A3A3A3A312E5
:1028900041AD8508828509831232191206EF740250
:1028A0001217D902296AAC18AD19EEFAEFFB12071C
:1028B0003D022939AC18AD19EEFAEFFB120743803F
:1028C00078AC18AD19EEFAEFFB120749806BAC1823
:1028D000AD19EEFAEFFB12074F805EAC18AD19EEA2
:1028E000FAEFFB1207558051AC18AD19EEFAEFFB69
:1028F00012075B80447402121819880C890D780C39
:10290000121A467402121829EEFAEFFB12076174CC
:10291000021217D98023AC18AD19EEFAEFFB12079B
:1029200067E9F87016740212180FE4F0803CAC18D6
:10293000AD19EEFAEFFB12076DE9F8E8602C8E8214
:102940008F83A3E064146022850A82850B83E09064
:1029500002E5F08518828519831232199002E61279
:102960002E5BE8A312297D12025DEEFAEFFB120640
:10297000C5740212180FE0F9740302442DF07CE5CF
:102980007D0285088285098312321D2274E812189F
:102990003374FA1217C3740412180FECF0A3EDF09D
:1029A0008A128B13EA2405F50EE43513F50FEA2499
:1029B00002F510E43513F511851082F583123219F2
:1029C0001203A78A0A8B0B7508007C037D0079002F
:1029D0007AE57B02121235E50E2402F516E4350F76
:1029E000F5177402121819880C890D780C121A4602
:1029F000850E82850F83A3A3A3A3E0F50C750D00BC
:102A0000780C121A46E50E2405F50CE4350FF50D89
:102A1000780C121A46851682851783123520120605
:102A20002974061217D98A0C8B0DE50C450D70031D
:102A3000022BAD8020851882851983E088828983E6
:102A4000F00508851882851983A3E0C0E0122BEEFB
:102A5000D0E0F00508E50A24FBFAE50B34FFFBC3E0
:102A6000E5089AE49B4003022BAD7E007F008512AF
:102A700082851383A3A3A3A3E0F5097809121A4A58
:102A8000E4F514F5157814121A467514E27515025A
:102A90007814121A469002E3121A5D740912180F84
:102AA000121A5DE50A24F9F9AC0CAD0D851082858A
:102AB000118312321912079774091217D9E96003AA
:102AC000022B4E850E82850F83A3A3A3A3A3A3A3EA
:102AD000E0F89002E2E0687075E0F5148E15781465
:102AE000121A461241AA850E82850F83A3A3A3A3BF
:102AF000A3A3A3A312321912122F74021217D9E939
:102B0000604C9002E6123248703BE4F514781412DF
:102B10001A467CFF7DFF790785108285118312326A
:102B20001912070174021217D912324E7017850E4E
:102B300082850F83124347740412180F123C081247
:102B40003551022BE1850C82850D83122BE4A818E8
:102B5000A919881489157814121A46740412180FCA
:102B6000121A5D851682851783122E51120635744E
:102B7000041217D98A0C8B0DEE4F7003022A2A1209
:102B80002BEEEE122BF9123507EF122BF9F8A3E01A
:102B90003400F9E50C450D6003022A3588828983EB
:102BA00074FFF00508122BEE74FFF00508E50860CD
:102BB0001A1313543F122E6112026FE9600990023A
:102BC000E61232191212A779008016850E82850F3F
:102BD00083124347740412180F123C08123870799C
:102BE0000A0234DAA3A3A3A3E0FEA3E0FF22A8080D
:102BF0009002E6E02812350722F00508089002E668
:102C0000E0282274E812183374FA1217C3740212FF
:102C1000180F122E5B740412180FECF0A3EDF07471
:102C20000212180FE024051234F0E0F50CA3E0F5D1
:102C30000D740212180FE02402F510A3E03400F521
:102C400011851082F5831232191203A775080075D9
:102C50000900EA24FCFEEB34FFFF8008050CE50CBC
:102C60007002050DA808C3EE98EF94005003022EE1
:102C70000DA818A919880E890F780E121A46851406
:102C800082851583A3A3A3A31241B1121A46E514AA
:102C90002405F50EE43515F50F780E121A46851445
:102CA00082851583122E4F12062974061217D98AAF
:102CB0000E8B0FEA450F7003022E0DEA2404F51661
:102CC000E4350FF517851682F583E0F50CA3E0F5E2
:102CD0000D8518828519831241AD8A828B83A3A347
:102CE000A3E0F9851082851183123219120617E9C3
:102CF000F5096003022E0D740212180F123517F534
:102D0000097809121A4AE4F512F5137812121A46D4
:102D10007512E27513027812121A469002E3121A23
:102D20005D740712180F121A5DEEF9AC0EAD0F8527
:102D3000108285118312321912079774091217D95C
:102D4000E9F5096003022E0DE508703FE4F50EF584
:102D50000F780E121A467CFF7DFF79098510828557
:102D6000118312321912070174021217D912353D5C
:102D7000700D740412180F122E447911022E419016
:102D800002E2E024029002E6F080149002E6E0FA0B
:102D90009002E2E0790024025001096A497072A8A9
:102DA000089002E2E0FAE82AFAE43400FBEE9AEF37
:102DB0009B405A851682851783E0C0E09002E71297
:102DC0002BF3D0E0F00508851682851783A3E0C0B9
:102DD000E0089002E7122BF3D0E0F005089002E241
:102DE0001241B1121A461241AAA8081234E4121272
:102DF0001D74021217D99002E2E02508F50874FF4D
:102E0000650C700474FF650D6003022C5CE50860BE
:102E10001F9002E6E0F5F0E50884122E61120275BB
:102E2000E960099002E71232191212A779008011A5
:102E3000E509700375090A740412180F122E44A9CB
:102E4000090234DA12367FE50CF0A3E50DF022A377
:102E5000A312443CAA0CAB0D22A3A3EAF0A3EBF00F
:102E6000229002E5F07CE57D0285108285118312B7
:102E7000321D2274EC12183374FC1217C3123980FD
:102E8000740212182912321312062F8A0C8B0DEAC3
:102E9000450D7003022F4B122F5BA818A91988103B
:102EA00089117810121A467CFF7DFF790B85088204
:102EB00085098312321912070174021217D91230D0
:102EC00051700C850A82850B8312354E022F588E65
:102ED000828F83A3A3A3A3E0F5127812121A4AE407
:102EE000F512F5137812121A467512E57513027869
:102EF00012121A467810121A46740912180F121A72
:102F00005D740912180FE0F9AC0CAD0D85088285CF
:102F1000098312321912079774091217D9E9FE7042
:102F2000157CE57D0285088285098312321912021B
:102F30007BE97009802074166E70027E009002E6B4
:102F40001232191212A7EE7004800B7E01850A82DC
:102F5000850B8312386DEEF9023882EE2402F508F3
:102F6000E43FF5092274EC12183374FC1217C3EA1B
:102F7000FEEBFF8C0E8D0FEE2405F508E43FF509FE
:102F800074021218298508828509831232191206E3
:102F90002F8A0C8B0DEA450D7003023041EE24029E
:102FA000F50AE43FF50BA818A919881089117810C3
:102FB000121A467CFF7DFF790D123213120701743D
:102FC000021217D9123051700B85088285098312BD
:102FD000354E807A8E828F83A3A3A3A3E0F5127867
:102FE00012121A4A850882850983A3A3121A5D75F5
:102FF00012E57513027812121A467810121A4674E6
:103000000912180F121A5D740912180FE0F9123222
:103010000F12079774091217D9E9FE700F7CE57D2E
:1030200002123213120281E97009802074166E7048
:10303000027E009002E61232191212A7EE7004808E
:103040000B7E0185088285098312386DEEF90238FE
:1030500082123258F510A3E0F511EA45112274E806
:1030600012183374FE1217C38A168B178C148D1521
:10307000EA2405F50CE43517F50DEA2402F50EE413
:103080003517F50F850E82F5831232191203A78AC0
:10309000088B09750B007C037D0079007AE57B02C3
:1030A000121235750A00E50814F5100424FFF5081E
:1030B000E50934FFF50980549002E5E0FA9002E258
:1030C000E0F8EA28F8E43400F9E50898E5099950B1
:1030D0000D9002E5E0F8E510C3989002E2F0E0F50B
:1030E000127513007812121A461241AA9002E6E0F5
:1030F0002AFAA3E03400FB12121D74021217D990B1
:1031000002E2E0F89002E5E028F0050A850C8285ED
:103110000D83A3A3123B2440030231F49002E5E0A7
:10312000C39508E4950940030231F4AE0AEE2EFE81
:10313000E433FF123233AC18AD191241C5E439FB48
:1031400012062F8A128B13AC12AD13EC4D701B7547
:103150000B011232231238719002E61227706003BD
:103160001212A7A90B74020234DC8516828517831C
:10317000A3A3A3A3E0F50B780B121A4AE4F512F50A
:10318000137812121A467512E27513027812121A87
:10319000469002E3121A5D740712180F121A5DA905
:1031A00010850E82850F8312321912079774091247
:1031B00017D9E9F50B709B9002E6123248600302C2
:1031C00030B8E4F512F5137812121A467CFF7DFF31
:1031D000790F850E82850F8312321912070174024E
:1031E0001217D912324E60030230B8123223123550
:1031F000520231657CE57D02850E82850F83123295
:1032000019120287E960030231587900023165AC76
:103210000CAD0D850A82850B8312321D22E0FAA3C4
:10322000E0FB22123233E0FAA3E0F9EA851482854A
:10323000158322850C82850D83E02EF8A3E03FF9EB
:1032400088828983229002E312434BE8492212329A
:1032500058F8A3E0F9E849229002E6EAF0A3EBF07F
:103260009002E6E02274E812183374FA1217C3745D
:103270000412180F122E5B8C168D17740412180F7F
:10328000E02405F50EA3E03400F50F740412180FC6
:10329000E024021234F01232191203A78A0A8B0BAF
:1032A0007F007E00A818A919880889097808121AD1
:1032B00046850E82850F83A3A3A3A3E0F5088E099C
:1032C0007808121A46E50E2405F508E4350FF509CD
:1032D0007808121A46850E82850F83A3A312352023
:1032E00012062974061217D98A0C8B0D8029123503
:1032F00011F00F123511F00F9002E212385C121A21
:10330000461241AAEFF81234E412121D7402121789
:10331000D99002E2E02FFFE50C450D70030233A0C7
:10332000851882851983123992A3A3A3E0F9851425
:1033300082851583123219120617E9FEE50C240462
:10334000F510E4350DF511EE7050740412180F12DB
:103350003517F5087808121A4AE4F508F5097808CF
:10336000121A467508E27509027808121A46900288
:10337000E3121A5D740712180F121A5DE50A24FA97
:10338000F9AC0CAD0D851482851583123219120724
:103390009774091217D9E9FE603912352D12387069
:1033A000EF70030234C79002E6E0F5F0EF8490027C
:1033B000E5F07CE57D0285148285158312321912B1
:1033C000028DE960099002E71232191212A7790002
:1033D0000234DA8F08EF703BE4F512F5137812121D
:1033E0001A467CFF7DFF7911851482851583123280
:1033F0001912070174021217D912353D70091235DE
:103400002D1235510234DA9002E2E024049002E6F3
:10341000F080359002E2E0F89002E6E0FAE8240459
:10342000FCE43400FDEC6A4D60030233A6E50A2497
:10343000FAFAE50B34FFFBE50828F8E43400F9EA72
:1034400098EB9950030233A6851082851183E0C062
:10345000E09002E7E02FF8A3E034008882F583D003
:10346000E0F00F851082851183A3E0C0E01234FEE6
:10347000D0E0F00F74021218198808890978081230
:103480001A46740212180F121A5D850E82850F8378
:10349000122E4F12063574041217D98A0C8B0DEABE
:1034A000450D70030232EE740212180FE0C0E012F4
:1034B00034FED0E0F00F740212180FA3E0C0E01247
:1034C00034FED0E00232F6EE70027E0A850E82856E
:1034D0000F83123533123870EEF974061217D97F44
:1034E000100219059002E7E028FAA3E03400FB225D
:1034F000F514A3E03400F515851482F58322123506
:1035000002229002E7E02FFAA3E034008A82F583DA
:103510002212350274FF2212367FA3A3A3A3E02256
:1035200012443C850E82850F8312321D2285108243
:1035300085118312434B851682851783229002E7FB
:10354000EAF0A3EBF09002E712434BE8492212386D
:1035500076E8F0A3E9F079112274EA12183374FEC8
:103560001217C38A088B098C128D13EA2405FEE416
:103570003509FFAC18AD198E828F831232191206ED
:103580002F8A0C8B0DEE2406F50EE43FF50FEA456D
:103590000D7003023651E5082402F50AE43509F5F9
:1035A0000B8A828B83A3A3A3E0A2E550288518820F
:1035B00085198312321912078B8A108B11EA451173
:1035C0006020791212320F85108285118312183112
:1035D000E9F50C707F850E82850F83E060097952D2
:1035E0008011750C0E806D850882850983A3A3A3C5
:1035F000A3E0F9E4F508F5097808121A468E828FDF
:1036000083A3A3E0F5087808121A468E828F83A35D
:10361000A3A3121A5D8E828F831241AD1232131250
:10362000079D74061217D9E9F50C7011850E828575
:103630000F83E0702D1232131202938025741665E9
:103640000C7011750C00741812180F12367BE48080
:1036500010750C01124343851282851383E8F0A391
:10366000E9F0850E82850F83E0600479008002A96D
:103670000C74021217D97F0E02190512367F22E050
:10368000F8A3E0F58388822274EC12183374F712E1
:1036900017C38A0A8B0B8C108D11EA2405FEE435C2
:1036A0000BFF750C00AC18AD198E828F8312321986
:1036B00012062F8A088B09EA45097003023847E58C
:1036C0000A2402F50A5002050B8A828B83A3A3A366
:1036D000E0A2E5502F85188285198312321912074E
:1036E0008B8A0C8B0DEA450D604F7912AC08AD0941
:1036F000123213850C82850D83121831E9F50C60A6
:103700000302384A850A82850B83E0F508A3E0F5B9
:1037100009AA08FB12077FEA4B70197AFF7BFF1298
:10372000077FEA4B700302383D8A828B83E508F0FD
:10373000A3E509F07508008008750C0E02384A05EB
:10374000089002DFE0F8E508C398400302383D85A1
:10375000080E750F007403780E1217B08A828B83DF
:10376000A3A3E0250EF8A3E0350F123C1170D08E14
:10377000828F83123865122E5B8E828F83A3A312F1
:103780003865122E59EE2404F508E43FF509850842
:1037900082F583E088828983A3A3A3A3F0A3E4F046
:1037A000EE2405F50EE43FF50F850E82F583123801
:1037B00065A3A3A3A3122E597512077513007812DF
:1037C000121A46EEFCEFFD740412182112121D7439
:1037D000021217D9E4F5127812121A46850882856A
:1037E0000983E0FC7D00791712321312070174027D
:1037F0001217D9740712180F122E5B740712180FC4
:10380000E0FA4B603D85088285098312385C121A04
:1038100046850E82850F831241AD12121D7402126D
:1038200017D97402121829123213120299E960266C
:10383000740712180F1232191212A78019750C0989
:103840008008750C118003750C01124343851082AA
:10385000851183123870A90C74098028E0F5087569
:10386000090078082212321D888289832212387654
:10387000E8F0A3E9F022E0F8A3E0F9850E82850FD5
:10388000832274041217D97F0C02190574EC1218E4
:1038900033123980751000EE2402F50CE43FF50D6B
:1038A000850C82F58312321912077F8A088B09EA88
:1038B00045097003023964850A82850B83E064013F
:1038C0006003023959AC08AD09AA0AAB0B120773A1
:1038D000E9606E850882850983122BE6EE2406F5E1
:1038E0000AE43FF50B8E828F83A3A3121A5D8E82AA
:1038F0008F83A3A3A3A3121A5D850A82850B83126B
:103900001A5D79188E828F8312399212321912073A
:103910009D74061217D9E9F8741668700B850A822F
:10392000850B83E4F0A38014E860128E828F8312EB
:103930003219850E82850F83EAF0A3EBF0881080A0
:1039400018780E121A46AC08AD09EEFAEFFB120712
:103950007974021217D9E9F510AA08AB0912078584
:10396000E510700E850C82850D8312321912029FAC
:103970008009741665107003751000A9100238874D
:10398000EAFEEBFF8C0E8D0FEE2405F50AE43FF501
:103990000B2212443C850C82850D832274EA121896
:1039A000337508007509007E007F00750A00EC245D
:1039B00002F510E43DF5118035EC65087003ED6506
:1039C000096003023A5188828983A3A3E06A7003E5
:1039D000A3E06B707C88828983A3A3A3A3124347CF
:1039E000EE28FEEF39FFEA28FAEB39FB050A123B15
:1039F00021503A850A0C750D007403780C1217B02B
:103A0000851082851183123B14123C11601FE5085A
:103A1000450970A58C088D0988828983122BE4885A
:103A2000828983A3A3E02EFAA3E03F80BEE50AC308
:103A300094025003023B0F750800750900EE4F60B9
:103A400010EEFAEFFB1212A18A0E8B0FEA450F70EF
:103A5000057900023B11750B00023AE4850B0C75E9
:103A60000D007403780C1217B0851082851183E065
:103A7000250CF50CA3E0350DF50DE50C2406F51429
:103A8000E4350DF515851482F583123C166042E588
:103A90000C2404F512E4350DF513851282F583121A
:103AA0001A5DE50E2508FAE50F3509FB12121D74A3
:103AB000021217D9851282851383E02508F508A321
:103AC000E03509F509851482851583123219121221
:103AD000A7E50B600D7C087D007900AA0CAB0D12E8
:103AE0001235050BE50BC3950A5003023A5C8510AD
:103AF0008285118312434788828983A3A3A3A3A34A
:103B0000A3E50EF0A3E50F122777EEF0A3EFF0790F
:103B100001023676123B1822E0250CF8A3E0350DA1
:103B2000229002DFE0F8E50AC3982274F0121833FD
:103B30008A0E8B0F8C0A8D0B750D00750C00805052
:103B40007916EE2406F508E43FF5098E828F83A3EB
:103B5000A3121A5D8E828F83A3A3A3A3121A5D857D
:103B60000882850983121A5D850E82850F83A3A3BF
:103B700012321912079D74061217D9E9F50D741641
:103B8000650D706C850882850983E4F0A3F0050C4F
:103B90009002DFE0F8E50CC3985066AA0C8A08751D
:103BA0000900740378081217B0850A82850B83A375
:103BB000A3123C60E8FEE9FF8E828F83123C166000
:103BC00040EA2401F508E43400F5099002DFE065DD
:103BD000087002E509601488828983A3A3A3A3A3C4
:103BE000A3A3A31232486003023B407918023B4270
:103BF000E9609B124343741012180F123C081238EC
:103C000070A90D7F08021905E0FAA3E0F5838A8206
:103C100022F98882898312443CEC4D2274F61218F2
:103C2000337C0080010C90033BE0F8ECC398501EFD
:103C30008C08750900740278081217B0123C55E020
:103C40006A7003A3E06B70DDE8FAE9FB80047A0098
:103C50007B00023CF89002DD123C6088828983225E
:103C6000E02508F8A3E03509F92274F21218338A26
:103C7000088B09750A0080278E828F83A3A3A3A3D4
:103C800012276E60031212A77C087D007900EEFAFD
:103C9000EFFB1212358E828F83E4F0A3F0050A1237
:103CA0003B215027850A0C750D007403780C121700
:103CB000B0850882850983A3A3E0250CFEA3E03527
:103CC0000DFF8E828F8312324870AD850882850980
:103CD0008374FFF0A3F002443074F6121833120715
:103CE000318A828B83E582458370067A007B00806F
:103CF00007A3A3A3A31232197F0202190574F412B9
:103D0000183389088C828D83E06402703C1242E68D
:103D1000FEA3E0F9EEF87402687003742969702953
:103D2000750A02750B00780A121A46741012180FE1
:103D3000121A5D741012180F121A5DA9081210EBF6
:103D400074061217D9E9F9800279010227AB74E8E9
:103D500012183374FB1217C3E9851882851983F092
:103D60008A168B17ECFEEDFF7510008E828F83A3F1
:103D7000A3A3E0A2E4502D741D12180F12321912E1
:103D8000078B8A828B83E5824583700302418579A4
:103D90000AEEFCEFFDAA16AB17121831E9F5106018
:103DA00003024188741F12180FE0F508A3E0F5091B
:103DB000742112180FE0F50AA3E0F50B7423121812
:103DC0000FE0F50EA3E0F50F8E828F83E0640260B2
:103DD00003024126A3124347850882850983A385F0
:103DE0008212858313EE2406F50CE43FF50D8882DC
:103DF00089831241C5F514E439F5157814121AD0E7
:103E0000010000280128283E07000228ED3E032873
:103E10005B3E00291C40012947400229E83F032955
:103E20001C400429C0402641E50E450F60030241B5
:103E300021850C82850D83124347E8FAE9FB8A82CB
:103E40008B83E0850A82850B831241D0121A468A41
:103E5000828B83A3E0FCA3E00240AAE50E450F603D
:103E600003024121850A82850B837401F01241BA55
:103E7000850882850983F07C007D008E828F83A374
:103E8000A3A3A3E02401FAA3E03400FB12062FEA67
:103E90004B60408A828B83E02402F8850A82850B7E
:103EA00083E028F0EA2404F8E43BF988828983E07F
:103EB0008512828513831241DE1241D0121A468A7E
:103EC000828B83A31241ADE5082403FAE43509FB94
:103ED0000240AF850A82850B83E02404F07C047DD8
:103EE000007900AA12AB13121235024188E50E4583
:103EF0000F60030241211241BAFEA3E0FF850A824E
:103F0000850B837404F0EE850882850983F0EF85C4
:103F10001282851383F07403121829EEFAEFFB1254
:103F2000062F8A0C8B0DEA450D7003023FCB8A8267
:103F30008B83A3A3122BE47401121819880E890F26
:103F4000780E121A46740512180F121A5D7CFF7D46
:103F5000FF12063574041217D98B0FEA450F703320
:103F6000850C82850D831241B1121A46850C82851B
:103F70000D83A3121A5D7C027D007A637B85120398
:103F80009574041217D9E9700A740112180F74FF9E
:103F9000F0A3F08E828F83E064027039750C027595
:103FA0000D00780C121A468E828F83A31241ADE564
:103FB000082404FAE43509FB12121D74021217D901
:103FC000850A82850B83E024028009740112180F90
:103FD000EEF0A3EFF0740112180F12419F7401125A
:103FE000180F12419602411BE50E450F6003024176
:103FF00021850C82850D83124435AA16AB17121049
:10400000F1850A82850B837402F085088285098315
:10401000EAF0851282851383EB02411EE50E450FFF
:1040200060030241211241BAF8A3E0F9850A8285B2
:104030000B837402F0E8850882850983F0E9851214
:104040008285138302411E850C82850D83123219ED
:10405000121217EAFAF8C3950EE4950F405CE86572
:104060000E450F70047A008021851882851983E03F
:10407000FCE50E2CFCE4350FFDC3EC98ED940050EC
:1040800003E08005E50ECAC39AFAEA850A82850B29
:1040900083F08A0A750B00780A121A46850C82850D
:1040A0000D83E0250EFCA3E0350FFDAA08AB091235
:1040B000121D74021217D902418875100702418837
:1040C000E50E450F705B850C82850D831243478595
:1040D0000A82850B837407F08882898312419712C4
:1040E000418FE0851282851383F0E82402FAE439D7
:1040F000FB8A828B8312419F8A828B83124196A313
:10410000A31227761241A4F0E82405F8500109888B
:104110008289831241A4A31241DEA3A3A3A3F0804A
:104120006775100B8062741D12180F123219120776
:10413000318A828B83E5824583604A124347880C2B
:10414000890DE8450D603E742512180FE0F51078D2
:1041500010121A4A780E121A46780A121A4678086D
:10416000121A46740712180FE0F9EEFCEFFDAA16BA
:10417000AB17850C82850D8312183174071217D97D
:10418000E9F510800375100EA91074050234DCF0F7
:1041900088828983A322A3E085088285098322126D
:1041A00041E5F0221241E5A3A3229002E312443C30
:1041B00022E0F50E750F00780E22850C82850D83A6
:1041C00012367FE022E0FAA3E0F8E4C8F9EA2822F8
:1041D000F08A828B83E0F50A750B00780A2212417F
:1041E0008F1241E522E0850882850983A3A322740A
:1041F000EE12183374FE1217C38A088B09ECFEED19
:10420000FF890AAC18AD19EEFAEFFB12062F8A0CE3
:104210008B0DEA450D70030242D7851882851983FC
:104220001232191207318A828B83E582458370032B
:104230000242D2A3A3124347880E890FE8450F70AC
:10424000030242D2741412180FE0F510A3E0F51126
:10425000E50AF50B780B121A4A741912180F121A84
:104260005D7810121A46741B12180FE0F9AC0CADF1
:104270000DAA08AB09850E82850F831218317405CB
:104280001217D9E9F50B705274FE650A604C850C63
:1042900082850D83E0640270411242E6FAA3E0F9E0
:1042A000EAF87402687003742969702E851082859B
:1042B00011831241C5F50CE439F50D780C121A463C
:1042C000EEFCEFFDAA08AB091207B574021217D96C
:1042D0008008750B0E8003750B01A90B7402121771
:1042E000D97F0A021905A312434B88828983E022F1
:1042F00074F612183374FE1217C3740C12180F12CE
:104300004347E8851882851983F0740112180FE974
:10431000F0E4F508F5097808121A467508027808DD
:10432000121A467404121819880889097808121A92
:104330004679FE12079D74061217D974021217D916
:10434000023CF88E828F8312434B22E0F8A3E0F9FF
:104350002274F7121833EAFEEBFF89089002FA1272
:1043600041AD1210F1EA5402600BA908EEFAEFFB1E
:10437000120623800279017F0102190574F21218D6
:104380003374FE1217C3EAFEEBFF890A7401650A53
:1043900060147402650A600302442B79011209A1BA
:1043A000E9600302442BEEFAEFFB12077FEA4B6051
:1043B00003120785A818A919880889097808121A0C
:1043C000467508027509007808121A4675085B756B
:1043D00009857808121A467CFF7DFF7A017B00125E
:1043E000062974061217D98038850882850983A3A7
:1043F000A3A3A3A3A3124435EEFAEFFB1210E5E446
:10440000F50CF50D780C121A46740212180F121AD8
:104410005D7CFF7DFFAA08AB0912063574041217F4
:10442000D98A088B09E508450970BE74021217D9AC
:104430007F0602190512367F12443C22E0FCA3E0FD
:10444000FD2274F41218338A088B09ECFEEDFF90FC
:104450001CADE0F4604B7A097B00121247EA4B6016
:10446000408A828B8374B1F0A3E41244A4F08A8260
:104470008B83A3A3E508F0A3E5091244A4A3EEF0FF
:10448000A3EFF0740C12180F1243478A828B83A398
:10449000A3A3A3A3A3A3123870901CADE0F912123A
:1044A000530227ABF08A828B83A3A3A3A322C082EB
:1044B000C0839061907404F0A37448F0A37402F078
:1044C0009061807440F09061BC7403F090618774D7
:1044D00019F0906265741BF0906249E0C3941390E8
:1044E000619C40107409F09060667401F090619FC7
:1044F0007428800D740BF0906066E4F090619F74F6
:104500002CF01246997009C29190036D7467800572
:1045100090036D7461F01246EB902490E493F46084
:1045200006E493F9120A977905120DAF02492DC0DE
:1045300082C083E9540FF9906185E0696012E5C695
:1045400054B84441F5C6E59E5447644170F8E9F01B
:1045500053C6B8E59E544770FA02492DC082C08305
:10456000A8A853A87E906181E4F0A3F0A3F0C2BA9A
:10457000539AFEC289759B00C2C275E9007591000D
:1045800075BF0075A91175B905906181F0A374C05C
:10459000F0A3E4F0D2BA439A0174805842A80249C9
:1045A0002DF002492DC082C08374F81217C3900306
:1045B0006B125CAB700302469190036BE054406059
:1045C000177908AA18AB19120BA5AA18AB1912086B
:1045D0001590036BE054BFF0E054806010790C7AC2
:1045E0001C7B07120BA590036BE0547FF0E0A2E068
:1045F000501E1246997009C29190036D7467800530
:1046000090036D7461F012081B90036BE054FEF090
:10461000E05402601E1246DE7009D29190036D7460
:1046200071800590036D746AF012081B90036BE0B3
:1046300054FDF0E0540460109024941246EE1208E9
:104640002190036BE054FBF0E05408601090249537
:104650001246EE12082190036BE054F7F0E054107C
:10466000600D1246EB12082190036BE054EFF0E06E
:104670005420600A12082190036BE054DFF0A3E09D
:104680005401600D120AB512082790036CE054FE25
:10469000F074081217D902492D90619A1248E090DF
:1046A00006F6E0640122C082C083E9600514601749
:1046B00080291246997009C29190036D7467801A1F
:1046C00090036D746180131246DE7009D2919003DD
:1046D0006D7471800590036D746AF002492D9061CC
:1046E0009A1248D29006F6E0640122902496E49350
:1046F000906186F02274EA12183374F41217C39092
:104700008505AC18AD1974041216D690249493F450
:104710006003024867907808E0C39402500302489F
:104720004B90849D740412182974081216D6A81888
:10473000A91988148915740412181988088909AEF2
:1047400008AF097510FF7511FF750EFF7C00750C21
:1047500048750D78801274086C70030247E1740983
:104760006C607E740A6C6079850C82850D83780894
:1047700012167B8E828F83A909E50AC9F888127404
:10478000187808121596E5124508F8C3E098A3E0DA
:1047900099850C82850D83780812167B40188E82CD
:1047A0008F8374187808121596E5124508F8E0C34F
:1047B00098F8A3E0801A74187808121596E5124547
:1047C00008FAE9FB8E828F83125002EAC398F8EB55
:1047D00099F9C3E89510E995115006881089118C54
:1047E0000E0CE50C2404F50C5002050DECC39413DB
:1047F000500302475674FF6510700474FF65116022
:1048000024850E08740278081217B074482508F53C
:104810008274783509F583780812167B85148285B1
:104820001583E508F0EE2402FE50010F8514828501
:104830001583A3858214858315740C12180FE582E5
:104840006E7003E5836F60030247437508017509C5
:10485000007808121A4674021218297A257B091268
:10486000113974021217D9740C1217D97F0E02195C
:1048700005C082C0839061AE7468F0A3746AF09042
:10488000624574FBF0A304F053F4FD43FE0290066E
:10489000F67401F09061A0E0643A90619A70191288
:1048A00048E0740164017009C29190036D746780DF
:1048B0001E90036D746180171248D27401640170F8
:1048C00009D29190036D7471800590036D746A0232
:1048D00045A1743FF0A3745AF09061A0747FF02258
:1048E0007433F0A37455F09061A0743AF0227F0401
:1048F000021905C082C0839006D4E0640170119053
:1049000006DAE064016019E07006A3E0640160105B
:104910009006EBE06401700C9006F1E06401700415
:10492000790C800279008005E0F91223CBD083D086
:104930008202011FE0C4333354C02288828983126B
:104940004EC3A882A983222414F582E438F5832279
:10495000C082C0839006DE7425F09006DC7401F0FE
:10496000A3E4F07A01FB120D2B12499C241AF58264
:10497000E438F58374D9F0A3740AF09006DBE064A0
:104980000170169006DAE070107901120D8B120D8D
:104990005B120D857900120D9702492D9006CA12FF
:1049A0004D252274F612183374FA1217C39006D3E9
:1049B000E064017008120AC19006D3E4F075E1F1D9
:1049C00012499C2415F582E438F5837401F09006B1
:1049D000D5E06401704B9084CBAC18AD197406120D
:1049E00016D675D90D9006CC1249344403F5D97505
:1049F00082CD758306124EBFE58264D37004E583D1
:104A0000640670F1A818A91912493B740612180F10
:104A1000E582687003E5836970EE75E19579018040
:104A2000027900120D31901CD1124A897441F0A311
:104A3000740CF0A3124A89124A89124BF77447F09A
:104A4000A3740C124C0C9006CCE0F97ACD7B0612C4
:104A50000D0D9006DEE0F91223CB7901120D37908F
:104A60008529121699120D4F908519121699120D5B
:104A7000197900120DA312499C1249477416F0903F
:104A800003697405F004025124743BF0A3740CF024
:104A9000A32274F71218338908A808E875F00DA44A
:104AA000C8AAF02AF9749928FE740339FF9006E326
:104AB000E0F97AE47B06120D0D9006F1E07025799D
:104AC00000120D6DEE240CF582EF3401F583E070D9
:104AD00004790080027901EE2406FAEF3401FB121A
:104AE0000D1380057901120D6D75E1F175D92390D3
:104AF00006E31249344405F5D97582E4758306123C
:104B00004EBFE58264EA7004E583640670F175D9EE
:104B10000075D90075D90075D90075D90075D9000F
:104B2000EE2422124F78124F977003E9658370F6D6
:104B3000EE2426124F832403F8E43583F9124F97AD
:104B40007003E9658370F6EE242B124F8C242C122F
:104B50004F8C242D124F8C242E124F8C242F124F49
:104B60008C2430124F8C2431124F8C2432124F8CF3
:104B70002433124F8C245D124F832405F8E43583CF
:104B8000F9124F977003E9658370F6EE2437125BD4
:104B90002A541FF8EE242A125B2AC43354E048F545
:104BA000D975E195901CD1740BF0A3740CF0A3742B
:104BB00011F0A3740C124BEE7417F0A3740C124C8A
:104BC0000C9006F0E0F91223CB9085291216991269
:104BD0000D4F908519121699120D1990600DE4F081
:104BE0007901120DA39003697406F0025360F0A3DB
:104BF000124BF7124BF722124BFB227405F0A374F1
:104C00000CF0A37405F0A3740CF0A322124C102234
:104C1000F0901CDF124C1CA3124C1C22124BFB7494
:104C200005F0A3740CF02274EC1218339006E11214
:104C30005780781012167B9006F2E0FAF875F00DA6
:104C4000A4C8ACF02C1258FCFFEE2EFEEF33FF8E02
:104C50000CF50D750E00750F00851008851109857E
:104C6000120A85130B9084E578081215E178081272
:104C70001A4285100885110985120A85130B7808D8
:104C8000790C1215CE7810790C121516E4F50EF584
:104C90000F7808790C1216078A0C750D00740378CA
:104CA0000C1217B07808790C1215CE90854178084F
:104CB000121642AA08AB09AC0AAD0B1223637404A6
:104CC0001217D98A088B09A808A909C3EE98EF9989
:104CD0005006E82EF8E93FF9E890600EF0E9A3F0FD
:104CE000EEA3F0EFA3F090600D74C1F07F0C0219F9
:104CF00005C082C0839006CA124D119006DE02499B
:104D000028C082C0839006E1124D119006F002493E
:104D100028124D25124D1BF0A3F0222406F582E443
:104D200038F583E422E0F8A3E0C82202011F74F6FC
:104D3000121833124EC86004780480027800E82408
:104D40000EF8ECC3985003024DFC7C0C9006FCE47A
:104D5000F0EA2476F582E43BF583E09006FDF0EA84
:104D60002477124E019006FE124E0B9006FFF0EAD9
:104D70002479124E01900700124E0B900701F0EAC1
:104D8000247B124E01900702124E0B900703F0EAAB
:104D9000247D124E01900704124E0B900705F0EA95
:104DA0002474F8E43BF98A828B83A3A3A3A3A3E032
:104DB000FEA3E0FF88828983E02EF0A3E03F125437
:104DC0009E900706124E0B900707124EEC60177567
:104DD00008FC7509067808121A467903120BF97453
:104DE000021217D97C10125132ECFE124EBFDEFBBC
:104DF00075E1957904120D5579018002790002510F
:104E000027F8E43BF988828983E0221254A3A3E0C7
:104E10002274F6121833124EC860047804800278A7
:104E200000E8240AF8ECC3985003024EBA7E0890BA
:104E300006FC7401F07CC07D0678FD79067F0512C2
:104E40004ED6A882A983DFF7EA2480FCE43BFD8AE2
:104E5000828B83A3A3A3A3A3E0F508A3E0F5098CA9
:104E6000828D83E02508F0A3E03509F0124ED608C4
:104E7000A9838C828D83E088828983124EEC60192D
:104E80007508FC7509067808121A467C0879031221
:104E90000BF974021217D97E0C74012EF5D975D94D
:104EA000037582FC758306EEFF124EBFDFFB75E1D2
:104EB000957904120D55790180027900025127126B
:104EC0004EC322E0F5D9A3229061D0E0F87480C3EC
:104ED00098FC124EF122124EDA228C828D83E088E9
:104EE000828983125CE888828983A322F0124EF1C2
:104EF00022EA2483F582E43BF583E02274F712185A
:104F000033EAFEEBFF9061D0E0706875D91875D96F
:104F10000375D903EE249C124F9E124F977003E93C
:104F2000658370F6EE24A4124F8C24A5124F8C24B6
:104F300094124F9E124F977003E9658370F6EE242A
:104F400088124F78124F977003E9658370F675E108
:104F5000957908EE2494FAE43FFB120B997904EE5C
:104F60002488FAE43FFB120B997904120D55125074
:104F7000AC80027900025360124F832404F8E435B8
:104F800083F922F582E43FF583E58222F582E43F4E
:104F9000F583E0F5D9EE22124EC3E8658222124F66
:104FA000832408F8E43583F92274F6121833EAFEF4
:104FB000EBFF9006FC7406125055121A467C0179DC
:104FC00003120BF974021217D975D90675D9037536
:104FD00082FC75830612504D7004E583640770F5FA
:104FE00075E195900369E064087010EE246FF58216
:104FF000E43F125000EE2471125AB9790102512790
:10500000F583125CB72274F6121833EAFEEBFF90B8
:1050100061D0E070339006FC740A125055121A46A3
:105020007C017903120BF974021217D975D9067530
:10503000D9037582FC75830612504D7004E58364B4
:105040000770F51250A980027900025127124EC351
:10505000E582640122F07508FC750906780822745F
:10506000F6121833EAFEEBFF9061D0E0703678015B
:105070009006FC740BF0900369E0640770197508E2
:10508000FC7509067808121A467C017903120BF99F
:1050900074021217D978051252F4124EBFDAFB12BD
:1050A00050A98002790002512775E195EE246F1214
:1050B0005CB1EE2471F582E43FF583E8F0A3E9F0FA
:1050C00079012274F61218331251F56004780480C5
:1050D000027800E8240BF8EAC39840447C09900663
:1050E000FC7408125141125150DDFB125B27601B0A
:1050F0007508FC7509067808121A467903EEFAEF6E
:10510000FB120BF974021217D97C0D12512C12519B
:10511000ED70FB75E1957904120D551250AC8002CB
:10512000790080031217D97F020219051251328CBF
:10513000082274012CF5D975D9037582FC75830694
:1051400022F0EE24E5F8E43FF97AFD7B067D0822A3
:1051500088828983E08A828B831254A3A3A882A9C0
:10516000838A828B83A3AA82AB832274F6121833BC
:105170001251F56004780480027800E82408F8EA07
:10518000C398406478069006FC740CF0900386E0A7
:105190009006FDF0900387E09006FEF0900388E013
:1051A0009006FFF0900389E0900700F090038AE0FA
:1051B000900701125284601B7508FC750906780877
:1051C000121A467C067903EEFA120BF974021217D2
:1051D000D9780A12527E1251ED70FB75E19579046F
:1051E000120D551250AC80027900025127124EC3A5
:1051F0001508E50822EAFEEBFF9061D0E0F8748024
:10520000C398FA1252892274F61218331251F560BB
:1052100004780480027800E82404F8EAC398404B3C
:1052200078029006FCE8F0EE24F7125B2A9006FD67
:10523000125284601B7508FC7509067808121A461C
:105240007C027903EEFA120BF974021217D9780670
:1052500012527E1251ED70FB75E195125270790475
:10526000120D55EE240D1250AF8002790002512725
:10527000EE241DF582E43FF583E4F0A3F022125200
:10528000FA880822F012528922EE2483F582E43F44
:10529000F583E02274F6121833124EC860047804C5
:1052A00080027800E82404F8ECC398404278029029
:1052B00006FC7407F0EA24F8F582E43BF583E090FD
:1052C00006FD124EEC60197508FC75090678081287
:1052D0001A467C027903120BF974021217D9780668
:1052E0001252F4124EBFDAFB75E195790180027912
:1052F000000251271252FAE8FA22740128F5D975F2
:10530000D9037582FC7583062274F7121833E9FFFE
:10531000A2AFE433FEC2AF7C0080010C1253B15047
:1053200010ECF8EA28F8E43BF9125A156F70EC809B
:1053300016EA246EF8E43BF9E0FCEA2CFAE43BFBC5
:1053400012534EEF125498EEA2E092AF8012EA246C
:105350006AF582E43BF58322F0EEA2E092AF790099
:105360007F01021905C082C083A2AFE433FDC2AF42
:105370001253B914F07C00801DECF8EA28F8E43BE5
:10538000F9E8246B125A18C0E0E8246AF582E4397F
:10539000F583D0E0F00C1253B140DEEA246DF582C3
:1053A000E43BF58374FF1253DEEDA2E092AF0249B5
:1053B0002D1253B9F8ECC39822EA246EF582E43B2F
:1053C000F583E022C082C083A8A8C2AF12534EE981
:1053D0001253DEE8A2E7E433FAE8A2E780CEF0EA6F
:1053E0002469F582E43BF583E4F02274F312183368
:1053F000EAFEEBFFECFAEDFB8A828B83A3A3A3A367
:10540000E0541FF0EE2436F582E43FF583E4F075B6
:105410000A00EE245DFCE43FFD8A828B83E08C82EF
:105420008D83F0750B00E50A33333354F8F50C8A9D
:10543000828B83E0F508750900E50B780812179157
:10544000E508A2E05027EE2436F8E43FF988828987
:1054500083E0F508EE2508F508E43FF509E50824A2
:1054600038F582E43509F583E50C125498050B05EF
:105470000CE50BC3940840B7050A8A828B83A3AA64
:1054800082AB838C828D83A3AC82AD83E50AC39407
:105490000540867F0502190512549E04F02212541D
:1054A000A3E022F0888289832274F71218339003D4
:1054B00095E0640370030256467C0075829B7583F9
:1054C00003E06003025630ECF875F00DA4C8AAF0B2
:1054D0002AF9749928FA740339FB8A828B83A3A36F
:1054E0007401125668E4F0EC8A828B83A3A3A3A311
:1054F000F0125C327401F0EA2467F582E43BF58334
:105500007401125662E4F0A3125662A3A3125678F5
:10551000240FF582E43BF5837401F0EA243512563A
:105520004D241812567D241C12564D241D125671FE
:10553000247F12564D247312564D248212564D2448
:1055400068F582E43BF58374801253DEEA246E1220
:10555000564D24ED12564D24EE12564D24EF1256A0
:105560004D24F012564D24F112567124F312567147
:1055700024F612564D248312564D24D312564D2430
:10558000D412564D24D512567D24D912567D24DFCF
:1055900012564D24E112564D24DD12564D24E212CE
:1055A000564D24E312564D24F912567124FB12561F
:1055B0007124FD12567124FF125671240C12565795
:1055C00024061256572407125657240812565724F9
:1055D00009125657240A125657240B1256571253C3
:1055E0004F74FF7804F0A3D8FCEA245DF8E43BF99B
:1055F0007CC07D0612569164C57003ED640670F49C
:10560000EA24E5F8E43BF97C7D7D0312569164853C
:105610007003ED640370F4900395E004F06401708E
:10562000298A828B83A3A3A3A3E0900397F0801A17
:105630000CE582240DF582E5833401F583ECC394F7
:105640000350030254C17A007B00025360F582E4E8
:105650003BF583E4F0EA22F582EB3401F583E4F0D4
:10566000EA22125668A3A322F08A828B83A3A3A303
:1056700022F582E43BF583E4F0A3F0EA22F582E42C
:105680003BF583125688EA22E4F0A3F0A3F0A3F0DE
:1056900022124EDAA882A983EC22C082C0838A82B9
:1056A0008B83A3A3A3E0600F8A828B83A3A3A3E4CD
:1056B000F0900396E014F0900395E014F0700690DB
:1056C000039774FFF08A828B83A3A3E4F09006C54E
:1056D000E0700D900396E0640170057900120D1FD3
:1056E00002492DC082C083789B790388828983A375
:1056F000E41254A3F01258E6E864C27003E96406A9
:1057000070E9900395E4F0A3F0A374FFF075E1F164
:1057100002492D74F5121833750800750900750AD1
:10572000007E997F038E828F83A3A3A3E0602BE585
:10573000084509601D850882850983125780121A61
:105740005912577C12169912230774041217D9E9BB
:105750007008EEF8EFF988088909050AEE240DFEB5
:10576000EF3401FFE50AC3940340BA850882850936
:1057700083A3A3A3A3E0F97F030219058E828F837D
:10578000125C55A3A32274EE1218338A0A8B0B8C79
:1057900008890C900396E0F8E9C39850627AFF7B81
:1057A000FF7C007899790388828983A3A3A3E060B2
:1057B0003F74FF6A700374FF6B700CE82473125A15
:1057C00018640170218012E82473125A1864017061
:1057D0000DE824791258EF5017E82479800BE8245B
:1057E0002E1258EF500AE8242E125A18FAA3E0FBA2
:1057F0000C1258E6ECC3940340ADEAFEEB8018E9C6
:105800006010A3E0F875F00DA4C8AAF02A1258FCA5
:105810008005EA2AFEEB33FF8E0E8F0F7403780E9D
:105820001217A1900396E0F8C3E50E98E50F9400D7
:1058300050030258D2E50A25E0F50AE50B33F50BD3
:10584000E50825E0F508ED33F509AC0AAD0B800756
:10585000EC2402FCE43DFDC3E5089CE5099D4060A5
:10586000C3EC9EED9F403FECF8EDF9EEFAEFFB1232
:1058700017388B0FEA450F60068E0E8F0F80067566
:105880000E00750F00ECF8EDF9EEFAEFFB12173889
:105890008A108B11EC9510F8ED9511F9E8250EFCA6
:1058A000E9350FFD801AE0F8E50CC3985012EEF8C8
:1058B000EFF9ECFAEDFB1217388B0FEA450F7090F9
:1058C000C3EC950AED950B4009C3E5089CE5099DDD
:1058D00050067AFF7BFF8009ECFAEDC313FBEA1355
:1058E000FA7F0A021905E8240DF8E93401F922F5D6
:1058F00082E439F583C3E09AA3E09B22F974C728B8
:10590000F582740339F583E0FEA3E02274F61218E1
:105910003374FC1217C3EAFEEBFF8044EE2463F8F5
:10592000E43FF97A007B00A2AFE433F508C2AF8808
:10593000828983E0FCA3E0FDEC4D600F125C707087
:105940000A88828983A3A3E4F0A3F0E508A2E09289
:10595000AF1212A79006C6E004F09006C7E004F06C
:10596000EE2463F582E43FF583125CAB70AE9006E3
:10597000C7E060358E828F83A3A3A3A3E08518823E
:10598000851983F0A3E4F09006C7E0F874021218BA
:105990000FE8F0A3E4F07402121829AA18AB1979E1
:1059A000011208879006C7E4F0EEFAEFFB120B45F0
:1059B000EEFAEFFB120C7D740402512474F71218F6
:1059C00033EAFEEBFF8E828F83A3A3A3A3E0FA7BCF
:1059D0000012085DEEFAEFFB120B5D120C5F025332
:1059E00060C082C0837A007899790388828983A312
:1059F000A3A3E06011E8246E125A186009125A1528
:105A000070047901800C0A1258E6EAC3940340DB63
:105A1000790002492DE8246AF582E439F583E02211
:105A2000C082C083E490037D7808F0A3D8FC900383
:105A30007D040245A174F712183374FC1217C38554
:105A40001882851983125688120B9FE98518828562
:105A50001983F0120B9F740112180FE9F0120B9FBB
:105A6000740212180FE9F0851882851983121699AD
:105A700074041217D902536074F6121833EAFEEB5D
:105A8000FFEC2403F8E43DF988088909EC2407F8C1
:105A9000E43DF9E8FCE9FD125AC5121738EE240D71
:105AA000125AB9125AC51217388B09EA450960060D
:105AB000EE240D125AD8025127F582E43FF583E80F
:105AC000F0A3E9F0228C828D83125CB78508828571
:105AD0000983E0FAA3E0FB22F582E43FF583E024AA
:105AE00001F0A3E03400F02274F6121833EAFEEB62
:105AF000FFEE242E125B2AFCA3E0FD780079FAEC7D
:105B0000FAEDFB121738EE246F125AB9780079FAC1
:105B1000ECFAEDFB1217388B09EA45096006EE2412
:105B20006F125AD8025127EE2483F582E43FF583A1
:105B3000E02274F4121833EAFEEBFF120CEF8A082D
