:020000040000FA
:060000000201070221B11C
:03002B000223F7B6
:03003B0002241D7F
:030043000223D1C4
:030053000222275F
:10008300022007E5C754F84401F5C77901220000AF
:100093000080FB120086B900030200F1E4791A78AC
:1000A30002B800028004F709D8FCE4791C7802B88E
:1000B30000028004F709D8FCE490028178A5791A3C
:1000C3008002F0A3D8FCD9FA7A257B1C90013778FB
:1000D300E579018015E493A3AD82AE838A828B8395
:1000E300F0A3AA82AB838D828E83D8E9D9E7758288
:1000F300A37583FF740112011975829175830074CE
:100103000012011975D00075813F751881751902A8
:10011300759F00020096C09FF59FE473D09F22D085
:1001230083D082C09FE493C0E0740193C0E0740263
:1001330093F59F22BF03CB030104FB03FF0000B42D
:10014300000028002800283075A000A000A000A00F
:100153000000080008E001F000100010001000107B
:10016300001000100050005000500010001000D08C
:10017300070000000000000F0001000500307507B4
:10018300001000010081FF00000000FFFFFF0202DA
:100193000223850100000D85021D850100007F1CDF
:1001A300021785010000B802021D85010000801CB2
:1001B300021585010000CE02FFFF0100FF2002238C
:1001C300850100001085021D85010000AE1C02138D
:1001D300850000000000021985030000FA021700E1
:1001E300FF0BFF0BFF0BFF0BFF0BFF0BFF0BFF0BBC
:1001F300FF0BFF0BFF0BFF0BFF0BDF0DFD0DD90DEE
:1002030001E803057710020AFFFFFF00FEFFB78135
:100213001DCFE5E00000000012012247C9031201CF
:10022300225AC9031201227BC903120122E6C90320
:1002330012012227CA0312012248CA0312012269AA
:10024300CA03120122AACA0312012242CB031201DA
:10025300228ACB03120122EFB30312012202B40359
:1002630012012233B4031201226DB403120122C618
:10027300B4031201220DB50312012255B503120175
:100283002284B503120122B3B503120122EAB50396
:1002930012012231B6031201224AB6031201229F30
:1002A300B603120122CDB60312012207B7031201CE
:1002B30022E0A602120122E3A70212012210A802E1
:1002C30012012261A80212012284A80212012296BD
:1002D300A80212012299A802120122D7A802120130
:1002E300224BA902120122B7A9021201227FAA02FC
:1002F3001201229BAA02120122D2AA021201220C8B
:10030300AB02120122A3AB02120122F5AB021201CE
:100313002226AC0212012229AC021201225AAC029B
:1003230012012267AC021201227FAC02120122E900
:10033300AC02120122ECAC02120122F9AC0212014E
:1003430022FCAC0212012253AD0212012264AD025F
:100353001201229DAD02120122A0AD02120122D48C
:10036300AD02120122D7AD021201222BAE021201FD
:100373002274AE0212012284AE02120122B7AE022F
:10038300120122C4AE02120122C7AE021201222FB1
:10039300AF0212012231B002120122D5B0021201C2
:1003A300223EB1021201227CB1021201226ECF025F
:1003B30012012266D0021201229AD00212012230C7
:1003C300D1021201227BD102120122DFD1021201DA
:1003D3002269D20212012222D30212012244D6023E
:1003E300120122C1D702120122E4D702120122FC18
:1003F3009703120122A19903120122C19903120149
:1004030022E29A03120122359B0312012285A403DF
:10041300120122ADA403120122DAA4031201221253
:10042300A50312012270A503120122BCA503120128
:100433002223A60312012263A603120122A0A6030C
:10044300120122CEA60312012278A70312012282EF
:10045300A7031201228FA703120122C2A7031201CD
:1004630022CEA703120122E6A703120122F0A7035B
:1004730012012234D90312012242D9031201225A52
:10048300D90312012272D90312012289D90312015D
:100493002241D901120122EBD90112012267DA01AB
:1004A30012012285DB01120122C1DB011201225C50
:1004B300DC0112012240DD0112012203DE011201DF
:1004C300227BDE0112012209E0011201227AE001FE
:1004D30012012234E10112012226E20112012266F5
:1004E300E2011201221AE3011201224CE30112017B
:1004F3002242E50112012284E501120122A2E50153
:1005030012012227E601120122EBE6011201220A5F
:10051300E9011201226BAC0312012281AC03120127
:10052300229FAC03120122B0AD03120122BAAD0324
:10053300120122E5AE03120122DCAF0312012249AC
:10054300B0031201220A8503120122AE85031201B0
:1005530022E585031201223C8603120122518803FE
:100563001201222D8501120122DE8501120122FAD8
:100573008501120122C38601120122CD86011201D7
:1005830022E78601120122F28601120122C88701A5
:10059300120122A58801120122028901120122926D
:1005A3008901120122498A01120122578D01120188
:1005B30022468F01120122F88F01120122C19001FC
:1005C300120122069401120122B09401120122D9D0
:1005D300950112012295970112012235980112010A
:1005E30022839801120122C29801120122959901D6
:1005F300120122C99901120122569A011201220CF9
:10060300C70112012298C701120122FCC80112017D
:100613002208C90112012243C901120122B2C901F0
:10062300120122BBCA01120122C4CB011201228B87
:10063300CC01120122E8CD0112012206CE011201E2
:100643002223CE01120122EECE0112012216CF0186
:10065300120122E0D101120122E5D101120122FE91
:10066300D3011201224CD401120122BCD401120184
:1006730022FAD401120122D6D50112012296D60103
:10068300120122E2D601120122E5D601120122292A
:10069300D70112012271D701120122B0D701120131
:1006A30022D2D70112012206D80112012269D801F0
:1006B3001201220080031201220980031201221772
:1006C30080031201226A800312012289800312012E
:1006D30022CE8003120122128203120122AD820371
:1006E300120122F182031201221B83031201228AC7
:1006F3008303120122D083031201224784031201D0
:1007030022F88403120122902400120122A0240063
:100713001201224125001201229D25001201225AB5
:100723002600120122762700120122A827001201B7
:1007330022D72700120122842900120122FB2B0059
:100743001201226B2E001201225D2F00120122568C
:1007530030001201225D32001201225135001201D4
:1007630022803600120122843800120122943900BB
:10077300120122233B00120122143C0012012262C7
:100783003C00120122D13C00120122F53C0012016F
:1007930022463D00120122E74100120122E84200F5
:1007A3001201224943001201227443001201223A2A
:1007B30044001201227EA80312012288A803120119
:1007C30022CDA803120122E1A80312012271A90379
:1007D30012012299A903120122D4A903120122FDB5
:1007E300A90312012231AA0312012246AA0312010C
:1007F30022B1AA03120122D2AA03120122E6AA03FA
:10080300120122FBAA0312012235AB031201229A21
:10081300AB03120122DDAB0312012207AC03120169
:100823002243AC0312012226D603120122F09B02BB
:10083300120122D39C021201224E9D02120122892F
:100843009D02120122DA9E02120122639F0212010B
:10085300227BA1021201220DA402120122BFA402D3
:10086300120122DEA50212012237A602120122FE84
:10087300F90212012241FA02120122C5FA021201FF
:100883002298FB021201226FFE0212012238C403D6
:10089300120122E5C403120122F2C503120122311F
:1008A300C6031201228BC60312012290CF03120149
:1008B30022F3CF0312012290D003120122BED003F0
:1008C300120122DFD0031201221AD1031201223AAC
:1008D300D103120122008A031201228C8A0312011E
:1008E300224B8B03120122638C031201227D8E03A0
:1008F300120122BAC502120122DFC502120122B37C
:10090300C60212012220C70212012276C702120177
:100913002212C80212012246C90212012221CA026E
:1009230012012280CA0212012251CB02120122DDDE
:10093300CB02120122E0CB021201222ACC021201C5
:10094300229CCC0212012247CD0212012267CD0262
:10095300120122AFCD02120122CBCD021201224598
:10096300CE0212012253CE02120122E2CE02120162
:10097300224BCF02120122669303120122EB93034F
:100983001201222D94031201221195031201227EDA
:100993009503120122C29503120122069603120146
:1009A300223396031201225B9603120122939603CC
:1009B300120122D19603120122F896031201227228
:1009C3009703120122BC9703120122EB5C00120170
:1009D30022B85E00120122A66000120122FA600012
:1009E300120122256100120122D3610012012203A8
:1009F30062001201223262001201224562001201DA
:100A030022866200120122B26200120122006300F8
:100A1300120122376300120122836300120122E2D2
:100A230063001201227564001201225F6500120146
:100A3300224E66001201222E68001201224D6D0023
:100A4300120122A66D001201228F6F001201225E95
:100A53007100120122E071001201222E73001201B3
:100A6300223F7300120122D6C603120122C1C7031B
:100A730012012204C80312012253C803120122A443
:100A8300C803120122F5C803120122A64400120171
:100A9300222745001201225445001201229D4500E0
:100AA3001201229E4600120122ED46001201226924
:100AB3004800120122EB48001201224849001201AA
:100AC300229B49001201228A4A001201221F4C0074
:100AD300120122E94C00120122F94C0012012223D7
:100AE3004D00120122264D00120122094E0012016F
:100AF30022F44E00120122A14F00120122FE4F00E8
:100B0300120122575000120122BB5000120122632E
:100B13005100120122FF51001201228C52001201D6
:100B2300220153001201225D5300120122BC530023
:100B3300120122E35300120122A154001201229256
:100B43005600120122DB56001201220B570012013C
:100B5300227E5700120122045900120122B45900C7
:100B6300120122D95900120122185A001201222D12
:100B73005A00120122705A00120122E05A00120197
:100B8300222A5B00120122345C00120122B55C00B0
:100B9300120122FABB0212012245BC0212012251A8
:100BA300BC0212012225BD021201223CBD02120128
:100BB3002279BD02120122AABD02120122E2BD0264
:100BC30012012238BE021201224EBE021201228AF3
:100BD300BE021201229DBE02120122C4BE021201F4
:100BE30022F8BE021201221EC00212012268C102B3
:100BF30012012264C20212012281C302120122F9EC
:100C0300FF01120122D1F4021201227FF802120124
:100C130022B3F90212012262730012012225760027
:100C23001201222B7600120122E8780012012242DF
:100C33007B00120122B48E031201224B8F03120197
:100C430022099003120122339003120122699203B5
:100C53001201224C9B01120122879B01120122DB0C
:100C6300A50112012247A70112012244A801120182
:100C730022C9AB01120122AFAC01120122FBAC016C
:100C830012012215AD0112012256AD011201225F9C
:100C9300AD011201220FAE01120122DFAE011201DA
:100CA3002226AF011201228CAF01120122FEAF01F5
:100CB3001201221FC103120122FCC10312012240AF
:100CC300C2031201227AC20312012212C3031201C8
:100CD3002281C3031201228AC30312012296C30392
:100CE300120122B0C303120122DAC3031201220A42
:100CF300C403120122D0E802120122DDE80212012C
:100D030022F7E8021201222AE90212012268E9020B
:100D1300120122CDE902120122E2E902120122F9B3
:100D2300E90212012207EA0212012216EA02120163
:100D3300222BEA0212012240EA021201224BEA02AA
:100D430012012257EA0212012264EA0212012273FB
:100D5300EA021201227EEA02120122A3EA0212012E
:100D63002247EB021201225CEB0212012271EB0219
:100D73001201228BEB02120122A8EB02120122C5FF
:100D8300EB02120122D0EB021201227CEC021201CF
:100D9300225DED0212012282ED021201228DED028B
:100DA300120122A2ED02120122B6ED021201221754
:100DB300EE021201221DEE0212012223EE021201A3
:100DC3002229EE0212012241EE0212012274EE02E6
:100DD300120122A2B102120122C4B1021201228C19
:100DE300B20212012246B5021201225CB6021201BE
:100DF300227DB70212012257B80212012206B9025C
:100E03001201226D8E02120122048F021201229C12
:100E13008F021201228C9002120122C3900212014E
:100E230022D69002120122449102120122DF920281
:100E3300120122069302120122A89302120122DD5B
:100E43009302120122EE930212012267940212010D
:100E530022889402120122A09402120122F8950220
:100E6300120122019802120122519A021201225404
:100E73009B02120122A39B0212012217E901120114
:100E83002214EA01120122FFEA0112012209EB01F5
:100E93001201222BEB0112012237EB0112012289ED
:100EA300EC01120122B8EC01120122E8ED0112015A
:100EB300222AEE0112012256EF011201222CF00127
:100EC3001201227EF001120122DDF001120122142F
:100ED300F1011201224FF101120122EAF401120180
:100EE3002203F50112012285F50112012293F50176
:100EF300120122E8F501120122F6F5011201226323
:100F0300F601120122D5F6011201221BF70112018B
:100F13002248D1031201226DD103120122DED10333
:100F2300120122A4F701120122ADF701120122B628
:100F3300F701120122E7F80112012206FB01120157
:100F4300223CFB0112012276FB01120122ACFB01C0
:100F5300120122E6FB011201221AFC0112012246B0
:100F6300FC011201228FFC01120122C9FC011201B2
:100F73002211FD0112012267FD011201229CFD01D4
:100F8300120122F7FD0112012231FE011201228218
:100F9300FE01120122B8FE01120122F2FE0112012A
:100FA3002215FF01120122557F00120122817F00C9
:100FB300120122DC7F00120122E67F00120122F6D9
:100FC3007F00120122F6EE0212012235EF02120116
:100FD30022BEEF02120122D3EF021201221EF002FF
:100FE30012012252F00212012291F002120122A0F8
:100FF300F00212012255F102120122AEF102120196
:1010030022FDF10212012256F20212012263F302BF
:101013001201225CF40212012299F4021201220944
:10102300DB031201224AB101120122CAB3011201E8
:10103300223EB5011201229BB50112012244B601E1
:1010430012012241B701120122C9B701120122552F
:10105300B8011201227AB801120122CAB8011201A1
:10106300226BBB01120122DCBB01120122C8BC01AD
:1010730012012202BD0112012242BD01120122E22C
:10108300BE0112012213BF0112012268BF01120126
:1010930022B5BF0112012226C00112012249C0015B
:1010A30012012263C00112012279C10112012289B6
:1010B300C1011201221AC3011201223AC301120112
:1010C3002270C301120122F4C4011201226DC50171
:1010D300120122ACC501120122DEC601120122B7A0
:1010E300CD031201221BCE03120122D6CE0312011D
:1010F30022F5CE0312012249CF0312012285DC031C
:10110300120122B7FF02120122F6FF02120122721C
:10111300DC0312012219DA0312012229DA03120174
:101123002241DA031201228ADA031201223AD70397
:10113300120122BED70312012224D803120122F680
:10114300FF01120122CABA03120122DFBA031201FC
:101153002203BC031201226DBC03120122E1BC0372
:10116300120122FBBC0312012212BD03120122252C
:10117300BD031201223DBD0312012252BD03120120
:101183002273BD03120122C4BD0312012253B00313
:101193001201226AB003120122E3B003120122B842
:1011A300B1031201228AB303120122F9BD03120112
:1011B300228BBE0312012209BF0312012290BF0337
:1011C30012012222C00312012279C00312012283D9
:1011D300C00312012292C003120122A8C00312010C
:1011E30022BBC0031201221CC1031201229CD4039F
:1011F300120122C5D403120122EED4031201228765
:10120300D5031201229FD503120122E1D503120156
:101213002207D90212012211D90212012251D90245
:101223001201229AD902120122D4D9021201222ACE
:10123300DA0212012249DA02120122CEDC02120181
:1012430022D7DC0212012228DD0212012251DD0223
:1012530012012266DD02120122D6DD02120122648E
:10126300DE02120122A8DE02120122D0DE021201E6
:10127300224FDF0212012292DF02120122CFDF028C
:10128300120122E1DF0212012200E002120122090F
:10129300E002120122CEE002120122FED203120169
:1012A300224FD303120122D8D3031201223ED403C7
:1012B3001201226FB70312012299B703120122937D
:1012C300B803120122B8B80312012259B90312015B
:1012D30022DFB9031201223DD803120122B5CB0349
:1012E300120122EBCB0312012224CC031201227D33
:1012F300CD0312012293DA03120122A9DA031201A8
:1013030022B3DA0312012269DB03120122FAE0029B
:10131300120122B7E102120122F2E1021201221AA2
:10132300E2021201227CE202120122C8E20212014D
:101333002233E302120122AFE302120122ABE402E1
:1013430012012232E602120122B5E602120122192B
:10135300E70212012230E70212012226E8021201FB
:101363002272E8021201226BA00312012280A00361
:1013730012012233A10312012273A1031201228C51
:10138300A103120122BFA1031201220CA203120125
:101393002240A20312012282A20312012278A40393
:1013A300120122008002120122158002120122384A
:1013B300800212012275800212012231820212017F
:1013C300225B8302120122548402120122E086026C
:1013D3001201226C88021201228F88021201223824
:1013E3008A021201228A8A02120122188B02120136
:1013F30022AB8C02120122E78D02120122FFDB03D2
:10140300120122429C0312012221FF021201224BEC
:10141300FF02120122C8DB031201222BDC0312019B
:101423002254DC03E066701008A3E066700A08A388
:10143300E066700408A3E06622C3E09608A3E09682
:1014430008A3E09608A3E096A2D265D03322C3E7AF
:10145300960809E7960809E7960809E79622C3E084
:101463009608A3E09608A3E09608A3E09622C00896
:10147300C3E096F50808A3E096420808A3E0964265
:101483000808A3E09645087001D3D008220808088D
:10149300EAC0E0EBC0E086F0E7A4FA180986F0E7BB
:1014A300A42AFA180986F0E7A42AFA180986F0E7AD
:1014B300A42AFA1986F0E7A4FBE5F02AFA190886AC
:1014C300F0E7A42BFBE5F03AFA190886F0E7A42B22
:1014D300FBE5F03AFA18180986F0E7A4C5F02BFBF0
:1014E300E43AFA1908E7C5F0C6A426F6E5F03BFB93
:1014F300E43AFA1886F0E7A4F6E5F00826F6E43BAA
:1015030008F6E43A08F6D0E0FBD0E0FA22E4CFC0D4
:10151300E0E4CEC0E0E4CDC0E0E4CCC0E075F02070
:10152300E626F608E633F608E633F608E633F61859
:101533001818EC33FCED33FDEE33FEEF33FFC3EC51
:101543009709ED9709EE9709EF97191919400FFFBE
:10155300EC97FC09ED97FD09EE97FE191906D5F0F6
:10156300BFECF709EDF709EEF709EFF7191919D0F1
:10157300E0FCD0E0FDD0E0FED0E0FF22E4C396F62D
:1015830008E496F608E496F608E496F62260160850
:101593000808C6C313C618C613C618C613C618C68A
:1015A30013C6D5E0EA227009080808226016181845
:1015B30018C6C333C608C633C608C633C608C633FF
:1015C300C6D5E0EA22E627F60809E637F60809E673
:1015D30037F60809E637F622E026F608A3E036F6E2
:1015E30008A3E036F608A3E036F622E026F008A3C7
:1015F300E036F008A3E036F008A3E036F022C3E6B5
:1016030097F60809E697F60809E697F60809E697B4
:10161300F622C3E096F008A3E096F008A3E096F064
:1016230008A3E096F022E657F60809E657F60809FC
:10163300E657F60809E657F622E056F608A3E05601
:10164300F608A3E056F608A3E056F622E056F008A3
:10165300A3E056F008A3E056F008A3E056F022E01A
:1016630066F608A3E066F608A3E066F608A3E0665C
:10167300F622E0F608A3E0F608A3E0F608A3E0F6F6
:1016830022E6F008A3E6F008A3E6F008A3E6F022BA
:10169300E0FAA3E0FBA3E0FCA3E0FD22EAF0A3EB66
:1016A300F0A3ECF0A3EDF022E0F8A3E0F9A3E0FA55
:1016B300A3E0FB22E8F0A3E9F0A3EAF0A3EBF02216
:1016C300CAC0E0E6F0A308DAFAD0E0FA22CAC0E022
:1016D300E0A3C582CCC582C583CDC583F0A3C582F3
:1016E300CCC582C583CDC583DAE6D0E0CA22C3E484
:1016F30098F8E499F91217328026C3E49AFAE49B26
:10170300FBE920E7E9121732E498F8E499F922C3D8
:10171300E498F8E499F9121732E498F8E499F9C3D4
:10172300E49AFAE49BFB22EB20E7CFE920E7E0B958
:101733000010BB0008E88AF084F8AAF022E4FBC892
:10174300FA22EB70227B10C833C8C933C933500760
:10175300C39AC3DBF280069A50012ADBEAC833F44A
:10176300C8C933F4C9FA2275F008E4C833C8C933C9
:10177300C933C99AC99B5004C92AC93BD5F0ECFBAC
:10178300C833F4C8E4C9FA22600D08C6A2E713C639
:1017930018C613C6D5E0F322600C08C6C313C618D7
:1017A300C613C6D5E0F422700422600D18C6C333F5
:1017B300C608C633C6D5E0F41822251810AF08F5BD
:1017C30018400C15198008F51840021519D2AF22DC
:1017D30000C0D0251810AF08F518500C0519800863
:1017E300F51850020519D2AFD0D0222518F5821072
:1017F300AF08F518400C15198008F51840021519A3
:10180300D2AF851983222518F582E43519F5832291
:101813002518F8E43519F9222518FAE43519FB22BD
:101823002518FCE43519FD22E4732518C582C0E0B0
:10183300E51934FFC583C0E0E518C3958224F81089
:10184300AF088583198582188008858319858218D6
:10185300D2AFCEF0A3E520F0A37808E608F0A3DE2C
:10186300FAEFF0A3E58124FAF8E608F0A3E608F01E
:10187300A3E608F0A30808E608F0A3E608F0A3151A
:10188300811581D0E0FED0E0F8158115811581E83E
:10189300C0E0EEC0E0222518C582C0E0E51934FFA0
:1018A300C583C0E0E518C3958224F910AF0885838A
:1018B300198582188008858319858218D2AFCEF0E6
:1018C300A3E520F0A37808E608F0A3DEFAEFF0A37F
:1018D300E58124FBF8E608F0A3E608F0A30808E690
:1018E30008F0A3E608F0A315811581D0E0FED0E04F
:1018F300F815811581E8C0E0EEC0E02285198385E3
:101903001882E0A3FEE0A3F5207808E0A3F608DF41
:10191300FAE0A3FFE0A3C0E0E0A3C0E0E0A3C0E0DF
:10192300E0A3C0E0E0A3C0E010AF08858218858380
:10193300198008858218858319D2AFD083D082029B
:10194300011F851983851882E0A3FEE0A3F52078A3
:1019530008E0A3F608DFFAE0A3FFE0A3C0E0E0A3FA
:10196300C0E0E0A3C0E0E0A3C0E010AF08858218A8
:101973008583198008858218858319D2AFD083D0D7
:101983008222C0D02518C582C0E0E51934FFC58383
:10199300C0E0E518C3958224F310AF088583198549
:1019A30082188008858319858218D2AFC8F0A3E90D
:1019B300F0A3EAF0A3EBF0A37908E709F0A3D8FAC0
:1019C300ECF0A3EDF0A3EEF0A3EFF0A3D0E0F0A3CF
:1019D300D0E0F0A3D0E0F0A3E520F0A3E5F0F0A37E
:1019E30022851983851882E0C0E0A3E0F9A3E0FA19
:1019F300A3E0FBA37808E0F608A3DFFAE0FCA3E08A
:101A0300FDA3E0FEA3E0FFA3E0C0E0A3E0C0E0A3EA
:101A1300E0F5D0A3E0F520A3E0A3F5F010AF08852F
:101A230083198582188008858319858218D2AFD0DF
:101A330082D083D0E0F8D0E0327404800674028050
:101A4300027401C0E0F4041217EED0E01216C322B0
:101A53007404800474028000CCC0E0EDC0E0E5189B
:101A6300C39CCCAD1950011D10AF068C188D198085
:101A7300068C188D19D2AF1216D0D0E0FDD0E0FC41
:101A830022D083D082E9C0E0E493A3C386F0C5F0FB
:101A930095F0F908E493A386F0C5F095F0700BE494
:101AA30093A3C3994005E9048002A3E475F002A45B
:101AB3002582F582E5F03583F583D0E0F9E493A33D
:101AC300C0E0E493C0E022D083D082ECC0E0EDC05C
:101AD300E0E493A3FCE493A3FDED4C600D121B160D
:101AE300EC24FFFCED34FFFD80EFE493A3FCE493CF
:101AF300A3FDED4C600D121B55EC24FFFCED34FFF0
:101B0300FD80EFD0E0FDD0E0FCE493A3C0E0E493DC
:101B1300C0E022C0E0C3E493960874019396184092
:101B23000FE49366700808740193661870007019C7
:101B3300A3A3C3E49396087401939618A3A3400D3B
:101B4300D0E0D0E0D0E0021B06A3A3A3A3A3A3D0BD
:101B5300E022C0E0C0F088F0E493667008087401E6
:101B63009366187000A8F0A3A3700BD0F0D0E0D058
:101B7300E0D0E0021B06A3A3D0F0D0E02274F6125B
:101B83001899EAFEEBFF8C088D09EE2434F8E43F44
:101B9300F9E8FCE9FDEE2435121E4CFAEE24371267
:101BA3001E4CF88508F0A4C885F00A8509F0A42521
:101BB3000AF9EA28F8E439F97A257B00121732EAA0
:101BC3008C828D83F0FA131313541FF8EE28F8E474
:101BD3003FF9E8245DF582E439F583E0C0E074075A
:101BE3005AF8D0E0B800028004C313D8FCA2E0EE98
:101BF30050082434F582E43F80182436121E4CF535
:101C0300F0EA84A8F0EE28F8E43FF9E82438F582F6
:101C1300E439F583E0F97F0302194574F712189943
:101C2300EAFEEBFFEE2434121E4CC0E0EE2435F541
:101C330082E43FF583D0E0F08E828F83A3A3A3A336
:101C4300A3A3A3C082C0838E828F83A3A3A3A3A3D2
:101C5300E0F8A3E0F9D083D082E0C398F508A3E0CD
:101C630099F509EE247F121E4C6401703EEE248028
:101C7300F582E43FF583C082C0838E828F83A3A362
:101C8300A3A3A3E0240108A3E03400F9D083D08206
:101C9300E0687003A3E06970127CC07D06120B3309
:101CA300EE247FF582E43FF583E4F0AC08AD09EE62
:101CB300FAEFFB121B80E9F91223C37F02021945D5
:101CC30074EF121899900369E064086005E06407F3
:101CD300702A9061C8E06024900397E0F4601DE0EF
:101CE300F875F00DA4C8AAF02AF9749928FE7403B4
:101CF30039FF8E828F83A3A3A3E07003021DD190CB
:101D03006060E0C0E0EE2468F582E43FF583D0E054
:101D1300F0750CFC750D06750800750900E5D914FE
:101D2300F50AE5D95403F50E60127403650E60439A
:101D3300E50A600AEE2467121E4C70028075900655
:101D4300F7E06401601F121E4960047A0480027A7E
:101D530000E50AC39AFA95E0FB1209DD8A088B09AC
:101D6300EA45097005120DB58064121E4970048A94
:101D73000C8B0DE50A6012850C82850D83F50BE54E
:101D8300D9F0A3150BE50B70F6121E49604474FCE1
:101D9300250AF50A780C121A40AC0AA90EEEFAEFDE
:101DA300FB120BF974021217D3E97026AA08AB09C8
:101DB3001212A1793D8E828F83A3A3A3A3E0FA7BA2
:101DC30000120857EEFAEFFB120B57120C59790069
:101DD300806F7403650E6051850A107511007810C9
:101DE300121A40AC0CAD0DAA08AB09120BBD74025C
:101DF3001217D3EE2468121E4C64807004747F8023
:101E030001E0F50C780C121A44E50EF50C780C126F
:101E13001A44A90AAC08AD09900397E0FA7B0012B3
:101E2300082774021217D38013900369E0640870C3
:101E33000BAC0CAD0DEEFAEFFB120C29120DC179B0
:101E4300017F0A021945EE2483F582E43FF583E01E
:101E53002274F212189974FC1217BDEAFEEBFF8983
:101E630009A2AFE433F508C2AF021F1EE0601B787E
:101E73000C121A40AC0BA90EEEFAEFFB120BF37423
:101E8300021217D37404250BF50B7401250BF5D936
:101E9300850ED9E50B6018F50A850C82850D83E064
:101EA300F5D9A385820C85830D150AE50A70EA75B9
:101EB300E195EE2463F8E43FF97A007B00A2AFE4F6
:101EC30033F50BC2AF88828983E0FCA3E0FDEC4DC0
:101ED300603A88828983E0FAA3E0FB8A828B83E0FD
:101EE300FCA3E0FD88828983ECF0A3EDF08A828B6A
:101EF30083E4F0A3F088828983E0FCA3E0FDEC4D4A
:101F0300700A88828983A3A3E4F0A3F0E50BA2E01F
:101F130092AF1212A19006C7E004F0EE2463121EE2
:101F23004CF8A3E0F9E8496064EE2463121E4C24E4
:101F330002F8A3E03400F988828983E5822402F55C
:101F43000CE43583F50DE0F50BA3E0F50EEE24620A
:101F5300121E4C640170369061D0E0F8121E496085
:101F6300047C0480027C007480C398FA95E0FBE54E
:101F73000B2CF8E43400F9E82402F8500109C3EA11
:101F830098EB99A2D265D0334003021E6F9006C727
:101F9300E0604D9006C8E0F89006C7E0C398500C87
:101FA30074026509703A9006C9E060348E828F83AB
:101FB300A3A3A3A3E0851882851983121FF37402D8
:101FC300121809E8121FF39006C6E028F0740212F3
:101FD3001823AA18AB1979011208819006C7E4F0F7
:101FE300E508A2E092AF74041217D37F07021945E4
:101FF300F0A3E4F09006C7E0F822000000851A87FA
:10200300851BC622C0E074EB121985A2AFE433F539
:1020130008C2AF759B00906182E0A2E05030E59169
:10202300A2E0502A7591FE7401651A702112219A5B
:10203300120CE9122188121A531222FF7404121788
:10204300D3E9640170057901120D19121CC3906163
:1020530082E0A2E5505DE591A2E550577591DF90CE
:102063000369E064076005E06408702F12219A7425
:1020730001651A703E120CE9122188121A531222BA
:10208300FF74041217D3E9640170057901120D1965
:102093007901EEFAEFFB121E548018E0640D701301
:1020A30090038BE004F064287002E4F07A00E0F916
:1020B300120DC7906182E0A2E6400302215DE59123
:1020C300A2E6400302215D7591BF900369E06405B8
:1020D3007008120CD1120CDD8003120CD7751A0094
:1020E300120D37E990036AF07900120D19120A9D57
:1020F3007A017B00900368E0F9121271907803E093
:10210300644270569006FBE014F0704EC2AF122189
:102113001400781DD0E0F618D0E0F6E59F5407F8D8
:102123007005750DFF8003750D7FC4C0E0781CE654
:10213300F50A08E6550DF50B740B780A12179BD0B8
:10214300E0250AF8906270E0A2E740F8E8C3339014
:102153006272F0906270E0D2E0F0906181E0A2E3FD
:102163005009E5E9A2E3500375E9F7A3E0A2E750BC
:1021730009E591A2E7500375917FE508A2E092AFCC
:102183007F080219E48E828F83E0F8A3E0C8241647
:10219300F582E438F58322900397E0F875F00DA4F7
:1021A300C8AAF02AF9749928FE740339FF22C0E003
:1021B300C0D0C082C083906183E0A2E05009E5BF34
:1021C300A2E0500375BFFEE0A2E15009E5BFA2E122
:1021D300500375BFFDE0A2E25009E5BFA2E2500340
:1021E30075BFFBE0A2E35009E5BFA2E3500375BF4F
:1021F300F7E0A2E45009E5BFA2E4500375BFEFE0A6
:10220300A2E55009E5BFA2E5500375BFDFE0A2E6F2
:102213005009E5BFA2E6500375BFBFD083D082D07B
:10222300D0D0E032C0E074F2121985E5A7A2E650DF
:102233000FE5A1A2E6500953A7BF75A1BF12227BE8
:10224300E5A7A2E5500CE5A1A2E5500653A7DF756B
:10225300A1DFE5A7A2E15009E5A1A2E1500375A121
:10226300FDE5A7A2E2500CE5A1A2E2500653A7FBAD
:1022730075A1FB7F010219E474F7121899751A010D
:10228300900369E064067015120C7D8A828B83A328
:10229300A3A3A3A3A3E0FAA3E0FB120CBFA2AFE4A2
:1022A30033FED2AF90036FE0640170187A207B0095
:1022B300900368E0F912138B7A207B00900368E0A7
:1022C300F9121277906182E0D2E6F09006F8E060AE
:1022D3002185C61B801690036EE064017008E5C675
:1022E30054F84405F5C653BEFC1220007401651A68
:1022F30060E4EEA2E092AF7F0202194574F1121876
:10230300998A088B098C0A8D0B90849D7808121684
:102313003C740F121809780C12167590849D780C72
:1023230012163C7808790C121451908505501078D8
:1023330008790C12160178081214714014800E7873
:102343000C7908121601780C12147150047901806B
:102353000279007F0802194574ED1218998A088BD7
:10236300098C0A8D0B90849D780812163C74131205
:102373001809780C12167590849D780C12163C7807
:102383000C790812145140117808790C121601AA1D
:1023930008AB09AC0AAD0B802275100075110075EE
:1023A30012007513017810790C1216017810790850
:1023B3001215C8AA10AB11AC12AD137F0C0219454C
:1023C300C082C083E9906000F0D083D08222C0E055
:1023D30074F2121985A2AFE433FED2AFC2C0E5D1C5
:1023E300A2E4500675D10F1211E7EEA2E092AF7F7F
:1023F300010219E4C0E0C0D0E8C0E0E9C0E0A9A848
:10240300D2AFC2C7E9A2E7E433F8E9A2E792AFD0BB
:10241300E0F9D0E0F8D0D0D0E032C0E0C0D0E8C0DE
:10242300E0E9C0E0EAC0E0C082C083A2AFE433FACF
:10243300D2AF900F5DE0F8A3E0687008539AFBA356
:1024430074018022C2E9900F5DE0F8740128F074F2
:10245300DD28F582E4340EF583E0F5C1900F5DE0ED
:10246300C394804002E4F0EAA2E092AFD083D0822A
:10247300D0E0FAD0E0F9D0E0F8D0D0D0E032C2AF6B
:042483000200002231
:10248800FFFFFFFFFFFFFFFFC082C083E9901CAD85
:10249800F0D083D08202011F74F612182DE9900241
:1024A800DCF090033BE0F508750900740278081227
:1024B80017AAAA08AB091212E99002DD122E53904E
:1024C80002DD123240606F90033BE075F003A4FA1E
:1024D800ABF01212E99002FA122E539002FA12325D
:1024E80040700B9002DD1232111212EF80489002F8
:1024F800FA1241A57AFF7BFF1210DF7A0080198A51
:1025080008750900740278081217AA123C4D74FF66
:10251800122653E4F0A3F00A90033BE0F8EAC398CC
:1025280040DD790512071F9002DCE0F912060B7AEC
:10253800A97B0712097D023CF074F412182D8A0851
:102548008B09EB548060479002DCE0F91212598A3B
:102558000A8B0BAE0AAF0BEE4F602A8E828F83E098
:1025680064B0701A120731E960148E828F83A3A3B6
:10257800A3A3E0F9EE2405FAE43FFB120701EEFA03
:10258800EFFB121247AA08E5096480FB80047A0071
:102598007B000227A374F212182D74FB1217BDEAF0
:1025A800FEEBFFEE4F60457403121809EEF0A3EF3F
:1025B800F0851882851983ECF0A3EDF074021218E7
:1025C80009E9F0AA18AB19120605E9F5087075743F
:1025D80013121809E0F50AA3E0F50BE50A450B60AC
:1025E800638E828F83122BDCEE4F70057508028094
:1025F800537A067B001212E98A0C8B0DA80CA90DE0
:10260800E8497005750813803B88828983E412269F
:1026180053EEF0A3EF12276FE50AF0A3E50BF09055
:1026280002E01227689002E06017E0FCA3E0800354
:10263800EAFCEBFD8C828D8312276870F38C828D07
:1026480083123868A9087405024425F0A31241874B
:10265800A32274F212182D8908890C750D007403D1
:10266800780C1217AA850C0A850D0B9002DFF090E2
:1026780002DD123673122766602E1212EF7900807F
:102688001D890C750D007402780C1217AA9002DDD2
:10269800123B0C8882F583A3A3E4F0A3F00990030E
:1026A8003BE0F8E9C39840D990033BE0FA850AF08B
:1026B800A4CAA8F0850BF0A428FB1212E98A0C8B97
:1026C8000DAE0CAF0DEE4F700302275C90033BE09C
:1026D800FC850AF0A4CCA8F0850BF0A428FD7900AD
:1026E80012122F7C0080318D0C750D007403780C4C
:1026F8001217AA8A828B8312276188828983E4F061
:1027080012276EA3A3F0A3F00DEDC3950840D8EEF1
:10271800250AFEEF350BFF0C90033BE0F8ECC3985D
:1027280050288C0C750D007402780C1217AA9002B0
:10273800DD122761E82402500109FAE9FB8A828B3D
:1027480083EEF0A3EFF07D0080BFE5089002DFF094
:10275800790080027913024428123B10F922A3A3BE
:10276800123215EA4B22A3124187A3A3A32274F4C1
:1027780012182D7900EAA2E0501F750879750984AE
:102788007808121A4079107C047D007AAF7B1C12FD
:10279800071974021217D3E9F980007F040218FFA1
:1027A800C082C0839002E0123240601C8882898314
:1027B800A3A3E06A7003A3E06B8882898370E8A30F
:1027C800A3A3A312321180047A007B000224997417
:1027D800F212182D74FD1217BDEAFEEBFF85188260
:1027E800851983E4F0A3F074021218097401F01239
:1027F800323D70141208CF1212E99002E3122E53E0
:1028080012323D7003022969122F53EE2404F50A8F
:10281800E43FF50B850A82F583E024FE603C24FC46
:10282800607424FE607E24FE70030228B924FE70C2
:10283800030228C624FE70030228D324FE70030274
:1028480028E024FE70030228ED24FC700302290E00
:1028580024FE70030229260229621208CF9002E59D
:10286800EAF0A3EB122975120263E96003022962F8
:102878009002E5121A578E828F83A3A3A3A3A312F3
:1028880041A58508828509831232111206E974026E
:102898001217D3022962AC18AD19EEFAEFFB120732
:1028A80037022931AC18AD19EEFAEFFB12073D805B
:1028B80078AC18AD19EEFAEFFB120743806BAC1831
:1028C800AD19EEFAEFFB120749805EAC18AD19EEB0
:1028D800FAEFFB12074F8051AC18AD19EEFAEFFB77
:1028E80012075580447402121813880C890D780C4D
:1028F800121A407402121823EEFAEFFB12075B74E7
:10290800021217D38023AC18AD19EEFAEFFB1207A9
:1029180061E9F870167402121809E4F0803CAC18EA
:10292800AD19EEFAEFFB120767E9F8E8602C8E8222
:102938008F83A3E064146022850A82850B83E0906C
:1029480002E5F08518828519831232119002E61289
:102958002E53E8A312297512025DEEFAEFFB120658
:10296800BF7402121809E0F97403024425F07CE5EB
:102978007D028508828509831232152274E81218AF
:102988002D74FA1217BD7404121809ECF0A3EDF0B7
:102998008A128B13EA2405F50EE43513F50FEA24A1
:1029A80002F510E43513F511851082F58312321102
:1029B8001203A78A0A8B0B7508007C037D00790037
:1029C8007AE57B0212122FE50E2402F516E4350F84
:1029D800F5177402121813880C890D780C121A4016
:1029E800850E82850F83A3A3A3A3E0F50C750D00C4
:1029F800780C121A40E50E2405F50CE4350FF50D98
:102A0800780C121A4085168285178312351812061B
:102A18002374061217D38A0C8B0DE50C450D700331
:102A2800022BA58020851882851983E088828983F6
:102A3800F00508851882851983A3E0C0E0122BE60B
:102A4800D0E0F00508E50A24FBFAE50B34FFFBC3E8
:102A5800E5089AE49B4003022BA57E007F008512BF
:102A680082851383A3A3A3A3E0F5097809121A4466
:102A7800E4F514F5157814121A407514E275150268
:102A88007814121A409002E3121A5774091218099E
:102A9800121A57E50A24F9F9AC0CAD0D8510828598
:102AA800118312321112079174091217D3E96003C6
:102AB800022B46850E82850F83A3A3A3A3A3A3A3FA
:102AC800E0F89002E2E0687075E0F5148E1578146D
:102AD800121A401241A2850E82850F83A3A3A3A3D5
:102AE800A3A3A3A312321112122974021217D3E955
:102AF800604C9002E6123240703BE4F514781412F0
:102B08001A407CFF7DFF7907851082851183123278
:102B1800111206FB74021217D31232467017850E73
:102B280082850F8312433F7404121809123C001265
:102B38003549022BD9850C82850D83122BDCA81808
:102B4800A919881489157814121A407404121809DE
:102B5800121A57851682851783122E4912062F746A
:102B6800041217D38A0C8B0DEE4F7003022A22121F
:102B78002BE6EE122BF11234FFEF122BF1F8A3E043
:102B88003400F9E50C450D6003022A2D88828983FB
:102B980074FFF00508122BE674FFF00508E50860DD
:102BA8001A1313543F122E5912026FE9600990024A
:102BB800E61232111212A179008016850E82850F55
:102BC8008312433F7404121809123C0012386879C2
:102BD8000A0234D2A3A3A3A3E0FEA3E0FF22A8081D
:102BE8009002E6E0281234FF22F00508089002E679
:102BF800E0282274E812182D74FA1217BD74021214
:102C08001809122E537404121809ECF0A3EDF0748D
:102C180002121809E024051234E8E0F50CA3E0F5E7
:102C28000D7402121809E02402F510A3E03400F52F
:102C380011851082F5831232111203A775080075E9
:102C48000900EA24FCFEEB34FFFF8008050CE50CC4
:102C58007002050DA808C3EE98EF94005003022EE9
:102C680005A818A919880E890F780E121A4085141C
:102C780082851583A3A3A3A31241A9121A40E514C0
:102C88002405F50EE43515F50F780E121A40851453
:102C980082851583122E4712062374061217D38ACB
:102CA8000E8B0FEA450F7003022E05EA2404F51671
:102CB800E4350FF517851682F583E0F50CA3E0F5EA
:102CC8000D8518828519831241A58A828B83A3A357
:102CD800A3E0F9851082851183123211120611E9D9
:102CE800F5096003022E05740212180912350FF552
:102CF800097809121A44E4F512F5137812121A40E9
:102D08007512E27513027812121A409002E3121A31
:102D1800577407121809121A57EEF9AC0EAD0F8541
:102D2800108285118312321112079174091217D378
:102D3800E9F5096003022E05E508703FE4F50EF594
:102D48000F780E121A407CFF7DFF79098510828565
:102D580011831232111206FB74021217D312353581
:102D6800700D7404121809122E3C7911022E399034
:102D780002E2E024029002E6F080149002E6E0FA13
:102D88009002E2E0790024025001096A497072A8B1
:102D9800089002E2E0FAE82AFAE43400FBEE9AEF3F
:102DA8009B405A851682851783E0C0E09002E7129F
:102DB8002BEBD0E0F00508851682851783A3E0C0C9
:102DC800E0089002E7122BEBD0E0F005089002E251
:102DD8001241A9121A401241A2A8081234DC121298
:102DE8001774021217D39002E2E02508F50874FF61
:102DF800650C700474FF650D6003022C54E50860CF
:102E08001F9002E6E0F5F0E50884122E59120275CB
:102E1800E960099002E71232111212A179008011BB
:102E2800E509700375090A7404121809122E3CA9E1
:102E3800090234D2123677E50CF0A3E50DF022A38F
:102E4800A3124434AA0CAB0D22A3A3EAF0A3EBF01F
:102E5800229002E5F07CE57D0285108285118312BF
:102E680032152274EC12182D74FC1217BD12397821
:102E7800740212182312320B1206298A0C8B0DEADF
:102E8800450D7003022F43122F53A818A919881053
:102E980089117810121A407CFF7DFF790B85088212
:102EA8008509831232111206FB74021217D31230ED
:102EB80049700C850A82850B83123546022F508E85
:102EC800828F83A3A3A3A3E0F5127812121A44E415
:102ED800F512F5137812121A407512E57513027877
:102EE80012121A407810121A407409121809121A8C
:102EF800577409121809E0F9AC0CAD0D85088285E4
:102F0800098312321112079174091217D3E9FE705E
:102F1800157CE57D0285088285098312321112022B
:102F28007BE97009802074166E70027E009002E6BC
:102F38001232111212A1EE7004800B7E01850A82F2
:102F4800850B83123865EEF902387AEE2402F5080B
:102F5800E43FF5092274EC12182D74FC1217BDEA2F
:102F6800FEEBFF8C0E8D0FEE2405F508E43FF50906
:102F780074021218238508828509831232111206F9
:102F8800298A0C8B0DEA450D7003023039EE2402B4
:102F9800F50AE43FF50BA818A919881089117810CB
:102FA800121A407CFF7DFF790D12320B1206FB745A
:102FB800021217D3123049700B85088285098312D3
:102FC8003546807A8E828F83A3A3A3A3E0F5127877
:102FD80012121A44850882850983A3A3121A577509
:102FE80012E57513027812121A407810121A4074FA
:102FF80009121809121A577409121809E0F912323D
:103008000712079174091217D3E9FE700F7CE57D4A
:103018000212320B120281E97009802074166E7058
:10302800027E009002E61232111212A1EE700480A4
:103038000B7E01850882850983123865EEF902380E
:103048007A123250F510A3E0F511EA45112274E81E
:1030580012182D74FE1217BD8A168B178C148D1535
:10306800EA2405F50CE43517F50DEA2402F50EE41B
:103078003517F50F850E82F5831232111203A78AD0
:10308800088B09750B007C037D0079007AE57B02CB
:1030980012122F750A00E50814F5100424FFF5082C
:1030A800E50934FFF50980549002E5E0FA9002E260
:1030B800E0F8EA28F8E43400F9E50898E5099950B9
:1030C8000D9002E5E0F8E510C3989002E2F0E0F513
:1030D800127513007812121A401241A29002E6E00B
:1030E8002AFAA3E03400FB12121774021217D390C5
:1030F80002E2E0F89002E5E028F0050A850C8285F6
:103108000D83A3A3123B1C40030231EC9002E5E0BF
:10311800C39508E4950940030231ECAE0AEE2EFE91
:10312800E433FF12322BAC18AD191241BDE439FB60
:103138001206298A128B13AC12AD13EC4D701B7555
:103148000B0112321B1238699002E61227686003DD
:103158001212A1A90B74020234D485168285178332
:10316800A3A3A3A3E0F50B780B121A44E4F512F518
:10317800137812121A407512E27513027812121A95
:10318800409002E3121A577407121809121A57A925
:1031980010850E82850F831232111207917409125D
:1031A80017D3E9F50B709B9002E6123240600302D8
:1031B80030B0E4F512F5137812121A407CFF7DFF47
:1031C800790F850E82850F831232111206FB740265
:1031D8001217D312324660030230B012321B123576
:1031E8004A02315D7CE57D02850E82850F831232AD
:1031F80011120287E96003023150790002315DAC97
:103208000CAD0D850A82850B8312321522E0FAA3D4
:10321800E0FB2212322BE0FAA3E0F9EA851482855A
:10322800158322850C82850D83E02EF8A3E03FF9F3
:1032380088828983229002E3124343E849221232AA
:1032480050F8A3E0F9E849229002E6EAF0A3EBF08F
:103258009002E6E02274E812182D74FA1217BD7471
:1032680004121809122E538C168D1774041218099B
:10327800E02405F50EA3E03400F50F7404121809D4
:10328800E024021234E81232111203A78A0A8B0BC7
:103298007F007E00A818A919880889097808121AD9
:1032A80040850E82850F83A3A3A3A3E0F5088E09AA
:1032B8007808121A40E50E2405F508E4350FF509DB
:1032C8007808121A40850E82850F83A3A312351839
:1032D80012062374061217D38A0C8B0D8029123517
:1032E80009F00F123509F00F9002E2123854121A41
:1032F800401241A2EFF81234DC12121774021217AE
:10330800D39002E2E02FFFE50C450D7003023398DD
:1033180085188285198312398AA3A3A3E0F9851435
:1033280082851583123211120611E9FEE50C240478
:10333800F510E4350DF511EE7050740412180912E9
:10334800350FF5087808121A44E4F508F5097808E5
:10335800121A407508E27509027808121A4090029C
:10336800E3121A577407121809121A57E50A24FAB1
:10337800F9AC0CAD0D851482851583123211120734
:103388009174091217D3E9FE60391235251238688D
:10339800EF70030234BF9002E6E0F5F0EF8490028C
:1033A800E5F07CE57D0285148285158312321112C1
:1033B800028DE960099002E71232111212A1790018
:1033C8000234D28F08EF703BE4F512F5137812122D
:1033D8001A407CFF7DFF791185148285158312328E
:1033E800111206FB74021217D31235357009123503
:1033F800251235490234D29002E2E024049002E614
:10340800F080359002E2E0F89002E6E0FAE8240461
:10341800FCE43400FDEC6A4D600302339EE50A24A7
:10342800FAFAE50B34FFFBE50828F8E43400F9EA7A
:1034380098EB99500302339E851082851183E0C072
:10344800E09002E7E02FF8A3E034008882F583D00B
:10345800E0F00F851082851183A3E0C0E01234F6F6
:10346800D0E0F00F7402121813880889097808123E
:103478001A407402121809121A57850E82850F8392
:10348800122E4712062F74041217D38A0C8B0DEADA
:10349800450D70030232E67402121809E0C0E0120A
:1034A80034F6D0E0F00F7402121809A3E0C0E0125D
:1034B80034F6D0E00232EEEE70027E0A850E828586
:1034C8000F8312352B123868EEF974061217D37F62
:1034D800100218FF9002E7E028FAA3E03400FB226C
:1034E800F514A3E03400F515851482F5832212340F
:1034F800FA229002E7E02FFAA3E034008A82F583EB
:10350800221234FA74FF22123677A3A3A3A3E0226F
:10351800124434850E82850F83123215228510825B
:10352800851183124343851682851783229002E70B
:10353800EAF0A3EBF09002E7124343E8492212387D
:103548006EE8F0A3E9F079112274EA12182D74FEDE
:103558001217BD8A088B098C128D13EA2405FEE424
:103568003509FFAC18AD198E828F831232111206FD
:10357800298A0C8B0DEE2406F50EE43FF50FEA457B
:103588000D7003023649E5082402F50AE43509F509
:103598000B8A828B83A3A3A3E0A2E5502885188217
:1035A8008519831232111207858A108B11EA451189
:1035B8006020791212320785108285118312182B28
:1035C800E9F50C707F850E82850F83E060097952DA
:1035D8008011750C0E806D850882850983A3A3A3CD
:1035E800A3E0F9E4F508F5097808121A408E828FED
:1035F80083A3A3E0F5087808121A408E828F83A36C
:10360800A3A3121A578E828F831241A512320B126E
:10361800079774061217D3E9F50C7011850E828589
:103628000F83E0702D12320B1202938025741665F9
:103638000C7011750C007418121809123673E48096
:1036480010750C0112433B851282851383E8F0A3A1
:10365800E9F0850E82850F83E0600479008002A975
:103668000C74021217D37F0E0218FF12367722E06D
:10367800F8A3E0F58388822274EC12182D74F712EF
:1036880017BD8A0A8B0B8C108D11EA2405FEE435D0
:103698000BFF750C00AC18AD198E828F8312321196
:1036A8001206298A088B09EA4509700302383FE5A2
:1036B8000A2402F50A5002050B8A828B83A3A3A36E
:1036C800E0A2E5502F85188285198312321112075E
:1036D800858A0C8B0DEA450D604F7912AC08AD094F
:1036E80012320B850C82850D8312182BE9F50C60BC
:1036F80003023842850A82850B83E0F508A3E0F5CA
:1037080009AA08FB120779EA4B70197AFF7BFF12A6
:103718000779EA4B70030238358A828B83E508F013
:10372800A3E509F07508008008750C0E02384205FB
:10373800089002DFE0F8E508C398400302383585B1
:10374800080E750F007403780E1217AA8A828B83ED
:10375800A3A3E0250EF8A3E0350F123C0970D08E24
:10376800828F8312385D122E538E828F83A3A31209
:10377800385D122E51EE2404F508E43FF50985085A
:1037880082F583E088828983A3A3A3A3F0A3E4F04E
:10379800EE2405F50EE43FF50F850E82F583123809
:1037A8005DA3A3A3A3122E517512077513007812F7
:1037B800121A40EEFCEFFD740412181B1212177453
:1037C800021217D3E4F5127812121A40850882857E
:1037D8000983E0FC7D00791712320B1206FB740294
:1037E8001217D37407121809122E537407121809E6
:1037F800E0FA4B603D850882850983123854121A15
:1038080040850E82850F831241A512121774021289
:1038180017D3740212182312320B120299E9602688
:1038280074071218091232111212A18019750C09A5
:103838008008750C118003750C0112433B851082BA
:10384800851183123868A90C74098028E0F5087579
:103858000900780822123215888289832212386E6C
:10386800E8F0A3E9F022E0F8A3E0F9850E82850FDD
:10387800832274041217D37F0C0218FF74EC1218F9
:103888002D123978751000EE2402F50CE43FF50D81
:10389800850C82F5831232111207798A088B09EA9E
:1038A8004509700302395C850A82850B83E064014F
:1038B8006003023951AC08AD09AA0AAB0B12076DB7
:1038C800E9606E850882850983122BDEEE2406F5F1
:1038D8000AE43FF50B8E828F83A3A3121A578E82B8
:1038E8008F83A3A3A3A3121A57850A82850B831279
:1038F8001A5779188E828F8312398A123211120759
:103908009774061217D3E9F8741668700B850A8243
:10391800850B83E4F0A38014E860128E828F8312F3
:103928003211850E82850F83EAF0A3EBF0881080B0
:1039380018780E121A40AC08AD09EEFAEFFB120720
:103948007374021217D3E9F510AA08AB0912077F9E
:10395800E510700E850C82850D8312321112029FBC
:103968008009741665107003751000A91002387F5D
:10397800EAFEEBFF8C0E8D0FEE2405F50AE43FF509
:103988000B22124434850C82850D832274EA1218A6
:103998002D7508007509007E007F00750A00EC246B
:1039A80002F510E43DF5118035EC65087003ED650E
:1039B800096003023A4988828983A3A3E06A7003F5
:1039C800A3E06B707C88828983A3A3A3A312433FDF
:1039D800EE28FEEF39FFEA28FAEB39FB050A123B1D
:1039E80019503A850A0C750D007403780C1217AA41
:1039F800851082851183123B0C123C09601FE50873
:103A0800450970A58C088D0988828983122BDC886A
:103A1800828983A3A3E02EFAA3E03F80BEE50AC310
:103A280094025003023B07750800750900EE4F60C9
:103A380010EEFAEFFB12129B8A0E8B0FEA450F70FD
:103A4800057900023B09750B00023ADC850B0C7501
:103A58000D007403780C1217AA851082851183E073
:103A6800250CF50CA3E0350DF50DE50C2406F51431
:103A7800E4350DF515851482F583123C0E6042E598
:103A88000C2404F512E4350DF513851282F5831222
:103A98001A57E50E2508FAE50F3509FB12121774B7
:103AA800021217D3851282851383E02508F508A32F
:103AB800E03509F509851482851583123211121231
:103AC800A1E50B600D7C087D007900AA0CAB0D12F6
:103AD800122F050BE50BC3950A5003023A548510C3
:103AE8008285118312433F88828983A3A3A3A3A35A
:103AF800A3E50EF0A3E50F12276FEEF0A3EFF07920
:103B08000102366E123B1022E0250CF8A3E0350DB9
:103B1800229002DFE0F8E50AC3982274F012182D0B
:103B28008A0E8B0F8C0A8D0B750D00750C0080505A
:103B38007916EE2406F508E43FF5098E828F83A3F3
:103B4800A3121A578E828F83A3A3A3A3121A578591
:103B58000882850983121A57850E82850F83A3A3CD
:103B680012321112079774061217D3E9F50D74165D
:103B7800650D706C850882850983E4F0A3F0050C57
:103B88009002DFE0F8E50CC3985066AA0C8A087525
:103B98000900740378081217AA850A82850B83A383
:103BA800A3123C58E8FEE9FF8E828F83123C0E6018
:103BB80040EA2401F508E43400F5099002DFE065E5
:103BC800087002E509601488828983A3A3A3A3A3CC
:103BD800A3A3A31232406003023B387918023B3A90
:103BE800E9609B12433B7410121809123C0012380A
:103BF80068A90D7F080218FFE0FAA3E0F5838A821E
:103C080022F988828983124434EC4D2274F6121802
:103C18002D7C0080010C90033BE0F8ECC398501E0B
:103C28008C08750900740278081217AA123C4DE036
:103C38006A7003A3E06B70DDE8FAE9FB80047A00A0
:103C48007B00023CF09002DD123C58888289832276
:103C5800E02508F8A3E03509F92274F212182D8A34
:103C6800088B09750A0080278E828F83A3A3A3A3DC
:103C780012276660031212A17C087D007900EEFA13
:103C8800EFFB12122F8E828F83E4F0A3F0050A1245
:103C98003B195027850A0C750D007403780C121710
:103CA800AA850882850983A3A3E0250CFEA3E03535
:103CB8000DFF8E828F8312324070AD850882850990
:103CC8008374FFF0A3F002442874F612182D12072B
:103CD8002B8A828B83E582458370067A007B00807D
:103CE80007A3A3A3A31232117F020218FF74F412D0
:103CF800182D89088C828D83E06402703C1242DEA4
:103D0800FEA3E0F9EEF8740268700374296970295B
:103D1800750A02750B00780A121A407410121809F5
:103D2800121A577410121809121A57A9081210E516
:103D380074061217D3E9F9800279010227A374E8FF
:103D480012182D74FB1217BDE9851882851983F0A6
:103D58008A168B17ECFEEDFF7510008E828F83A3F9
:103D6800A3A3E0A2E4502D741D12180912321112F7
:103D780007858A828B83E5824583700302417D79BA
:103D88000AEEFCEFFDAA16AB1712182BE9F5106026
:103D980003024180741F121809E0F508A3E0F50931
:103DA8007421121809E0F50AA3E0F50B7423121820
:103DB80009E0F50EA3E0F50F8E828F83E0640260C0
:103DC8000302411EA312433F850882850983A38508
:103DD8008212858313EE2406F50CE43FF50D8882E4
:103DE80089831241BDF514E439F5157814121ACAFD
:103DF800010000280128203E07000228E53E03288C
:103E0800533E0029144001293F400229E03F03297D
:103E180014400429B8401E41E50E450F60030241D5
:103E280019850C82850D8312433FE8FAE9FB8A82E3
:103E38008B83E0850A82850B831241C8121A408A57
:103E4800828B83A3E0FCA3E00240A2E50E450F604D
:103E580003024119850A82850B837401F01241B26D
:103E6800850882850983F07C007D008E828F83A37C
:103E7800A3A3A3E02401FAA3E03400FB120629EA75
:103E88004B60408A828B83E02402F8850A82850B86
:103E980083E028F0EA2404F8E43BF988828983E087
:103EA8008512828513831241D61241C8121A408A9C
:103EB800828B83A31241A5E5082403FAE43509FBA4
:103EC8000240A7850A82850B83E02404F07C047DE8
:103ED800007900AA12AB1312122F024180E50E4599
:103EE8000F60030241191241B2FEA3E0FF850A8266
:103EF800850B837404F0EE850882850983F0EF85CD
:103F08001282851383F07403121823EEFAEFFB1262
:103F180006298A0C8B0DEA450D7003023FC38A827D
:103F28008B83A3A3122BDC7401121813880E890F3C
:103F3800780E121A407405121809121A577CFF7D60
:103F4800FF12062F74041217D38B0FEA450F703334
:103F5800850C82850D831241A9121A40850C828531
:103F68000D83A3121A577C027D007A217B851203E8
:103F78009574041217D3E9700A740112180974FFB2
:103F8800F0A3F08E828F83E064027039750C02759D
:103F98000D00780C121A408E828F83A31241A5E57A
:103FA800082404FAE43509FB12121774021217D315
:103FB800850A82850B83E02402800974011218099E
:103FC800EEF0A3EFF0740112180912419774011270
:103FD800180912418E024113E50E450F6003024194
:103FE80019850C82850D8312442DAA16AB17121061
:103FF800EB850A82850B837402F085088285098324
:10400800EAF0851282851383EB024116E50E450F0F
:1040180060030241191241B2F8A3E0F9850A8285CA
:104028000B837402F0E8850882850983F0E985121C
:1040380082851383024116850C82850D8312321105
:10404800121211EAFAF8C3950EE4950F405CE86580
:104058000E450F70047A008021851882851983E047
:10406800FCE50E2CFCE4350FFDC3EC98ED940050F4
:1040780003E08005E50ECAC39AFAEA850A82850B31
:1040880083F08A0A750B00780A121A40850C82851B
:104098000D83E0250EFCA3E0350FFDAA08AB09123D
:1040A800121774021217D30241807510070241805B
:1040B800E50E450F705B850C82850D8312433F85A5
:1040C8000A82850B837407F08882898312418F12D4
:1040D8004187E0851282851383F0E82402FAE439E7
:1040E800FB8A828B831241978A828B8312418EA32B
:1040F800A312276E12419CF0E82405F850010988A4
:1041080082898312419CA31241D6A3A3A3A3F08062
:104118006775100B8062741D12180912321112078C
:104128002B8A828B83E5824583604A12433F880C41
:10413800890DE8450D603E7425121809E0F51078E0
:1041480010121A44780E121A40780A121A40780887
:10415800121A407407121809E0F9EEFCEFFDAA16CE
:10416800AB17850C82850D8312182B74071217D391
:10417800E9F510800375100EA91074050234D4F007
:1041880088828983A322A3E0850882850983221275
:1041980041DDF0221241DDA3A3229002E312443450
:1041A80022E0F50E750F00780E22850C82850D83AE
:1041B800123677E022E0FAA3E0F8E4C8F9EA282208
:1041C800F08A828B83E0F50A750B00780A22124187
:1041D800871241DD22E0850882850983A3A3227422
:1041E800EE12182D74FE1217BD8A088B09ECFEED2D
:1041F800FF890AAC18AD19EEFAEFFB1206298A0CF2
:104208008B0DEA450D70030242CF8518828519830C
:1042180012321112072B8A828B83E5824583700341
:104228000242CAA3A312433F880E890FE8450F70C4
:10423800030242CA7414121809E0F510A3E0F5113C
:10424800E50AF50B780B121A447419121809121A98
:10425800577810121A40741B121809E0F9AC0CAD0B
:104268000DAA08AB09850E82850F8312182B7405D9
:104278001217D3E9F50B705274FE650A604C850C71
:1042880082850D83E0640270411242DEFAA3E0F9F0
:10429800EAF87402687003742969702E85108285A3
:1042A80011831241BDF50CE439F50D780C121A4052
:1042B800EEFCEFFDAA08AB091207AF74021217D380
:1042C8008008750B0E8003750B01A90B7402121779
:1042D800D37F0A0218FFA312434388828983E0220E
:1042E80074F612182D74FE1217BD740C12180912E8
:1042F800433FE8851882851983F07401121809E98B
:10430800F0E4F508F5097808121A407508027808EB
:10431800121A407404121813880889097808121AA6
:104328004079FE12079774061217D374021217D336
:10433800023CF08E828F8312434322E0F8A3E0F917
:104348002274F712182DEAFEEBFF89089002FA1280
:1043580041A51210EBEA5402600BA908EEFAEFFB34
:1043680012061D800279017F010218FF74F21218EB
:104378002D74FE1217BDEAFEEBFF890A7401650A67
:1043880060147402650A6003024423790112099BD0
:10439800E96003024423EEFAEFFB120779EA4B6067
:1043A8000312077FA818A919880889097808121A1A
:1043B800407508027509007808121A4075081975C1
:1043C80009857808121A407CFF7DFF7A017B00126C
:1043D800062374061217D38038850882850983A3BB
:1043E800A3A3A3A3A312442DEEFAEFFB1210DFE45C
:1043F800F50CF50D780C121A407402121809121AED
:10440800577CFF7DFFAA08AB0912062F7404121708
:10441800D38A088B09E508450970BE74021217D3C0
:104428007F060218FF12367712443422E0FCA3E01C
:10443800FD2274F412182D8A088B09ECFEEDFF900A
:104448001CADE0F4604B7A097B00121241EA4B6024
:10445800408A828B8374B1F0A3E412449CF08A8270
:104468008B83A3A3E508F0A3E50912449CA3EEF00F
:10447800A3EFF0740C12180912433F8A828B83A3AE
:10448800A3A3A3A3A3A3123868901CADE0F912124A
:104498004D0227A3F08A828B83A3A3A3A322C08201
:1044A800C0839061907404F0A37448F0A37402F080
:1044B8009061807440F09061BC7403F090618774DF
:1044C80019F0906265741BF0906249E0C3941390F0
:1044D800619C40107409F09060667401F090619FCF
:1044E8007428800D740BF0906066E4F090619F74FE
:1044F8002CF01246917009C29190036D7467800583
:1045080090036D7461F01246E3902488E493F4609C
:1045180006E493F9120A917905120DA9024925C0FA
:1045280082C083E9540FF9906185E0696012E5C69D
:1045380054B84441F5C6E59E5447644170F8E9F023
:1045480053C6B8E59E544770FA024925C082C08315
:10455800A8A853A87E906181E4F0A3F0A3F0C2BAA2
:10456800539AFEC289759B00C2C275E90075910015
:1045780075BF0075A91175B905906181F0A374C064
:10458800F0A3E4F0D2BA439A0174805842A80249D1
:1045980025F0024925C082C08374F81217BD900324
:1045A8006B125CA3700302468990036BE054406071
:1045B800177908AA18AB19120B9FAA18AB19120879
:1045C8000F90036BE054BFF0E054806010790C7AD0
:1045D8001C7B07120B9F90036BE0547FF0E0A2E076
:1045E800501E1246917009C29190036D7467800540
:1045F80090036D7461F012081590036BE054FEF09F
:10460800E05402601E1246D67009D29190036D7470
:1046180071800590036D746AF012081590036BE0C1
:1046280054FDF0E05404601090248C1246E6120801
:104638001B90036BE054FBF0E05408601090248D4D
:104648001246E612081B90036BE054F7F0E0541092
:10465800600D1246E312081B90036BE054EFF0E084
:104668005420600A12081B90036BE054DFF0A3E0AB
:104678005401600D120AAF12082190036CE054FE39
:10468800F074081217D302492590619A1248D890FD
:1046980006F6E0640122C082C083E9600514601751
:1046A80080291246917009C29190036D7467801A2F
:1046B80090036D746180131246D67009D2919003ED
:1046C8006D7471800590036D746AF00249259061DC
:1046D8009A1248CA9006F6E064012290248EE49368
:1046E800906186F02274EA12182D74F41217BD90A6
:1046F80084B5AC18AD1974041216D090248C93F4B8
:10470800600302485F907808E0C3940250030248AF
:1047180043908455740412182374081216D0A818EC
:10472800A91988148915740412181388088909AE00
:1047380008AF097510FF7511FF750EFF7C00750C29
:1047480048750D78801274086C70030247D9740993
:104758006C607E740A6C6079850C82850D8378089C
:104768001216758E828F83A909E50AC9F888127412
:10477800187808121590E5124508F8C3E098A3E0E8
:1047880099850C82850D83780812167540188E82DB
:104798008F8374187808121590E5124508F8E0C35D
:1047A80098F8A3E0801A74187808121590E5124555
:1047B80008FAE9FB8E828F83124FFAEAC398F8EB66
:1047C80099F9C3E89510E995115006881089118C5C
:1047D8000E0CE50C2404F50C5002050DECC39413E3
:1047E800500302474E74FF6510700474FF65116032
:1047F80024850E08740278081217AA74482508F54B
:104808008274783509F583780812167585148285BF
:104818001583E508F0EE2402FE50010F8514828509
:104828001583A3858214858315740C121809E582F3
:104838006E7003E5836F600302473B7508017509D5
:10484800007808121A4074021218237A237B09127E
:10485800113374021217D3740C1217D37F0E021877
:10486800FFC082C0839061AE7468F0A3746AF09050
:10487800624574FBF0A304F053F4FD43FE02900676
:10488800F67401F09061A0E0643A90619A70191290
:1048980048D8740164017009C29190036D746780EF
:1048A8001E90036D746180171248CA740164017008
:1048B80009D29190036D7471800590036D746A023A
:1048C8004599743FF0A3745AF09061A0747FF02268
:1048D8007433F0A37455F09061A0743AF0227F0409
:1048E8000218FFC082C0839006D4E0640170119062
:1048F80006DAE064016019E07006A3E06401601064
:104908009006EBE06401700C9006F1E0640170041D
:10491800790C800279008005E0F91223C3D083D096
:104928008202011FE0C4333354C022888289831273
:104938004EBBA882A983222414F582E438F5832289
:10494800C082C0839006DE7425F09006DC7401F006
:10495800A3E4F07A01FB120D25124994241AF5827A
:10496800E438F58374D3F0A3740AF09006DBE064AE
:104978000170169006DAE070107901120D85120D9B
:1049880055120D7F7900120D910249259006CA1221
:104998004D1D2274F612182D74FA1217BD9006D305
:1049A800E064017008120ABB9006D3E4F075E1F1E7
:1049B8001249942415F582E438F5837401F09006C1
:1049C800D5E06401704B908485AC18AD197406125B
:1049D80016D075D90D9006CC12492C4403F5D9751B
:1049E80082CD758306124EB7E58264D37004E583E1
:1049F800640670F1A818A919124933740612180927
:104A0800E582687003E5836970EE75E19579018048
:104A1800027900120D2B901CD1124A81743BF0A32D
:104A2800740CF0A3124A81124A81124BEF7441F0C0
:104A3800A3740C124C049006CCE0F97ACD7B0612D4
:104A48000D079006DEE0F91223C37901120D3190AB
:104A580084C5121693120D499084A5121693120D4F
:104A6800137900120D9D12499412493F7416F09063
:104A780003697405F00402511C7435F0A3740CF03A
:104A8800A32274F712182D8908A808E875F00DA458
:104A9800C8AAF02AF9749928FE740339FF9006E32E
:104AA800E0F97AE47B06120D079006F1E0702579AB
:104AB80000120D67EE240CF582EF3401F583E070E7
:104AC80004790080027901EE2406FAEF3401FB1222
:104AD8000D0D80057901120D6775E1F175D92390E7
:104AE80006E312492C4405F5D97582E4758306124C
:104AF8004EB7E58264EA7004E583640670F175D9FF
:104B08000075D90075D90075D90075D90075D90017
:104B1800EE2422124F70124F8F7003E9658370F6EE
:104B2800EE2426124F7B2403F8E43583F9124F8FC5
:104B38007003E9658370F6EE242B124F84242C123F
:104B48004F84242D124F84242E124F84242F124F69
:104B5800842430124F842431124F842432124F841B
:104B68002433124F84245D124F7B2405F8E43583E7
:104B7800F9124F8F7003E9658370F6EE2437125BE4
:104B880022541FF8EE242A125B22C43354E048F55D
:104B9800D975E195901CD17405F0A3740CF0A37439
:104BA8000BF0A3740C124BE67411F0A3740C124CA6
:104BB800049006F0E0F91223C39084C512169312EC
:104BC8000D499084A5121693120D1390600DE4F010
:104BD8007901120D9D9003697406F0025358F0A3F1
:104BE800124BEF124BEF22124BF32274FFF0A37417
:104BF8000BF0A374FFF0A3740BF0A322124C08224D
:104C0800F0901CDF124C14A3124C1422124BF374B4
:104C1800FFF0A3740BF02274EC12182D9006E11229
:104C2800577878101216759006F2E0FAF875F00DBC
:104C3800A4C8ACF02C1258F4FFEE2EFEEF33FF8E12
:104C48000CF50D750E00750F008510088511098586
:104C5800120A85130B9084C178081215DB780812A4
:104C68001A3C85100885110985120A85130B7808E6
:104C7800790C1215C87810790C121510E4F50EF598
:104C88000F7808790C1216018A0C750D00740378D8
:104C98000C1217AA7808790C1215C890849D780808
:104CA80012163CAA08AB09AC0AAD0B12235B7404BC
:104CB8001217D38A088B09A808A909C3EE98EF9997
:104CC8005006E82EF8E93FF9E890600EF0E9A3F005
:104CD800EEA3F0EFA3F090600D74C1F07F0C021802
:104CE800FFC082C0839006CA124D099006DE0249B1
:104CF80020C082C0839006E1124D099006F0024957
:104D080020124D1D124D13F0A3F0222406F582E463
:104D180038F583E422E0F8A3E0C82202011F74F604
:104D280012182D124EC06004780480027800E8241E
:104D38000EF8ECC3985003024DF47C0C9006FCE48A
:104D4800F0EA2476F582E43BF583E09006FDF0EA8C
:104D58002477124DF99006FE124E039006FFF0EAF2
:104D68002479124DF9900700124E03900701F0EADA
:104D7800247B124DF9900702124E03900703F0EAC4
:104D8800247D124DF9900704124E03900705F0EAAE
:104D98002474F8E43BF98A828B83A3A3A3A3A3E03A
:104DA800FEA3E0FF88828983E02EF0A3E03F12543F
:104DB80096900706124E03900707124EE460177587
:104DC80008FC7509067808121A407903120BF37467
:104DD800021217D37C1012512AECFE124EB7DEFBDA
:104DE80075E1957904120D4F79018002790002511D
:104DF8001FF8E43BF988828983E02212549BA3E0E0
:104E08002274F612182D124EC060047804800278BD
:104E180000E8240AF8ECC3985003024EB27E0890CA
:104E280006FC7401F07CC07D0678FD79067F0512CA
:104E38004ECEA882A983DFF7EA2480FCE43BFD8AF2
:104E4800828B83A3A3A3A3A3E0F508A3E0F5098CB1
:104E5800828D83E02508F0A3E03509F0124ECE08D4
:104E6800A9838C828D83E088828983124EE460193D
:104E78007508FC7509067808121A407C087903122F
:104E88000BF374021217D37E0C74012EF5D975D961
:104E9800037582FC758306EEFF124EB7DFFB75E1E2
:104EA800957904120D4F79018002790002511F1281
:104EB8004EBB22E0F5D9A3229061D0E0F87480C3FC
:104EC80098FC124EE922124ED2228C828D83E08801
:104ED800828983125CE088828983A322F0124EE9DA
:104EE80022EA2483F582E43BF583E02274F7121862
:104EF8002DEAFEEBFF9061D0E0706875D91875D97E
:104F08000375D903EE249C124F96124F8F7003E954
:104F1800658370F6EE24A4124F8424A5124F8424CE
:104F280094124F96124F8F7003E9658370F6EE2442
:104F380088124F70124F8F7003E9658370F675E120
:104F4800957908EE2494FAE43FFB120B937904EE6A
:104F58002488FAE43FFB120B937904120D4F125088
:104F6800A480027900025358124F7B2404F8E435D8
:104F780083F922F582E43FF583E58222F582E43F56
:104F8800F583E0F5D9EE22124EBBE8658222124F76
:104F98007B2408F8E43583F92274F612182DEAFE0A
:104FA800EBFF9006FC740612504D121A407C0179F2
:104FB80003120BF374021217D375D90675D903754A
:104FC80082FC7583061250457004E583640770F50A
:104FD80075E195900369E064087010EE246FF5821E
:104FE800E43F124FF8EE2471125AB1790102511FB1
:104FF800F583125CAF2274F612182DEAFEEBFF90CF
:1050080061D0E070339006FC740A12504D121A40B9
:105018007C017903120BF374021217D375D9067544
:10502800D9037582FC7583061250457004E58364C4
:105038000770F51250A18002790002511F124EBB71
:10504800E582640122F07508FC7509067808227467
:10505800F612182DEAFEEBFF9061D0E07036780169
:105068009006FC740BF0900369E0640770197508EA
:10507800FC7509067808121A407C017903120BF3B3
:1050880074021217D378051252EC124EB7DAFB12DB
:1050980050A18002790002511F75E195EE246F122C
:1050A8005CA9EE2471F582E43FF583E8F0A3E9F00A
:1050B80079012274F612182D1251ED6004780480DB
:1050C800027800E8240BF8EAC39840447C0990066B
:1050D800FC7408125139125148DDFB125B1F601B2A
:1050E8007508FC7509067808121A407903EEFAEF7C
:1050F800FB120BF374021217D37C0D1251241251B8
:10510800E570FB75E1957904120D4F1250A48002E9
:10511800790080031217D37F020218FF12512A8CDC
:10512800082274012CF5D975D9037582FC7583069C
:1051380022F0EE24E5F8E43FF97AFD7B067D0822AB
:1051480088828983E08A828B8312549BA3A882A9D0
:10515800838A828B83A3AA82AB832274F612182DCA
:105168001251ED6004780480027800E82408F8EA17
:10517800C398406478069006FC740CF0900386E0AF
:105188009006FDF0900387E09006FEF0900388E01B
:105198009006FFF0900389E0900700F090038AE002
:1051A80090070112527C601B7508FC750906780887
:1051B800121A407C067903EEFA120BF374021217E6
:1051C800D3780A1252761251E570FB75E19579048D
:1051D800120D4F1250A48002790002511F124EBBCB
:1051E8001508E50822EAFEEBFF9061D0E0F874802C
:1051F800C398FA1252812274F612182D1251ED60DA
:1052080004780480027800E82404F8EAC398404B44
:1052180078029006FCE8F0EE24F7125B229006FD77
:1052280012527C601B7508FC7509067808121A4032
:105238007C027903EEFA120BF374021217D3780684
:105248001252761251E570FB75E195125268790495
:10525800120D4FEE240D1250A78002790002511F43
:10526800EE241DF582E43FF583E4F0A3F022125208
:10527800F2880822F012528122EE2483F582E43F5C
:10528800F583E02274F612182D124EC060047804DB
:1052980080027800E82404F8ECC398404278029031
:1052A80006FC7407F0EA24F8F582E43BF583E09005
:1052B80006FD124EE460197508FC75090678081297
:1052C8001A407C027903120BF374021217D3780682
:1052D8001252EC124EB7DAFB75E19579018002792A
:1052E8000002511F1252F2E8FA22740128F5D9750A
:1052F800D9037582FC7583062274F712182DE9FF0D
:10530800A2AFE433FEC2AF7C0080010C1253A95057
:1053180010ECF8EA28F8E43BF9125A0D6F70EC80AB
:1053280016EA246EF8E43BF9E0FCEA2CFAE43BFBCD
:10533800125346EF125490EEA2E092AF8012EA2484
:105348006AF582E43BF58322F0EEA2E092AF7900A1
:105358007F010218FFC082C083A2AFE433FDC2AF51
:105368001253B114F07C00801DECF8EA28F8E43BF5
:10537800F9E8246B125A10C0E0E8246AF582E4398F
:10538800F583D0E0F00C1253A940DEEA246DF582D3
:10539800E43BF58374FF1253D6EDA2E092AF0249C5
:1053A800251253B1F8ECC39822EA246EF582E43B47
:1053B800F583E022C082C083A8A8C2AF125346E991
:1053C8001253D6E8A2E7E433FAE8A2E780CEF0EA7F
:1053D8002469F582E43BF583E4F02274F312182D76
:1053E800EAFEEBFFECFAEDFB8A828B83A3A3A3A36F
:1053F800E0541FF0EE2436F582E43FF583E4F075BF
:105408000A00EE245DFCE43FFD8A828B83E08C82F7
:105418008D83F0750B00E50A33333354F8F50C8AA5
:10542800828B83E0F508750900E50B780812178B65
:10543800E508A2E05027EE2436F8E43FF98882898F
:1054480083E0F508EE2508F508E43FF509E50824AA
:1054580038F582E43509F583E50C125490050B05FF
:105468000CE50BC3940840B7050A8A828B83A3AA6C
:1054780082AB838C828D83A3AC82AD83E50AC3940F
:105488000540867F050218FF12549604F022125434
:105498009BE022F0888289832274F712182D9003EA
:1054A80095E06403700302563E7C0075829B758309
:1054B80003E06003025628ECF875F00DA4C8AAF0C2
:1054C8002AF9749928FA740339FB8A828B83A3A377
:1054D8007401125660E4F0EC8A828B83A3A3A3A321
:1054E800F0125C2A7401F0EA2467F582E43BF58344
:1054F800740112565AE4F0A312565AA3A312567016
:10550800240FF582E43BF5837401F0EA2435125642
:10551800452418125675241C125645241D12566926
:10552800247F125645247312564524821256452468
:1055380068F582E43BF58374801253D6EA246E1230
:10554800564524ED12564524EE12564524EF1256C0
:105558004524F012564524F112566924F31256696F
:1055680024F6125645248312564524D31256452450
:10557800D412564524D512567524D912567524DFEF
:1055880012564524E112564524DD12564524E212EE
:10559800564524E312564524F912566924FB12563F
:1055A8006924FD12566924FF125669240C12564FBD
:1055B800240612564F240712564F240812564F2419
:1055C8000912564F240A12564F240B12564F1253E3
:1055D8004774FF7804F0A3D8FCEA245DF8E43BF9AB
:1055E8007CC07D0612568964C57003ED640670F4AC
:1055F800EA24E5F8E43BF97C7D7D0312568964854D
:105608007003ED640370F4900395E004F064017096
:10561800298A828B83A3A3A3A3E0900397F0801A1F
:105628000CE582240DF582E5833401F583ECC394FF
:105638000350030254B97A007B00025358F582E400
:105648003BF583E4F0EA22F582EB3401F583E4F0DC
:10565800EA22125660A3A322F08A828B83A3A3A313
:1056680022F582E43BF583E4F0A3F0EA22F582E434
:105678003BF583125680EA22E4F0A3F0A3F0A3F0EE
:1056880022124ED2A882A983EC22C082C0838A82C9
:105698008B83A3A3A3E0600F8A828B83A3A3A3E4D5
:1056A800F0900396E014F0900395E014F0700690E3
:1056B800039774FFF08A828B83A3A3E4F09006C556
:1056C800E0700D900396E0640170057900120D19E1
:1056D800024925C082C083789B790388828983A385
:1056E800E412549BF01258DEE864C27003E96406C1
:1056F80070E9900395E4F0A3F0A374FFF075E1F16D
:1057080002492574F512182D750800750900750AE7
:10571800007E997F038E828F83A3A3A3E0602BE58D
:10572800084509601D850882850983125778121A71
:10573800531257741216931222FF74041217D3E9E6
:105748007008EEF8EFF988088909050AEE240DFEBD
:10575800EF3401FFE50AC3940340BA85088285093E
:1057680083A3A3A3A3E0F97F030218FF8E828F838C
:10577800125C4DA3A32274EE12182D8A0A8B0B8C8F
:1057880008890C900396E0F8E9C39850627AFF7B89
:10579800FF7C007899790388828983A3A3A3E060BA
:1057A8003F74FF6A700374FF6B700CE82473125A1D
:1057B80010640170218012E82473125A1064017079
:1057C8000DE824791258E75017E82479800BE8246B
:1057D8002E1258E7500AE8242E125A10FAA3E0FBBA
:1057E8000C1258DEECC3940340ADEAFEEB8018E9D6
:1057F8006010A3E0F875F00DA4C8AAF02A1258F4B6
:105808008005EA2AFEEB33FF8E0E8F0F7403780EA5
:1058180012179B900396E0F8C3E50E98E50F9400E5
:1058280050030258CAE50A25E0F50AE50B33F50BE3
:10583800E50825E0F508ED33F509AC0AAD0B80075E
:10584800EC2402FCE43DFDC3E5089CE5099D4060AD
:10585800C3EC9EED9F403FECF8EDF9EEFAEFFB123A
:1058680017328B0FEA450F60068E0E8F0F80067574
:105878000E00750F00ECF8EDF9EEFAEFFB12173297
:105888008A108B11EC9510F8ED9511F9E8250EFCAE
:10589800E9350FFD801AE0F8E50CC3985012EEF8D0
:1058A800EFF9ECFAEDFB1217328B0FEA450F709007
:1058B800C3EC950AED950B4009C3E5089CE5099DE5
:1058C80050067AFF7BFF8009ECFAEDC313FBEA135D
:1058D800FA7F0A0218FFE8240DF8E93401F922F5E5
:1058E80082E439F583C3E09AA3E09B22F974C728C0
:1058F800F582740339F583E0FEA3E02274F61218EA
:105908002D74FC1217BDEAFEEBFF8044EE2463F809
:10591800E43FF97A007B00A2AFE433F508C2AF8810
:10592800828983E0FCA3E0FDEC4D600F125C687097
:105938000A88828983A3A3E4F0A3F0E508A2E09291
:10594800AF1212A19006C6E004F09006C7E004F07A
:10595800EE2463F582E43FF583125CA370AE9006F3
:10596800C7E060358E828F83A3A3A3A3E085188246
:10597800851983F0A3E4F09006C7E0F874021218C2
:1059880009E8F0A3E4F07402121823AA18AB1979F5
:10599800011208819006C7E4F0EEFAEFFB120B3F04
:1059A800EEFAEFFB120C77740402511C74F712180C
:1059B8002DEAFEEBFF8E828F83A3A3A3A3E0FA7BDD
:1059C80000120857EEFAEFFB120B57120C5902534C
:1059D80058C082C0837A007899790388828983A322
:1059E800A3A3E06011E8246E125A106009125A0D40
:1059F80070047901800C0A1258DEEAC3940340DB74
:105A08007900024925E8246AF582E439F583E02221
:105A1800C082C083E490037D7808F0A3D8FC90038B
:105A28007D0402459974F712182D74FC1217BD8570
:105A38001882851983125680120B99E98518828578
:105A48001983F0120B997401121809E9F0120B99D5
:105A58007402121809E9F0851882851983121693C1
:105A680074041217D302535874F612182DEAFEEB79
:105A7800FFEC2403F8E43DF988088909EC2407F8C9
:105A8800E43DF9E8FCE9FD125ABD121732EE240D87
:105A9800125AB1125ABD1217328B09EA450960062B
:105AA800EE240D125AD002511FF582E43FF583E827
:105AB800F0A3E9F0228C828D83125CAF8508828581
:105AC8000983E0FAA3E0FB22F582E43FF583E024B2
:105AD80001F0A3E03400F02274F612182DEAFEEB70
:105AE800FFEE242E125B22FCA3E0FD780079FAEC8D
:105AF800FAEDFB121732EE246F125AB1780079FAD8
:105B0800ECFAEDFB1217328B09EA45096006EE2420
:105B18006F125AD002511FEE2483F582E43FF583B9
:105B2800E02274F412182DEAFEEBFF120CE98A0841
