:020000040000FA
:060000000201070221AD20
:03002B000223F3BA
:03003B0002241983
:030043000223CDC8
:0300530002222363
:10008300022003E5C754F84401F5C77901220000B3
:100093000080FB120086B900030200F1E4791A78AC
:1000A30002B800028004F709D8FCE4791C7802B88E
:1000B30000028004F709D8FCE490028178A5791A3C
:1000C3008002F0A3D8FCD9FA7A257B1C90013778FB
:1000D300E579018015E493A3AD82AE838A828B8395
:1000E300F0A3AA82AB838D828E83D8E9D9E7758288
:1000F3004A7583DB74031201197582917583007449
:100103000012011975D00075813F751881751902A8
:10011300759F00020096C09FF59FE473D09F22D085
:1001230083D082C09FE493C0E0740193C0E0740263
:1001330093F59F22BF03CB030104FB03FF0000B42D
:10014300000028002800283075A000A000A000A00F
:100153000000080008E001F000100010001000107B
:10016300001000100050005000500010001000D08C
:10017300070000000000000F0001000500307507B4
:10018300001000010081FF00000000FFFFFF0202DA
:10019300024C8501000036850246850100007F1C64
:1001A300024285010000B802024685010000801C5E
:1001B300023E85010000CE02FFFF0100FF20024C3A
:1001C300850100003985024685010000AE1C023C12
:1001D300850000000000025285030000FA021700A8
:1001E300FF0BFF0BFF0BFF0BFF0BFF0BFF0BFF0BBC
:1001F300FF0BFF0BFF0BFF0BFF0BDF0DFD0DD90DEE
:1002030001E803057710020AFFFFFF00FEFF060562
:10021300040302010000000012012247C903120176
:10022300225AC9031201227BC903120122E6C90320
:1002330012012227CA0312012248CA0312012269AA
:10024300CA03120122AACA0312012242CB031201DA
:10025300228ACB03120122EFB30312012202B40359
:1002630012012233B4031201226DB403120122C618
:10027300B4031201220DB50312012255B503120175
:100283002284B503120122B3B503120122EAB50396
:1002930012012231B6031201224AB6031201229F30
:1002A300B603120122CDB60312012207B7031201CE
:1002B3002290A60212012293A702120122C0A702D2
:1002C30012012211A80212012234A80212012246AD
:1002D300A80212012249A80212012287A8021201D0
:1002E30022FBA80212012267A9021201222FAA02ED
:1002F3001201224BAA0212012282AA02120122BC7B
:10030300AA0212012253AB02120122A5AB0212016F
:1003130022D6AB02120122D9AB021201220AAC028D
:1003230012012217AC021201222FAC0212012299F0
:10033300AC021201229CAC02120122A9AC021201EE
:1003430022ACAC0212012203AD0212012214AD024F
:100353001201224DAD0212012250AD02120122847C
:10036300AD0212012287AD02120122DBAD0212019E
:100373002224AE0212012234AE0212012267AE021F
:1003830012012274AE0212012277AE02120122DFA1
:10039300AE02120122E1AF0212012285B002120164
:1003A30022EEB0021201222CB1021201221ECF0250
:1003B30012012216D0021201224AD002120122E0B7
:1003C300D0021201222BD1021201228FD10212017B
:1003D3002219D202120122D2D202120122F4D50230
:1003E30012012271D70212012294D702120122FCB8
:1003F3009703120122A19903120122C19903120149
:1004030022E29A03120122359B0312012285A403DF
:10041300120122ADA403120122DAA4031201221253
:10042300A50312012270A503120122BCA503120128
:100433002223A60312012263A603120122A0A6030C
:10044300120122CEA60312012278A70312012282EF
:10045300A7031201228FA703120122C2A7031201CD
:1004630022CEA703120122E6A703120122F0A7035B
:1004730012012220D8031201222ED8031201224690
:10048300D8031201225ED80312012275D803120188
:10049300226AD90112012214DA0112012290DA012F
:1004A300120122AEDB01120122EADB0112012285D5
:1004B300DC0112012269DD011201222CDE0112018D
:1004C30022A4DE0112012232E001120122A3E00183
:1004D3001201225DE1011201224FE2011201228F7A
:1004E300E20112012243E30112012275E301120129
:1004F300226BE501120122ADE501120122CBE501D8
:1005030012012250E60112012214E70112012233E3
:10051300E9011201226BAC0312012281AC03120127
:10052300229FAC03120122B0AD03120122BAAD0324
:10053300120122E5AE03120122DCAF0312012249AC
:10054300B0031201220A8503120122AE85031201B0
:1005530022E585031201223C8603120122518803FE
:10056300120122568501120122078601120122235C
:100573008601120122EC8601120122F68601120184
:10058300221087011201221B8701120122F1870128
:10059300120122CE88011201222B8901120122BBF2
:1005A3008901120122728A01120122808D01120136
:1005B300226F8F01120122219001120122EA900180
:1005C3001201222F9401120122D994011201220255
:1005D3009601120122BE97011201225E98011201B7
:1005E30022AC9801120122EB9801120122BE99015B
:1005F300120122F299011201227F9A01120122357E
:10060300C701120122C1C70112012225C90112012A
:100613002231C9011201226CC901120122DBC90175
:10062300120122E4CA01120122EDCB01120122B40C
:10063300CC0112012211CE011201222FCE0112018F
:10064300224CCE0112012217CF011201223FCF010A
:1006530012012209D2011201220ED2011201222714
:10066300D40112012275D401120122E5D401120131
:100673002223D501120122FFD501120122BFD60187
:100683001201220BD7011201220ED70112012252AD
:10069300D7011201229AD701120122D9D7011201DF
:1006A30022FBD7011201222FD80112012292D80175
:1006B3001201220080031201220980031201221772
:1006C30080031201226A800312012289800312012E
:1006D30022CE8003120122128203120122AD820371
:1006E300120122F182031201221B83031201228AC7
:1006F3008303120122D083031201224784031201D0
:1007030022F884031201228C24001201229C24006B
:100713001201223D250012012299250012012256C1
:100723002600120122722700120122A427001201BF
:1007330022D32700120122802900120122F72B0065
:10074300120122672E00120122592F001201225298
:1007530030001201225932001201224D35001201DC
:10076300227C3600120122803800120122903900C7
:100773001201221F3B00120122103C001201225ED3
:100783003C00120122CD3C00120122F13C00120177
:1007930022423D00120122E34100120122E4420001
:1007A3001201224543001201227043001201223636
:1007B30044001201227EA80312012288A803120119
:1007C30022CDA803120122E1A80312012271A90379
:1007D30012012299A903120122D4A903120122FDB5
:1007E300A90312012231AA0312012246AA0312010C
:1007F30022B1AA03120122D2AA03120122E6AA03FA
:10080300120122FBAA0312012235AB031201229A21
:10081300AB03120122DDAB0312012207AC03120169
:100823002243AC03120122D1FE02120122A09B0239
:10083300120122839C02120122FE9C021201223920
:100843009D021201228A9E02120122139F021201AB
:10085300222BA102120122BDA3021201226FA402C4
:100863001201228EA502120122E7A502120122AE75
:10087300F902120122F1F90212012275FA021201A0
:100883002248FB021201221FFE0212012238C40376
:10089300120122E5C403120122F2C503120122311F
:1008A300C6031201228BC60312012290CF03120149
:1008B30022F3CF0312012290D003120122BED003F0
:1008C300120122DFD0031201221AD1031201223AAC
:1008D300D103120122008A031201228C8A0312011E
:1008E300224B8B03120122638C031201227D8E03A0
:1008F3001201226AC5021201228FC502120122636C
:10090300C602120122D0C60212012226C702120118
:1009130022C2C702120122F6C802120122D1C90261
:1009230012012230CA0212012201CB021201228DCE
:10093300CB0212012290CB02120122DACB02120166
:10094300224CCC02120122F7CC0212012217CD0253
:100953001201225FCD021201227BCD02120122F588
:10096300CD0212012203CE0212012292CE02120103
:1009730022FBCE02120122669303120122EB9303A0
:100983001201222D94031201221195031201227EDA
:100993009503120122C29503120122069603120146
:1009A300223396031201225B9603120122939603CC
:1009B300120122D19603120122F896031201227228
:1009C3009703120122BC9703120122E75C00120174
:1009D30022B45E00120122A26000120122F660001E
:1009E300120122216100120122CF6100120122FFB4
:1009F30061001201222E62001201224162001201E3
:100A030022826200120122AE6200120122FC620005
:100A13001201223363001201227F6300120122DEDE
:100A230063001201227164001201225B650012014E
:100A3300224A66001201222A6800120122496D002F
:100A4300120122A26D001201228B6F001201225AA1
:100A53007100120122DC71001201222A73001201BB
:100A6300223B7300120122D6C603120122C1C7031F
:100A730012012204C80312012253C803120122A443
:100A8300C803120122F5C803120122A24400120175
:100A930022234500120122504500120122994500EC
:100AA3001201229A4600120122E946001201226530
:100AB3004800120122E748001201224449001201B2
:100AC30022974900120122864A001201221B4C0080
:100AD300120122E54C00120122F54C001201221FE3
:100AE3004D00120122224D00120122054E00120177
:100AF30022F04E001201229D4F00120122FA4F00F4
:100B0300120122535000120122B750001201225F3A
:100B13005100120122FB51001201228852001201DE
:100B230022FD5200120122595300120122B8530030
:100B3300120122DF53001201229D54001201228E62
:100B43005600120122D75600120122075700120144
:100B5300227A5700120122005900120122B05900D3
:100B6300120122D55900120122145A00120122291E
:100B73005A001201226C5A00120122DC5A0012019F
:100B830022265B00120122305C00120122B15C00BC
:100B9300120122AABB02120122F5BB021201220199
:100BA300BC02120122D5BC02120122ECBC021201CA
:100BB3002229BD021201225ABD0212012292BD0254
:100BC300120122E8BD02120122FEBD021201223AE5
:100BD300BE021201224DBE0212012274BE02120194
:100BE30022A8BE02120122CEBF0212012218C102A4
:100BF30012012214C20212012231C302120122F88D
:100C0300FF0112012281F4021201222FF8021201C4
:100C13002263F9021201225E73001201222176007F
:100C2300120122277600120122E478001201223EEB
:100C33007B00120122B48E031201224B8F03120197
:100C430022099003120122339003120122699203B5
:100C5300120122759B01120122B09B011201220491
:100C6300A60112012270A7011201226DA80112012F
:100C730022F2AB01120122D8AC0112012224AD01F0
:100C83001201223EAD011201227FAD011201228821
:100C9300AD0112012238AE0112012208AF01120187
:100CA300224FAF01120122B5AF0112012227B00179
:100CB3001201221FC103120122FCC10312012240AF
:100CC300C2031201227AC20312012212C3031201C8
:100CD3002281C3031201228AC30312012296C30392
:100CE300120122B0C303120122DAC3031201220A42
:100CF300C40312012280E8021201228DE8021201CC
:100D030022A7E802120122DAE80212012218E902FC
:100D13001201227DE90212012292E902120122A9A3
:100D2300E902120122B7E902120122C6E902120105
:100D330022DBE902120122F0E902120122FBE9029D
:100D430012012207EA0212012214EA0212012223EB
:100D5300EA021201222EEA0212012253EA021201CE
:100D630022F7EA021201220CEB0212012221EB020A
:100D73001201223BEB0212012258EB0212012275EF
:100D8300EB0212012280EB021201222CEC0212016F
:100D9300220DED0212012232ED021201223DED027B
:100DA30012012252ED0212012266ED02120122C744
:100DB300ED02120122CDED02120122D3ED02120146
:100DC30022D9ED02120122F1ED0212012224EE02D8
:100DD30012012252B10212012274B1021201223C09
:100DE300B202120122F6B4021201220CB60212015F
:100DF300222DB70212012207B802120122B6B8024D
:100E03001201221D8E02120122B48E021201224C03
:100E13008F021201223C90021201227390021201EE
:100E230022869002120122F490021201228F920272
:100E3300120122B692021201225893021201228D4C
:100E430093021201229E93021201221794021201AD
:100E530022389402120122509402120122A8950210
:100E6300120122B19702120122019A0212012204F5
:100E73009B02120122539B0212012240E90112013B
:100E8300223DEA0112012228EB0112012232EB0179
:100E930012012254EB0112012260EB01120122B272
:100EA300EC01120122E1EC0112012211EE01120107
:100EB3002253EE011201227FEF0112012255F001AC
:100EC300120122A7F00112012206F1011201223DB3
:100ED300F10112012278F10112012213F50112012D
:100EE300222CF501120122AEF501120122BCF501FB
:100EF30012012211F6011201221FF6011201228CA6
:100F0300F601120122FEF60112012244F701120139
:100F13002248D1031201226DD103120122DED10333
:100F2300120122CDF701120122D6F701120122DFAD
:100F3300F70112012210F9011201222FFB01120104
:100F43002265FB011201229FFB01120122D5FB0145
:100F53001201220FFC0112012243FC011201226F34
:100F6300FC01120122B8FC01120122F2FC01120160
:100F7300223AFD0112012290FD01120122C5FD0159
:100F830012012220FE011201225AFE01120122AB9C
:100F9300FE01120122E1FE011201221BFF011201D7
:100FA300223EFF01120122517F001201227D7F00A8
:100FB300120122D87F00120122E27F00120122F2E5
:100FC3007F00120122A6EE02120122E5EE021201B7
:100FD300226EEF0212012283EF02120122CEEF02F0
:100FE30012012202F00212012241F00212012250E8
:100FF300F00212012205F1021201225EF102120136
:1010030022ADF10212012206F20212012213F302AF
:101013001201220CF40212012249F4021201228B62
:10102300DA0312012273B101120122F3B301120197
:101033002267B501120122C4B5011201226DB60166
:101043001201226AB701120122F2B7011201227EB4
:10105300B801120122A3B801120122F3B80112014F
:101063002294BB0112012205BC01120122F1BC0131
:101073001201222BBD011201226BBD011201220BB1
:10108300BF011201223CBF0112012291BF011201D3
:1010930022DEBF011201224FC00112012272C001E0
:1010A3001201228CC001120122A2C101120122B23B
:1010B300C10112012243C30112012263C3011201C0
:1010C3002299C3011201221DC50112012296C501F5
:1010D300120122D5C50112012207C701120122B74D
:1010E300CD031201221BCE03120122D6CE0312011D
:1010F30022F5CE0312012249CF0312012264DC033D
:101103001201229DDB03120122DCDB03120122E523
:10111300FF021201229BD903120122ABD903120150
:1011230022C3D9031201220CDA0312012226D603A9
:10113300120122AAD60312012210D703120122FCA4
:101143007F00120122CABA03120122DFBA0312017D
:101153002203BC031201226DBC03120122E1BC0372
:10116300120122FBBC0312012212BD03120122252C
:10117300BD031201223DBD0312012252BD03120120
:101183002273BD03120122C4BD0312012253B00313
:101193001201226AB003120122E3B003120122B842
:1011A300B1031201228AB303120122F9BD03120112
:1011B300228BBE0312012209BF0312012290BF0337
:1011C30012012222C00312012279C00312012283D9
:1011D300C00312012292C003120122A8C00312010C
:1011E30022BBC0031201221CC1031201229CD4039F
:1011F300120122C5D403120122EED4031201228765
:10120300D5031201229FD503120122E1D503120156
:1012130022B7D802120122C1D80212012201D90237
:101223001201224AD90212012284D902120122DABE
:10123300D902120122F9D9021201227EDC02120123
:101243002287DC02120122D8DC0212012201DD0214
:1012530012012216DD0212012286DD02120122147E
:10126300DE0212012258DE0212012280DE02120186
:1012730022FFDE0212012242DF021201227FDF027D
:1012830012012291DF02120122B0DF02120122B900
:10129300DF021201227EE002120122FED2031201BA
:1012A300224FD303120122D8D3031201223ED403C7
:1012B3001201226FB70312012299B703120122937D
:1012C300B803120122B8B80312012259B90312015B
:1012D30022DFB90312012229D703120122B5CB035E
:1012E300120122EBCB0312012224CC031201227D33
:1012F300CD0312012215DA031201222BDA031201A4
:101303002235DA03120122EBDA03120122AAE002E8
:1013130012012267E102120122A2E102120122CA92
:10132300E1021201222CE20212012278E2021201EE
:1013330022E3E2021201225FE3021201225BE402D2
:10134300120122E2E50212012265E602120122C91C
:10135300E602120122E0E602120122D6E70212019E
:101363002222E8021201226BA00312012280A003B1
:1013730012012233A10312012273A1031201228C51
:10138300A103120122BFA1031201220CA203120125
:101393002240A20312012282A20312012278A40393
:1013A3001201220080021201221C80021201225922
:1013B30080021201220F82021201223983021201DA
:1013C30022328402120122CD8602120122278802D0
:1013D3001201224A8802120122E989021201223BE8
:1013E3008A02120122C98A021201225B8C021201B3
:1013F30022978D02120122CCFF01120122429C038B
:1014030012012205D9031201222FD903120122E668
:10141300DB031201221DDC0312012246DC03E0661A
:10142300701008A3E066700A08A3E066700408A3BE
:10143300E06622C3E09608A3E09608A3E09608A31B
:10144300E096A2D265D03322C3E7960809E796084F
:1014530009E7960809E79622C3E09608A3E09608F1
:10146300A3E09608A3E09622C008C3E096F5080817
:10147300A3E096420808A3E096420808A3E0964535
:10148300087001D3D00822080808EAC0E0EBC0E0E6
:1014930086F0E7A4FA180986F0E7A42AFA18098661
:1014A300F0E7A42AFA180986F0E7A42AFA1986F0C5
:1014B300E7A4FBE5F02AFA190886F0E7A42BFBE57D
:1014C300F03AFA190886F0E7A42BFBE5F03AFA188C
:1014D300180986F0E7A4C5F02BFBE43AFA1908E7EC
:1014E300C5F0C6A426F6E5F03BFBE43AFA1886F00D
:1014F300E7A4F6E5F00826F6E43B08F6E43A08F636
:10150300D0E0FBD0E0FA22E4CFC0E0E4CEC0E0E4D8
:10151300CDC0E0E4CCC0E075F020E626F608E63363
:10152300F608E633F608E633F6181818EC33FCED44
:1015330033FDEE33FEEF33FFC3EC9709ED9709EE6E
:101543009709EF97191919400FFFEC97FC09ED97CD
:10155300FD09EE97FE191906D5F0BFECF709EDF773
:1015630009EEF709EFF7191919D0E0FCD0E0FDD027
:10157300E0FED0E0FF22E4C396F608E496F608E422
:1015830096F608E496F6226016080808C6C313C642
:1015930018C613C618C613C618C613C6D5E0EA2262
:1015A3007009080808226016181818C6C333C6083D
:1015B300C633C608C633C608C633C6D5E0EA22E634
:1015C30027F60809E637F60809E637F60809E63785
:1015D300F622E026F608A3E036F608A3E036F6087E
:1015E300A3E036F622E026F008A3E036F008A3E0F5
:1015F30036F008A3E036F022C3E697F60809E6972B
:10160300F60809E697F60809E697F622C3E096F08E
:1016130008A3E096F008A3E096F008A3E096F02272
:10162300E657F60809E657F60809E657F60809E605
:1016330057F622E056F608A3E056F608A3E056F65E
:1016430008A3E056F622E056F008A3E056F008A3FC
:10165300E056F008A3E056F022E066F608A3E06641
:10166300F608A3E066F608A3E066F622E0F608A310
:10167300E0F608A3E0F608A3E0F622E6F008A3E606
:10168300F008A3E6F008A3E6F022E0FAA3E0FBA348
:10169300E0FCA3E0FD22EAF0A3EBF0A3ECF0A3ED62
:1016A300F022E0F8A3E0F9A3E0FAA3E0FB22E8F0DC
:1016B300A3E9F0A3EAF0A3EBF022CAC0E0E6F0A3AB
:1016C30008DAFAD0E0FA22CAC0E0E0A3C582CCC5AA
:1016D30082C583CDC583F0A3C582CCC582C583CD26
:1016E300C583DAE6D0E0CA22C3E498F8E499F91294
:1016F300172C8026C3E49AFAE49BFBE920E7E9125E
:10170300172CE498F8E499F922C3E498F8E499F9DA
:1017130012172CE498F8E499F9C3E49AFAE49BFBD2
:1017230022EB20E7CFE920E7E0B90010BB0008E88F
:101733008AF084F8AAF022E4FBC8FA22EB70227B39
:1017430010C833C8C933C9335007C39AC3DBF28007
:10175300069A50012ADBEAC833F4C8C933F4C9FA3C
:101763002275F008E4C833C8C933C933C99AC99B81
:101773005004C92AC93BD5F0ECFBC833F4C8E4C90B
:10178300FA22600D08C6A2E713C618C613C6D5E031
:10179300F322600C08C6C313C618C613C6D5E0F4FB
:1017A30022700422600D18C6C333C608C633C6D5DB
:1017B300E0F41822251810AF08F518400C1519800D
:1017C30008F51840021519D2AF2200C0D025181011
:1017D300AF08F518500C05198008F51850020519C3
:1017E300D2AFD0D0222518F58210AF08F518400CDF
:1017F30015198008F51840021519D2AF85198322EF
:101803002518F582E43519F583222518F8E43519EE
:10181300F9222518FAE43519FB222518FCE43519B9
:10182300FD22E4732518C582C0E0E51934FFC583A2
:10183300C0E0E518C3958224F810AF0885831985A5
:1018430082188008858319858218D2AFCEF0A3E56C
:1018530020F0A37808E608F0A3DEFAEFF0A3E58111
:1018630024FAF8E608F0A3E608F0A3E608F0A308D4
:1018730008E608F0A3E608F0A315811581D0E0FE81
:10188300D0E0F8158115811581E8C0E0EEC0E022B3
:101893002518C582C0E0E51934FFC583C0E0E5180B
:1018A300C3958224F910AF088583198582188008AF
:1018B300858319858218D2AFCEF0A3E520F0A378F3
:1018C30008E608F0A3DEFAEFF0A3E58124FBF8E6CF
:1018D30008F0A3E608F0A30808E608F0A3E608F07A
:1018E300A315811581D0E0FED0E0F815811581E8BC
:1018F300C0E0EEC0E022851983851882E0A3FEE0F4
:10190300A3F5207808E0A3F608DFFAE0A3FFE0A33D
:10191300C0E0E0A3C0E0E0A3C0E0E0A3C0E0E0A338
:10192300C0E010AF08858218858319800885821866
:10193300858319D2AFD083D08202011F8519838595
:101943001882E0A3FEE0A3F5207808E0A3F608DF01
:10195300FAE0A3FFE0A3C0E0E0A3C0E0E0A3C0E09F
:10196300E0A3C0E010AF088582188583198008853D
:101973008218858319D2AFD083D08222C0D0251894
:10198300C582C0E0E51934FFC583C0E0E518C395FF
:101993008224F310AF088583198582188008858314
:1019A30019858218D2AFC8F0A3E9F0A3EAF0A3EB3C
:1019B300F0A37908E709F0A3D8FAECF0A3EDF0A3BC
:1019C300EEF0A3EFF0A3D0E0F0A3D0E0F0A3D0E0DB
:1019D300F0A3E520F0A3E5F0F0A322851983851891
:1019E30082E0C0E0A3E0F9A3E0FAA3E0FBA3780858
:1019F300E0F608A3DFFAE0FCA3E0FDA3E0FEA3E02A
:101A0300FFA3E0C0E0A3E0C0E0A3E0F5D0A3E0F5CE
:101A130020A3E0A3F5F010AF088583198582188011
:101A230008858319858218D2AFD082D083D0E0F89D
:101A3300D0E03274048006740280027401C0E0F4C2
:101A4300041217E8D0E01216BD2274048004740255
:101A53008000CCC0E0EDC0E0E518C39CCCAD1950CC
:101A6300011D10AF068C188D1980068C188D19D2A4
:101A7300AF1216CAD0E0FDD0E0FC22D083D082E9B9
:101A8300C0E0E493A3C386F0C5F095F0F908E493AE
:101A9300A386F0C5F095F0700BE493A3C3994005BA
:101AA300E9048002A3E475F002A42582F582E5F03F
:101AB3003583F583D0E0F9E493A3C0E0E493C0E079
:101AC30022D083D082ECC0E0EDC0E0E493A3FCE439
:101AD30093A3FDED4C600D121B10EC24FFFCED34C1
:101AE300FFFD80EFE493A3FCE493A3FDED4C600DB5
:101AF300121B4FEC24FFFCED34FFFD80EFD0E0FD23
:101B0300D0E0FCE493A3C0E0E493C0E022C0E0C3D0
:101B1300E49396087401939618400FE49366700853
:101B230008740193661870007019A3A3C3E4939615
:101B3300087401939618A3A3400DD0E0D0E0D0E041
:101B4300021B00A3A3A3A3A3A3D0E022C0E0C0F081
:101B530088F0E4936670080874019366187000A80F
:101B6300F0A3A3700BD0F0D0E0D0E0D0E0021B00D4
:071B7300A3A3D0F0D0E02293
:101B7C0074F6121893EAFEEBFF8C088D09EE2434F0
:101B8C00F8E43FF9E8FCE9FDEE2435121E48FAEEC4
:101B9C002437121E48F88508F0A4C885F00A850978
:101BAC00F0A4250AF9EA28F8E439F97A257B001221
:101BBC00172CEA8C828D83F0FA131313541FF8EE52
:101BCC0028F8E43FF9E8245DF582E439F583E0C0B8
:101BDC00E074075AF8D0E0B800028004C313D8FCB4
:101BEC00A2E0EE50082434F582E43F80182436122B
:101BFC001E48F5F0EA84A8F0EE28F8E43FF9E82452
:101C0C0038F582E439F583E0F97F0302193F74F764
:101C1C00121893EAFEEBFFEE2434121E48C0E0EEDD
:101C2C002435F582E43FF583D0E0F08E828F83A3D8
:101C3C00A3A3A3A3A3A3C082C0838E828F83A3A3D9
:101C4C00A3A3A3E0F8A3E0F9D083D082E0C398F576
:101C5C0008A3E099F509EE247F121E486401703E3A
:101C6C00EE2480F582E43FF583C082C0838E828FA0
:101C7C0083A3A3A3A3A3E0240108A3E03400F9D019
:101C8C0083D082E0687003A3E06970127CC07D068B
:101C9C00120B33EE247FF582E43FF583E4F0AC08BD
:101CAC00AD09EEFAEFFB121B7CE9F91223BF7F02A0
:101CBC0002193F74EF121893900369E064086005F1
:101CCC00E06407702A9061C8E06024900397E0F408
:101CDC00601DE0F875F00DA4C8AAF02AF9749928D3
:101CEC00FE740339FF8E828F83A3A3A3E0700302DB
:101CFC001DCD906060E0C0E0EE2468F582E43FF515
:101D0C0083D0E0F0750CFC750D06750800750900A4
:101D1C00E5D914F50AE5D95403F50E601274036580
:101D2C000E6043E50A600AEE2467121E48700280BA
:101D3C00759006F7E06401601F121E4560047A047A
:101D4C0080027A00E50AC39AFA95E0FB1209DD8A53
:101D5C00088B09EA45097005120DB58064121E4501
:101D6C0070048A0C8B0DE50A6012850C82850D833C
:101D7C00F50BE5D9F0A3150BE50B70F6121E4560BB
:101D8C004474FC250AF50A780C121A3AAC0AA90E0E
:101D9C00EEFAEFFB120BF974021217CDE97026AABA
:101DAC0008AB091212A1793D8E828F83A3A3A3A342
:101DBC00E0FA7B00120857EEFAEFFB120B57120CED
:101DCC00597900806F7403650E6051850A10751186
:101DDC00007810121A3AAC0CAD0DAA08AB09120B14
:101DEC00BD74021217CDEE2468121E486480700474
:101DFC00747F8001E0F50C780C121A3EE50EF50CA0
:101E0C00780C121A3EA90AAC08AD09900397E0FAB7
:101E1C007B0012082774021217CD8013900369E01F
:101E2C006408700BAC0CAD0DEEFAEFFB120C291222
:101E3C000DC179017F0A02193FEE2483F582E43F3C
:101E4C00F583E02274F212189374FC1217B7EAFEB1
:101E5C00EBFF8909A2AFE433F508C2AF021F1AE009
:101E6C00601B780C121A3AAC0BA90EEEFAEFFB12AF
:101E7C000BF374021217CD7404250BF50B740125AA
:101E8C000BF5D9850ED9E50B6018F50A850C828502
:101E9C000D83E0F5D9A385820C85830D150AE50A1F
:101EAC0070EA75E195EE2463F8E43FF97A007B0063
:101EBC00A2AFE433F50BC2AF88828983E0FCA3E0C8
:101ECC00FDEC4D603A88828983E0FAA3E0FB8A82BC
:101EDC008B83E0FCA3E0FD88828983ECF0A3EDF01A
:101EEC008A828B83E4F0A3F088828983E0FCA3E0F0
:101EFC00FDEC4D700A88828983A3A3E4F0A3F0E57E
:101F0C000BA2E092AF1212A19006C7E004F0EE24EF
:101F1C0063121E48F8A3E0F9E8496064EE246312EA
:101F2C001E482402F8A3E03400F988828983E582F4
:101F3C002402F50CE43583F50DE0F50BA3E0F50E6A
:101F4C00EE2462121E48640170369061D0E0F812E3
:101F5C001E4560047C0480027C007480C398FA9552
:101F6C00E0FBE50B2CF8E43400F9E82402F850010E
:101F7C0009C3EA98EB99A2D265D0334003021E6BD9
:101F8C009006C7E0604D9006C8E0F89006C7E0C325
:101F9C0098500C74026509703A9006C9E060348E52
:101FAC00828F83A3A3A3A3E0851882851983121FB4
:101FBC00EF7402121803E8121FEF9006C6E028F027
:101FCC00740212181DAA18AB197901120881900617
:101FDC00C7E4F0E508A2E092AF74041217CD7F07B6
:101FEC0002193FF0A3E4F09006C7E0F822000000CD
:101FFC00851A87851BC622C0E074EB12197FA2AF2D
:10200C00E433F508C2AF759B00906182E0A2E0500A
:10201C0030E591A2E0502A7591FE7401651A702189
:10202C00122196120CE9122184121A4D1222FB7401
:10203C00041217CDE9640170057901120D19121CF7
:10204C00BF906182E0A2E5505DE591A2E550577525
:10205C0091DF900369E064076005E06408702F125B
:10206C0021967401651A703E120CE9122184121A21
:10207C004D1222FB74041217CDE96401700579012D
:10208C00120D197901EEFAEFFB121E508018E06464
:10209C000D701390038BE004F064287002E4F07A66
:1020AC0000E0F9120DC7906182E0A2E64003022124
:1020BC0059E591A2E640030221597591BF9003693D
:1020CC00E064057008120CD1120CDD8003120CD7E1
:1020DC00751A00120D37E990036AF07900120D1988
:1020EC00120A9D7A017B00900368E0F9121271903C
:1020FC007803E0644270569006FBE014F0704EC218
:10210C00AF12211000781DD0E0F618D0E0F6E59F54
:10211C005407F87005750DFF8003750D7FC4C0E082
:10212C00781CE6F50A08E6550DF50B740B780A12C7
:10213C001795D0E0250AF8906270E0A2E740F8E825
:10214C00C333906272F0906270E0D2E0F0906181E3
:10215C00E0A2E35009E5E9A2E3500375E9F7A3E037
:10216C00A2E75009E591A2E7500375917FE508A21B
:10217C00E092AF7F080219DE8E828F83E0F8A3E035
:10218C00C82416F582E438F58322900397E0F8759D
:10219C00F00DA4C8AAF02AF9749928FE740339FF2B
:1021AC0022C0E0C0D0C082C083906183E0A2E05026
:1021BC0009E5BFA2E0500375BFFEE0A2E15009E5BE
:1021CC00BFA2E1500375BFFDE0A2E25009E5BFA23A
:1021DC00E2500375BFFBE0A2E35009E5BFA2E35058
:1021EC000375BFF7E0A2E45009E5BFA2E450037504
:1021FC00BFEFE0A2E55009E5BFA2E5500375BFDFD4
:10220C00E0A2E65009E5BFA2E6500375BFBFD0833C
:10221C00D082D0D0D0E032C0E074F212197FE5A7A2
:10222C00A2E6500FE5A1A2E6500953A7BF75A1BFC6
:10223C00122277E5A7A2E5500CE5A1A2E5500653C2
:10224C00A7DF75A1DFE5A7A2E15009E5A1A2E15046
:10225C000375A1FDE5A7A2E2500CE5A1A2E2500690
:10226C0053A7FB75A1FB7F010219DE74F7121893BB
:10227C00751A01900369E064067015120C7D8A8250
:10228C008B83A3A3A3A3A3A3E0FAA3E0FB120CBF2D
:10229C00A2AFE433FED2AF90036FE0640170187A02
:1022AC00207B00900368E0F912138B7A207B00905E
:1022BC000368E0F9121277906182E0D2E6F09006A2
:1022CC00F8E0602185C61B801690036EE0640170F7
:1022DC0008E5C654F84405F5C653BEFC121FFC7441
:1022EC0001651A60E4EEA2E092AF7F0202193F741E
:1022FC00F11218938A088B098C0A8D0B9084C6787E
:10230C0008121636740F121803780C12166F90847C
:10231C00C6780C1216367808790C12144B90852E50
:10232C0050107808790C1215FB780812146B4014B5
:10233C00800E780C79081215FB780C12146B500473
:10234C007901800279007F0802193F74ED1218930D
:10235C008A088B098C0A8D0B9084C6780812163665
:10236C007413121803780C12166F9084C6780C1222
:10237C001636780C790812144B40117808790C1227
:10238C0015FBAA08AB09AC0AAD0B802275100075C1
:10239C0011007512007513017810790C1215FB7869
:1023AC001079081215C2AA10AB11AC12AD137F0C28
:1023BC0002193FC082C083E9906000F0D083D082C4
:1023CC0022C0E074F212197FA2AFE433FED2AFC286
:1023DC00C0E5D1A2E4500675D10F1211E7EEA2E0D0
:1023EC0092AF7F010219DEC0E0C0D0E8C0E0E9C0C6
:1023FC00E0A9A8D2AFC2C7E9A2E7E433F8E9A2E7A3
:10240C0092AFD0E0F9D0E0F8D0D0D0E032C0E0C04C
:10241C00D0E8C0E0E9C0E0EAC0E0C082C083A2AF6F
:10242C00E433FAD2AF900F5DE0F8A3E06870085384
:10243C009AFBA374018022C2E9900F5DE0F874014D
:10244C0028F074DD28F582E4340EF583E0F5C190B4
:10245C000F5DE0C394804002E4F0EAA2E092AFD0BA
:10246C0083D082D0E0FAD0E0F9D0E0F8D0D0D0E040
:07247C0032C2AF0200002292
:10248400FFFFFFFFFFFFFFFFC082C083E9901CAD89
:10249400F0D083D08202011F74F6121827E990024B
:1024A400DCF090033BE0F50875090074027808122B
:1024B40017A4AA08AB091212E99002DD122E4F905C
:1024C40002DD12323C606F90033BE075F003A4FA26
:1024D400ABF01212E99002FA122E4F9002FA123265
:1024E4003C700B9002DD12320D1212EF8048900204
:1024F400FA1241A17AFF7BFF1210DF7A0080198A59
:1025040008750900740278081217A4123C4974FF74
:1025140012264FE4F0A3F00A90033BE0F8EAC398D4
:1025240040DD790512071F9002DCE0F912060B7AF0
:10253400A97B0712097D023CEC74F41218278A085F
:102544008B09EB548060479002DCE0F91212598A3F
:102554000A8B0BAE0AAF0BEE4F602A8E828F83E09C
:1025640064B0701A120731E960148E828F83A3A3BA
:10257400A3A3E0F9EE2405FAE43FFB120701EEFA07
:10258400EFFB121247AA08E5096480FB80047A0075
:102594007B0002279F74F212182774FB1217B7EA04
:1025A400FEEBFFEE4F60457403121803EEF0A3EF49
:1025B400F0851882851983ECF0A3EDF074021218EB
:1025C40003E9F0AA18AB19120605E9F50870757449
:1025D40013121803E0F50AA3E0F50BE50A450B60B6
:1025E400638E828F83122BD8EE4F7005750802809C
:1025F400537A067B001212E98A0C8B0DA80CA90DE4
:10260400E8497005750813803B88828983E41226A3
:102614004FEEF0A3EF12276BE50AF0A3E50BF09061
:1026240002E01227649002E06017E0FCA3E080035C
:10263400EAFCEBFD8C828D8312276470F38C828D0F
:1026440083123864A9087405024421F0A31241835B
:10265400A32274F21218278908890C750D007403DB
:10266400780C1217A4850C0A850D0B9002DFF090EC
:1026740002DD12366F122762602E1212EF7900808B
:102684001D890C750D007402780C1217A49002DDDC
:10269400123B088882F583A3A3E4F0A3F009900316
:1026A4003BE0F8E9C39840D990033BE0FA850AF08F
:1026B400A4CAA8F0850BF0A428FB1212E98A0C8B9B
:1026C4000DAE0CAF0DEE4F700302275890033BE0A4
:1026D400FC850AF0A4CCA8F0850BF0A428FD7900B1
:1026E40012122F7C0080318D0C750D007403780C50
:1026F4001217A48A828B8312275D88828983E4F06F
:1027040012276AA3A3F0A3F00DEDC3950840D8EEF9
:10271400250AFEEF350BFF0C90033BE0F8ECC39861
:1027240050288C0C750D007402780C1217A49002BA
:10273400DD12275DE82402500109FAE9FB8A828B45
:1027440083EEF0A3EFF07D0080BFE5089002DFF098
:10275400790080027913024424123B0CF922A3A3CA
:10276400123211EA4B22A3124183A3A3A32274F4CD
:102774001218277900EAA2E0501F7508B47509847D
:102784007808121A3A79107C047D007AAF7B1C1207
:10279400071974021217CDE9F980007F040218F9B1
:1027A400C082C0839002E012323C601C888289831C
:1027B400A3A3E06A7003A3E06B8882898370E8A313
:1027C400A3A3A312320D80047A007B000224957423
:1027D400F212182774FD1217B7EAFEEBFF85188270
:1027E400851983E4F0A3F074021218037401F01243
:1027F400323970141208CF1212E99002E3122E4FEC
:102804001232397003022965122F4FEE2404F50A9F
:10281400E43FF50B850A82F583E024FE603C24FC4A
:10282400607424FE607E24FE70030228B524FE70CA
:10283400030228C224FE70030228CF24FE70030280
:1028440028DC24FE70030228E924FC700302290A10
:1028540024FE700302292202295E1208CF9002E5A9
:10286400EAF0A3EB122971120263E9600302295E04
:102874009002E5121A518E828F83A3A3A3A3A312FD
:1028840041A185088285098312320D1206E974027A
:102894001217CD02295EAC18AD19EEFAEFFB120740
:1028A4003702292DAC18AD19EEFAEFFB12073D8063
:1028B40078AC18AD19EEFAEFFB120743806BAC1835
:1028C400AD19EEFAEFFB120749805EAC18AD19EEB4
:1028D400FAEFFB12074F8051AC18AD19EEFAEFFB7B
:1028E4001207558044740212180D880C890D780C57
:1028F400121A3A740212181DEEFAEFFB12075B74F7
:10290400021217CD8023AC18AD19EEFAEFFB1207B3
:1029140061E9F870167402121803E4F0803CAC18F4
:10292400AD19EEFAEFFB120767E9F8E8602C8E8226
:102934008F83A3E064146022850A82850B83E09070
:1029440002E5F085188285198312320D9002E61291
:102954002E4FE8A312297112025DEEFAEFFB120664
:10296400BF7402121803E0F97403024421F07CE5F9
:102974007D028508828509831232112274E81218B7
:102984002774FA1217B77404121803ECF0A3EDF0CD
:102994008A128B13EA2405F50EE43513F50FEA24A5
:1029A40002F510E43513F511851082F58312320D0A
:1029B4001203A78A0A8B0B7508007C037D0079003B
:1029C4007AE57B0212122FE50E2402F516E4350F88
:1029D400F517740212180D880C890D780C121A3A26
:1029E400850E82850F83A3A3A3A3E0F50C750D00C8
:1029F400780C121A3AE50E2405F50CE4350FF50DA2
:102A0400780C121A3A851682851783123514120629
:102A14002374061217CD8A0C8B0DE50C450D70033B
:102A2400022BA18020851882851983E088828983FE
:102A3400F00508851882851983A3E0C0E0122BE213
:102A4400D0E0F00508E50A24FBFAE50B34FFFBC3EC
:102A5400E5089AE49B4003022BA17E007F008512C7
:102A640082851383A3A3A3A3E0F5097809121A3E70
:102A7400E4F514F5157814121A3A7514E275150272
:102A84007814121A3A9002E3121A517409121803B4
:102A9400121A51E50A24F9F9AC0CAD0D85108285A2
:102AA400118312320D12079174091217CDE96003D4
:102AB400022B42850E82850F83A3A3A3A3A3A3A302
:102AC400E0F89002E2E0687075E0F5148E15781471
:102AD400121A3A12419E850E82850F83A3A3A3A3E3
:102AE400A3A3A3A312320D12122974021217CDE963
:102AF400604C9002E612323C703BE4F514781412F8
:102B04001A3A7CFF7DFF7907851082851183123282
:102B14000D1206FB74021217CD1232427017850E85
:102B240082850F8312433B7404121803123BFC1278
:102B34003545022BD5850C82850D83122BD8A81818
:102B4400A919881489157814121A3A7404121803EE
:102B5400121A51851682851783122E4512062F7478
:102B6400041217CD8A0C8B0DEE4F7003022A1E122D
:102B74002BE2EE122BED1234FBEF122BEDF8A3E057
:102B84003400F9E50C450D6003022A298882898303
:102B940074FFF00508122BE274FFF00508E50860E5
:102BA4001A1313543F122E5512026FE96009900252
:102BB400E612320D1212A179008016850E82850F5D
:102BC4008312433B7404121803123BFC12386479D9
:102BD4000A0234CEA3A3A3A3E0FEA3E0FF22A80825
:102BE4009002E6E0281234FB22F00508089002E681
:102BF400E0282274E812182774FA1217B774021224
:102C04001803122E4F7404121803ECF0A3EDF074A1
:102C140002121803E024051234E4E0F50CA3E0F5F5
:102C24000D7402121803E02402F510A3E03400F539
:102C340011851082F58312320D1203A775080075F1
:102C44000900EA24FCFEEB34FFFF8008050CE50CC8
:102C54007002050DA808C3EE98EF94005003022EED
:102C640001A818A919880E890F780E121A3A85142A
:102C740082851583A3A3A3A31241A5121A3AE514CE
:102C84002405F50EE43515F50F780E121A3A85145D
:102C940082851583122E4312062374061217CD8AD9
:102CA4000E8B0FEA450F7003022E01EA2404F51679
:102CB400E4350FF517851682F583E0F50CA3E0F5EE
:102CC4000D8518828519831241A18A828B83A3A35F
:102CD400A3E0F985108285118312320D120611E9E1
:102CE400F5096003022E01740212180312350BF564
:102CF400097809121A3EE4F512F5137812121A3AF9
:102D04007512E27513027812121A3A9002E3121A3B
:102D1400517407121803121A51EEF9AC0EAD0F8557
:102D2400108285118312320D12079174091217CD86
:102D3400E9F5096003022E01E508703FE4F50EF59C
:102D44000F780E121A3A7CFF7DFF7909851082856F
:102D5400118312320D1206FB74021217CD12353193
:102D6400700D7404121803122E387911022E359046
:102D740002E2E024029002E6F080149002E6E0FA17
:102D84009002E2E0790024025001096A497072A8B5
:102D9400089002E2E0FAE82AFAE43400FBEE9AEF43
:102DA4009B405A851682851783E0C0E09002E712A3
:102DB4002BE7D0E0F00508851682851783A3E0C0D1
:102DC400E0089002E7122BE7D0E0F005089002E259
:102DD4001241A5121A3A12419EA8081234D81212AE
:102DE4001774021217CD9002E2E02508F50874FF6B
:102DF400650C700474FF650D6003022C50E50860D7
:102E04001F9002E6E0F5F0E50884122E55120275D3
:102E1400E960099002E712320D1212A179008011C3
:102E2400E509700375090A7404121803122E38A9EF
:102E3400090234CE123673E50CF0A3E50DF022A39B
:102E4400A3124430AA0CAB0D22A3A3EAF0A3EBF027
:102E5400229002E5F07CE57D0285108285118312C3
:102E640032112274EC12182774FC1217B712397439
:102E7400740212181D1232071206298A0C8B0DEAED
:102E8400450D7003022F3F122F4FA818A91988105F
:102E940089117810121A3A7CFF7DFF790B8508821C
:102EA40085098312320D1206FB74021217CD1230FB
:102EB40045700C850A82850B83123542022F4C8E95
:102EC400828F83A3A3A3A3E0F5127812121A3EE41F
:102ED400F512F5137812121A3A7512E57513027881
:102EE40012121A3A7810121A3A7409121803121AA2
:102EF400517409121803E0F9AC0CAD0D85088285F4
:102F0400098312320D12079174091217CDE9FE706C
:102F1400157CE57D0285088285098312320D120233
:102F24007BE97009802074166E70027E009002E6C0
:102F340012320D1212A1EE7004800B7E01850A82FA
:102F4400850B83123861EEF9023876EE2402F50817
:102F5400E43FF5092274EC12182774FC1217B7EA3F
:102F6400FEEBFF8C0E8D0FEE2405F508E43FF5090A
:102F7400740212181D85088285098312320D120607
:102F8400298A0C8B0DEA450D7003023035EE2402BC
:102F9400F50AE43FF50BA818A919881089117810CF
:102FA400121A3A7CFF7DFF790D1232071206FB7468
:102FB400021217CD123045700B85088285098312E1
:102FC4003542807A8E828F83A3A3A3A3E0F512787F
:102FD40012121A3E850882850983A3A3121A517519
:102FE40012E57513027812121A3A7810121A3A740A
:102FF40009121803121A517409121803E0F9123253
:103004000312079174091217CDE9FE700F7CE57D58
:1030140002123207120281E97009802074166E7060
:10302400027E009002E612320D1212A1EE700480AC
:103034000B7E01850882850983123861EEF9023816
:103044007612324CF510A3E0F511EA45112274E82A
:1030540012182774FE1217B78A168B178C148D1545
:10306400EA2405F50CE43517F50DEA2402F50EE41F
:103074003517F50F850E82F58312320D1203A78AD8
:10308400088B09750B007C037D0079007AE57B02CF
:1030940012122F750A00E50814F5100424FFF50830
:1030A400E50934FFF50980549002E5E0FA9002E264
:1030B400E0F8EA28F8E43400F9E50898E5099950BD
:1030C4000D9002E5E0F8E510C3989002E2F0E0F517
:1030D400127513007812121A3A12419E9002E6E019
:1030E4002AFAA3E03400FB12121774021217CD90CF
:1030F40002E2E0F89002E5E028F0050A850C8285FA
:103104000D83A3A3123B1840030231E89002E5E0CB
:10311400C39508E4950940030231E8AE0AEE2EFE99
:10312400E433FF123227AC18AD191241B9E439FB6C
:103134001206298A128B13AC12AD13EC4D701B7559
:103144000B011232171238659002E61227646003ED
:103154001212A1A90B74020234D08516828517833A
:10316400A3A3A3A3E0F50B780B121A3EE4F512F522
:10317400137812121A3A7512E27513027812121A9F
:103184003A9002E3121A517407121803121A51A941
:1031940010850E82850F8312320D12079174091265
:1031A40017CDE9F50B709B9002E612323C600302E6
:1031B40030ACE4F512F5137812121A3A7CFF7DFF55
:1031C400790F850E82850F8312320D1206FB74026D
:1031D4001217CD12324260030230AC12321712358C
:1031E400460231597CE57D02850E82850F831232B9
:1031F4000D120287E9600302314C7900023159ACA7
:103204000CAD0D850A82850B8312321122E0FAA3DC
:10321400E0FB22123227E0FAA3E0F9EA8514828562
:10322400158322850C82850D83E02EF8A3E03FF9F7
:1032340088828983229002E312433FE849221232B2
:103244004CF8A3E0F9E849229002E6EAF0A3EBF097
:103254009002E6E02274E812182774FA1217B77481
:1032640004121803122E4F8C168D177404121803AF
:10327400E02405F50EA3E03400F50F7404121803DE
:10328400E024021234E412320D1203A78A0A8B0BD3
:103294007F007E00A818A919880889097808121ADD
:1032A4003A850E82850F83A3A3A3A3E0F5088E09B4
:1032B4007808121A3AE50E2405F508E4350FF509E5
:1032C4007808121A3A850E82850F83A3A312351447
:1032D40012062374061217CD8A0C8B0D8029123521
:1032E40005F00F123505F00F9002E2123850121A51
:1032F4003A12419EEFF81234D812121774021217C0
:10330400CD9002E2E02FFFE50C450D7003023394EB
:10331400851882851983123986A3A3A3E0F985143D
:103324008285158312320D120611E9FEE50C240480
:10333400F510E4350DF511EE7050740412180312F3
:10334400350BF5087808121A3EE4F508F5097808F3
:10335400121A3A7508E27509027808121A3A9002AC
:10336400E3121A517407121803121A51E50A24FAC7
:10337400F9AC0CAD0D85148285158312320D12073C
:103384009174091217CDE9FE60391235211238649F
:10339400EF70030234BB9002E6E0F5F0EF84900294
:1033A400E5F07CE57D0285148285158312320D12C9
:1033B400028DE960099002E712320D1212A1790020
:1033C4000234CE8F08EF703BE4F512F51378121235
:1033D4001A3A7CFF7DFF7911851482851583123298
:1033E4000D1206FB74021217CD1235317009123515
:1033F400211235450234CE9002E2E024049002E624
:10340400F080359002E2E0F89002E6E0FAE8240465
:10341400FCE43400FDEC6A4D600302339AE50A24AF
:10342400FAFAE50B34FFFBE50828F8E43400F9EA7E
:1034340098EB99500302339A851082851183E0C07A
:10344400E09002E7E02FF8A3E034008882F583D00F
:10345400E0F00F851082851183A3E0C0E01234F2FE
:10346400D0E0F00F740212180D8808890978081248
:103474001A3A7402121803121A51850E82850F83A8
:10348400122E4312062F74041217CD8A0C8B0DEAE8
:10349400450D70030232E27402121803E0C0E01218
:1034A40034F2D0E0F00F7402121803A3E0C0E0126B
:1034B40034F2D0E00232EAEE70027E0A850E828592
:1034C4000F83123527123864EEF974061217CD7F74
:1034D400100218F99002E7E028FAA3E03400FB2276
:1034E400F514A3E03400F515851482F58322123413
:1034F400F6229002E7E02FFAA3E034008A82F583F3
:10350400221234F674FF22123673A3A3A3A3E0227B
:10351400124430850E82850F831232112285108267
:1035240085118312433F851682851783229002E713
:10353400EAF0A3EBF09002E712433FE84922123885
:103544006AE8F0A3E9F079112274EA12182774FEEC
:103554001217B78A088B098C128D13EA2405FEE42E
:103564003509FFAC18AD198E828F8312320D120605
:10357400298A0C8B0DEE2406F50EE43FF50FEA457F
:103584000D7003023645E5082402F50AE43509F511
:103594000B8A828B83A3A3A3E0A2E550288518821B
:1035A40085198312320D1207858A108B11EA451191
:1035B4006020791212320385108285118312182536
:1035C400E9F50C707F850E82850F83E060097952DE
:1035D4008011750C0E806D850882850983A3A3A3D1
:1035E400A3E0F9E4F508F5097808121A3A8E828FF7
:1035F40083A3A3E0F5087808121A3A8E828F83A376
:10360400A3A3121A518E828F831241A11232071280
:10361400079774061217CDE9F50C7011850E828593
:103624000F83E0702D123207120293802574166501
:103634000C7011750C00741812180312366FE480A4
:1036440010750C01124337851282851383E8F0A3A9
:10365400E9F0850E82850F83E0600479008002A979
:103664000C74021217CD7F0E0218F912367322E081
:10367400F8A3E0F58388822274EC12182774F712F9
:1036840017B78A0A8B0B8C108D11EA2405FEE435DA
:103694000BFF750C00AC18AD198E828F8312320D9E
:1036A4001206298A088B09EA4509700302383BE5AA
:1036B4000A2402F50A5002050B8A828B83A3A3A372
:1036C400E0A2E5502F85188285198312320D120766
:1036D400858A0C8B0DEA450D604F7912AC08AD0953
:1036E400123207850C82850D83121825E9F50C60CA
:1036F4000302383E850A82850B83E0F508A3E0F5D2
:1037040009AA08FB120779EA4B70197AFF7BFF12AA
:103714000779EA4B70030238318A828B83E508F01B
:10372400A3E509F07508008008750C0E02383E0503
:10373400089002DFE0F8E508C398400302383185B9
:10374400080E750F007403780E1217A48A828B83F7
:10375400A3A3E0250EF8A3E0350F123C0570D08E2C
:10376400828F83123859122E4F8E828F83A3A31215
:103774003859122E4DEE2404F508E43FF509850866
:1037840082F583E088828983A3A3A3A3F0A3E4F052
:10379400EE2405F50EE43FF50F850E82F58312380D
:1037A40059A3A3A3A3122E4D751207751300781203
:1037B400121A3AEEFCEFFD74041218151212177463
:1037C400021217CDE4F5127812121A3A850882858E
:1037D4000983E0FC7D0079171232071206FB74029C
:1037E4001217CD7407121803122E4F740712180300
:1037F400E0FA4B603D850882850983123850121A1D
:103804003A850E82850F831241A112121774021297
:1038140017CD740212181D123207120299E960269C
:10382400740712180312320D1212A18019750C09B3
:103834008008750C118003750C01124337851082C2
:10384400851183123864A90C74098028E0F5087581
:103854000900780822123211888289832212386A78
:10386400E8F0A3E9F022E0F8A3E0F9850E82850FE1
:10387400832274041217CD7F0C0218F974EC121809
:1038840027123974751000EE2402F50CE43FF50D8F
:10389400850C82F58312320D1207798A088B09EAA6
:1038A40045097003023958850A82850B83E0640157
:1038B400600302394DAC08AD09AA0AAB0B12076DBF
:1038C400E9606E850882850983122BDAEE2406F5F9
:1038D4000AE43FF50B8E828F83A3A3121A518E82C2
:1038E4008F83A3A3A3A3121A51850A82850B831283
:1038F4001A5179188E828F8312398612320D12076B
:103904009774061217CDE9F8741668700B850A824D
:10391400850B83E4F0A38014E860128E828F8312F7
:10392400320D850E82850F83EAF0A3EBF0881080B8
:1039340018780E121A3AAC08AD09EEFAEFFB12072A
:103944007374021217CDE9F510AA08AB0912077FA8
:10395400E510700E850C82850D8312320D12029FC4
:103964008009741665107003751000A91002387B65
:10397400EAFEEBFF8C0E8D0FEE2405F50AE43FF50D
:103984000B22124430850C82850D832274EA1218AE
:10399400277508007509007E007F00750A00EC2475
:1039A40002F510E43DF5118035EC65087003ED6512
:1039B400096003023A4588828983A3A3E06A7003FD
:1039C400A3E06B707C88828983A3A3A3A312433BE7
:1039D400EE28FEEF39FFEA28FAEB39FB050A123B21
:1039E40015503A850A0C750D007403780C1217A44F
:1039F400851082851183123B08123C05601FE5087F
:103A0400450970A58C088D0988828983122BD88872
:103A1400828983A3A3E02EFAA3E03F80BEE50AC314
:103A240094025003023B03750800750900EE4F60D1
:103A340010EEFAEFFB12129B8A0E8B0FEA450F7001
:103A4400057900023B05750B00023AD8850B0C750D
:103A54000D007403780C1217A4851082851183E07D
:103A6400250CF50CA3E0350DF50DE50C2406F51435
:103A7400E4350DF515851482F583123C0A6042E5A0
:103A84000C2404F512E4350DF513851282F5831226
:103A94001A51E50E2508FAE50F3509FB12121774C1
:103AA400021217CD851282851383E02508F508A339
:103AB400E03509F50985148285158312320D121239
:103AC400A1E50B600D7C087D007900AA0CAB0D12FA
:103AD400122F050BE50BC3950A5003023A508510CB
:103AE4008285118312433B88828983A3A3A3A3A362
:103AF400A3E50EF0A3E50F12276BEEF0A3EFF07928
:103B04000102366A123B0C22E0250CF8A3E0350DC5
:103B1400229002DFE0F8E50AC3982274F012182715
:103B24008A0E8B0F8C0A8D0B750D00750C0080505E
:103B34007916EE2406F508E43FF5098E828F83A3F7
:103B4400A3121A518E828F83A3A3A3A3121A5185A1
:103B54000882850983121A51850E82850F83A3A3D7
:103B640012320D12079774061217CDE9F50D74166B
:103B7400650D706C850882850983E4F0A3F0050C5B
:103B84009002DFE0F8E50CC3985066AA0C8A087529
:103B94000900740378081217A4850A82850B83A38D
:103BA400A3123C54E8FEE9FF8E828F83123C0A6024
:103BB40040EA2401F508E43400F5099002DFE065E9
:103BC400087002E509601488828983A3A3A3A3A3D0
:103BD400A3A3A312323C6003023B347918023B36A0
:103BE400E9609B1243377410121803123BFC12381D
:103BF40064A90D7F080218F9E0FAA3E0F5838A822C
:103C040022F988828983124430EC4D2274F612180A
:103C1400277C0080010C90033BE0F8ECC398501E15
:103C24008C08750900740278081217A4123C49E044
:103C34006A7003A3E06B70DDE8FAE9FB80047A00A4
:103C44007B00023CEC9002DD123C54888289832282
:103C5400E02508F8A3E03509F92274F21218278A3E
:103C6400088B09750A0080278E828F83A3A3A3A3E0
:103C740012276260031212A17C087D007900EEFA1B
:103C8400EFFB12122F8E828F83E4F0A3F0050A1249
:103C94003B155027850A0C750D007403780C121718
:103CA400A4850882850983A3A3E0250CFEA3E0353F
:103CB4000DFF8E828F8312323C70AD850882850998
:103CC4008374FFF0A3F002442474F6121827120739
:103CD4002B8A828B83E582458370067A007B008081
:103CE40007A3A3A3A312320D7F020218F974F412DE
:103CF400182789088C828D83E06402703C1242DAB2
:103D0400FEA3E0F9EEF8740268700374296970295F
:103D1400750A02750B00780A121A3A741012180305
:103D2400121A517410121803121A51A9081210E52C
:103D340074061217CDE9F98002790102279F74E80D
:103D440012182774FB1217B7E9851882851983F0B6
:103D54008A168B17ECFEEDFF7510008E828F83A3FD
:103D6400A3A3E0A2E4502D741D12180312320D1205
:103D740007858A828B83E5824583700302417979C2
:103D84000AEEFCEFFDAA16AB17121825E9F5106030
:103D94000302417C741F121803E0F508A3E0F5093F
:103DA4007421121803E0F50AA3E0F50B742312182A
:103DB40003E0F50EA3E0F50F8E828F83E0640260CA
:103DC4000302411AA312433B850882850983A38514
:103DD4008212858313EE2406F50CE43FF50D8882E8
:103DE40089831241B9F514E439F5157814121AC40B
:103DF4000100002801281C3E07000228E13E032898
:103E04004F3E0029104001293B400229DC3F032991
:103E140010400429B4401A41E50E450F60030241E5
:103E240015850C82850D8312433BE8FAE9FB8A82EF
:103E34008B83E0850A82850B831241C4121A3A8A65
:103E4400828B83A3E0FCA3E002409EE50E450F6055
:103E540003024115850A82850B837401F01241AE79
:103E6400850882850983F07C007D008E828F83A380
:103E7400A3A3A3E02401FAA3E03400FB120629EA79
:103E84004B60408A828B83E02402F8850A82850B8A
:103E940083E028F0EA2404F8E43BF988828983E08B
:103EA4008512828513831241D21241C4121A3A8AAE
:103EB400828B83A31241A1E5082403FAE43509FBAC
:103EC4000240A3850A82850B83E02404F07C047DF0
:103ED400007900AA12AB1312122F02417CE50E45A1
:103EE4000F60030241151241AEFEA3E0FF850A8272
:103EF400850B837404F0EE850882850983F0EF85D1
:103F04001282851383F0740312181DEEFAEFFB126C
:103F140006298A0C8B0DEA450D7003023FBF8A8285
:103F24008B83A3A3122BD8740112180D880E890F4A
:103F3400780E121A3A7405121803121A517CFF7D76
:103F4400FF12062F74041217CD8B0FEA450F70333E
:103F5400850C82850D831241A5121A3A850C82853F
:103F64000D83A3121A517C027D007A4A7B851203C9
:103F74009574041217CDE9700A740112180374FFC2
:103F8400F0A3F08E828F83E064027039750C0275A1
:103F94000D00780C121A3A8E828F83A31241A1E588
:103FA400082404FAE43509FB12121774021217CD1F
:103FB400850A82850B83E0240280097401121803A8
:103FC400EEF0A3EFF074011218031241937401127E
:103FD400180312418A02410FE50E450F60030241A6
:103FE40015850C82850D83124429AA16AB1712106D
:103FF400EB850A82850B837402F085088285098328
:10400400EAF0851282851383EB024112E50E450F17
:1040140060030241151241AEF8A3E0F9850A8285D6
:104024000B837402F0E8850882850983F0E9851220
:1040340082851383024112850C82850D8312320D11
:10404400121211EAFAF8C3950EE4950F405CE86584
:104054000E450F70047A008021851882851983E04B
:10406400FCE50E2CFCE4350FFDC3EC98ED940050F8
:1040740003E08005E50ECAC39AFAEA850A82850B35
:1040840083F08A0A750B00780A121A3A850C828525
:104094000D83E0250EFCA3E0350FFDAA08AB091241
:1040A400121774021217CD02417C75100702417C6D
:1040B400E50E450F705B850C82850D8312433B85AD
:1040C4000A82850B837407F08882898312418B12DC
:1040D4004183E0851282851383F0E82402FAE439EF
:1040E400FB8A828B831241938A828B8312418AA337
:1040F400A312276A124198F0E82405F850010988B0
:10410400828983124198A31241D2A3A3A3A3F0806E
:104114006775100B8062741D12180312320D12079A
:104124002B8A828B83E5824583604A12433B880C49
:10413400890DE8450D603E7425121803E0F51078EA
:1041440010121A3E780E121A3A780A121A3A78089D
:10415400121A3A7407121803E0F9EEFCEFFDAA16DE
:10416400AB17850C82850D8312182574071217CDA1
:10417400E9F510800375100EA91074050234D0F00F
:1041840088828983A322A3E0850882850983221279
:1041940041D9F0221241D9A3A3229002E312443060
:1041A40022E0F50E750F00780E22850C82850D83B2
:1041B400123673E022E0FAA3E0F8E4C8F9EA282210
:1041C400F08A828B83E0F50A750B00780A2212418B
:1041D400831241D922E0850882850983A3A322742E
:1041E400EE12182774FE1217B78A088B09ECFEED3D
:1041F400FF890AAC18AD19EEFAEFFB1206298A0CF6
:104204008B0DEA450D70030242CB85188285198314
:1042140012320D12072B8A828B83E5824583700349
:104224000242C6A3A312433B880E890FE8450F70D0
:10423400030242C67414121803E0F510A3E0F5114A
:10424400E50AF50B780B121A3E7419121803121AA8
:10425400517810121A3A741B121803E0F9AC0CAD21
:104264000DAA08AB09850E82850F831218257405E3
:104274001217CDE9F50B705274FE650A604C850C7B
:1042840082850D83E0640270411242DAFAA3E0F9F8
:10429400EAF87402687003742969702E85108285A7
:1042A40011831241B9F50CE439F50D780C121A3A60
:1042B400EEFCEFFDAA08AB091207AF74021217CD8A
:1042C4008008750B0E8003750B01A90B740212177D
:1042D400CD7F0A0218F9A312433F88828983E02222
:1042E40074F612182774FE1217B7740C12180312FE
:1042F400433BE8851882851983F07401121803E999
:10430400F0E4F508F5097808121A3A7508027808F5
:10431400121A3A740412180D880889097808121AB6
:104324003A79FE12079774061217CD74021217CD4C
:10433400023CEC8E828F8312433F22E0F8A3E0F923
:104344002274F7121827EAFEEBFF89089002FA128A
:1043540041A11210EBEA5402600BA908EEFAEFFB3C
:1043640012061D800279017F010218F974F21218F5
:104374002774FE1217B7EAFEEBFF890A7401650A77
:1043840060147402650A600302441F790112099BD8
:10439400E9600302441FEEFAEFFB120779EA4B606F
:1043A4000312077FA818A919880889097808121A1E
:1043B4003A7508027509007808121A3A7508527598
:1043C40009857808121A3A7CFF7DFF7A017B001276
:1043D400062374061217CD8038850882850983A3C5
:1043E400A3A3A3A3A3124429EEFAEFFB1210DFE464
:1043F400F50CF50D780C121A3A7402121803121AFD
:10440400517CFF7DFFAA08AB0912062F7404121712
:10441400CD8A088B09E508450970BE74021217CDD0
:104424007F060218F912367312443022E0FCA3E02E
:10443400FD2274F41218278A088B09ECFEEDFF9014
:104444001CADE0F4604B7A097B00121241EA4B6028
:10445400408A828B8374B1F0A3E4124498F08A8278
:104464008B83A3A3E508F0A3E509124498A3EEF017
:10447400A3EFF0740C12180312433B8A828B83A3BC
:10448400A3A3A3A3A3A3123864901CADE0F9121252
:104494004D02279FF08A828B83A3A3A3A322C08209
:1044A400C0839061907404F0A37448F0A37402F084
:1044B4009061807440F09061BC7403F090618774E3
:1044C40019F0906265741BF0906249E0C3941390F4
:1044D400619C40107409F09060667401F090619FD3
:1044E4007428800D740BF0906066E4F090619F7402
:1044F4002CF012468D7009C29190036D746780058B
:1045040090036D7461F01246DF902484E493F460A8
:1045140006E493F9120A917905120DA9024921C002
:1045240082C083E9540FF9906185E0696012E5C6A1
:1045340054B84441F5C6E59E5447644170F8E9F027
:1045440053C6B8E59E544770FA024921C082C0831D
:10455400A8A853A87E906181E4F0A3F0A3F0C2BAA6
:10456400539AFEC289759B00C2C275E90075910019
:1045740075BF0075A91175B905906181F0A374C068
:10458400F0A3E4F0D2BA439A0174805842A80249D5
:1045940021F0024921C082C08374F81217B7900336
:1045A4006B125C9F700302468590036BE05440607D
:1045B400177908AA18AB19120B9FAA18AB1912087D
:1045C4000F90036BE054BFF0E054806010790C7AD4
:1045D4001C7B07120B9F90036BE0547FF0E0A2E07A
:1045E400501E12468D7009C29190036D7467800548
:1045F40090036D7461F012081590036BE054FEF0A3
:10460400E05402601E1246D27009D29190036D7478
:1046140071800590036D746AF012081590036BE0C5
:1046240054FDF0E0540460109024881246E212080D
:104634001B90036BE054FBF0E05408601090248955
:104644001246E212081B90036BE054F7F0E054109A
:10465400600D1246DF12081B90036BE054EFF0E08C
:104664005420600A12081B90036BE054DFF0A3E0AF
:104674005401600D120AAF12082190036CE054FE3D
:10468400F074081217CD02492190619A1248D4900F
:1046940006F6E0640122C082C083E9600514601755
:1046A400802912468D7009C29190036D7467801A37
:1046B40090036D746180131246D27009D2919003F5
:1046C4006D7471800590036D746AF00249219061E4
:1046D4009A1248C69006F6E064012290248AE49374
:1046E400906186F02274EA12182774F41217B790B6
:1046F4008516AC18AD1974041216CA90248893F464
:10470400600302485B907808E0C3940250030248B7
:104714003F90847E740412181D74081216CAA818D7
:10472400A91988148915740412180D88088909AE0A
:1047340008AF097510FF7511FF750EFF7C00750C2D
:1047440048750D78801274086C70030247D574099B
:104754006C607E740A6C6079850C82850D837808A0
:1047640012166F8E828F83A909E50AC9F88812741C
:1047740018780812158AE5124508F8C3E098A3E0F2
:1047840099850C82850D83780812166F40188E82E5
:104794008F837418780812158AE5124508F8E0C367
:1047A40098F8A3E0801A7418780812158AE512455F
:1047B40008FAE9FB8E828F83124FF6EAC398F8EB6E
:1047C40099F9C3E89510E995115006881089118C60
:1047D4000E0CE50C2404F50C5002050DECC39413E7
:1047E400500302474A74FF6510700474FF6511603A
:1047F40024850E08740278081217A474482508F555
:104804008274783509F583780812166F85148285C9
:104814001583E508F0EE2402FE50010F851482850D
:104824001583A3858214858315740C121803E582FD
:104834006E7003E5836F60030247377508017509DD
:10484400007808121A3A740212181D7A227B09128F
:10485400113374021217CD740C1217CD7F0E021887
:10486400F9C082C0839061AE7468F0A3746AF0905A
:10487400624574FBF0A304F053F4FD43FE0290067A
:10488400F67401F09061A0E0643A90619A70191294
:1048940048D4740164017009C29190036D746780F7
:1048A4001E90036D746180171248C6740164017010
:1048B40009D29190036D7471800590036D746A023E
:1048C4004595743FF0A3745AF09061A0747FF02270
:1048D4007433F0A37455F09061A0743AF0227F040D
:1048E4000218F9C082C0839006D4E064017011906C
:1048F40006DAE064016019E07006A3E06401601068
:104904009006EBE06401700C9006F1E06401700421
:10491400790C800279008005E0F91223BFD083D09E
:104924008202011FE0C4333354C022888289831277
:104934004EB7A882A983222414F582E438F5832291
:10494400C082C0839006DE7425F09006DC7401F00A
:10495400A3E4F07A01FB120D25124990241AF58282
:10496400E438F58374D3F0A3740AF09006DBE064B2
:104974000170169006DAE070107901120D85120D9F
:1049840055120D7F7900120D910249219006CA1229
:104994004D192274F612182774FA1217B79006D319
:1049A400E064017008120ABB9006D3E4F075E1F1EB
:1049B4001249902415F582E438F5837401F09006C9
:1049C400D5E06401704B90849CAC18AD1974061248
:1049D40016CA75D90D9006CC1249284403F5D97529
:1049E40082CD758306124EB3E58264D37004E583E9
:1049F400640670F1A818A91912492F740612180335
:104A0400E582687003E5836970EE75E1957901804C
:104A1400027900120D2B901CD1124A7D743BF0A335
:104A2400740CF0A3124A7D124A7D124BEB7441F0D0
:104A3400A3740C124C009006CCE0F97ACD7B0612DC
:104A44000D079006DEE0F91223BF7901120D3190B3
:104A540084FE12168D120D499084CE12168D120DFD
:104A6400137900120D9D12499012493B7416F0906F
:104A740003697405F0040251187435F0A3740CF042
:104A8400A32274F71218278908A808E875F00DA462
:104A9400C8AAF02AF9749928FE740339FF9006E332
:104AA400E0F97AE47B06120D079006F1E0702579AF
:104AB40000120D67EE240CF582EF3401F583E070EB
:104AC40004790080027901EE2406FAEF3401FB1226
:104AD4000D0D80057901120D6775E1F175D92390EB
:104AE40006E31249284405F5D97582E47583061254
:104AF4004EB3E58264EA7004E583640670F175D907
:104B04000075D90075D90075D90075D90075D9001B
:104B1400EE2422124F6C124F8B7003E9658370F6FA
:104B2400EE2426124F772403F8E43583F9124F8BD1
:104B34007003E9658370F6EE242B124F80242C1247
:104B44004F80242D124F80242E124F80242F124F79
:104B5400802430124F802431124F802432124F802F
:104B64002433124F80245D124F772405F8E43583F3
:104B7400F9124F8B7003E9658370F6EE2437125BEC
:104B84001E541FF8EE242A125B1EC43354E048F569
:104B9400D975E195901CD17405F0A3740CF0A3743D
:104BA4000BF0A3740C124BE27411F0A3740C124CAE
:104BB400009006F0E0F91223BF9084FE12168D12C5
:104BC4000D499084CE12168D120D1390600DE4F0F1
:104BD4007901120D9D9003697406F0025354F0A3F9
:104BE400124BEB124BEB22124BEF2274FFF0A37427
:104BF4000BF0A374FFF0A3740BF0A322124C042255
:104C0400F0901CDF124C10A3124C1022124BEF74C4
:104C1400FFF0A3740BF02274EC1218279006E11233
:104C24005774781012166F9006F2E0FAF875F00DCA
:104C3400A4C8ACF02C1258F0FFEE2EFEEF33FF8E1A
:104C44000CF50D750E00750F00851008851109858A
:104C5400120A85130B90850278081215D57808126C
:104C64001A3685100885110985120A85130B7808F0
:104C7400790C1215C27810790C12150AE4F50EF5A8
:104C84000F7808790C1215FB8A0C750D00740378E3
:104C94000C1217A47808790C1215C29084C67808EF
:104CA400121636AA08AB09AC0AAD0B1223577404CA
:104CB4001217CD8A088B09A808A909C3EE98EF99A1
:104CC4005006E82EF8E93FF9E890600EF0E9A3F009
:104CD400EEA3F0EFA3F090600D74C1F07F0C021806
:104CE400F9C082C0839006CA124D059006DE0249BF
:104CF4001CC082C0839006E1124D059006F0024963
:104D04001C124D19124D0FF0A3F0222406F582E473
:104D140038F583E422E0F8A3E0C82202011F74F608
:104D2400121827124EBC6004780480027800E8242C
:104D34000EF8ECC3985003024DF07C0C9006FCE492
:104D4400F0EA2476F582E43BF583E09006FDF0EA90
:104D54002477124DF59006FE124DFF9006FFF0EAFF
:104D64002479124DF5900700124DFF900701F0EAE7
:104D7400247B124DF5900702124DFF900703F0EAD1
:104D8400247D124DF5900704124DFF900705F0EABB
:104D94002474F8E43BF98A828B83A3A3A3A3A3E03E
:104DA400FEA3E0FF88828983E02EF0A3E03F125443
:104DB40092900706124DFF900707124EE060177598
:104DC40008FC7509067808121A3A7903120BF37471
:104DD400021217CD7C10125126ECFE124EB3DEFBEC
:104DE40075E1957904120D4F790180027900025121
:104DF4001BF8E43BF988828983E022125497A3E0EC
:104E04002274F6121827124EBC60047804800278CB
:104E140000E8240AF8ECC3985003024EAE7E0890D2
:104E240006FC7401F07CC07D0678FD79067F0512CE
:104E34004ECAA882A983DFF7EA2480FCE43BFD8AFA
:104E4400828B83A3A3A3A3A3E0F508A3E0F5098CB5
:104E5400828D83E02508F0A3E03509F0124ECA08DC
:104E6400A9838C828D83E088828983124EE0601945
:104E74007508FC7509067808121A3A7C0879031239
:104E84000BF374021217CD7E0C74012EF5D975D96B
:104E9400037582FC758306EEFF124EB3DFFB75E1EA
:104EA400957904120D4F79018002790002511B1289
:104EB4004EB722E0F5D9A3229061D0E0F87480C304
:104EC40098FC124EE522124ECE228C828D83E0880D
:104ED400828983125CDC88828983A322F0124EE5E6
:104EE40022EA2483F582E43BF583E02274F7121866
:104EF40027EAFEEBFF9061D0E0706875D91875D988
:104F04000375D903EE249C124F92124F8B7003E960
:104F1400658370F6EE24A4124F8024A5124F8024DA
:104F240094124F92124F8B7003E9658370F6EE244E
:104F340088124F6C124F8B7003E9658370F675E12C
:104F4400957908EE2494FAE43FFB120B937904EE6E
:104F54002488FAE43FFB120B937904120D4F12508C
:104F6400A080027900025354124F772404F8E435E8
:104F740083F922F582E43FF583E58222F582E43F5A
:104F8400F583E0F5D9EE22124EB7E8658222124F7E
:104F9400772408F8E43583F92274F6121827EAFE18
:104FA400EBFF9006FC7406125049121A3A7C017900
:104FB40003120BF374021217CD75D90675D9037554
:104FC40082FC7583061250417004E583640770F512
:104FD40075E195900369E064087010EE246FF58222
:104FE400E43F124FF4EE2471125AAD790102511BC1
:104FF400F583125CAB2274F6121827EAFEEBFF90DD
:1050040061D0E070339006FC740A125049121A3AC7
:105014007C017903120BF374021217CD75D906754E
:10502400D9037582FC7583061250417004E58364CC
:105034000770F512509D8002790002511B124EB781
:10504400E582640122F07508FC750906780822746B
:10505400F6121827EAFEEBFF9061D0E07036780173
:105064009006FC740BF0900369E0640770197508EE
:10507400FC7509067808121A3A7C017903120BF3BD
:1050840074021217CD78051252E8124EB3DAFB12ED
:10509400509D8002790002511B75E195EE246F1238
:1050A4005CA5EE2471F582E43FF583E8F0A3E9F012
:1050B40079012274F61218271251E96004780480E9
:1050C400027800E8240BF8EAC39840447C0990066F
:1050D400FC7408125135125144DDFB125B1B601B3A
:1050E4007508FC7509067808121A3A7903EEFAEF86
:1050F400FB120BF374021217CD7C0D1251201251C6
:10510400E170FB75E1957904120D4F1250A08002F5
:10511400790080031217CD7F020218F91251268CF0
:10512400082274012CF5D975D9037582FC758306A0
:1051340022F0EE24E5F8E43FF97AFD7B067D0822AF
:1051440088828983E08A828B83125497A3A882A9D8
:10515400838A828B83A3AA82AB832274F6121827D4
:105164001251E96004780480027800E82408F8EA1F
:10517400C398406478069006FC740CF0900386E0B3
:105184009006FDF0900387E09006FEF0900388E01F
:105194009006FFF0900389E0900700F090038AE006
:1051A400900701125278601B7508FC75090678088F
:1051B400121A3A7C067903EEFA120BF374021217F0
:1051C400CD780A1252721251E170FB75E19579049F
:1051D400120D4F1250A08002790002511B124EB7DB
:1051E4001508E50822EAFEEBFF9061D0E0F8748030
:1051F400C398FA12527D2274F61218271251E960EC
:1052040004780480027800E82404F8EAC398404B48
:1052140078029006FCE8F0EE24F7125B1E9006FD7F
:10522400125278601B7508FC7509067808121A3A40
:105234007C027903EEFA120BF374021217CD78068E
:105244001252721251E170FB75E1951252647904A5
:10525400120D4FEE240D1250A38002790002511B4F
:10526400EE241DF582E43FF583E4F0A3F02212520C
:10527400EE880822F012527D22EE2483F582E43F68
:10528400F583E02274F6121827124EBC60047804E9
:1052940080027800E82404F8ECC398404278029035
:1052A40006FC7407F0EA24F8F582E43BF583E09009
:1052B40006FD124EE060197508FC7509067808129F
:1052C4001A3A7C027903120BF374021217CD780692
:1052D4001252E8124EB3DAFB75E195790180027936
:1052E4000002511B1252EEE8FA22740128F5D97516
:1052F400D9037582FC7583062274F7121827E9FF17
:10530400A2AFE433FEC2AF7C0080010C1253A5505F
:1053140010ECF8EA28F8E43BF9125A096F70EC80B3
:1053240016EA246EF8E43BF9E0FCEA2CFAE43BFBD1
:10533400125342EF12548CEEA2E092AF8012EA2490
:105344006AF582E43BF58322F0EEA2E092AF7900A5
:105354007F010218F9C082C083A2AFE433FDC2AF5B
:105364001253AD14F07C00801DECF8EA28F8E43BFD
:10537400F9E8246B125A0CC0E0E8246AF582E43997
:10538400F583D0E0F00C1253A540DEEA246DF582DB
:10539400E43BF58374FF1253D2EDA2E092AF0249CD
:1053A400211253ADF8ECC39822EA246EF582E43B53
:1053B400F583E022C082C083A8A8C2AF125342E999
:1053C4001253D2E8A2E7E433FAE8A2E780CEF0EA87
:1053D4002469F582E43BF583E4F02274F312182780
:1053E400EAFEEBFFECFAEDFB8A828B83A3A3A3A373
:1053F400E0541FF0EE2436F582E43FF583E4F075C3
:105404000A00EE245DFCE43FFD8A828B83E08C82FB
:105414008D83F0750B00E50A33333354F8F50C8AA9
:10542400828B83E0F508750900E50B78081217856F
:10543400E508A2E05027EE2436F8E43FF988828993
:1054440083E0F508EE2508F508E43FF509E50824AE
:1054540038F582E43509F583E50C12548C050B0507
:105464000CE50BC3940840B7050A8A828B83A3AA70
:1054740082AB838C828D83A3AC82AD83E50AC39413
:105484000540867F050218F912549204F022125442
:1054940097E022F0888289832274F71218279003F8
:1054A40095E06403700302563A7C0075829B758311
:1054B40003E06003025624ECF875F00DA4C8AAF0CA
:1054C4002AF9749928FA740339FB8A828B83A3A37B
:1054D400740112565CE4F0EC8A828B83A3A3A3A329
:1054E400F0125C267401F0EA2467F582E43BF5834C
:1054F4007401125656E4F0A3125656A3A312566C26
:10550400240FF582E43BF5837401F0EA2435125646
:10551400412418125671241C125641241D1256653A
:10552400247F125641247312564124821256412478
:1055340068F582E43BF58374801253D2EA246E1238
:10554400564124ED12564124EE12564124EF1256D0
:105554004124F012564124F112566524F312566583
:1055640024F6125641248312564124D31256412460
:10557400D412564124D512567124D912567124DFFF
:1055840012564124E112564124DD12564124E212FE
:10559400564124E312564124F912566524FB12564F
:1055A4006524FD12566524FF125665240C12564BD1
:1055B400240612564B240712564B240812564B2429
:1055C4000912564B240A12564B240B12564B1253F3
:1055D4004374FF7804F0A3D8FCEA245DF8E43BF9B3
:1055E4007CC07D0612568564C57003ED640670F4B4
:1055F400EA24E5F8E43BF97C7D7D03125685648555
:105604007003ED640370F4900395E004F06401709A
:10561400298A828B83A3A3A3A3E0900397F0801A23
:105624000CE582240DF582E5833401F583ECC39403
:105634000350030254B57A007B00025354F582E40C
:105644003BF583E4F0EA22F582EB3401F583E4F0E0
:10565400EA2212565CA3A322F08A828B83A3A3A31B
:1056640022F582E43BF583E4F0A3F0EA22F582E438
:105674003BF58312567CEA22E4F0A3F0A3F0A3F0F6
:1056840022124ECEA882A983EC22C082C0838A82D1
:105694008B83A3A3A3E0600F8A828B83A3A3A3E4D9
:1056A400F0900396E014F0900395E014F0700690E7
:1056B400039774FFF08A828B83A3A3E4F09006C55A
:1056C400E0700D900396E0640170057900120D19E5
:1056D400024921C082C083789B790388828983A38D
:1056E400E4125497F01258DAE864C27003E96406CD
:1056F40070E9900395E4F0A3F0A374FFF075E1F171
:1057040002492174F5121827750800750900750AF5
:10571400007E997F038E828F83A3A3A3E0602BE591
:10572400084509601D850882850983125774121A79
:105734004D12577012168D1222FB74041217CDE904
:105744007008EEF8EFF988088909050AEE240DFEC1
:10575400EF3401FFE50AC3940340BA850882850942
:1057640083A3A3A3A3E0F97F030218F98E828F8396
:10577400125C49A3A32274EE1218278A0A8B0B8C9D
:1057840008890C900396E0F8E9C39850627AFF7B8D
:10579400FF7C007899790388828983A3A3A3E060BE
:1057A4003F74FF6A700374FF6B700CE82473125A21
:1057B4000C640170218012E82473125A0C64017085
:1057C4000DE824791258E35017E82479800BE82473
:1057D4002E1258E3500AE8242E125A0CFAA3E0FBC6
:1057E4000C1258DAECC3940340ADEAFEEB8018E9DE
:1057F4006010A3E0F875F00DA4C8AAF02A1258F0BE
:105804008005EA2AFEEB33FF8E0E8F0F7403780EA9
:10581400121795900396E0F8C3E50E98E50F9400EF
:1058240050030258C6E50A25E0F50AE50B33F50BEB
:10583400E50825E0F508ED33F509AC0AAD0B800762
:10584400EC2402FCE43DFDC3E5089CE5099D4060B1
:10585400C3EC9EED9F403FECF8EDF9EEFAEFFB123E
:10586400172C8B0FEA450F60068E0E8F0F8006757E
:105874000E00750F00ECF8EDF9EEFAEFFB12172CA1
:105884008A108B11EC9510F8ED9511F9E8250EFCB2
:10589400E9350FFD801AE0F8E50CC3985012EEF8D4
:1058A400EFF9ECFAEDFB12172C8B0FEA450F709011
:1058B400C3EC950AED950B4009C3E5089CE5099DE9
:1058C40050067AFF7BFF8009ECFAEDC313FBEA1361
:1058D400FA7F0A0218F9E8240DF8E93401F922F5EF
:1058E40082E439F583C3E09AA3E09B22F974C728C4
:1058F400F582740339F583E0FEA3E02274F61218EE
:105904002774FC1217B7EAFEEBFF8044EE2463F819
:10591400E43FF97A007B00A2AFE433F508C2AF8814
:10592400828983E0FCA3E0FDEC4D600F125C64709F
:105934000A88828983A3A3E4F0A3F0E508A2E09295
:10594400AF1212A19006C6E004F09006C7E004F07E
:10595400EE2463F582E43FF583125C9F70AE9006FB
:10596400C7E060358E828F83A3A3A3A3E08518824A
:10597400851983F0A3E4F09006C7E0F874021218C6
:1059840003E8F0A3E4F0740212181DAA18AB197905
:10599400011208819006C7E4F0EEFAEFFB120B3F08
:1059A400EEFAEFFB120C77740402511874F7121814
:1059B40027EAFEEBFF8E828F83A3A3A3A3E0FA7BE7
:1059C40000120857EEFAEFFB120B57120C59025350
:1059D40054C082C0837A007899790388828983A32A
:1059E400A3A3E06011E8246E125A0C6009125A094C
:1059F40070047901800C0A1258DAEAC3940340DB7C
:105A04007900024921E8246AF582E439F583E02229
:105A1400C082C083E490037D7808F0A3D8FC90038F
:105A24007D0402459574F712182774FC1217B78584
:105A3400188285198312567C120B99E98518828580
:105A44001983F0120B997401121803E9F0120B99DF
:105A54007402121803E9F085188285198312168DD1
:105A640074041217CD02535474F6121827EAFEEB8D
:105A7400FFEC2403F8E43DF988088909EC2407F8CD
:105A8400E43DF9E8FCE9FD125AB912172CEE240D95
:105A9400125AAD125AB912172C8B09EA450960063D
:105AA400EE240D125ACC02511BF582E43FF583E833
:105AB400F0A3E9F0228C828D83125CAB8508828589
:105AC4000983E0FAA3E0FB22F582E43FF583E024B6
:105AD40001F0A3E03400F02274F6121827EAFEEB7A
:105AE400FFEE242E125B1EFCA3E0FD780079FAEC95
:105AF400FAEDFB12172CEE246F125AAD780079FAE6
:105B0400ECFAEDFB12172C8B09EA45096006EE242A
:105B14006F125ACC02511BEE2483F582E43FF583C5
:105B2400E02274F4121827EAFEEBFF120CE98A084B
