:020000040000FA
:0600000002011A022201B8
:03002B0002294364
:030033000229257A
:030053000222770F
:03006B000228FC6C
:10008300022057E5C754F84401F5C779012200005F
:100093000080FB120086B90003020104E479217891
:1000A30008B800028004F709D8FCE479297802B87B
:1000B30000028004F709D8FCE490028178BD79132B
:1000C3008002F0A3D8FCD9FA781A90014A7A01BACF
:1000D30000028007E493A3F608DAF97A3D7B1590D2
:1000E300014B780879048015E493A3AD82AE838A2B
:1000F300828B83F0A3AA82AB838D828E83D8E9D9C6
:10010300E77582BF7583AE740312012C75829175F6
:100113008300740012012C75D00075813F7518811E
:10012300751902759F00020096C09FF59FE473D076
:100133009F22D083D082C09FE493C0E0740193C018
:10014300E0740293F59F2201FF0000B40000280031
:100153002800283075A000A000A000A0000008001F
:1001630008E001F000100010001000100010001053
:100173000050005000500010001000D00700000095
:100183000000000F0001000500307507001000019A
:100193000081FF00000000FFFFFF740692067A064D
:1001A300B606FF02020208025000A0000000E803A6
:1001B30002FF81010000E78102FB81010000981525
:1001C30002EF81010000BF0202FB810100009915CB
:1001D30002F181010000D50202FB810100009A15A2
:1001E30002F381010000D70202FB810100009B158D
:1001F30002F581080000D80202FB810100009C1572
:1002030002F7810100009D15FF0100FF2002FF811D
:10021300010000E18102FB81010000011602F98166
:10022300000000000002ED81030000060317002216
:100233000D220D220D220D220D220D220D220D2243
:100243000D220D220D220D220DE00FF20FDA0F0207
:100253000202020202020202010D0000001001026A
:10026300FF81010000EA8102FB81010000441602C4
:100273001582010000400702FB81010000451602C0
:100283001382010000158102FB8101000046160262
:100293001182010000F98002FB8101000047160270
:1002A3000F82010000B78002FB81010000481602A3
:1002B3000B82010000A58002FB81010000491602A8
:1002C3000982010000938002FB810100004A1602AB
:1002D3000782010000818002FB810100004B1602AE
:1002E3000582010000078102FB810100004C160218
:1002F30003820100004D1601E8030577100AFFFF92
:10030300FF00013075030201060000000000000039
:1003130000000000000000000000000000000000DA
:100323000000000000FFFF0600800CE803140953DF
:10033300696D706C65424C45506572697068657291
:10034300616C051250002003020A00020106030239
:10035300F0FF53696D706C6520424C452050657207
:100363006970686572616C481400004E140A436832
:100373006172616374657269737469632031000229
:10038300436861726163746572697374696320326F
:1003930000084368617261637465726973746963A9
:1003A300203300104368617261637465726973740A
:1003B3006963203400024368617261637465726922
:1003C3007374696320350002FF81010000E4810238
:1003D300FB8101000062170219820300003215023B
:1003E3002281010000631702FB81010000741702E0
:1003F3001B820100003315022281010000751702E0
:10040300FB810100008617021D82020000341502E1
:100413002281010000871702FB8101000098170267
:100423001F82000000351502ED810300003615021E
:100433002281010000991702FB81010000AA170223
:1004430021820400003815022281010000AB17123B
:100453000135E88303120135FB83031201352C8434
:1004630003120135668403120135BF84031201357B
:100473000685031201354E85031201357D8503126E
:100483000135AC8503120135E385031201352A8654
:100493000312013543860312013598860312013591
:1004A300B18603120135FF86031201353987031222
:1004B3000135ACA802120135AFA902120135E8A932
:1004C300021201350BAA021201351DAA02120135CF
:1004D3005BAA02120135D7AA021201359FAB0212A1
:1004E3000135C1AB0212013558AC02120135AAAC79
:1004F30002120135DBAC02120135E8AC0212013500
:1005030052AD02120135A9AD02120135ACAD021292
:100513000135E5AD02120135E8AD02120135F2AD48
:100523000212013546AE0212013587AE02120135C1
:10053300BAAE02120135F7AE02120135F9AF02125B
:1005430001359DB00212013506B10212013544B1E5
:10055300021201358DFB02120135B5FB0212013582
:10056300E2FB021201351AFC0212013578FC021279
:100573000135C4FC021201352BFD021201356BFD5E
:1005830002120135A8FD02120135D6FD0212013512
:1005930080FE021201358AFE0212013597FE021215
:1005A3000135CAFE02120135D6FE02120135EEFEF6
:1005B30002120135F8FE02120135ECAB03120135CC
:1005C300FAAB0312013512AC0312013529AC031245
:1005D3000135DCA60112013586A70112013599A860
:1005E3000112013515A90112013533AA0112013592
:1005F3006FAA011201350AAB01120135EEAB0112EC
:100603000135BAAC0112013548AE01120135B9AE5C
:100613000112013573AF0112013565B001120135C5
:10062300A5B00112013559B1011201358BB1011287
:10063300013581B301120135C3B301120135E1B3B1
:100643000112013547B40112013516B50112013506
:10065300DAB501120135F9B7011201356DC1021284
:10066300013557C20212013502C30212013553C3C9
:100673000212013503C40212013574C4021201359A
:1006830059C5021201358DC50212013586C6021203
:100693000135C3C6021201359FC702120135DEC7F9
:1006A30002120135FAC7021201358F9C031201357C
:1006B300139D031201353E9D03120135589E03120B
:1006C3000135008003120135168003120135348091
:1006D300031201354581031201354F8103120135A0
:1006E3007A8203120135718303120135DE8303120B
:1006F30001355BC80212013591C902120135C8C91F
:10070300021201351FCA0212013534CC021201351F
:10071300268201120135B2820112013516840112BB
:1007230001352284011201355D8401120135CC8427
:1007330001120135D58501120135DE86011201351D
:10074300A5870112013502890112013520890112A1
:1007530001353D8901120135EA8901120135678AA4
:10076300011201358F8A01120135598D01120135AC
:100773005E8D01120135778F01120135C58F01128C
:1007830001353590011201357390011201354F91F6
:10079300011201350F92011201355B9201120135ED
:1007A3005E9201120135A29201120135EA92011201
:1007B30001352993011201354B93011201357F93C2
:1007C30001120135E293011201356ED30212013594
:1007D3007CD302120135CFD302120135EED30212BC
:1007E300013533D40212013577D50212013512D601
:1007F3000212013556D60212013580D60212013596
:10080300EFD60212013535D702120135ACD70212E9
:1008130001355DD8021201357C29001201358C297E
:10082300001201352D2A00120135892A00120135E3
:10083300462B00120135622C00120135942C001254
:100843000135C32C00120135702E00120135E7303B
:1008530000120135573300120135493400120135B6
:100863004235001201354937001201353D3A001275
:1008730001356C3B00120135703D00120135803E9D
:10088300001201350F4000120135004100120135FD
:100893004E4100120135BD4100120135E141001204
:1008A3000135324200120135D34600120135D447D7
:1008B3000012013535480012013560480012013538
:1008C30026490012013551F3021201355BF302127E
:1008D3000135A0F302120135B4F30212013544F4D9
:1008E300021201357DF402120135B8F4021201350A
:1008F300E1F40212013535F5021201354AF502120F
:1009030001356CF50212013581F50212013595F5B9
:1009130002120135AAF502120135E4F5021201357E
:1009230010F60212013559F602120135CBF6021206
:1009330001350EF70212013538F70212013563F75C
:100943000212013526A703120135108B021201355D
:10095300F38B021201356E8C02120135A98C02123F
:100963000135FA8D02120135888E021201351A9172
:1009730002120135CC9102120135D89202120135CF
:100983004B9402120135A49402120135BFEA0212FC
:10099300013502EB0212013586EB021201355DEEE1
:1009A300021201351B9803120135CD98031201354C
:1009B300C99903120135089A03120135629A031289
:1009C300013561A003120135C4A00312013561A1F1
:1009D3000312013596A103120135C6A10312013595
:1009E30001A20312013521A2031201356FD80212AD
:1009F3000135FBD802120135BAD902120135D2DA18
:100A030002120135ECDC021201353DF4011201350D
:100A130062F4011201352FF50112013503F60112BB
:100A2300013570F601120135B0F6011201354CF7AC
:100A33000112013580F8011201355BF9011201350C
:100A4300BAF90112013546FA01120135B4FA01125D
:100A5300013540FB0112013586FB01120135F8FB1C
:100A6300011201358AFC011201352BFD01120135FA
:100A73004BFD0112013593FD01120135DCFD01121D
:100A83000135F8FD011201351EFE0112013598FEF4
:100A930001120135A6FE0112013535FF01120135A0
:100AA3009EFF0112013523DD02120135A8DD02127A
:100AB3000135EADD02120135CEDE021201353BDFDC
:100AC300021201357FDF02120135C3DF0212013545
:100AD300F0DF0212013518E00212013550E0021274
:100AE30001358EE002120135B5E0021201352FE126
:100AF3000212013579E10212013506B801120135FE
:100B0300A5B901120135DDBB0112013531BC01125A
:100B130001355CBC0112013538BD0112013568BDD8
:100B23000112013597BD01120135AABD011201352C
:100B3300EBBD0112013518BE0112013566BE01126B
:100B43000135A2BE01120135E7BE0112013534BFE2
:100B530001120135AEBF01120135EFC1011201359A
:100B6300D9C30112013515C401120135A4C50112FF
:100B73000135E9C5011201355CC601120135B1C663
:100B830001120135B6C60112013540C70112013504
:100B93005FC80112013570C8011201350D9F0212A1
:100BA3000135869F0212013540A5021201354BA67D
:100BB30002120135F4A70212013582A8021201358F
:100BC3002C5E00120135AD5E00120135DA5E0012B3
:100BD3000135235F001201352460001201357D6069
:100BE30000120135F961001201357B6200120135F3
:100BF300966200120135076300120135C4630012C7
:100C03000135876400120135156500120135CC6585
:100C130000120135DF6500120135786600120135D7
:100C23000F67001201353667001201359F67001206
:100C33000135E96700120135376800120135DC68B8
:100C4300001201357A6900120135076A0012013575
:100C5300786A00120135BF6A00120135176B001262
:100C63000135496B00120135036C001201350A6D21
:100C730000120135536D00120135706D00120135FC
:100C83008F6D00120135C26E00120135796F0012AB
:100C930001359E6F00120135B36F001201352370C9
:100CA300001201356470001201358871001201359C
:100CB3000972001201354D95021201359895021201
:100CC3000135A495021201357896021201358F96EB
:100CD30002120135CC9602120135FD96021201353E
:100CE3003597021201358B9702120135A197021233
:100CF3000135DD9702120135F0970212013517987D
:100D0300021201354B980212013571990212013515
:100D1300BB9A02120135B79B02120135D49C021211
:100D23000135F37F0012013593C801120135CEC896
:100D33000112013520CC011201357CCD01120135A0
:100D43003BCE01120135A2D1011201358CD2011221
:100D53000135D8D201120135F2D2011201352FD358
:100D6300011201353AD30112013579D3011201354C
:100D730082D3011201352CD40112013503D501129E
:100D8300013557D501120135B4D50112013526D6E7
:100D930001120135BA940112013519980112013576
:100DA3001F9801120135509F0112013557A30112FB
:100DB3000135A187031201353788031201354D88A8
:100DC30003120135A68803120135EA88031201359F
:100DD300248903120135BC89031201352B8A0312BE
:100DE3000135348A03120135408A031201355A8AC8
:100DF30003120135848A03120135998A03120135DE
:100E0300FB8A03120135228B031201350FEF021205
:100E130001351CEF0212013536EF0212013569EF7D
:100E230002120135A7EF021201350CF0021201354F
:100E330021F0021201352CF00212013539F00212B1
:100E4300013550F0021201355EF00212013569F0EE
:100E53000212013575F00212013584F002120135D8
:100E63008FF002120135B2F00212013556F102126F
:100E7300013566F10212013580F1021201359DF14F
:100E830002120135B8F102120135DDF1021201350A
:100E9300E8F102120135FDF10212013511F20212DD
:100EA300013572F20212013578F2021201357EF237
:100EB3000212013584F2021201359CF2021201354D
:100EC300CFF202120135447200120135DB720012B7
:100ED30001357373001201356374001201359A747E
:100EE30000120135AD74001201351B750012013576
:100EF300B67600120135DD76001201357F770012D8
:100F03000135B47700120135C577001201353E78FB
:100F1300001201355F780012013577780012013530
:100F2300CF7900120135D87B00120135287E0012DB
:100F330001352B7F001201357A7F0012013575D7F9
:100F43000112013572D8011201355DD90112013543
:100F530067D90112013589D90112013595D90112D9
:100F63000135E7DA0112013516DB0112013546DCE2
:100F73000112013588DC01120135B4DD011201359E
:100F83008ADE01120135DCDE011201353BDF01127D
:100F9300013572DF01120135ADDF0112013548E37E
:100FA3000112013561E301120135E3E30112013559
:100FB300F1E30112013546E40112013554E4011253
:100FC3000135C1E40112013533E50112013579E53B
:100FD300011201350080021201352280021201350F
:100FE3000C8202120135B18502120135F486021218
:100FF3000135CE87021201352FA20312013554A207
:1010030003120135C5A2031201356AB1021201357B
:1010130073B1021201357CB102120135ADB2021275
:101023000135CCB40212013502B5021201353CB5CB
:101033000212013572B502120135ACB50212013547
:10104300E0B5021201350CB60212013555B6021293
:1010530001358FB602120135D7B6021201352DB70D
:101063000212013562B702120135BDB70212013512
:10107300F7B70212013548B8021201357EB80212E1
:101083000135B8B802120135E6B80212013509B9C3
:10109300021201356DAD0312013599AD031201350D
:1010A300F4AD03120135FEAD031201350EAE03128A
:1010B3000135899203120135B09203120135DA9298
:1010C3000312013517AF031201359249001201359E
:1010D300F64B00120135AD4D001201350A4E0012D8
:1010E30001350C4F00120135944F001201351B508E
:1010F30000120135405000120135355300120135FD
:10110300AB53001201359A5400120135D454001226
:101113000135145500120135B45600120135095733
:1011230000120135565700120135C457001201351C
:10113300EA57001201350458001201351A590012FA
:1011430001352A5900120135B05A00120135D05A1F
:1011530000120135065B001201358A5C001201356D
:10116300C95C00120135075E001201353EE602122A
:10117300013596E602120135DEE7021201354DE82C
:1011830002120135FCE8021201351BE90212013596
:101193006FE902120135ADE902120135B9AC031250
:1011A3000135CAAC0312013561AF03120135A0AF9B
:1011B30003120135DFFF0112013534AA0312013591
:1011C30044AA0312013559AA031201350DAB0312C8
:1011D30001353AA803120135BEA80312013524A92B
:1011E30003120135E5A3031201350EA403120135E1
:1011F30074A40312013593A403120135E7A4031267
:10120300013540A5031201357BA5031201357EA5E7
:10121300031201358BF702120135A2F702120135D1
:101223001BF802120135F0F802120135C2FA02125C
:10123300013527FB021201357AFB02120135F87FD3
:1012430000120135879E03120135FD9F03120135FC
:101253005EA00312013513AB031201353CAB03123D
:10126300013565AB03120135A7AB03120135FBCD85
:101273000212013505CE0212013545CE02120135A7
:101283008ECE02120135C8CE021201351ECF0212D4
:1012930001353DCF0212013546CF0212013597CFFA
:1012A30002120135C0CF02120135D5CF021201352A
:1012B30045D002120135D3D00212013517D10212E3
:1012C30001353FD102120135BED10212013501D2DF
:1012D300021201353ED20212013550D202120135FB
:1012E3006FD20212013578D20212013542D30212B3
:1012F300013588A503120135D9A50312013562A66C
:1013030003120135C8A6031201355795031201359F
:101313008195031201357B9603120135AA960312B8
:1013230001353097031201353DA9031201358D9A1A
:1013330003120135C39A03120135FC9A03120135D6
:10134300559C0312013518AE031201352EAE03125C
:10135300013538AE031201358EAE0312013586FF17
:101363000212013597B90212013554BA021201353E
:101373008FBA02120135B7BA0212013519BB021234
:10138300013565BB02120135D0BB021201354CBCDD
:101393000212013548BD02120135CFBE02120135DA
:1013A30052BF02120135B6BF02120135CDBF021280
:1013B3000135C3C0021201350FC102120135B9E173
:1013C30002120135CEE1021201357EE2021201352D
:1013D300BEE202120135D7E2021201350AE302121C
:1013E300013557E3021201358BE302120135CDE3D8
:1013F30002120135CBE50212013531E60212013545
:1014030002E601120135B9E9011201354BEB011274
:101413000135A2EB01120135C1EB011201353FEC9D
:1014230001120135D1ED01120135B5EE011201357D
:10143300C6F2011201359AF301120135508B0312E2
:1014430001356A8D031201352C8E03120135CC8EC2
:1014530003120135F58E031201355D8F0312013539
:101463007A8F0312013545900312013598900312C8
:1014730001357B9103120135AAAF03120135C77FF2
:1014830000120135C1FF01E066701008A3E0667029
:101493000A08A3E066700408A3E06622C3E796087F
:1014A30009E7960809E7960809E79622C3E0960834
:1014B300A3E09608A3E09608A3E09622C008C3E041
:1014C30096F50808A3E096420808A3E096420808A8
:1014D300A3E09645087001D3D00822080808EAC0A3
:1014E300E0EBC0E086F0E7A4FA180986F0E7A42A47
:1014F300FA180986F0E7A42AFA180986F0E7A42A5D
:10150300FA1986F0E7A4FBE5F02AFA190886F0E752
:10151300A42BFBE5F03AFA190886F0E7A42BFBE5C8
:10152300F03AFA18180986F0E7A4C5F02BFBE43A61
:10153300FA1908E7C5F0C6A426F6E5F03BFBE43A42
:10154300FA1886F0E7A4F6E5F00826F6E43B08F679
:10155300E43A08F6D0E0FBD0E0FA22E4CFC0E0E4BE
:10156300CEC0E0E4CDC0E0E4CCC0E075F020E626D8
:10157300F608E633F608E633F608E633F6181818E5
:10158300EC33FCED33FDEE33FEEF33FFC3EC970991
:10159300ED9709EE9709EF97191919400FFFEC978B
:1015A300FC09ED97FD09EE97FE191906D5F0BFEC7E
:1015B300F709EDF709EEF709EFF7191919D0E0FC70
:1015C300D0E0FDD0E0FED0E0FF226016080808C698
:1015D300C313C618C613C618C613C618C613C6D572
:1015E300E0EA227009080808226016181818C6C312
:1015F30033C608C633C608C633C608C633C6D5E0E5
:10160300EA22E627F60809E637F60809E637F60878
:1016130009E637F622E026F608A3E036F608A3E04B
:1016230036F608A3E036F622E026F008A3E036F00B
:1016330008A3E036F008A3E036F022C3E697F608E5
:1016430009E697F60809E697F60809E697F622C32E
:10165300E096F008A3E096F008A3E096F008A3E074
:1016630096F022E056F608A3E056F608A3E056F6F5
:1016730008A3E056F622E056F008A3E056F008A3CC
:10168300E056F008A3E056F022E0F608A3E0F608DF
:10169300A3E0F608A3E0F622E6F008A3E6F008A329
:1016A300E6F008A3E6F022E0FAA3E0FBA3E0FCA344
:1016B300E0FD22E0F8A3E0F9A3E0FAA3E0FB22E8CF
:1016C300F0A3E9F0A3EAF0A3EBF022CAC0E0E6F04E
:1016D300A308DAFAD0E0FA22CAC0E0E0A3C582CCBC
:1016E300C582C583CDC583F0A3C582CCC582C5831E
:1016F300CDC583DAE6D0E0CA22C3E498F8E499F9C9
:1017030012173D8026C3E49AFAE49BFBE920E7E93C
:1017130012173DE498F8E499F922C3E498F8E499A0
:10172300F912173DE498F8E499F9C3E49AFAE49BB3
:10173300FB22EB20E7CFE920E7E0B90010BB00086C
:10174300E88AF084F8AAF022E4FBC8FA22EB7022BC
:101753007B10C833C8C933C9335007C39AC3DBF2FC
:1017630080069A50012ADBEAC833F4C8C933F4C9A6
:10177300FA2275F008E4C833C8C933C933C99AC912
:101783009B5004C92AC93BD5F0ECFBC833F4C8E429
:10179300C9FA22600D08C6A2E713C618C613C6D538
:1017A300E0F322600C08C6C313C618C613C6D5E0FF
:1017B300F422700422600D18C6C333C608C633C6AC
:1017C300D5E0F41822251810AF08F518400C1519A8
:1017D3008008F51840021519D2AF2200C0D0251891
:1017E30010AF08F518500C05198008F518500205BC
:1017F30019D2AFD0D0222518F58210AF08F51840C2
:101803000C15198008F51840021519D2AF851983F4
:10181300222518F582E43519F583222518F8E435D5
:1018230019F9222518FAE43519FB222518FCE435A9
:1018330019FD22E4732518C582C0E0E51934FFC5FC
:1018430083C0E0E518C3958224F810AF0885831997
:101853008582188008858319858218D2AFCEF0A3BC
:10186300E520F0A37808E608F0A3DEFAEFF0A3E59D
:101873008124FAF8E608F0A3E608F0A3E608F0A34B
:101883000808E608F0A3E608F0A315811581D0E067
:10189300FED0E0F8158115811581E8C0E0EEC0E0C7
:1018A300222518C582C0E0E51934FFC583C0E0E5F1
:1018B30018C3958224F910AF08858319858218808F
:1018C30008858319858218D2AFCEF0A3E520F0A353
:1018D3007808E608F0A3DEFAEFF0A3E58124FBF82D
:1018E300E608F0A3E608F0A30808E608F0A3E60874
:1018F300F0A315811581D0E0FED0E0F815811581A4
:10190300E8C0E0EEC0E022851983851882E0A3FEDB
:10191300E0A3F5207808E0A3F608DFFAE0A3FFE0F0
:10192300A3C0E0E0A3C0E0E0A3C0E0E0A3C0E0E028
:10193300A3C0E010AF0885821885831980088582CB
:1019430018858319D2AFD083D082020132851983DF
:10195300851882E0A3FEE0A3F5207808E0A3F6084B
:10196300DFFAE0A3FFE0A3C0E0E0A3C0E0E0A3C090
:10197300E0E0A3C0E010AF088582188583198008D2
:10198300858218858319D2AFD083D08222C0D02517
:1019930018C582C0E0E51934FFC583C0E0E518C36C
:1019A300958224F310AF08858319858218800885F2
:1019B3008319858218D2AFC8F0A3E9F0A3EAF0A394
:1019C300EBF0A37908E709F0A3D8FAECF0A3EDF064
:1019D300A3EEF0A3EFF0A3D0E0F0A3D0E0F0A3D008
:1019E300E0F0A3E520F0A3E5F0F0A32285198385B9
:1019F3001882E0C0E0A3E0F9A3E0FAA3E0FBA37838
:101A030008E0F608A3DFFAE0FCA3E0FDA3E0FEA3F1
:101A1300E0FFA3E0C0E0A3E0C0E0A3E0F5D0A3E0D3
:101A2300F520A3E0A3F5F010AF088583198582188C
:101A33008008858319858218D2AFD082D083D0E005
:101A4300F8D0E03274048006740280027401C0E0AE
:101A5300F4041217F9D0E01216CE22740480047431
:101A6300028000CCC0E0EDC0E0E518C39CCCAD190A
:101A730050011D10AF068C188D1980068C188D1916
:101A8300D2AF1216DBD0E0FDD0E0FC22D083D082AF
:101A9300E9C0E0E493A3C386F0C5F095F0F908E448
:101AA30093A386F0C5F095F0700BE493A3C399401C
:101AB30005E9048002A3E475F002A42582F582E51A
:101AC300F03583F583D0E0F9E493A3C0E0E493C059
:101AD300E022D083D082ECC0E0EDC0E0E493A3FC2D
:101AE300E493A3FDED4C600D121B21EC24FFFCEDF0
:101AF30034FFFD80EFE493A3FCE493A3FDED4C607E
:101B03000D121B60EC24FFFCED34FFFD80EFD0E0F1
:101B1300FDD0E0FCE493A3C0E0E493C0E022C0E086
:101B2300C3E49396087401939618400FE493667088
:101B33000808740193661870007019A3A3C3E49393
:101B430096087401939618A3A3400DD0E0D0E0D07B
:101B5300E0021B11A3A3A3A3A3A3D0E022C0E0C070
:101B6300F088F0E4936670080874019366187000B7
:101B7300A8F0A3A3700BD0F0D0E0D0E0D0E0021B1C
:081B830011A3A3D0F0D0E02271
:101B8C0074F61218A4EAFEEBFF8C088D09EE2434CF
:101B9C00F8E43FF9E8FCE9FDEE2435121E9FFAEE5D
:101BAC002437121E9FF88508F0A4C885F00A850911
:101BBC00F0A4250AF9EA28F8E439F97A257B001211
:101BCC00173DEA8C828D83F0FA131313541FF8EE31
:101BDC0028F8E43FF9E8245DF582E439F583E0C0A8
:101BEC00E074075AF8D0E0B800028004C313D8FCA4
:101BFC00A2E0EE50082434F582E43F80182436121B
:101C0C001E9FF5F0EA84A8F0EE28F8E43FF9E824EA
:101C1C0038F582E439F583E0F97F0302195074F743
:101C2C001218A4EAFEEBFFEE2434121E9FC0E0EE65
:101C3C002435F582E43FF583D0E0F08E828F83A3C8
:101C4C00A3A3A3A3A3A3C082C0838E828F83A3A3C9
:101C5C00A3A3A3E0F8A3E0F9D083D082E0C398F566
:101C6C0008A3E099F509EE247F121E9F6401703ED3
:101C7C00EE2480F582E43FF583C082C0838E828F90
:101C8C0083A3A3A3A3A3E0240108A3E03400F9D009
:101C9C0083D082E0687003A3E06970127CB17D048C
:101CAC00120C62EE247FF582E43FF583E4F0AC087D
:101CBC00AD09EEFAEFFB121B8CE9F91228EE7F024C
:101CCC00021950C082C083851882851983E0F8A35D
:101CDC00E0F9C3EA9CEB9D5010C3EC98ED99401BC6
:101CEC00C3EA98EB995014800EC3EA98EB9940071D
:101CFC00C3EC98ED994004790180027900D083D02F
:101D0C008222EAC39CFAEB9DFB2274EF1218A4907A
:101D1C000376E064086005E06407702A9061C8E00F
:101D2C0060249003A4E0F4601DE0F875F00BA4C8E7
:101D3C00AAF02AF974A628FE740339FF8E828F83C9
:101D4C00A3A3A3E07003021E24906060E0C0E0EE49
:101D5C002468F582E43FF583D0E0F0750C21750D15
:101D6C0005750800750900E5D914F50AE5D9540381
:101D7C00F50E60127403650E6043E50A600AEE24EA
:101D8C0067121E9F7002807590051CE06401601F35
:101D9C00121E9C60047A0480027A00E50AC39AFA47
:101DAC0095E0FB120B0C8A088B09EA4509700512A9
:101DBC000EA88064121E9C70048A0C8B0DE50A60C0
:101DCC0012850C82850D83F50BE5D9F0A3150BE577
:101DDC000B70F6121E9C604474FC250AF50A780CF4
:101DEC00121A4BAC0AA90EEEFAEFFB120D1C740280
:101DFC001217DEE97026AA08AB091212F8793D8E8B
:101E0C00828F83A3A3A3A3E0FA7B0012096EEEFAE0
:101E1C00EFFB120C86120D2E7900806F7403650E89
:101E2C006051850A107511007810121A4BAC0CAD6C
:101E3C000DAA08AB09120CE074021217DEEE24682E
:101E4C00121E9F64807004747F8001E0F50C780C86
:101E5C00121A4FE50EF50C780C121A4FA90AAC08A1
:101E6C00AD099003A4E0FA7B001209447402121726
:101E7C00DE8013900376E06408600BAC0CAD0DEEC5
:101E8C00FAEFFB120DA6120EB479017F0A0219505B
:101E9C00EE2483F582E43FF583E02274F21218A459
:101EAC0074FC1217C8EAFEEBFF8909A2AFE433F504
:101EBC0008C2AF021F71E0601B780C121A4BAC0BFE
:101ECC00A90EEEFAEFFB120D1674021217DE740453
:101EDC00250BF50B7401250BF5D9850ED9E50B6097
:101EEC0018F50A850C82850D83E0F5D9A385820C43
:101EFC0085830D150AE50A70EA75E195EE2463F801
:101F0C00E43FF97A007B00A2AFE433F50BC2AF8853
:101F1C00828983E0FCA3E0FDEC4D603A88828983E2
:101F2C00E0FAA3E0FB8A828B83E0FCA3E0FD8882CD
:101F3C008983ECF0A3EDF08A828B83E4F0A3F08824
:101F4C00828983E0FCA3E0FDEC4D700A88828983D2
:101F5C00A3A3E4F0A3F0E50BA2E092AF1212F89069
:101F6C0004B8E004F0EE2463121E9FF8A3E0F9E835
:101F7C00496064EE2463121E9F2402F8A3E034002F
:101F8C00F988828983E5822402F50CE43583F50D0A
:101F9C00E0F50BA3E0F50EEE2462121E9F640170B7
:101FAC00369061D0E0F8121E9C60047C0480027CA8
:101FBC00007480C398FA95E0FBE50B2CF8E4340030
:101FCC00F9E82402F8500109C3EA98EB99A2D2650A
:101FDC00D0334003021EC29004B8E0604D9004B9A7
:101FEC00E0F89004B8E0C398500C74026509703A9C
:101FFC009004BAE060348E828F83A3A3A3A3E08500
:10200C0018828519831220467402121814E81220C3
:10201C00469004B7E028F0740212182EAA18AB19D7
:10202C0079011209989004B8E4F0E508A2E092AFA7
:10203C0074041217DE7F07021950F0A3E4F0900429
:10204C00B8E0F8228521878522C622C0E074EB1205
:10205C001990A2AFE433F508C2AF759B0090618272
:10206C00E0A2E05030E591A2E0502A7591FE740197
:10207C00652170211221EA120DF41221D8121A5E78
:10208C0012269874041217DEE964017005790112A6
:10209C000E3C121D16906182E0A2E5505DE591A206
:1020AC00E550577591DF900376E064076005E064B6
:1020BC0008702F1221EA74016521703E120DF41282
:1020CC0021D8121A5E12269874041217DEE96401E4
:1020DC0070057901120E3C7901EEFAEFFB121EA786
:1020EC008018E0640D7013900398E004F06428707D
:1020FC0002E4F07A00E0F9120EBA906182E0A2E6F6
:10210C0040030221ADE591A2E640030221AD759199
:10211C00BF900376E064057008120DDC120DE880A8
:10212C0003120DE2752100120E48E9900377F07945
:10213C0000120E3C120BD27A017B00900375E0F971
:10214C001212C8907803E064427056900520E01497
:10215C00F0704EC2AF12216400782AD0E0F618D08D
:10216C00E0F6E59F5407F87005750DFF8003750DBB
:10217C007FC4C0E07829E6F50A08E6550DF50B7426
:10218C000B780A1217A6D0E0250AF8906270E0A22C
:10219C00E740F8E8C333906272F0906270E0D2E0EE
:1021AC00F0906181E0A2E35009E5E9A2E3500375E8
:1021BC00E9F7A3E0A2E75009E591A2E75003759176
:1021CC007FE508A2E092AF7F080219EF8E828F8321
:1021DC00E0F8A3E0C82416F582E438F583229003D6
:1021EC00A4E0F875F00BA4C8AAF02AF974A628FE8E
:1021FC00740339FF22C0E0C0D0C082C083906183D9
:10220C00E0A2E05009E5BFA2E0500375BFFEE0A2DA
:10221C00E15009E5BFA2E1500375BFFDE0A2E25019
:10222C0009E5BFA2E2500375BFFBE0A2E35009E54C
:10223C00BFA2E3500375BFF7E0A2E45009E5BFA2CB
:10224C00E4500375BFEFE0A2E55009E5BFA2E550ED
:10225C000375BFDFE0A2E65009E5BFA2E6500375A7
:10226C00BFBFD083D082D0D0D0E032C0E074F212A5
:10227C001990E5A7A2E6500FE5A1A2E6500953A7D5
:10228C00BF75A1BF1222CBE5A7A2E5500CE5A1A218
:10229C00E5500653A7DF75A1DFE5A7A2E15009E5DC
:1022AC00A1A2E1500375A1FDE5A7A2E2500CE5A1A6
:1022BC00A2E2500653A7FB75A1FB7F010219EF7434
:1022CC00F71218A4752101900376E06406701512BC
:1022DC000D528A828B83A3A3A3A3A3A3E0FAA3E04A
:1022EC00FB120DCAA2AFE433FED2AF90037CE064C4
:1022FC000170187A207B00900375E0F91213E27AD2
:10230C00207B00900375E0F91212CE906182E0D22E
:10231C00E6F090051DE0602185C622801690037BB7
:10232C00E064017008E5C654F84405F5C653BEFCDC
:10233C001220507401652160E4EEA2E092AF7F029E
:10234C00021950008E238F248582288583278518B7
:10235C0082851983E0CEA3E0CF852882852783EB85
:10236C00C9EAC8EDCBECCA75F010C3E833C8E93341
:10237C00C9EA33CAEB33CBC3EA9EF526EB9FF525AE
:10238C00B35004AB25AA26EC33CCED33CDD5F0DA23
:10239C00AE23AF242274E91218A474FA1217C8EAF7
:1023AC00FEEBFF8C0A8D0B120E00EAF8EBF9ECFA3F
:1023BC00EDFB8E828F831216C2900376E024F7C356
:1023CC0094055006751401022508120D528A088BCB
:1023DC0009EA45097003022505EEFCEFFDAA18ABCE
:1023EC0019120DFA850882850983A3A3780C12169D
:1023FC008C9081BD780C12166685188285198378AD
:10240C001012168C9081BD7810121666780C79100B
:10241C0012149F501F780C791012163E9081697817
:10242C000C1214BF4047850C14850D15850E1685AE
:10243C000F1780459081698510148511158512162A
:10244C008513177814790C12163E78141214BF5099
:10245C001C75140075150075160075170178147924
:10246C001012163E7814790C121605800C75140196
:10247C00751500751600751700740978141215E699
:10248C00908189780C12168C7814790C12155E8553
:10249C000882850983A3A3A3A3A3A312252612173D
:1024AC003D880C890DE4F50EF50F7814790C121695
:1024BC0005740412181412252612173DE8FA8A0C1A
:1024CC00E4F50D7814790C12149F50077814790CDC
:1024DC0012163E900376E06408600AE0640660051C
:1024EC00E06405702090816D78141214BF50169022
:1024FC0081717814121618800C75140075150075FE
:10250C001600751700850A82850B83781412169BAA
:10251C0074061217DE7F10021950E0F8A3E0F97A66
:10252C00D07B032274F71218A4120E1290051BE034
:10253C0064017010906245E4F0A3F053F4F343FE91
:10254C000C5390F3120DB8E5C654B84441F5C6E5EA
:10255C009E5447644170F8906185740FF090051992
:10256C00E0F47002A3E0604E90051AE0600814607D
:10257C001B14602E8040750801750900900519E048
:10258C0078081217B5E508F45280802A7508017591
:10259C000900900519E078081217B5E508F4529077
:1025AC008014750801750900900519E07808121758
:1025BC00B5E508F452A079007F0202195074F712A5
:1025CC0018A4E9FEEAFF120E1274016E700C7A80E8
:1025DC007B00900375E0F91212C8902974E493F40F
:1025EC006008E493F9120BC6800953C6B8E59E54F3
:1025FC004770FA120DBE90051BE064017003120BBC
:10260C00E4900519E0F47002A3E0604B90051AE029
:10261C00600814601A14602C803D7508017509005F
:10262C00900519E078081217B5E5084280802875E6
:10263C000801750900900519E078081217B5E5082E
:10264C0042908013750801750900900519E078080F
:10265C001217B5E50842A0120D528A088B09A8087A
:10266C00A909E8496014E5E170FCE82414F582E45A
:10267C0039F583E0F46003E0F5E174016F700A7AD8
:10268C0001900375E0F91213520225C474F112186B
:10269C00A48A088B098C0A8D0B9081BD78081216C0
:1026AC0066740F121814780C12168C9081BD780C6D
:1026BC001216667808790C12149F90816950107864
:1026CC0008790C12163E78081214BF4014800E784C
:1026DC000C790812163E780C1214BF500479018044
:1026EC000279007F0802195074ED1218A48A088B25
:1026FC00098C0A8D0B9081BD780812166674131222
:10270C001814780C12168C9081BD780C1216667801
:10271C000C790812149F40117808790C12163EAAF5
:10272C0008AB09AC0AAD0B80227510007511007551
:10273C0012007513017810790C12163E7810790876
:10274C00121605AA10AB11AC12AD137F0C02195066
:10275C009081BD780812168C8A828B8378081216A9
:10276C00797F0402195074F51218A48C828D837829
:10277C000812168C8A828B8378081216521227CA7A
:10278C00C3E09CF0A3E09D1227BC40229081957879
:10279C000812168C8A828B83780812162B8A828BED
:1027AC0083A3A3A3A3E02420F0A3E0344EF080A0E5
:1027BC00F088828983C3E09420A3E0944E22EA241B
:1027CC0004F8E43BF98C828D83A3A3A3A3E0FCA3C0
:1027DC00E0FD888289832274F51218A4E9FE900426
:1027EC00D3E0FAA3E0FBEE29F8E433F974E928F519
:1027FC0082748039F583E02AF508A3E03BF509786B
:10280C0008121A4B9081D91216AA12235074021274
:10281C0017DE8A088B098C0A8D0B74107808121538
:10282C00CDAA08AB097F0402195074F11218A48ABE
:10283C000C8B0D8C0E8D0F7411121814121A6274ED
:10284C0011121814E02401F508A3E03400F509E492
:10285C00F50AF50B780C79081214DE90817D780856
:10286C0012168C780C79081214DEAA0CAB0DAC0E77
:10287C00AD0F12235074021217DE8B09EA45096062
:10288C00047A0180027A00EC2AFCE43DFD741312F8
:10289C001814E0F8A3E0F9E8FEE9FFECF8EDF97A9A
:1028AC00717B0212173D88088909E4F50AF50B8E35
:1028BC00828F83780812169BECF8EDF97A717B0203
:1028CC0012173D8A088B09740578081217B58E8289
:1028DC008F83A3A3A3A3E508F0A3E509F07F080267
:1028EC001950C082C083E9906000F0D083D082225E
:1028FC00C0E074F2121990A2AFE433FED2AFE589B6
:10290C00A2E15003121202758900C2C5751A00EEBD
:10291C00A2E092AF7F010219EFC0E074F21219909D
:10292C00A2AFE433FED2AFE58BA2E0500312120249
:10293C00758B00C2E880D5C0E0C0D0E8C0E0E9C02B
:10294C00E0A9A8D2AFC2C7751A00E9A2E7E433F830
:10295C00E9A2E792AFD0E0F9D0E0F8D0D0D0E032E5
:06296C00C2AF02000022D0
:10297400FFFFFFFFFFFFFFFFC082C083E990160047
:10298400F0D083D08202013274F6121838E9900232
:10299400E8F0900348E0F50875090074027808121D
:1029A40017B5AA08AB0912133A9002E912333F9003
:1029B40002E912372C606F900348E075F003A4FA23
:1029C400ABF012133A90030612333F90030612370A
:1029D4002C700B9002E91236FD12134080489003CC
:1029E400061246917AFF7BFF12116C7A0080198AD5
:1029F40008750900740278081217B512413974FF7A
:102A0400122B3FE4F0A3F00A900348E0F8EAC398DD
:102A140040DD79051208309002E8E0F912071C7ACB
:102A2400BA7B08120AAC0241DC74F41218388A0822
:102A34008B09EB548060479002E8E0F91212B08AE7
:102A44000A8B0BAE0AAF0BEE4F602A8E828F83E0A7
:102A540064B0701A120842E960148E828F83A3A3B3
:102A6400A3A3E0F9EE2405FAE43FFB120812EEFA00
:102A7400EFFB12129EAA08E5096480FB80047A0029
:102A84007B00022C8F74F212183874FB1217C8EAF8
:102A9400FEEBFFEE4F60457403121814EEF0A3EF43
:102AA400F0851882851983ECF0A3EDF074021218F6
:102AB40014E9F0AA18AB19120716E9F50870757431
:102AC40013121814E0F50AA3E0F50BE50A450B60B0
:102AD400638E828F831230C8EE4F700575080280B2
:102AE400537A067B0012133A8A0C8B0DA80CA90D9D
:102AF400E8497005750813803B88828983E4122BAA
:102B04003FEEF0A3EF122C5BE50AF0A3E50BF09087
:102B140002EC122C549002EC6017E0FCA3E080035A
:102B2400EAFCEBFD8C828D83122C5470F38C828D25
:102B340083123D54A9087405024911F0A312467387
:102B4400A32274F21218388908890C750D007403D5
:102B5400780C1217B5850C0A850D0B9002EBF090DA
:102B640002E9123B5F122C52602E1213407900804E
:102B74001D890C750D007402780C1217B59002E9CA
:102B8400123FF88882F583A3A3E4F0A3F00990032D
:102B940048E0F8E9C39840D9900348E0FA850AF080
:102BA400A4CAA8F0850BF0A428FB12133A8A0C8B54
:102BB4000DAE0CAF0DEE4F7003022C48900348E0AD
:102BC400FC850AF0A4CCA8F0850BF0A428FD7900BC
:102BD40012128C7C0080318D0C750D007403780CFE
:102BE4001217B58A828B83122C4D88828983E4F074
:102BF400122C5AA3A3F0A3F00DEDC3950840D8EE10
:102C0400250AFEEF350BFF0C900348E0F8ECC3985F
:102C140050288C0C750D007402780C1217B59002B4
:102C2400E9122C4DE82402500109FAE9FB8A828B4F
:102C340083EEF0A3EFF07D0080BFE5089002EBF097
:102C4400790080027913024914123FFCF922A3A3EC
:102C5400123701EA4B22A3124673A3A3A32274F4EE
:102C64001218387900EAA2E0501F750832750981FC
:102C74007808121A4B79107C047D007A027B1612B4
:102C8400082A74021217DEE9F980007F0402190A87
:102C9400C082C0839002EC12372C601C8882898326
:102CA400A3A3E06A7003A3E06B8882898370E8A31E
:102CB400A3A3A31236FD80047A007B000229857445
:102CC400F212183874FD1217C8EAFEEBFF85188259
:102CD400851983E4F0A3F074021218147401F0123D
:102CE400372970141209E612133A9002EF12333F97
:102CF4001237297003022E5512343FEE2404F50ACC
:102D0400E43FF50B850A82F583E024FE603C24FC55
:102D1400607424FE607E24FE7003022DA524FE70E0
:102D240003022DB224FE7003022DBF24FE700302A1
:102D34002DCC24FE7003022DD924FC7003022DFA3D
:102D440024FE7003022E12022E4E1209E69002F1A6
:102D5400EAF0A3EB122E6112045EE96003022E4E28
:102D64009002F1121A628E828F83A3A3A3A3A312EB
:102D740046918508828509831236FD1207FA74028A
:102D84001217DE022E4EAC18AD19EEFAEFFB120844
:102D940048022E1DAC18AD19EEFAEFFB12084E8056
:102DA40078AC18AD19EEFAEFFB120854806BAC182E
:102DB400AD19EEFAEFFB12085A805EAC18AD19EEAD
:102DC400FAEFFB1208608051AC18AD19EEFAEFFB74
:102DD4001208668044740212181E880C890D780C3F
:102DE400121A4B740212182EEEFAEFFB12086C74CE
:102DF400021217DE8023AC18AD19EEFAEFFB1208AD
:102E040072E9F870167402121814E4F0803CAC18DD
:102E1400AD19EEFAEFFB120878E9F8E8602C8E821F
:102E24008F83A3E064146022850A82850B83E0907B
:102E340002F1F08518828519831236FD9002F21290
:102E4400333FE8A3122E61120458EEFAEFFB120787
:102E5400D07402121814E0F97403024911F07CF1E1
:102E64007D028508828509831237012274E81218CD
:102E74003874FA1217C87404121814ECF0A3EDF0A5
:102E84008A128B13EA2405F50EE43513F50FEA24B0
:102E940002F510E43513F511851082F5831236FD21
:102EA40012054E8A0A8B0B7508007C037D0079009D
:102EB4007AF17B0212128CE50E2402F516E4350F2A
:102EC400F517740212181E880C890D780C121A4B0F
:102ED400850E82850F83A3A3A3A3E0F50C750D00D3
:102EE400780C121A4BE50E2405F50CE4350FF50D9C
:102EF400780C121A4B851682851783123A0412072E
:102F04003474061217DE8A0C8B0DE50C450D700324
:102F14000230918020851882851983E08882898314
:102F2400F00508851882851983A3E0C0E01230D229
:102F3400D0E0F00508E50A24FBFAE50B34FFFBC3F7
:102F4400E5089AE49B40030230917E007F008512DD
:102F540082851383A3A3A3A3E0F5097809121A4F6A
:102F6400E4F514F5157814121A4B7514EE75150260
:102F74007814121A4B9002EF121A62740912181480
:102F8400121A62E50A24F9F9AC0CAD0D851082859C
:102F940011831236FD1208A274091217DEE96003C8
:102FA400023032850E82850F83A3A3A3A3A3A3A318
:102FB400E0F89002EEE0687075E0F5148E15781470
:102FC400121A4B12468E850E82850F83A3A3A3A3E8
:102FD400A3A3A3A31236FD12128674021217DEE90C
:102FE400604C9002F212372C703BE4F51478141202
:102FF4001A4B7CFF7DFF7907851082851183123679
:10300400FD12080C74021217DE1237327017850E87
:1030140082850F8312482B74041218141240EC1288
:103024003A350230C5850C82850D831230C8A81844
:10303400A919881489157814121A4B7404121814D7
:10304400121A62851682851783123335120740746B
:10305400041217DE8A0C8B0DEE4F7003022F0E1232
:1030640030D2EE1230DD1239EBEF1230DDF8A3E08E
:103074003400F9E50C450D6003022F198882898319
:1030840074FFF005081230D274FFF00508E50860FB
:103094001A1313543F12334512046AE9600990026B
:1030A400F21236FD1212F879008016850E82850F11
:1030B4008312482B74041218141240EC123D5479F4
:1030C4000A0239BEA3A3A3A3E0FEA3E0FF22A8083B
:1030D4009002F2E0281239EB22F00508089002F27F
:1030E400E0282274E812183874FA1217C87402120D
:1030F400181412333F7404121814ECF0A3EDF07496
:1031040002121814E024051239D4E0F50CA3E0F5FA
:103114000D7402121814E02402F510A3E03400F533
:1031240011851082F5831236FD12054E750800755F
:103134000900EA24FCFEEB34FFFF8008050CE50CD3
:103144007002050DA808C3EE98EF940050030232F4
:10315400F1A818A919880E890F780E121A4B851434
:1031640082851583A3A3A3A3124695121A4BE514D3
:103174002405F50EE43515F50F780E121A4B851457
:103184008285158312333312073474061217DE8ACC
:103194000E8B0FEA450F70030232F1EA2404F51690
:1031A400E4350FF517851682F583E0F50CA3E0F5F9
:1031B4000D8518828519831246918A828B83A3A375
:1031C400A3E0F98510828511831236FD120722E9E6
:1031D400F50960030232F174021218141239FBF576
:1031E400097809121A4FE4F512F5137812121A4BE2
:1031F4007512EE7513027812121A4B9002EF121A1E
:10320400627407121814121A62EEF9AC0EAD0F852F
:1032140010828511831236FD1208A274091217DE7A
:10322400E9F50960030232F1E508703FE4F50EF5B3
:103234000F780E121A4B7CFF7DFF79098510828569
:1032440011831236FD12080C74021217DE123A2191
:10325400700D740412181412332879110233259056
:1032640002EEE024029002F2F080149002F2E0FAFE
:103274009002EEE0790024025001096A497072A8B4
:10328400089002EEE0FAE82AFAE43400FBEE9AEF42
:103294009B405A851682851783E0C0E09002F312A2
:1032A40030D7D0E0F00508851682851783A3E0C0E7
:1032B400E0089002F31230D7D0E0F005089002EE57
:1032C400124695121A4B12468EA8081239C81212C9
:1032D4007474021217DE9002EEE02508F50874FFFC
:1032E400650C700474FF650D6003023140E50860ED
:1032F4001F9002F2E0F5F0E50884123345120470E1
:10330400E960099002F31236FD1212F87900801177
:10331400E509700375090A7404121814123328A9F4
:10332400090239BE123B63E50CF0A3E50DF022A3BC
:10333400A3124920AA0CAB0D22A3A3EAF0A3EBF03D
:10334400229002F1F07CF17D0285108285118312B6
:1033540037012274EC12183874FC1217C8123E6438
:10336400740212182E1236F712073A8A0C8B0DEAE1
:10337400450D700302342F12343FA818A919881080
:1033840089117810121A4B7CFF7DFF790B85088216
:103394008509831236FD12080C74021217DE1235E9
:1033A40035700C850A82850B83123A3202343C8EC6
:1033B400828F83A3A3A3A3E0F5127812121A4FE419
:1033C400F512F5137812121A4B7512F1751302786F
:1033D40012121A4B7810121A4B7409121814121A7A
:1033E400627409121814E0F9AC0CAD0D85088285DD
:1033F40009831236FD1208A274091217DEE9FE7061
:10340400157CF17D028508828509831236FD12043C
:1034140076E97009802074166E70027E009002F2C4
:103424001236FD1212F8EE7004800B7E01850A82BA
:10343400850B83123D51EEF9023D66EE2402F50838
:10344400E43FF5092274EC12183874FC1217C8EA28
:10345400FEEBFF8C0E8D0FEE2405F508E43FF50915
:10346400740212182E8508828509831236FD12070C
:103474003A8A0C8B0DEA450D7003023525EE2402C1
:10348400F50AE43FF50BA818A919881089117810DA
:10349400121A4B7CFF7DFF790D1236F712080C745B
:1034A400021217DE123535700B85088285098312E6
:1034B4003A32807A8E828F83A3A3A3A3E0F5127895
:1034C40012121A4F850882850983A3A3121A627502
:1034D40012F17513027812121A4B7810121A4B74E7
:1034E40009121814121A627409121814E0F9123627
:1034F400F31208A274091217DEE9FE700F7CF17D45
:10350400021236F712047CE97009802074166E707A
:10351400027E009002F21236FD1212F8EE70048060
:103524000B7E01850882850983123D51EEF9023D27
:103534006612373CF510A3E0F511EA45112274E850
:1035440012183874FE1217C88A168B178C148D152E
:10355400EA2405F50CE43517F50DEA2402F50EE42A
:103564003517F50F850E82F5831236FD12054E8A46
:10357400088B09750B007C037D0079007AF17B02CE
:1035840012128C750A00E50814F5100424FFF508DE
:10359400E50934FFF50980549002F1E0FA9002EE57
:1035A400E0F8EA28F8E43400F9E50898E5099950C8
:1035B4000D9002F1E0F8E510C3989002EEF0E0F50A
:1035C400127513007812121A4B12468E9002F2E012
:1035D4002AFAA3E03400FB12127474021217DE906C
:1035E40002EEE0F89002F1E028F0050A850C8285ED
:1035F4000D83A3A312400840030236D89002F1E0E1
:10360400C39508E4950940030236D8AE0AEE2EFEAF
:10361400E433FF123717AC18AD191246A9E439FB8D
:1036240012073A8A128B13AC12AD13EC4D701B7552
:103634000B01123707123D559002F2122C5460030D
:103644001212F8A90B74020239C0851682851783F9
:10365400A3A3A3A3E0F50B780B121A4FE4F512F51C
:10366400137812121A4B7512EE7513027812121A8D
:103674004B9002EF121A627407121814121A62A9FC
:1036840010850E82850F831236FD1208A27409126A
:1036940017DEE9F50B709B9002F212372C600302DF
:1036A400359CE4F512F5137812121A4B7CFF7DFF5A
:1036B400790F850E82850F831236FD12080C740271
:1036C4001217DE123732600302359C123707123AA2
:1036D400360236497CF17D02850E82850F831236CF
:1036E400FD120482E9600302363C7900023649ACDB
:1036F4000CAD0D850A82850B8312370122E0FAA3F3
:10370400E0FB22123717E0FAA3E0F9EA8514828578
:10371400158322850C82850D83E02EF8A3E03FF902
:1037240088828983229002EF12482FE849221237B7
:103734003CF8A3E0F9E849229002F2EAF0A3EBF0A6
:103744009002F2E02274E812183874FA1217C8745E
:103754000412181412333F8C168D177404121814A3
:10376400E02405F50EA3E03400F50F7404121814D8
:10377400E024021239D41236FD12054E8A0A8B0B4C
:103784007F007E00A818A919880889097808121AE8
:103794004B850E82850F83A3A3A3A3E0F5088E09AE
:1037A4007808121A4BE50E2405F508E4350FF509DF
:1037B4007808121A4B850E82850F83A3A3123A044C
:1037C40012073474061217DE8A0C8B0D8029123905
:1037D400F5F00F1239F5F00F9002EE123D40121A77
:1037E4004B12468EEFF81239C81212747402121773
:1037F400DE9002EEE02FFFE50C450D7003023884E5
:10380400851882851983123E76A3A3A3E0F9851453
:10381400828515831236FD120722E9FEE50C240485
:10382400F510E4350DF511EE7050740412181412ED
:1038340039FBF5087808121A4FE4F508F5097808F9
:10384400121A4B7508EE7509027808121A4B900289
:10385400EF121A627407121814121A62E50A24FA93
:10386400F9AC0CAD0D8514828515831236FD120852
:10387400A274091217DEE9FE6039123A11123D549E
:10388400EF70030239AB9002F2E0F5F0EF8490029E
:10389400F1F07CF17D028514828515831236FD12C8
:1038A4000488E960099002F31236FD1212F87900D7
:1038B4000239BE8F08EF703BE4F512F5137812124B
:1038C4001A4B7CFF7DFF791185148285158312368E
:1038D400FD12080C74021217DE123A217009123A12
:1038E40011123A350239BE9002EEE024049002F23D
:1038F400F080359002EEE0F89002F2E0FAE8240459
:10390400FCE43400FDEC6A4D600302388AE50A24C5
:10391400FAFAE50B34FFFBE50828F8E43400F9EA89
:1039240098EB99500302388A851082851183E0C090
:10393400E09002F3E02FF8A3E034008882F583D00E
:10394400E0F00F851082851183A3E0C0E01239E214
:10395400D0E0F00F740212181E8808890978081242
:103964001A4B7402121814121A62850E82850F8380
:1039740012333312074074041217DE8A0C8B0DEADB
:10398400450D70030237D27402121814E0C0E0121D
:1039940039E2D0E0F00F7402121814A3E0C0E01270
:1039A40039E2D0E00237DAEE70027E0A850E8285B3
:1039B4000F83123A17123D54EEF974061217DE7F84
:1039C4001002190A9002F3E028FAA3E03400FB2263
:1039D400F514A3E03400F515851482F58322123919
:1039E400E6229002F3E02FFAA3E034008A82F58302
:1039F400221239E674FF22123B63A3A3A3A3E0229D
:103A0400124920850E82850F831237012285108288
:103A140085118312482F851682851783229002F31D
:103A2400EAF0A3EBF09002F312482FE84922123D8A
:103A34005AE8F0A3E9F079112274EA12183874FEF6
:103A44001217C88A088B098C128D13EA2405FEE428
:103A54003509FFAC18AD198E828F831236FD12071B
:103A64003A8A0C8B0DEE2406F50EE43FF50FEA4579
:103A74000D7003023B35E5082402F50AE43509F527
:103A84000B8A828B83A3A3A3E0A2E5502885188226
:103A94008519831236FD1208968A108B11EA451196
:103AA400602079121236F38510828511831218363C
:103AB400E9F50C707F850E82850F83E060097952E9
:103AC4008011750C0E806D850882850983A3A3A3DC
:103AD400A3E0F9E4F508F5097808121A4B8E828FF1
:103AE40083A3A3E0F5087808121A4B8E828F83A370
:103AF400A3A3121A628E828F831246911236F71292
:103B040008A874061217DEE9F50C7011850E82857B
:103B14000F83E0702D1236F712048E80257416651B
:103B24000C7011750C007418121814123B5FE480A9
:103B340010750C01124827851282851383E8F0A3BF
:103B4400E9F0850E82850F83E0600479008002A984
:103B54000C74021217DE7F0E02190A123B6322E074
:103B6400F8A3E0F58388822274EC12183874F712F3
:103B740017C88A0A8B0B8C108D11EA2405FEE435D4
:103B84000BFF750C00AC18AD198E828F831236FDB5
:103B940012073A8A088B09EA45097003023D2BE5AE
:103BA4000A2402F50A5002050B8A828B83A3A3A37D
:103BB400E0A2E5502F8518828519831236FD12087C
:103BC400968A0C8B0DEA450D604F7912AC08AD094D
:103BD4001236F7850C82850D83121836E9F50C60D0
:103BE40003023D2E850A82850B83E0F508A3E0F5E8
:103BF40009AA08FB12088AEA4B70197AFF7BFF12A4
:103C0400088AEA4B7003023D218A828B83E508F01F
:103C1400A3E509F07508008008750C0E023D2E0519
:103C2400089002EBE0F8E508C3984003023D2185C3
:103C3400080E750F007403780E1217B58A828B83F1
:103C4400A3A3E0250EF8A3E0350F1240F570D08E43
:103C5400828F83123D4912333F8E828F83A3A31236
:103C64003D4912333DEE2404F508E43FF509850887
:103C740082F583E088828983A3A3A3A3F0A3E4F05D
:103C8400EE2405F50EE43FF50F850E82F583123D13
:103C940049A3A3A3A312333D751207751300781229
:103CA400121A4BEEFCEFFD740412182612127474EF
:103CB400021217DEE4F5127812121A4B8508828577
:103CC4000983E0FC7D0079171236F712080C7402A0
:103CD4001217DE740712181412333F7407121814E3
:103CE400E0FA4B603D850882850983123D40121A33
:103CF4004B850E82850F8312469112127474021240
:103D040017DE740212182E1236F7120494E9602694
:103D140074071218141236FD1212F88019750C0962
:103D24008008750C118003750C01124827851082D8
:103D3400851183123D54A90C74098028E0F5087597
:103D440009007808221237018882898322123D5A99
:103D5400E8F0A3E9F022E0F8A3E0F9850E82850FEC
:103D6400832274041217DE7F0C02190A74EC1218F1
:103D740038123E64751000EE2402F50CE43FF50D94
:103D8400850C82F5831236FD12088A8A088B09EAAB
:103D940045097003023E48850A82850B83E064016D
:103DA4006003023E3DAC08AD09AA0AAB0B12087EC3
:103DB400E9606E8508828509831230CAEE2406F50F
:103DC4000AE43FF50B8E828F83A3A3121A628E82BC
:103DD4008F83A3A3A3A3121A62850A82850B83127D
:103DE4001A6279188E828F83123E761236FD12087B
:103DF400A874061217DEE9F8741668700B850A8237
:103E0400850B83E4F0A38014E860128E828F831202
:103E140036FD850E82850F83EAF0A3EBF0881080CF
:103E240018780E121A4BAC08AD09EEFAEFFB120823
:103E34008474021217DEE9F510AA08AB091208907F
:103E4400E510700E850C82850D831236FD12049ADE
:103E54008009741665107003751000A910023D6B7B
:103E6400EAFEEBFF8C0E8D0FEE2405F50AE43FF518
:103E74000B22124920850C82850D832274EA1218C4
:103E8400387508007509007E007F00750A00EC246F
:103E940002F510E43DF5118035EC65087003ED651D
:103EA400096003023F3588828983A3A3E06A700313
:103EB400A3E06B707C88828983A3A3A3A312482BFD
:103EC400EE28FEEF39FFEA28FAEB39FB050A124027
:103ED40005503A850A0C750D007403780C1217B559
:103EE400851082851183123FF81240F5601FE508A2
:103EF400450970A58C088D09888289831230C88889
:103F0400828983A3A3E02EFAA3E03F80BEE50AC31F
:103F140094025003023FF3750800750900EE4F60E8
:103F240010EEFAEFFB1212F28A0E8B0FEA450F70B5
:103F3400057900023FF5750B00023FC8850B0C752F
:103F44000D007403780C1217B5851082851183E077
:103F5400250CF50CA3E0350DF50DE50C2406F51440
:103F6400E4350DF515851482F5831240FA6042E5B7
:103F74000C2404F512E4350DF513851282F5831231
:103F84001A62E50E2508FAE50F3509FB121274745E
:103F9400021217DE851282851383E02508F508A333
:103FA400E03509F5098514828515831236FD121250
:103FB400F8E50B600D7C087D007900AA0CAB0D12AE
:103FC400128C050BE50BC3950A5003023F40851084
:103FD4008285118312482B88828983A3A3A3A3A378
:103FE400A3E50EF0A3E50F122C5BEEF0A3EFF0793E
:103FF40001023B5A123FFC22E0250CF8A3E0350DE8
:10400400229002EBE0F8E50AC3982274F012183803
:104014008A0E8B0F8C0A8D0B750D00750C00805069
:104024007916EE2406F508E43FF5098E828F83A302
:10403400A3121A628E828F83A3A3A3A3121A62858A
:104044000882850983121A62850E82850F83A3A3D1
:104054001236FD1208A874061217DEE9F50D74165F
:10406400650D706C850882850983E4F0A3F0050C66
:104074009002EBE0F8E50CC3985066AA0C8A087528
:104084000900740378081217B5850A82850B83A387
:10409400A3124144E8FEE9FF8E828F831240FA6046
:1040A40040EA2401F508E43400F5099002EBE065E8
:1040B400087002E509601488828983A3A3A3A3A3DB
:1040C400A3A3A312372C60030240247918024026CC
:1040D400E9609B12482774101218141240EC123D28
:1040E40054A90D7F0802190AE0FAA3E0F5838A8235
:1040F40022F988828983124920EC4D2274F6121821
:10410400387C0080010C900348E0F8ECC398501E02
:104114008C08750900740278081217B5124139E049
:104124006A7003A3E06B70DDE8FAE9FB80047A00AF
:104134007B000241DC9002E9124144888289832297
:10414400E02508F8A3E03509F92274F21218388A38
:10415400088B09750A0080278E828F83A3A3A3A3EB
:10416400122C5260031212F87C087D007900EEFADA
:10417400EFFB12128C8E828F83E4F0A3F0050A12F7
:1041840040055027850A0C750D007403780C12172E
:10419400B5850882850983A3A3E0250CFEA3E03539
:1041A4000DFF8E828F8312372C70AD8508828509AE
:1041B4008374FFF0A3F002491474F612183812083D
:1041C4003C8A828B83E582458370067A007B00807B
:1041D40007A3A3A3A31236FD7F0202190A74F412E3
:1041E400183889088C828D83E06402703C1247CAB7
:1041F400FEA3E0F9EEF8740268700374296970296B
:10420400750A02750B00780A121A4B7410121814EE
:10421400121A627410121814121A62A90812117E6A
:1042240074061217DEE9F980027901022C8F74E812
:1042340012183874FB1217C8E9851882851983F09F
:104244008A168B17ECFEEDFF7510008E828F83A308
:10425400A3A3E0A2E4502D741D1218141236FD120B
:1042640008968A828B83E5824583700302466979C6
:104274000AEEFCEFFDAA16AB17121836E9F510602A
:104284000302466C741F121814E0F508A3E0F50944
:104294007421121814E0F50AA3E0F50B7423121824
:1042A40014E0F50EA3E0F50F8E828F83E0640260C4
:1042B4000302460AA312482B850882850983A38535
:1042C4008212858313EE2406F50CE43FF50D8882F3
:1042D40089831246A9F514E439F5157814121AD510
:1042E4000100002801280C4307000228D1430328B9
:1042F4003F430029004501292B450229CC440329C9
:1043040000450429A4450A46E50E450F600302460C
:1043140005850C82850D8312482BE8FAE9FB8A8215
:104324008B83E0850A82850B831246B4121A4B8A6A
:10433400828B83A3E0FCA3E002458EE50E450F606B
:1043440003024605850A82850B837401F012469E9A
:10435400850882850983F07C007D008E828F83A38B
:10436400A3A3A3E02401FAA3E03400FB12073AEA72
:104374004B60408A828B83E02402F8850A82850B95
:1043840083E028F0EA2404F8E43BF988828983E096
:104394008512828513831246C21246B4121A4B8ABE
:1043A400828B83A3124691E5082403FAE43509FBC2
:1043B400024593850A82850B83E02404F07C047D06
:1043C400007900AA12AB1312128C02466CE50E455A
:1043D4000F600302460512469EFEA3E0FF850A8293
:1043E400850B837404F0EE850882850983F0EF85DC
:1043F4001282851383F0740312182EEEFAEFFB1267
:10440400073A8A0C8B0DEA450D70030244AF8A8289
:104414008B83A3A31230C8740112181E880E890F4F
:10442400780E121A4B7405121814121A627CFF7D4E
:10443400FF12074074041217DE8B0FEA450F703326
:10444400850C82850D83124695121A4B850C828544
:104454000D83A3121A627C027D007AFD7B81120512
:104464003C74041217DEE9700A740112181474FF04
:10447400F0A3F08E828F83E064027039750C0275AC
:104484000D00780C121A4B8E828F83A3124691E58D
:10449400082404FAE43509FB12127474021217DEBC
:1044A400850A82850B83E0240280097401121814A2
:1044B400EEF0A3EFF0740112181412468374011283
:1044C400181412467A0245FFE50E450F60030246B2
:1044D40005850C82850D83124919AA16AB17121192
:1044E40084850A82850B837402F08508828509839A
:1044F400EAF0851282851383EB024602E50E450F2E
:10450400600302460512469EF8A3E0F9850A8285F7
:104514000B837402F0E8850882850983F0E985122B
:1045240082851383024602850C82850D831236FD33
:1045340012126EEAFAF8C3950EE4950F405CE86532
:104544000E450F70047A008021851882851983E056
:10455400FCE50E2CFCE4350FFDC3EC98ED94005003
:1045640003E08005E50ECAC39AFAEA850A82850B40
:1045740083F08A0A750B00780A121A4B850C82851F
:104584000D83E0250EFCA3E0350FFDAA08AB09124C
:10459400127474021217DE02466C75100702466C20
:1045A400E50E450F705B850C82850D8312482B85C3
:1045B4000A82850B837407F08882898312467B12F2
:1045C4004673E0851282851383F0E82402FAE43905
:1045D400FB8A828B831246838A828B8312467AA358
:1045E400A3122C5A124688F0E82405F850010988D1
:1045F400828983124688A31246C2A3A3A3A3F08090
:104604006775100B8062741D1218141236FD12089F
:104614003C8A828B83E5824583604A12482B880C4E
:10462400890DE8450D603E7425121814E0F51078E4
:1046340010121A4F780E121A4B780A121A4B780875
:10464400121A4B7407121814E0F9EEFCEFFDAA16C7
:10465400AB17850C82850D8312183674071217DE8A
:10466400E9F510800375100EA91074050239C0F025
:1046740088828983A322A3E0850882850983221284
:1046840046C9F0221246C9A3A3229002EF12492080
:1046940022E0F50E750F00780E22850C82850D83BD
:1046A400123B63E022E0FAA3E0F8E4C8F9EA282226
:1046B400F08A828B83E0F50A750B00780A22124691
:1046C400731246C922E0850882850983A3A3227454
:1046D400EE12183874FE1217C88A088B09ECFEED26
:1046E400FF890AAC18AD19EEFAEFFB12073A8A0CEF
:1046F4008B0DEA450D70030247BB8518828519832B
:104704001236FD12083C8A828B83E582458370034E
:104714000247B6A3A312482B880E890FE8450F70F1
:10472400030247B67414121814E0F510A3E0F5114F
:10473400E50AF50B780B121A4F7419121814121A91
:10474400627810121A4B741B121814E0F9AC0CADF9
:104754000DAA08AB09850E82850F831218367405DD
:104764001217DEE9F50B705274FE650A604C850C75
:1047740082850D83E0640270411247CAFAA3E0F90E
:10478400EAF87402687003742969702E85108285B2
:1047940011831246A9F50CE439F50D780C121A4B65
:1047A400EEFCEFFDAA08AB091208C074021217DE72
:1047B4008008750B0E8003750B01A90B7402121788
:1047C400DE7F0A02190AA312482F88828983E02215
:1047D40074F612183874FE1217C8740C12181412D6
:1047E400482BE8851882851983F07401121814E99E
:1047F400F0E4F508F5097808121A4B7508027808F0
:10480400121A4B740412181E880889097808121A9F
:104814004B79FE1208A874061217DE74021217DE12
:104824000241DC8E828F8312482F22E0F8A3E0F944
:104834002274F7121838EAFEEBFF89089003061277
:104844004691121184EA5402600BA908EEFAEFFBB8
:1048540012072E800279017F0102190A74F21218DC
:104864003874FE1217C8EAFEEBFF890A7401650A60
:1048740060147402650A600302490F7901120ACABE
:10488400E9600302490FEEFAEFFB12088AEA4B6073
:1048940003120890A818A919880889097808121A17
:1048A4004B7508027509007808121A4B7508ED75E6
:1048B40009817808121A4B7CFF7DFF7A017B001274
:1048C400073474061217DE8038850882850983A3AD
:1048D400A3A3A3A3A3124919EEFAEFFB12116CE4EC
:1048E400F50CF50D780C121A4B7402121814121AE6
:1048F400627CFF7DFFAA08AB0912074074041217FB
:10490400DE8A088B09E508450970BE74021217DEB9
:104914007F0602190A123B6312492022E0FCA3E03D
:10492400FD2274F41218388A088B09ECFEEDFF900E
:104934001600E0F4604B7A097B00121298EA4B608F
:10494400408A828B8374B1F0A3E4124988F08A828E
:104954008B83A3A3E508F0A3E509124988A3EEF02D
:10496400A3EFF0740C12181412482B8A828B83A3C1
:10497400A3A3A3A3A3A3123D54901600E0F912121B
:10498400A4022C8FF08A828B83A3A3A3A32274F0A6
:1049940012183874FA1217C88909ECFEEDFF75086D
:1049A400008A0A8B0B780A121A8F000410B84BD5B0
:1049B40049F3490D4A254A434A5B4A7E4A964AAA24
:1049C4004AD44A4F4B604B774B924BB84BB84BEAA7
:1049D4004A740165096003024BB38E828F83E0F849
:1049E400C394034003024BB3E89016EC024B8F745C
:1049F4000265096003024BB38E828F8312531690B3
:104A040016EDE8F0A3E9024B8F7401650960030217
:104A14004BB3124BE04003024BB3E8900749024BFF
:104A24008F740165096003024BB38E828F83E0F8B3
:104A3400C394054003024BB3E890074A024B8F74BA
:104A44000165096003024BB3124BE04003024BB310
:104A5400E890074B024B8F741065096003024BB357
:104A6400750A10750B00780A121A4B7A4C7B0712E0
:104A7400127474021217DE024BD9740165096003C3
:104A8400024BB3124BE04003024BB3E890075C02C5
:104A94004B8F740165096003024BB38E828F83E0F0
:104AA4009016F0024B8F740465096003024BB38EB9
:104AB400828F83780C12168C9081D9780C1214BFD3
:104AC4005003024BB390075E780C12169B024BD92D
:104AD400E96003024BB31206D4E970051211308069
:104AE400559007F18061740765096003024BB37543
:104AF4000A06750B00780A121A4B8E828F83A3ACB8
:104B040082AD83740212182612127A74021217DE0E
:104B14007C007D00AA18AB198E828F83E0F91210F5
:104B2400DCE9FEC3940A4003024BD61206D4E970B2
:104B34000CEEF912113679501213B8806D74F22EFE
:104B4400F582E43407F583740180407401650970CB
:104B54005E124BE05059E890075D802F740165099F
:104B6400704D8E828F83E0F8C3940A5042E8901609
:104B7400EF80187401650970368E828F83E0F874B3
:104B8400F928C3940A5028E89016F1F0804774017C
:104B94006509701B9007F0E0F88E828F83E0900720
:104BA400F0F0E87030E06401702B12112480267557
:104BB40008188021C3EA9427EB9400501574026509
:104BC40009700F8E828F83125DF6120554E9F50881
:104BD4008003750802A9087406024F048E828F832D
:104BE400E0F8C3940222A90880031217DE7F0402AE
:104BF400190A74F012183874B11217C88C0A8D0B84
:104C0400908138742012182E74061216DB74201248
:104C1400182E1210DCE9FF745F121814E0F509EF86
:104C2400C3940A4003024D7875F006EFA4F50874A6
:104C34004112182E7A0E74202508F91213B2E97065
:104C440009744D121814E0FE80027E009016ECE008
:104C540064027005750E018003750E007408650901
:104C640070047422800274212508F50D7C1B7D00DC
:104C74007900742612182612128C742612182E7AB1
:104C84001BA90D1213B2E9702D7440121814E024FC
:104C9400F9C3940A5020E50EF50D780D121A4F74DD
:104CA4002712182EEEA2E0E433F9AA0AAB0B120580
:104CB400F674011217DE7C147D007900740C12184E
:104CC4002612128C740C12182E7A1074242508F9EA
:104CD4001213B2E970347C1079FF740C1218261286
:104CE40012ECE97025741C121814AC82AD837A049A
:104CF40074252508F91213B2740C12182EEEA2E0D2
:104D0400E433F9AA0AAB0B1205DEAC18AD197A0C20
:104D140074702FF91213B2E97049AA18AB19121161
:104D24000C7F00EF75F003A4F8A9F08518828519AB
:104D340083E58228F8E5831254CD1256AE601D88AF
:104D4400828983A3A3E0F50E750F00780E121A4B27
:104D5400AA0AAB0B1208AE74021217DE0FEFC3944B
:104D64000440C0EEA2E1500C900748E0F9AA0AAB57
:104D74000B1208B47404650970289016ECE0640200
:104D840070207A0090075CE060027A01900749E0A5
:104D94006004780480027800E84AF9AA0AAB0B128E
:104DA40006AA7900744F024F0474F71218381206D9
:104DB400D4E9704F9007F1E064017015121130903E
:104DC40007F1E4F07C0AFDF97AF27B0712128C8079
:104DD4002A750800A80874F228FEE43407FF8E82BE
:104DE4008F83E06401700BA9081211368E828F83C1
:104DF400E4F00508E508C3940A40D979501213B8C1
:104E04001211240257E574F012183874F01217C8FE
:104E1400EAFEEBFF8C088D09750A0AE9600C146040
:104E24000914603B14607D024F0012111EE9F50A5B
:104E3400C3940A4003024F00E50845097003024F7A
:104E440000750C06750D00780C121A4BEEFCEFFD84
:104E5400AA08AB0912127474021217DE024F00750D
:104E64000C00750E06750F00780E121A4BEEFCEF4F
:104E7400FDE50C75F00EA4F8A9F0746A28FA74071D
:104E840039FB12128674021217DEE9700B050CE569
:104E94000CC3940A506680CA850C0AE50AC3940AB6
:104EA400505A8049750C00AC18AD197A1075F0068B
:104EB400E50CA42423F91213B2E9701C7C1079FFC9
:104EC400AA18AB191212ECE9700EEEFCEFFDAA1849
:104ED400AB191205BAE9600B050CE50CC3940A5032
:104EE4001B80C4850C0AE50AC3940A500FE50845E3
:104EF400096009AA08AB09A90A121118A90A7410B1
:104F04001217DE7F0802190A74F412183889097519
:104F1400081574FF6A700374FF6B70277E00AC0978
:104F24007A027B00EEF91210FAE960037508000EAC
:104F3400EEC3940A40E8E50960537A487B11120AEB
:104F4400EE804A120ABE8A0A8B0BAE0AAF0BEE4FF2
:104F540060387C007D00EE2405FAE43FFB8E828FEE
:104F640083A3A3A3A3E0F91210DCE9F9C3940A50C4
:104F74000CAC097A027B001210FA750800E509608E
:104F84000CEEFAEFFB1211488003750814024BEA89
:104F940074F2121838ECFEEDFF750815740E121831
:104FA40014E0F50AA3E0F50B74FF6A700374FF6B59
:104FB4007021750900AC0AAD0BEEFAEFFBA90912DA
:104FC4001100E960037508000509E509C3940A5056
:104FD4003F80E2120ABE8A828B83E5824583602D7C
:104FE4007C007D00E5822405FAE43583FBA3A3A3BA
:104FF400A3E0F91210DCE9F9C3940A5013AC0AAD2A
:105004000BEEFAEFFB12110075080080037508140B
:10501400A9087F0602190AC082C083900762EAF0D9
:10502400A3EBF0900748E0FC7D007A267B00120594
:1050340054900748E0F9120818025AFF74EE121847
:105044003874EC1217C88A088B09EA240CF510E4AA
:105054003509F5118A828B83A385820C85830DEA39
:105064002405F50EE43509F50FEA2409F50AE435BB
:1050740009F50BEA2403FEE43509FF8A828B83A336
:10508400A3E024FA700302530424FD7003025224A3
:1050940014700302511E14601024FD7003025207A1
:1050A40014700302525C02530A125DFC6044E0F582
:1050B400838882125316880C890DE8450D60338568
:1050C4001082851183E0F50E780E121A4FEA240B34
:1050D400F582E43509F583E0F9125DF00A0A0AEF76
:1050E400FB850C82850D8312183674011217DE02BB
:1050F400530A850A82850B83121A6290075E121680
:10510400AA1205F074021217DEE9700302530A7939
:1051140001850A82850B830252D4750A00850C82AC
:10512400850D83E060030251D4850E82850F83E0F0
:10513400A2E040030251D49007FC125DFF60030219
:1051440051D47C0E7D007900AA18AB1912128C85FB
:105154001082851183125ACAEA4B6010750A0675CB
:105164000B00780A121A4BEA2410801B125AC6123A
:105174000ABEEA4B700302530A750A06750B0078DF
:105184000A121A4BEA2405FCE43BFD7402121826A9
:1051940012127474021217DE850E82850F83E0A248
:1051A400E25004D2F08002C2F0A2F0E433F8740CAE
:1051B400121814125C7E121112E970117A027B002B
:1051C400900748E0F91212C8790002530C750A15C9
:1051D400125DFC700302530A12532B700302530A2C
:1051E400850C82850D83E0FC790112531C1218365C
:1051F400E50A700302530AFC7903125AC6125A8153
:105204000252FF125DFC700302530A12532B700307
:1052140002530A850C82850D83E0FC79020252FC5C
:105224007C007D00EA2404FAE43509FB8E828F8336
:10523400E0F91210DCE9F8C3940A400302530AE5CA
:1052440008240AFCE43509FD7A0475F006E8A42470
:1052540025F91213AC02530A125AC690075DE06096
:10526400079016EFE0F9806B9016ECE07004790576
:105274008061120ABE8A0C8B0DA80CA90DE8497036
:105284000302530AE82404F50CE439F50D85088279
:10529400850983A3A3A3A3A3A3A3E0A2E050398514
:1052A4000C82850D83E0F508602E850A82850B83C8
:1052B400A3E054027022740E12182EE82405FAE4B6
:1052C40039FBA9081210DCE9700E79038E828F83F2
:1052D400125ACA1205EA802EAC0EAD0F850C8285D7
:1052E4000D83E0F9125AC6121154125DFC601712B4
:1052F400532B60127C00790012531C12183680065E
:10530400125AC61210D6790174141217DE7F0A02DB
:10531400190AE0F8A3E0F9228E828F83E0FAA3E071
:10532400FB888285098322125A8FF98909E8450985
:105334002274F512183874F21217C8EAFE8C0A7532
:10534400F006E9A42420F508AC18AD197A0EF91278
:1053540013B2E970467C0679FFAA18AB191212EC55
:10536400E97038740C121814125ACAEAF8E50A6083
:1053740005EEC8488004EEF4C858F8EA687001EBFA
:105384006015740C121814E8F0A3E4F0AC18AD190D
:105394007A0EA9081213AC790180027900740E12F6
:1053A40017DE7F0302190A74F212183874E6121712
:1053B400C8890A8A088B09ECFEEDFF740C12182EBA
:1053C4007A0E75F006E9A42420F91213B2E96003F9
:1053D4000254907C0679FF740C1218261212ECE920
:1053E40060030254907470250AF50BAC18AD197A59
:1053F4000CF91213B2E9600302548CAA18AB191207
:10540400110CE5084509701D7C0C7900AA18AB192C
:105414001212ECE970727C0C7D007900AA18AB19A9
:1054240012128C8051AC18AD19AA08AB09121106DE
:105434008A0C8B0DA80CA90DE8497022EE4F604C24
:10544400AC18AD197A007B00121106EAF8EBF9EA00
:105454004B603988828983E508F0A3E509F0125589
:1054640009FAEE6A7001EF601FEEF04F700888824F
:105474008983E4F0A3F0AA18AB1912110CAC18AD8F
:10548400197A0CA90B1213AC790180027900741AF1
:105494001217DE02501674F71218387E00EE75F0FB
:1054A40003A4F8A9F0EC28F8ED1254CDE06A7003D7
:1054B400A3E06B7006E8FAE9FB800B0EEEC39404DC
:1054C40040DB7A007B000257E539F9888289832220
:1054D40074F71218387C00EC75F003A4F8A9F0EA0C
:1054E40028F8EB1254CDE0F4FEA3E0F4FF8882899F
:1054F40083EEF0A3EFF0125509F4F00CECC394041E
:1055040040D50257E5E82402F582E439F583E02228
:1055140074F412183874F41217C8EAFEEBFF8C08FE
:105524008D099007FC125DFF704FEE4F7003025619
:105534008DEC4509700302568D12111EE99016F286
:10554400F0C3940A4033750B007C0679FFE50B75B4
:10555400F00EA4FAABF074642AFA74073BFB12123F
:10556400ECE960030255EE050BE50BC3940A40D940
:10557400750A0AE50A9016F2F09016F2E0C3940A4E
:10558400400302568D75F006E0A4FB9007FC125D03
:10559400FF705CEEFCEFFD7A0E74202BF91213AC55
:1055A4007C0C7D0079FFAA18AB1912128CAC18ADD3
:1055B400197A0C9016F2E02470F91213AC750A0EE5
:1055C400750B00780A121A4BEEFCEFFD9016F2E010
:1055D40012574612127474021217DE9007FCE50883
:1055E400F0A3E509F0790002568F850B0A8084E068
:1055F400C824061256A860197A1B74212BF91213B9
:10560400AC1256942406F582E438F583E4F0A380C2
:10561400D3125694240A1256A860107A1B74222BB3
:10562400F91213AC125694240A80DB125694240CFB
:105634001256A860107A1074232BF91213AC125668
:1056440094240C80C112569D1256A860307A1074AE
:10565400242BF91213AC12569DF582E438F583E03D
:105664002410FCA3E03400FD7A0475F0069016F2D1
:10567400E0A42425F91213AC12569D80899007F0FA
:10568400E0600312115A12114E7901740C024BEEB0
:105694009007FCE0F8A3E0C8229007FCE0F8A3E040
:1056A400C8240822F582E438F583125DF6EC4D2215
:1056B40074F412183874F21217C8EAFEEBFFE9C347
:1056C400940A5004EE4F700479028034AC18AD197A
:1056D4007A0E75F006E9A42420F91213B2E9F5084C
:1056E400701C750A06750B00780A121A4B740212A4
:1056F400182EEEFAEFFB12127474021217DEA908C8
:10570400740E024BEE74F4121838EAFEEBFF7508BF
:1057140000750A06750B00780A121A4BEEFCEFFDB1
:10572400E50812574612128674021217DEE9600465
:10573400A908800B0508E508C3940A40D4790A0235
:105744004BF175F00EA4F8A9F0746428FA740739C3
:10575400FB2274F7121838750800E50875F00EA4DA
:10576400F8A9F0746428FE740739FFEEFCEFFD7AA3
:105774000E75F006E508A42420F91213B2E9602995
:105784007C067D0079FFEEFAEFFB12128C7C067D1D
:105794000079FFEE2CFAE43FFB12128CEE240CF598
:1057A40082E43FF583E4F0A3F00508E508C3940A16
:1057B40040A89007F0E0600312115A12114E8021A4
:1057C40074F71218387E007F007C06EF1257467972
:1057D400FF1212ECE970010E0FEFC3940A40EAEED7
:1057E400F97F0102190A74F71218387E00EEF912D3
:1057F4001136E9F90EEEC3940A5003E960EF80E133
:1058040074F312183874CB1217C889089016F2E092
:105814006508701B7A017B00900748E0F91212CEEC
:105824007A027B00900748E0F91212CE12116675D5
:10583400F006E508A4FF74202FFE742712182E7AB0
:105844000EEEF91213B2E9600302590C7C0679FFDB
:1058540074271218261212ECE9600302590C7C0E0C
:105864007D0079FF742712182612128C7C1B7D0090
:1058740079FF740C12182612128C7C0C7D0079FFAF
:10588400AA18AB1912128C742712182E7A0EEEF97C
:105894001213ACE9FE740C12182E7A1B74212FF922
:1058A4001213ACE9F509740C12182E7A1B74222F0A
:1058B400F91213ACE9F50A740C12182E7A10742339
:1058C4002FF91213ACE9F50B740C12182E7A10741C
:1058D400242FF91213ACE9F50C740C12182E7A0467
:1058E40074252FF91213ACE9FFAC18AD197A0C74B6
:1058F400702508F91213ACE9F8E509450A450B458A
:105904000C4F48CE4EFE80027E00EEF9743512171D
:10591400DE7F0502190A74F7121838E9900748F077
:105924001211240257E574F2121838EAFEEBFF5400
:105934008070030259E9900748E0F91212B08A080E
:105944008B09EA450970030259E27A01E508240546
:10595400F50AE43509F50BE5082404F8E43509F9FA
:10596400880C890D8508828B83E02450603614608E
:105974000624E16058805D88828983E07059850837
:10598400828B83A3A3A3A3A3A3A3121A62125DF021
:105994008508828B83A3A3125ACA1210E8740212D8
:1059A40017DE803388828983E0641E700F79008556
:1059B40008828B83A3A3125ACA1210E2850C828533
:1059C4000D83E0F9AA0AAB0B120812800AAA081286
:1059D40010F4E9FAEA6007AA08AB0912129EEEFA7B
:1059E400EF6480802AEE54026028EE6402FE7C009C
:1059F4007D007A007B00121112E960047A018002B2
:105A04007A027B00900748E0F91212C8EEFAEFFB25
:105A14008068EEA2E050556401F508EFF509125ACA
:105A24009F121160E96033125DFC6029125A9712CB
:105A34005316E8FEE9FFEE4F601B7C007901125A11
:105A44009F8E828F831218367C007903125A9F121C
:105A54005A81121836121166800C7A017B00900765
:105A640048E0F91212C8AA08AB09800E5404600673
:105A7400EE6404FA80047A007B00025016900762F8
:105A8400E0F8A3125A8FF583888222125A97E0F81D
:105A9400A3E022E0F5838882A3A3229007FC125D91
:105AA400E0E0FAA3E0FB227F0202190AC082C0836D
:105AB400900748E0F98A828B83A3125ACA1208B469
:105AC40080398E828F83E0FAA3E0FB22C082C083F8
:105AD40074FF1217C812112AE9C39402851882852B
:105AE4001983400474028002740AF0AC18AD197A68
:105AF4000179051206F274011217DED083D08202F6
:105B0400013274F012183874E81217C8EAFEEBFF79
:105B1400890A8C088D097C187D007900AA18AB19B4
:105B240012128C851882851983EEF0A3EFF090078A
