:020000040000FA
:0600000002011A0221CDED
:03002B000228FAAE
:0300530002224343
:03006B000228C8A0
:10008300022023E5C754F84401F5C7790122000093
:100093000080FB120086B90003020104E479217891
:1000A30008B800028004F709D8FCE479297802B87B
:1000B30000028004F709D8FCE490028178C4791324
:1000C3008002F0A3D8FCD9FA781A90014A7A01BACF
:1000D30000028007E493A3F608DAF97A447B1590CB
:1000E300014B78A379038015E493A3AD82AE838A91
:1000F300828B83F0A3AA82AB838D828E83D8E9D9C6
:10010300E77582DA7583AF740312012C75829175DA
:100113008300740012012C75D00075813F7518811E
:10012300751902759F00020096C09FF59FE473D076
:100133009F22D083D082C09FE493C0E0740193C018
:10014300E0740293F59F2201110199010F126404D7
:1001530000AD2701113104010245820100001A821A
:10016300022F8201000049150253820100004A1543
:10017300022D820300008A02022B82010000521525
:10018300021D820100004B15FF0000B4000028008F
:100193002800283075A000A000A000A000000800DF
:1001A30008E001F000100010001000100010001013
:1001B3000050005000500010001000D00700000055
:1001C3000000000F0001000500307507001000015A
:1001D3000081FF00000000FFFFFF3F065D064506AC
:1001E3008106FF02020208025000A0000000E8039B
:1001F3000245820100001182022F82010000DF15F7
:10020300021F82010000CA02022F82010000E015D2
:10021300022182010000E002022F82010000E115A9
:10022300022382010000E202022F82010000E21594
:10023300022582080000E302022F82010000E31579
:10024300022782010000E415FF0100FF200245821E
:100253000100001482022F82010000481602298245
:100263000000000000022D8203000011031700E1CB
:100273000CE10CE10CE10CE10CE10CE10CE10CE113
:100283000CE10CE10CE10CE10C9F0FB10F990F0293
:100293000202020202020202010D0000001001022A
:1002A30045820100001782022F820100008B160293
:1002B3003F820100004B07022F820100008C1602CF
:1002C3003D820100003481022F820100008D16025D
:1002D3003B820100001881022F820100008E16026A
:1002E3003982010000A080022F820100008F1602D4
:1002F3003782010000D680022F820100009016028F
:100303003582010000C480022F8201000091160291
:100313003382010000B280022F8201000092160294
:1003230055820100002681022F82010000931602EC
:100333003182010000941601E8030577100A1209BF
:10034300486561727420526174652053656E736FE2
:100353007202010605020D180F18486561727420B8
:10036300526174652053656E736F7200000000491B
:1003730049034903211200001002080245820100CB
:10038300004181022F820100007417024B8200009A
:10039300007008022D820300007108022F82010001
:1003A300007517024D820100007308022F820100BD
:1003B300007617024F820200007408FFFFFF00015E
:1003C3003075030201060000000000000000000079
:1003D300000000000000000000000000000000001A
:1003E3000000FFFF0600800CE803120135498F036C
:1003F300120135A58F03120135B88F03120135EAB7
:100403008F031201350B9003120135B690031201CD
:1004130035499103120135109203120135E1870327
:10042300120135F487031201352588031201355F64
:100433008803120135B88803120135FF88031201BE
:1004430035478903120135768903120135A58903DE
:10045300120135DC8903120135238A031201353C6D
:100463008A03120135918A03120135AA8A03120104
:1004730035F88A03120135328B03120135ACA80219
:10048300120135AFA902120135E8A9021201350B99
:10049300AA021201351DAA021201355BAA0212013A
:1004A30035D7AA021201359FAB02120135C1AB0247
:1004B30012013558AC02120135AAAC02120135DB28
:1004C300AC02120135E8AC0212013552AD02120141
:1004D30035A9AD02120135ACAD02120135E5AD020D
:1004E300120135E8AD02120135F2AD0212013546B3
:1004F300AE0212013587AE02120135BAAE02120105
:1005030035F7AE02120135F9AF021201359DB00283
:1005130012013506B10212013544B1021201350050
:10052300800312013528800312013555800312011F
:10053300358D8003120135EB8003120135378103BA
:100543001201359E8103120135DE81031201351B31
:100553008203120135498203120135F3820312012A
:1005630035FD82031201350A83031201353D8303EE
:100573001201354983031201356183031201356B7F
:100583008303120135FCAC031201350AAD031201DA
:100593003522AD0312013539AD0312013510A70120
:1005A300120135BAA701120135CDA801120135494F
:1005B300A90112013567AA01120135A3AA0112018B
:1005C300353EAB0112013522AC01120135EEAC010F
:1005D3001201357CAE01120135EDAE01120135A7D2
:1005E300AF0112013599B001120135D9B0011201E1
:1005F300358DB101120135BFB101120135B5B3011A
:10060300120135F7B30112013515B4011201357B1F
:10061300B4011201354AB5011201350EB6011201BA
:10062300352DB8011201356DC10212013557C202D1
:1006330012013502C30212013553C30212013503FD
:10064300C40212013574C40212013559C5021201E4
:10065300358DC50212013586C602120135C3C602A5
:100663001201359FC702120135DEC702120135FAA6
:10067300C702120135249C03120135A89C03120101
:1006830035D39C03120135ED9D03120135F9830324
:100693001201350F84031201352D84031201353EF7
:1006A3008503120135488503120135738603120150
:1006B300356A8703120135D787031201356FCE02DE
:1006C300120135A5CF02120135DCCF0212013533F9
:1006D300D00212013548D2021201355A82011201A9
:1006E30035E682011201354A84011201355684012F
:1006F300120135918401120135008501120135097A
:100703008601120135128701120135D987011201C1
:100713003536890112013554890112013571890178
:100723001201351E8A011201359B8A01120135C35C
:100733008A011201358D8D01120135928D0112014D
:1007430035AB8F01120135F98F0112013569900123
:10075300120135A79001120135839101120135432E
:1007630092011201358F9201120135929201120109
:1007730035D692011201351E93011201355D9301A5
:100783001201357F9301120135B39301120135161E
:10079300940112013582D90212013590D902120156
:1007A30035E3D90212013502DA0212013547DA02C2
:1007B3001201358BDB0212013526DC021201356A88
:1007C300DC0212013594DC0212013503DD02120151
:1007D3003549DD02120135C0DD0212013571DE0239
:1007E300120135342900120135442900120135E57F
:1007F3002900120135412A00120135FE2A00120197
:10080300351A2C001201354C2C001201357B2C00BB
:10081300120135282E001201359F30001201350FC9
:100823003300120135013400120135FA340012018C
:1008330035013700120135F53900120135243B002B
:10084300120135283D00120135383E00120135C72B
:100853003F00120135B84000120135064100120174
:1008630035754100120135994100120135EA410005
:100873001201358B46001201358C4700120135ED0C
:100883004700120135184800120135DE48001201F5
:1008930035E4F402120135EEF40212013533F502A8
:1008A30012013547F502120135D7F5021201351051
:1008B300F6021201354BF60212013574F6021201EB
:1008C30035C8F602120135DDF602120135FFF602D4
:1008D30012013514F70212013528F7021201353DD2
:1008E300F70212013577F702120135A3F70212015D
:1008F300352AF8021201356DF80212013597F80214
:10090300120135C2F8021201351EA8031201351077
:100913008B02120135F38B021201356E8C02120128
:1009230035A98C02120135FA8D02120135888E0227
:100933001201351A9102120135CC9102120135D8F8
:1009430092021201354B9402120135A49402120152
:100953003552EC0212013595EC0212013519ED0204
:10096300120135F0EF021201359595031201354757
:10097300960312013543970312013582970312013F
:1009830035DC9703120135CFA10312013532A203DF
:10099300120135CFA20312013504A303120135342A
:1009A300A3031201356FA3031201358FA3031201B1
:1009B3003583DE021201350FDF02120135CEDF026D
:1009C300120135E6E00212013500E3021201354659
:1009D300F4011201356BF40112013538F5011201EE
:1009E300350CF60112013579F601120135B9F6011C
:1009F30012013555F70112013589F80112013564E9
:100A0300F901120135C3F9011201354FFA0112013F
:100A130035BDFA0112013549FB011201358FFB0186
:100A230012013501FC0112013593FC011201353429
:100A3300FD0112013554FD011201359CFD01120126
:100A430035E5FD0112013501FE0112013527FE01D5
:100A5300120135A1FE01120135AFFE011201353E2F
:100A6300FF01120135A7FF0112013537E30212011D
:100A730035BCE302120135FEE302120135E2E40262
:100A83001201354FE50212013593E502120135D704
:100A9300E50212013504E6021201352CE6021201C9
:100AA3003564E602120135A2E602120135C9E602F7
:100AB30012013543E7021201358DE7021201353A7F
:100AC300B801120135D9B90112013511BC01120166
:100AD3003565BC0112013590BC011201356CBD01B5
:100AE3001201359CBD01120135CBBD01120135DE6A
:100AF300BD011201351FBE011201354CBE011201A9
:100B0300359ABE01120135D6BE011201351BBF0154
:100B130012013568BF01120135E2BF01120135230D
:100B2300C2011201350DC40112013549C40112017C
:100B330035D8C5011201351DC60112013590C60114
:100B4300120135E5C60112013549C70112013568A5
:100B5300C80112013579C8011201350D9F02120136
:100B630035869F0212013540A5021201354BA602BC
:100B7300120135F4A70212013582A802120135E4ED
:100B83005D00120135655E00120135925E001201AF
:100B930035DB5E00120135DC5F0012013535600084
:100BA300120135B161001201353362001201354E75
:100BB3006200120135BF62001201357C630012012D
:100BC300353F6400120135CD6400120135846500A0
:100BD300120135976500120135306600120135C7E1
:100BE3006600120135EE66001201355767001201E7
:100BF30035A16700120135EF6700120135946800D3
:100C0300120135326900120135BF69001201353016
:100C13006A00120135776A00120135CF6A001201AA
:100C230035016B00120135BB6B00120135C26C003C
:100C33001201350B6D00120135286D001201354785
:100C43006D001201357A6E00120135316F00120109
:100C530035566F001201356B6F00120135DB6F00E3
:100C63001201351C7000120135407100120135C1AB
:100C730071001201354D950212013598950212014A
:100C830035A495021201357896021201358F96022A
:100C9300120135CC9602120135FD9602120135354B
:100CA30097021201358B9702120135A197021201A7
:100CB30035DD9702120135F09702120135179802BC
:100CC3001201354B9802120135719902120135BB9D
:100CD3009A02120135B79B02120135D49C0212010C
:100CE300352929001201359CC801120135D7C801E5
:100CF30012013529CC0112013585CD01120135448C
:100D0300CE01120135ABD10112013595D201120189
:100D130035E1D201120135FBD20112013538D3017D
:100D230012013543D30112013582D3011201358BF0
:100D3300D30112013535D4011201350CD50112014D
:100D43003560D501120135BDD5011201352FD6010C
:100D5300120135EE94011201354D980112013553FC
:100D63009801120135849F011201358BA3011201F1
:100D7300359A8B03120135308C03120135468C03EF
:100D83001201359F8C03120135E38C031201351DCB
:100D93008D03120135B58D03120135248E03120123
:100DA300352D8E03120135398E03120135538E030F
:100DB3001201357D8E03120135928E03120135F433
:100DC3008E031201351B8F03120135A2F0021201AB
:100DD30035AFF002120135C9F002120135FCF00201
:100DE3001201353AF1021201359FF102120135B4B5
:100DF300F102120135BFF102120135CCF1021201E9
:100E030035E3F102120135F1F102120135FCF10271
:100E130012013508F20212013517F20212013522CE
:100E2300F20212013545F202120135E9F202120112
:100E330035F9F20212013513F30212013530F302D0
:100E43001201354BF30212013570F3021201357BA7
:100E5300F30212013590F302120135A4F3021201D9
:100E63003505F4021201350BF40212013511F402B7
:100E730012013517F4021201352FF4021201356203
:100E8300F402120135FC7100120135937200120154
:100E9300352B73001201351B740012013552740097
:100EA300120135657400120135D374001201356ED9
:100EB300760012013595760012013537770012015D
:100EC300356C77001201357D7700120135F6770016
:100ED3001201351778001201352F7800120135877A
:100EE3007900120135907B00120135E07D0012017B
:100EF30035E37E00120135327F001201357ED701C2
:100F03001201357BD80112013566D9011201357002
:100F1300D90112013592D9011201359ED90112016D
:100F230035F0DA011201351FDB011201354FDC0107
:100F330012013591DC01120135BDDD01120135933A
:100F4300DE01120135E5DE0112013544DF01120134
:100F5300357BDF01120135B6DF0112013551E301A3
:100F63001201356AE301120135ECE301120135FA8E
:100F7300E3011201354FE4011201355DE401120171
:100F830035CAE4011201353CE50112013582E50160
:100F93001201350080021201352280021201350C44
:100FA3008202120135B18502120135F48602120163
:100FB30035CE87021201359DA303120135C2A30367
:100FC30012013533A4031201356AB10212013573DC
:100FD300B1021201357CB102120135ADB202120128
:100FE30035CCB40212013502B5021201353CB5020B
:100FF30012013572B502120135ACB502120135E0AA
:10100300B5021201350CB60212013555B6021201B2
:10101300358FB602120135D7B6021201352DB7024C
:1010230012013562B702120135BDB702120135F75D
:10103300B70212013548B8021201357EB802120117
:1010430035B8B802120135E6B80212013509B90202
:1010530012013588AE03120135B4AE031201350F08
:10106300AF0312013519AF0312013529AF03120182
:1010730035E9FC0212013510FD021201353AFD0279
:1010830012013532B0031201354A4900120135AE5F
:101093004B00120135654D00120135C24D0012019E
:1010A30035C44E001201354C4F00120135D34F00A9
:1010B300120135F84F00120135ED5200120135636C
:1010C30053001201355254001201358C54001201A1
:1010D30035CC54001201356C5600120135C156004F
:1010E3001201350E57001201357C5700120135A24B
:1010F3005700120135BC5700120135D258001201B6
:1011030035E25800120135685A00120135885A0039
:10111300120135BE5A00120135425C0012013581BD
:101123005C00120135BF5D00120135F69F03120109
:10113300355AA00312013515A10312013534A10359
:1011430012013588A103120135C9AD03120135DA45
:10115300AD031201357DAE03120135B7FF02120153
:1011630035F6FF02120135DE7F001201351DAC0397
:101173001201352DAC0312013542AC03120135F6D1
:10118300AC0312013532A903120135B6A9031201CA
:10119300351CAA03120135F1A60312013518A70362
:1011A3001201356EA70312013581A703120135D34E
:1011B300A70312013512A80312013515A803120162
:1011C30035EAF802120135FEF80212013577F90209
:1011D3001201354CFA021201351EFC02120135834D
:1011E300FC02120135D6FC02120135F87F00120110
:1011F300351C9E03120135929F03120135F39F03A1
:10120300120135F67F001201355BC8021201352C3D
:10121300CA02120135D6CA021201358ECB0212015F
:1012230035BDCC02120135DFCD021201352ECE02BF
:101233001201350798031201356F980312013582A5
:1012430098031201359E9803120135E098031201A9
:10125300354899031201352CAB0312013555AB0305
:101263001201357EAB0312013596AB03120135D85B
:10127300AB031201350FD40212013519D402120146
:101283003559D402120135A2D402120135DCD4023D
:1012930012013532D50212013551D5021201355AE8
:1012A300D502120135ABD502120135D4D502120194
:1012B30035E9D50212013559D602120135E7D602B6
:1012C3001201352BD70212013553D702120135D241
:1012D300D70212013515D80212013552D802120174
:1012E3003564D80212013583D8021201358CD80235
:1012F30012013556D90212013553A503120135A443
:10130300A5031201352DA60312013593A60312017D
:1013130035D19203120135FB9203120135F5930384
:10132300120135249403120135AA940312013535B1
:10133300AA031201357F7F00120135229A0312019D
:1013430035589A03120135919A03120135EA9B032A
:1013530012013533AF0312013549AF03120135537F
:10136300AF03120135A9AF0312013597B902120178
:101373003554BA021201358FBA02120135B7BA02D7
:1013830012013519BB0212013565BB02120135D0BA
:10139300BB021201354CBC0212013548BD021201D9
:1013A30035CFBE0212013552BF02120135B6BF025C
:1013B300120135CDBF02120135C3C0021201350F30
:1013C300C102120135CDE702120135E2E702120133
:1013D3003592E802120135D2E802120135EBE80238
:1013E3001201351EE9021201356BE9021201359F24
:1013F300E902120135E1E902120135DFEB021201C4
:101403003545EC021201350BE601120135C2E90143
:1014130012013554EB01120135ABEB01120135CA50
:10142300EB0112013548EC01120135DAED0112012D
:1014330035BEEE01120135CFF201120135A3F301DE
:101443001201357CB003120135CAFF01120135C206
:10145300B003E066701008A3E066700A08A3E066B4
:10146300700408A3E06622C3E7960809E796080913
:10147300E7960809E79622C3E09608A3E09608A337
:10148300E09608A3E09622C008C3E096F50808A3F7
:10149300E096420808A3E096420808A3E0964508B0
:1014A3007001D3D00822080808EAC0E0EBC0E08648
:1014B300F0E7A4FA180986F0E7A42AFA180986F0D7
:1014C300E7A42AFA180986F0E7A42AFA1986F0E7AE
:1014D300A4FBE5F02AFA190886F0E7A42BFBE5F054
:1014E3003AFA190886F0E7A42BFBE5F03AFA181844
:1014F3000986F0E7A4C5F02BFBE43AFA1908E7C51F
:10150300F0C6A426F6E5F03BFBE43AFA1886F0E7CA
:10151300A4F6E5F00826F6E43B08F6E43A08F6D02C
:10152300E0FBD0E0FA22E4CFC0E0E4CEC0E0E4CDBB
:10153300C0E0E4CCC0E075F020E626F608E633F61A
:1015430008E633F608E633F6181818EC33FCED33E7
:10155300FDEE33FEEF33FFC3EC9709ED9709EE97EA
:1015630009EF97191919400FFFEC97FC09ED97FD47
:1015730009EE97FE191906D5F0BFECF709EDF70947
:10158300EEF709EFF7191919D0E0FCD0E0FDD0E030
:10159300FED0E0FF226016080808C6C313C618C6AB
:1015A30013C618C613C618C613C6D5E0EA227009B7
:1015B300080808226016181818C6C333C608C633AD
:1015C300C608C633C608C633C6D5E0EA22E627F600
:1015D3000809E637F60809E637F60809E637F6227A
:1015E300E026F608A3E036F608A3E036F608A3E003
:1015F30036F622E026F008A3E036F008A3E036F042
:1016030008A3E036F022C3E697F60809E697F60842
:1016130009E697F60809E697F622C3E096F008A3D1
:10162300E096F008A3E096F008A3E096F022E056D7
:10163300F608A3E056F608A3E056F608A3E056F62C
:1016430022E056F008A3E056F008A3E056F008A302
:10165300E056F022E0F608A3E0F608A3E0F608A3BC
:10166300E0F622E6F008A3E6F008A3E6F008A3E616
:10167300F022E0FAA3E0FBA3E0FCA3E0FD22E0F804
:10168300A3E0F9A3E0FAA3E0FB22E8F0A3E9F0A3C7
:10169300EAF0A3EBF022CAC0E0E6F0A308DAFAD03E
:1016A300E0FA22CAC0E0E0A3C582CCC582C583CDDF
:1016B300C583F0A3C582CCC582C583CDC583DAE6D5
:1016C300D0E0CA22C3E498F8E499F91217088026F7
:1016D300C3E49AFAE49BFBE920E7E9121708E498CC
:1016E300F8E499F922C3E498F8E499F9121708E4A5
:1016F30098F8E499F9C3E49AFAE49BFB22EB20E718
:10170300CFE920E7E0B90010BB0008E88AF084F8CD
:10171300AAF022E4FBC8FA22EB70227B10C833C87C
:10172300C933C9335007C39AC3DBF280069A500109
:101733002ADBEAC833F4C8C933F4C9FA2275F008BE
:10174300E4C833C8C933C933C99AC99B5004C92AE9
:10175300C93BD5F0ECFBC833F4C8E4C9FA22600DE9
:1017630008C6A2E713C618C613C6D5E0F322600C59
:1017730008C6C313C618C613C6D5E0F422700422E4
:10178300600D18C6C333C608C633C6D5E0F41822A5
:10179300251810AF08F518400C15198008F51840E6
:1017A300021519D2AF2200C0D0251810AF08F518C2
:1017B300500C05198008F51850020519D2AFD0D086
:1017C300222518F58210AF08F518400C151980086A
:1017D300F51840021519D2AF851983222518F58211
:1017E300E43519F583222518F8E43519F92225186B
:1017F300FAE43519FB222518FCE43519FD22E473BC
:101803002518C582C0E0E51934FFC583C0E0E5189B
:10181300C3958224F810AF08858319858218800840
:10182300858319858218D2AFCEF0A3E520F0A37883
:1018330008E608F0A3DEFAEFF0A3E58124FAF8E660
:1018430008F0A3E608F0A3E608F0A30808E608F00A
:10185300A3E608F0A315811581D0E0FED0E0F815CA
:101863008115811581E8C0E0EEC0E0222518C5820C
:10187300C0E0E51934FFC583C0E0E518C3958224B1
:10188300F910AF0885831985821880088583198527
:101893008218D2AFCEF0A3E520F0A37808E608F0D3
:1018A300A3DEFAEFF0A3E58124FBF8E608F0A3E654
:1018B30008F0A30808E608F0A3E608F0A3158115CD
:1018C30081D0E0FED0E0F815811581E8C0E0EEC0DC
:1018D300E022851983851882E0A3FEE0A3F5207832
:1018E30008E0A3F608DFFAE0A3FFE0A3C0E0E0A36B
:1018F300C0E0E0A3C0E0E0A3C0E0E0A3C0E010AF1D
:10190300088582188583198008858218858319D2F2
:10191300AFD083D082020132851983851882E0A378
:10192300FEE0A3F5207808E0A3F608DFFAE0A3FFC2
:10193300E0A3C0E0E0A3C0E0E0A3C0E0E0A3C0E018
:1019430010AF0885821885831980088582188583DE
:1019530019D2AFD083D08222C0D02518C582C0E06F
:10196300E51934FFC583C0E0E518C3958224F3105D
:10197300AF088583198582188008858319858218A5
:10198300D2AFC8F0A3E9F0A3EAF0A3EBF0A3790880
:10199300E709F0A3D8FAECF0A3EDF0A3EEF0A3EF80
:1019A300F0A3D0E0F0A3D0E0F0A3D0E0F0A3E520D3
:1019B300F0A3E5F0F0A322851983851882E0C0E047
:1019C300A3E0F9A3E0FAA3E0FBA37808E0F608A3F9
:1019D300DFFAE0FCA3E0FDA3E0FEA3E0FFA3E0C089
:1019E300E0A3E0C0E0A3E0F5D0A3E0F520A3E0A3EB
:1019F300F5F010AF0885831985821880088583194F
:101A0300858218D2AFD082D083D0E0F8D0E0327490
:101A1300048006740280027401C0E0F4041217C447
:101A2300D0E0121699227404800474028000CCC0A2
:101A3300E0EDC0E0E518C39CCCAD1950011D10AF1B
:101A4300068C188D1980068C188D19D2AF1216A624
:101A5300D0E0FDD0E0FC22D083D082E9C0E0E49363
:101A6300A3C386F0C5F095F0F908E493A386F0C507
:101A7300F095F0700BE493A3C3994005E904800249
:101A8300A3E475F002A42582F582E5F03583F5839E
:101A9300D0E0F9E493A3C0E0E493C0E022D083D084
:101AA30082ECC0E0EDC0E0E493A3FCE493A3FDED7E
:101AB3004C600D121AECEC24FFFCED34FFFD80EFBB
:101AC300E493A3FCE493A3FDED4C600D121B2BECFC
:101AD30024FFFCED34FFFD80EFD0E0FDD0E0FCE41B
:101AE30093A3C0E0E493C0E022C0E0C3E49396086C
:101AF3007401939618400FE4936670080874019379
:101B0300661870007019A3A3C3E493960874019335
:101B13009618A3A3400DD0E0D0E0D0E0021ADCA3D6
:101B2300A3A3A3A3A3D0E022C0E0C0F088F0E49372
:101B33006670080874019366187000A8F0A3A37078
:101B43000BD0F0D0E0D0E0D0E0021ADCA3A3D0F0B9
:031B5300D0E022BD
:101B580074F612186FEAFEEBFF8C088D09EE243438
:101B6800F8E43FF9E8FCE9FDEE2435121E6BFAEEC5
:101B78002437121E6BF88508F0A4C885F00A850979
:101B8800F0A4250AF9EA28F8E439F97A257B001245
:101B98001708EA8C828D83F0FA131313541FF8EE9A
:101BA80028F8E43FF9E8245DF582E439F583E0C0DC
:101BB800E074075AF8D0E0B800028004C313D8FCD8
:101BC800A2E0EE50082434F582E43F80182436124F
:101BD8001E6BF5F0EA84A8F0EE28F8E43FF9E82453
:101BE80038F582E439F583E0F97F0302191B74F7AD
:101BF80012186FEAFEEBFFEE2434121E6BC0E0EE03
:101C08002435F582E43FF583D0E0F08E828F83A3FC
:101C1800A3A3A3A3A3A3C082C0838E828F83A3A3FD
:101C2800A3A3A3E0F8A3E0F9D083D082E0C398F59A
:101C380008A3E099F509EE247F121E6B6401703E3B
:101C4800EE2480F582E43FF583C082C0838E828FC4
:101C580083A3A3A3A3A3E0240108A3E03400F9D03D
:101C680083D082E0687003A3E06970127CBC7D04B5
:101C7800120C21EE247FF582E43FF583E4F0AC08F2
:101C8800AD09EEFAEFFB121B58E9F91228BA7F02E8
:101C980002191BC082C083851882851983E0F8A3C6
:101CA800E0F9C3EA9CEB9D5010C3EC98ED99401BFA
:101CB800C3EA98EB995014800EC3EA98EB99400751
:101CC800C3EC98ED994004790180027900D083D063
:101CD8008222EAC39CFAEB9DFB2274EF12186F90E4
:101CE8000381E064086005E06407702A9061C8E039
:101CF80060249003AFE0F4601DE0F875F00BA4C811
:101D0800AAF02AF974B128FE740339FF8E828F83F2
:101D1800A3A3A3E07003021DF0906060E0C0E0EEB2
:101D28002468F582E43FF583D0E0F0750C2C750D3E
:101D380005750800750900E5D914F50AE5D95403B5
:101D4800F50E60127403650E6043E50A600AEE241E
:101D580067121E6B70028075900527E06401601F92
:101D6800121E6860047A0480027A00E50AC39AFAAF
:101D780095E0FB120AD18A088B09EA450970051219
:101D88000E678064121E6870048A0C8B0DE50A6069
:101D980012850C82850D83F50BE5D9F0A3150BE5AB
:101DA8000B70F6121E68604474FC250AF50A780C5C
:101DB800121A16AC0AA90EEEFAEFFB120CDB74022B
:101DC8001217A9E97026AA08AB091212FF793D8EED
:101DD800828F83A3A3A3A3E0FA7B00120933EEFA50
:101DE800EFFB120C45120CED7900806F7403650E41
:101DF8006051850A107511007810121A16AC0CADD6
:101E08000DAA08AB09120C9F74021217A9EE2468D8
:101E1800121E6B64807004747F8001E0F50C780CEE
:101E2800121A1AE50EF50C780C121A1AA90AAC083F
:101E3800AD099003AFE0FA7B00120909740212178A
:101E4800A98013900381E06408600BAC0CAD0DEE23
:101E5800FAEFFB120D65120E7379017F0A02191B46
:101E6800EE2483F582E43FF583E02274F212186FC2
:101E780074FC121793EAFEEBFF8909A2AFE433F56D
:101E880008C2AF021F3DE0601B780C121A16AC0B9B
:101E9800A90EEEFAEFFB120CD574021217A97404FE
:101EA800250BF50B7401250BF5D9850ED9E50B60CB
:101EB80018F50A850C82850D83E0F5D9A385820C77
:101EC80085830D150AE50A70EA75E195EE2463F835
:101ED800E43FF97A007B00A2AFE433F50BC2AF8888
:101EE800828983E0FCA3E0FDEC4D603A8882898317
:101EF800E0FAA3E0FB8A828B83E0FCA3E0FD888202
:101F08008983ECF0A3EDF08A828B83E4F0A3F08858
:101F1800828983E0FCA3E0FDEC4D700A8882898306
:101F2800A3A3E4F0A3F0E50BA2E092AF1212FF9096
:101F380004C3E004F0EE2463121E6BF8A3E0F9E892
:101F4800496064EE2463121E6B2402F8A3E0340097
:101F5800F988828983E5822402F50CE43583F50D3E
:101F6800E0F50BA3E0F50EEE2462121E6B6401701F
:101F7800369061D0E0F8121E6860047C0480027C10
:101F8800007480C398FA95E0FBE50B2CF8E4340064
:101F9800F9E82402F8500109C3EA98EB99A2D2653E
:101FA800D0334003021E8E9004C3E0604D9004C4F9
:101FB800E0F89004C3E0C398500C74026509703AC5
:101FC8009004C5E060348E828F83A3A3A3A3E08529
:101FD800188285198312201274021217DFE8122062
:101FE800129004C2E028F074021217F9AA18AB196B
:101FF800790112095D9004C3E4F0E508A2E092AF0C
:1020080074041217A97F0702191BF0A3E4F09004C7
:10201800C3E0F8228521878522C622C0E074EB122E
:10202800195BA2AFE433F508C2AF759B00906182DB
:10203800E0A2E05030E591A2E0502A7591FE7401CB
:10204800652170211221B6120DB31221A4121A298A
:1020580012266474041217A9E96401700579011243
:102068000DFB121CE2906182E0A2E5505DE591A2B1
:10207800E550577591DF900381E064076005E064DF
:1020880008702F1221B674016521703E120DB3122B
:1020980021A4121A2912266474041217A9E96401EA
:1020A80070057901120DFB7901EEFAEFFB121E7330
:1020B8008018E0640D70139003A3E004F0642870A6
:1020C80002E4F07A00E0F9120E79906182E0A2E66B
:1020D8004003022179E591A2E64003022179759136
:1020E800BF900381E064057008120D9B120DA78054
:1020F80003120DA1752100120E07E9900382F079F1
:1021080000120DFB120B917A017B00900380E0F91D
:102118001212CF907803E06442705690052BE014B9
:10212800F0704EC2AF12213000782AD0E0F618D0F5
:10213800E0F6E59F5407F87005750DFF8003750DEF
:102148007FC4C0E07829E6F50A08E6550DF50B745A
:102158000B780A121771D0E0250AF8906270E0A295
:10216800E740F8E8C333906272F0906270E0D2E022
:10217800F0906181E0A2E35009E5E9A2E35003751C
:10218800E9F7A3E0A2E75009E591A2E750037591AA
:102198007FE508A2E092AF7F080219BA8E828F838A
:1021A800E0F8A3E0C82416F582E438F5832290030A
:1021B800AFE0F875F00BA4C8AAF02AF974B128FEAC
:1021C800740339FF22C0E0C0D0C082C0839061830D
:1021D800E0A2E05009E5BFA2E0500375BFFEE0A20F
:1021E800E15009E5BFA2E1500375BFFDE0A2E2504E
:1021F80009E5BFA2E2500375BFFBE0A2E35009E581
:10220800BFA2E3500375BFF7E0A2E45009E5BFA2FF
:10221800E4500375BFEFE0A2E55009E5BFA2E55021
:102228000375BFDFE0A2E65009E5BFA2E6500375DB
:10223800BFBFD083D082D0D0D0E032C0E074F212D9
:10224800195BE5A7A2E6500FE5A1A2E6500953A73E
:10225800BF75A1BF122297E5A7A2E5500CE5A1A280
:10226800E5500653A7DF75A1DFE5A7A2E15009E510
:10227800A1A2E1500375A1FDE5A7A2E2500CE5A1DA
:10228800A2E2500653A7FB75A1FB7F010219BA749D
:10229800F712186F752101900381E064067015121A
:1022A8000D118A828B83A3A3A3A3A3A3E0FAA3E0BF
:1022B800FB120D89A2AFE433FED2AF900387E0642E
:1022C8000170187A207B00900380E0F91213E97AF4
:1022D800207B00900380E0F91212D5906182E0D251
:1022E800E6F0900528E0602185C6228016900386D6
:1022F800E064017008E5C654F84405F5C653BEFC11
:1023080012201C7401652160E4EEA2E092AF7F0206
:1023180002191B008E238F24858228858327851820
:1023280082851983E0CEA3E0CF852882852783EBB9
:10233800C9EAC8EDCBECCA75F010C3E833C8E93375
:10234800C9EA33CAEB33CBC3EA9EF526EB9FF525E2
:10235800B35004AB25AA26EC33CCED33CDD5F0DA57
:10236800AE23AF242274E912186F74FA121793EA95
:10237800FEEBFF8C0A8D0B120DBFEAF8EBF9ECFAB5
:10238800EDFB8E828F8312168D900381E024F7C3B4
:10239800940550067514010224D4120D118A088B75
:1023A80009EA450970030224D1EEFCEFFDAA18AB37
:1023B80019120DB9850882850983A3A3780C121612
:1023C800579081E5780C1216318518828519837823
:1023D800101216579081E57810121631780C791082
:1023E80012146A501F780C7910121609908201781D
:1023F8000C12148A4047850C14850D15850E168518
:102408000F178045908201851014851115851216C5
:102418008513177814790C121609781412148A5037
:102428001C75140075150075160075170178147958
:10243800101216097814790C1215D0800C75140135
:10244800751500751600751700740978141215B102
:102458009081DD780C1216577814790C121529859D
:102468000882850983A3A3A3A3A3A31224F21217A6
:1024780008880C890DE4F50EF50F7814790C1215FF
:10248800D074041217DF1224F2121708E8FA8A0C23
:10249800E4F50D7814790C12146A50077814790C45
:1024A800121609900381E06408600AE0640660057A
:1024B800E06405702090819D781412148A5016905B
:1024C80081A178141215E3800C7514007515007538
:1024D8001600751700850A82850B83781412166614
:1024E80074061217A97F1002191BE0F8A3E0F97A05
:1024F800D07B032274F712186F120DD1900526E0D5
:1025080064017010906245E4F0A3F053F4F343FEC5
:102518000C5390F3120D77E5C654B84441F5C6E55F
:102528009E5447644170F8906185740FF0900524BB
:10253800E0F47002A3E0604E900525E060081460A6
:102548001B14602E8040750801750900900524E071
:102558007808121780E508F45280802A75080175FA
:102568000900900524E07808121780E508F45290D5
:102578008014750801750900900524E07808121781
:1025880080E508F452A079007F0202191B74F71243
:10259800186FE9FEEAFF120DD174016E700C7A8093
:1025A8007B00900380E0F91212CF90292CE493F479
:1025B8006008E493F9120B85800953C6B8E59E5468
:1025C8004770FA120D7D900526E064017003120B26
:1025D800A3900524E0F47002A3E0604B900525E089
:1025E800600814601A14602C803D75080175090094
:1025F800900524E07808121780E508428080287545
:102608000801750900900524E07808121780E5088C
:1026180042908013750801750900900524E0780838
:10262800121780E50842A0120D118A088B09A80824
:10263800A909E8496014E5E170FCE82414F582E48E
:1026480039F583E0F46003E0F5E174016F700A7A0C
:1026580001900380E0F912135F02259074F11218BB
:102668006F8A088B098C0A8D0B9081E57808121601
:1026780031740F1217DF780C1216579081E5780C19
:102688001216317808790C12146A90820150107869
:1026980008790C121609780812148A4014800E78EA
:1026A8000C7908121609780C12148A5004790180E2
:1026B8000279007F0802191B74ED12186F8A088BC3
:1026C800098C0A8D0B9081E5780812163174131263
:1026D80017DF780C1216579081E5780C12163178AE
:1026E8000C790812146A40117808790C121609AA94
:1026F80008AB09AC0AAD0B80227510007511007586
:1027080012007513017810790C12160978107908DF
:102718001215D0AA10AB11AC12AD137F0C02191B05
:102728009081E578081216578A828B8378081216EA
:10273800447F0402191B74F512186F8C828D8378FC
:10274800081216578A828B83780812161D1227964C
:10275800C3E09CF0A3E09D12278840229081ED7889
:10276800081216578A828B8378081215F68A828B8C
:1027780083A3A3A3A3E02420F0A3E0344EF080A019
:10278800F088828983C3E09420A3E0944E22EA244F
:1027980004F8E43BF98C828D83A3A3A3A3E0FCA3F4
:1027A800E0FD888289832274F512186FE9FE90048F
:1027B800DEE0FAA3E0FBEE29F8E433F974E828F543
:1027C80082748039F583E02AF508A3E03BF509789F
:1027D80008121A1690820912167512231C74021216
:1027E80017A98A088B098C0A8D0B741078081215A2
:1027F80098AA08AB097F0402191B74F112186F8A92
:102808000C8B0D8C0E8D0F74111217DF121A2D748C
:10281800111217DFE02401F508A3E03400F509E4FC
:10282800F50AF50B780C79081214A99081AD78088F
:10283800121657780C79081214A9AA0CAB0DAC0E15
:10284800AD0F12231C74021217A98B09EA450960FF
:10285800047A0180027A00EC2AFCE43DFD7413122C
:1028680017DFE0F8A3E0F9E8FEE9FFECF8EDF97A04
:10287800717B0212170888088909E4F50AF50B8E9E
:10288800828F837808121666ECF8EDF97A717B026C
:102898001217088A088B09740578081217808E8227
:1028A8008F83A3A3A3A3E508F0A3E509F07F08029B
:1028B800191BC082C083E9906000F0D083D08222C7
:1028C800C0E074F212195BA2AFE433FED2AFE5891F
:1028D800A2E04006E589A2E150031211AF75890014
:1028E800758900C2C5751A00EEA2E092AF7F010299
:1028F80019BAC0E0C0D0E8C0E0E9C0E0A9A8D2AFEA
:10290800C2C7751A00E9A2E7E433F8E9A2E792AF73
:10291800D0E0F9D0E0F8D0D0D0E032C2AF02000069
:1029280022020132FFFFFFFFFFFFFFFFC082C083CB
:10293800E9901647F0D083D08202013274F612185B
:1029480003E99002F3F0900353E0F5087509007469
:10295800027808121780AA08AB091213479002F4EC
:102968001232F79002F41236E4606F900353E07568
:10297800F003A4FAABF01213479003111232F79048
:1029880003111236E4700B9002F41236B512134D8F
:1029980080489003111246497AFF7BFF12112B7A67
:1029A8000080198A087509007402780812178012C5
:1029B80040F174FF122AF7E4F0A3F00A900353E001
:1029C800F8EAC39840DD79051207FB9002F3E0F9B5
:1029D8001206E77A857B08120A7102419474F41290
:1029E80018038A088B09EB548060479002F3E0F9DA
:1029F8001212B78A0A8B0BAE0AAF0BEE4F602A8E03
:102A0800828F83E064B0701A12080DE960148E8218
:102A18008F83A3A3A3A3E0F9EE2405FAE43FFB12F6
:102A280007DDEEFAEFFB1212A5AA08E5096480FBA0
:102A380080047A007B00022C4774F212180374FB9E
:102A4800121793EAFEEBFFEE4F604574031217DF8F
:102A5800EEF0A3EFF0851882851983ECF0A3EDF072
:102A680074021217DFE9F0AA18AB191206E1E9F5AA
:102A780008707574131217DFE0F50AA3E0F50BE58B
:102A88000A450B60638E828F83123080EE4F70058B
:102A980075080280537A067B001213478A0C8B0D47
:102AA800A80CA90DE8497005750813803B88828930
:102AB80083E4122AF7EEF0A3EF122C13E50AF0A331
:102AC800E50BF09002F7122C0C9002F76017E0FC6F
:102AD800A3E08003EAFCEBFD8C828D83122C0C7042
:102AE800F38C828D83123D0CA90874050248C9F045
:102AF800A312462BA32274F21218038908890C75B5
:102B08000D007403780C121780850C0A850D0B9044
:102B180002F6F09002F4123B17122C0A602E1213E0
:102B28004D7900801D890C750D007402780C121700
:102B3800809002F4123FB08882F583A3A3E4F0A347
:102B4800F009900353E0F8E9C39840D9900353E0A3
:102B5800FA850AF0A4CAA8F0850BF0A428FB121382
:102B6800478A0C8B0DAE0CAF0DEE4F7003022C0094
:102B7800900353E0FC850AF0A4CCA8F0850BF0A4E0
:102B880028FD79001212937C0080318D0C750D00A0
:102B98007403780C1217808A828B83122C05888222
:102BA8008983E4F0122C12A3A3F0A3F00DEDC395D2
:102BB8000840D8EE250AFEEF350BFF0C900353E0D2
:102BC800F8ECC39850288C0C750D007402780C1220
:102BD80017809002F4122C05E82402500109FAE942
:102BE800FB8A828B83EEF0A3EFF07D0080BFE508BF
:102BF8009002F6F07900800279130248CC123FB4B3
:102C0800F922A3A31236B9EA4B22A312462BA3A397
:102C1800A32274F41218037900EAA2E0501F750881
:102C28005F7509817808121A1679107C047D007A7C
:102C3800497B161207F574021217A9E9F980007F7B
:102C4800040218D5C082C0839002F71236E4601CD3
:102C580088828983A3A3E06A7003A3E06B888289D2
:102C68008370E8A3A3A3A31236B580047A007B007F
:102C780002293D74F212180374FD121793EAFEEB51
:102C8800FF851882851983E4F0A3F074021217DF18
:102C98007401F01236E170141209AB121347900256
:102CA800FA1232F71236E17003022E0D1233F7EEE4
:102CB8002404F50AE43FF50B850A82F583E024FE37
:102CC800603C24FC607424FE607E24FE7003022DA8
:102CD8005D24FE7003022D6A24FE7003022D772402
:102CE800FE7003022D8424FE7003022D9124FC70D3
:102CF80003022DB224FE7003022DCA022E06120909
:102D0800AB9002FCEAF0A3EB122E19120429E96039
:102D180003022E069002FC121A2D8E828F83A3A323
:102D2800A3A3A31246498508828509831236B512E2
:102D380007C574021217A9022E06AC18AD19EEFACF
:102D4800EFFB120813022DD5AC18AD19EEFAEFFB04
:102D58001208198078AC18AD19EEFAEFFB12081FAB
:102D6800806BAC18AD19EEFAEFFB120825805EAC4B
:102D780018AD19EEFAEFFB12082B8051AC18AD19FB
:102D8800EEFAEFFB120831804474021217E9880C3E
:102D9800890D780C121A1674021217F9EEFAEFFB65
:102DA80012083774021217A98023AC18AD19EEFA6D
:102DB800EFFB12083DE9F8701674021217DFE4F011
:102DC800803CAC18AD19EEFAEFFB120843E9F8E8BD
:102DD800602C8E828F83A3E064146022850A82852A
:102DE8000B83E09002FCF08518828519831236B5B2
:102DF8009002FD1232F7E8A3122E19120423EEFAFC
:102E0800EFFB12079B74021217DFE0F97403024804
:102E1800C9F07CFC7D028508828509831236B922B7
:102E280074E812180374FA12179374041217DFEC7B
:102E3800F0A3EDF08A128B13EA2405F50EE435139E
:102E4800F50FEA2402F510E43513F511851082F523
:102E5800831236B51205198A0A8B0B7508007C0394
:102E68007D0079007AFC7B02121293E50E2402F5AC
:102E780016E4350FF51774021217E9880C890D78D6
:102E88000C121A16850E82850F83A3A3A3A3E0F55F
:102E98000C750D00780C121A16E50E2405F50CE4D5
:102EA800350FF50D780C121A1685168285178312C0
:102EB80039BC1206FF74061217A98A0C8B0DE50C93
:102EC800450D70030230498020851882851983E0FA
:102ED80088828983F00508851882851983A3E0C054
:102EE800E012308AD0E0F00508E50A24FBFAE50B89
:102EF80034FFFBC3E5089AE49B40030230497E0097
:102F08007F00851282851383A3A3A3A3E0F5097824
:102F180009121A1AE4F514F5157814121A1675140C
:102F2800F97515027814121A169002FA121A2D74ED
:102F3800091217DF121A2DE50A24F9F9AC0CAD0DA8
:102F48008510828511831236B512086D740912171F
:102F5800A9E96003022FEA850E82850F83A3A3A344
:102F6800A3A3A3A3E0F89002F9E0687075E0F51454
:102F78008E157814121A16124646850E82850F830E
:102F8800A3A3A3A3A3A3A3A31236B512128D7402FD
:102F98001217A9E9604C9002FD1236E4703BE4F583
:102FA800147814121A167CFF7DFF79078510828524
:102FB80011831236B51207D774021217A91236EA0E
:102FC8007017850E82850F831247E374041217DF8A
:102FD8001240A41239ED02307D850C82850D8312D2
:102FE8003080A818A919881489157814121A16742B
:102FF800041217DF121A2D8516828517831232EDF7
:1030080012070B74041217A98A0C8B0DEE4F70036C
:10301800022EC612308AEE1230951239A3EF123002
:1030280095F8A3E03400F9E50C450D6003022ED1B4
:103038008882898374FFF0050812308A74FFF005CE
:1030480008E508601A1313543F1232FD120435E9DB
:1030580060099002FD1236B51212FF7900801685BC
:103068000E82850F831247E374041217DF1240A4FF
:10307800123D0C790A023976A3A3A3A3E0FEA3E0CC
:10308800FF22A8089002FDE0281239A322F00508C3
:10309800089002FDE0282274E812180374FA121747
:1030A8009374021217DF1232F774041217DFECF070
:1030B800A3EDF074021217DFE0240512398CE0F555
:1030C8000CA3E0F50D74021217DFE02402F510A33B
:1030D800E03400F511851082F5831236B512051912
:1030E800750800750900EA24FCFEEB34FFFF800830
:1030F800050CE50C7002050DA808C3EE98EF9400C6
:1031080050030232A9A818A919880E890F780E123F
:103118001A16851482851583A3A3A3A312464D12FC
:103128001A16E5142405F50EE43515F50F780E1278
:103138001A168514828515831232EB1206FF74065F
:103148001217A98A0E8B0FEA450F70030232A9EAFB
:103158002404F516E4350FF517851682F583E0F596
:103168000CA3E0F50D8518828519831246498A82D9
:103178008B83A3A3A3E0F98510828511831236B54A
:103188001206EDE9F50960030232A974021217DF8D
:103198001239B3F5097809121A1AE4F512F51378F9
:1031A80012121A167512F97513027812121A16905D
:1031B80002FA121A2D74071217DF121A2DEEF9AC43
:1031C8000EAD0F8510828511831236B512086D7405
:1031D800091217A9E9F50960030232A9E508703F49
:1031E800E4F50EF50F780E121A167CFF7DFF7909AB
:1031F8008510828511831236B51207D7740212170B
:10320800A91239D9700D74041217DF1232E079113E
:103218000232DD9002F9E024029002FDF080149061
:1032280002FDE0FA9002F9E0790024025001096AEF
:10323800497072A8089002F9E0FAE82AFAE4340022
:10324800FBEE9AEF9B405A851682851783E0C0E013
:103258009002FE12308FD0E0F0050885168285179F
:1032680083A3E0C0E0089002FE12308FD0E0F005A2
:10327800089002F912464D121A16124646A808126C
:10328800398012127B74021217A99002F9E02508FE
:10329800F50874FF650C700474FF650D6003023057
:1032A800F8E508601F9002FDE0F5F0E508841232A9
:1032B800FD12043BE960099002FE1236B51212FFB6
:1032C80079008011E509700375090A74041217DF83
:1032D8001232E0A909023976123B1BE50CF0A3E58E
:1032E8000DF022A3A31248D8AA0CAB0D22A3A3EA7F
:1032F800F0A3EBF0229002FCF07CFC7D02851082AA
:103308008511831236B92274EC12180374FC121753
:1033180093123E1C74021217F91236AF1207058A6F
:103328000C8B0DEA450D70030233E71233F7A8182A
:10333800A919881089117810121A167CFF7DFF7957
:103348000B8508828509831236B51207D7740212D5
:1033580017A91234ED700C850A82850B831239EA9D
:103368000233F48E828F83A3A3A3A3E0F51278120D
:10337800121A1AE4F512F5137812121A167512FCBD
:103388007513027812121A167810121A1674091286
:1033980017DF121A2D74091217DFE0F9AC0CAD0D06
:1033A8008508828509831236B512086D74091217CB
:1033B800A9E9FE70157CFC7D0285088285098312C7
:1033C80036B5120441E97009802074166E70027EC9
:1033D800009002FD1236B51212FFEE7004800B7ECB
:1033E80001850A82850B83123D09EEF9023D1EEE26
:1033F8002402F508E43FF5092274EC12180374FC62
:10340800121793EAFEEBFF8C0E8D0FEE2405F508DC
:10341800E43FF50974021217F985088285098312B9
:1034280036B51207058A0C8B0DEA450D7003023478
:10343800DDEE2402F50AE43FF50BA818A919881057
:1034480089117810121A167CFF7DFF790D1236AF9C
:103458001207D774021217A91234ED700B8508826F
:103468008509831239EA807A8E828F83A3A3A3A366
:10347800E0F5127812121A1A850882850983A3A327
:10348800121A2D7512FC7513027812121A1678107A
:10349800121A1674091217DF121A2D74091217DF7F
:1034A800E0F91236AB12086D74091217A9E9FE701B
:1034B8000F7CFC7D021236AF120447E970098020A8
:1034C80074166E70027E009002FD1236B51212FF5D
:1034D800EE7004800B7E01850882850983123D0900
:1034E800EEF9023D1E1236F4F510A3E0F511EA4597
:1034F800112274E812180374FE1217938A168B1798
:103508008C148D15EA2405F50CE43517F50DEA241D
:1035180002F50EE43517F50F850E82F5831236B5E0
:103528001205198A088B09750B007C037D00790048
:103538007AFC7B02121293750A00E50814F5100450
:1035480024FFF508E50934FFF50980549002FCE0F2
:10355800FA9002F9E0F8EA28F8E43400F9E5089866
:10356800E50999500D9002FCE0F8E510C398900227
:10357800F9F0E0F5127513007812121A1612464681
:103588009002FDE02AFAA3E03400FB12127B7402D9
:103598001217A99002F9E0F89002FCE028F0050A59
:1035A800850C82850D83A3A3123FC0400302369089
:1035B8009002FCE0C39508E495094003023690AEFA
:1035C8000AEE2EFEE433FF1236CFAC18AD191246C0
:1035D80061E439FB1207058A128B13AC12AD13ECA8
:1035E8004D701B750B011236BF123D0D9002FD1276
:1035F8002C0C60031212FFA90B740202397885168D
:1036080082851783A3A3A3A3E0F50B780B121A1ADC
:10361800E4F512F5137812121A167512F9751302D9
:103628007812121A169002FA121A2D74071217DF5E
:10363800121A2DA910850E82850F831236B512082D
:103648006D74091217A9E9F50B709B9002FD1236EB
:10365800E46003023554E4F512F5137812121A16D1
:103668007CFF7DFF790F850E82850F831236B51298
:1036780007D774021217A91236EA600302355412EA
:1036880036BF1239EE0236017CFC7D02850E82853A
:103698000F831236B512044DE960030235F4790040
:1036A800023601AC0CAD0D850A82850B831236B942
:1036B80022E0FAA3E0FB221236CFE0FAA3E0F9EA0F
:1036C80085148285158322850C82850D83E02EF86A
:1036D800A3E03FF988828983229002FA1247E7E83B
:1036E80049221236F4F8A3E0F9E849229002FDEAEB
:1036F800F0A3EBF09002FDE02274E812180374FACC
:1037080012179374041217DF1232F78C168D177480
:10371800041217DFE02405F50EA3E03400F50F745A
:10372800041217DFE0240212398C1236B51205197B
:103738008A0A8B0B7F007E00A818A91988088909B6
:103748007808121A16850E82850F83A3A3A3A3E017
:10375800F5088E097808121A16E50E2405F508E40E
:10376800350FF5097808121A16850E82850F83A37E
:10377800A31239BC1206FF74061217A98A0C8B0D06
:1037880080291239ADF00F1239ADF00F9002F912FD
:103798003CF8121A16124646EFF812398012127BBC
:1037A80074021217A99002F9E02FFFE50C450D707D
:1037B8000302383C851882851983123E2EA3A3A3E1
:1037C800E0F98514828515831236B51206EDE9FEF7
:1037D800E50C2404F510E4350DF511EE7050740471
:1037E8001217DF1239B3F5087808121A1AE4F50827
:1037F800F5097808121A167508F975090278081279
:103808001A169002FA121A2D74071217DF121A2DBF
:10381800E50A24FAF9AC0CAD0D85148285158312DE
:1038280036B512086D74091217A9E9FE6039123904
:10383800C9123D0CEF70030239639002FDE0F5F008
:10384800EF849002FCF07CFC7D0285148285158350
:103858001236B5120453E960099002FE1236B51209
:1038680012FF79000239768F08EF703BE4F512F504
:10387800137812121A167CFF7DFF79118514828540
:1038880015831236B51207D774021217A91239D93F
:1038980070091239C91239ED0239769002F9E0241B
:1038A800049002FDF080359002F9E0F89002FDE006
:1038B800FAE82404FCE43400FDEC6A4D60030238A5
:1038C80042E50A24FAFAE50B34FFFBE50828F8E498
:1038D8003400F9EA98EB9950030238428510828542
:1038E8001183E0C0E09002FEE02FF8A3E0340088E6
:1038F80082F583D0E0F00F851082851183A3E0C0A4
:10390800E012399AD0E0F00F74021217E98808899A
:10391800097808121A1674021217DF121A2D850E6A
:1039280082850F831232EB12070B74041217A98ACF
:103938000C8B0DEA450D700302378A74021217DFEB
:10394800E0C0E012399AD0E0F00F74021217DFA33A
:10395800E0C0E012399AD0E0023792EE70027E0A97
:10396800850E82850F831239CF123D0CEEF974064D
:103978001217A97F100218D59002FEE028FAA3E0DA
:103988003400FB22F514A3E03400F515851482F504
:10399800832212399E229002FEE02FFAA3E034001F
:1039A8008A82F5832212399E74FF22123B1BA3A33D
:1039B800A3A3E0221248D8850E82850F831236B958
:1039C800228510828511831247E785168285178321
:1039D800229002FEEAF0A3EBF09002FE1247E7E81D
:1039E8004922123D12E8F0A3E9F079112274EA1293
:1039F800180374FE1217938A088B098C128D13EA28
:103A08002405FEE43509FFAC18AD198E828F8312A8
:103A180036B51207058A0C8B0DEE2406F50EE43F29
:103A2800F50FEA450D7003023AEDE5082402F50AA0
:103A3800E43509F50B8A828B83A3A3A3E0A2E550A2
:103A4800288518828519831236B51208618A108B69
:103A580011EA4511602079121236AB851082851162
:103A680083121801E9F50C707F850E82850F83E0BB
:103A7800600979528011750C0E806D850882850960
:103A880083A3A3A3A3E0F9E4F508F5097808121ABB
:103A9800168E828F83A3A3E0F5087808121A168E73
:103AA800828F83A3A3A3121A2D8E828F8312464975
:103AB8001236AF12087374061217A9E9F50C7011C3
:103AC800850E82850F83E0702D1236AF120459805F
:103AD800257416650C7011750C0074181217DF1216
:103AE8003B17E48010750C011247DF85128285139D
:103AF80083E8F0A3E9F0850E82850F83E0600479FE
:103B0800008002A90C74021217A97F0E0218D512A0
:103B18003B1B22E0F8A3E0F58388822274EC12189C
:103B28000374F71217938A0A8B0B8C108D11EA24F1
:103B380005FEE4350BFF750C00AC18AD198E828FAD
:103B4800831236B51207058A088B09EA45097003FE
:103B5800023CE3E50A2402F50A5002050B8A828B2F
:103B680083A3A3A3E0A2E5502F85188285198312A9
:103B780036B51208618A0C8B0DEA450D604F791233
:103B8800AC08AD091236AF850C82850D8312180179
:103B9800E9F50C6003023CE6850A82850B83E0F5B3
:103BA80008A3E0F509AA08FB120855EA4B70197A30
:103BB800FF7BFF120855EA4B7003023CD98A828BBF
:103BC80083E508F0A3E509F07508008008750C0E78
:103BD800023CE605089002F6E0F8E508C3984003C1
:103BE800023CD985080E750F007403780E121780F1
:103BF8008A828B83A3A3E0250EF8A3E0350F124039
:103C0800AD70D08E828F83123D011232F78E828F73
:103C180083A3A3123D011232F5EE2404F508E43F14
:103C2800F509850882F583E088828983A3A3A3A385
:103C3800F0A3E4F0EE2405F50EE43FF50F850E82BF
:103C4800F583123D01A3A3A3A31232F575120775DC
:103C580013007812121A16EEFCEFFD74041217F115
:103C680012127B74021217A9E4F5127812121A16AE
:103C7800850882850983E0FC7D0079171236AF122A
:103C880007D774021217A974071217DF1232F774D4
:103C9800071217DFE0FA4B603D8508828509831219
:103CA8003CF8121A16850E82850F831246491212A5
:103CB8007B74021217A974021217F91236AF120494
:103CC8005FE9602674071217DF1236B51212FF80FB
:103CD80019750C098008750C118003750C011247C1
:103CE800DF851082851183123D0CA90C7409802888
:103CF800E0F5087509007808221236B988828983A8
:103D080022123D12E8F0A3E9F022E0F8A3E0F985D9
:103D18000E82850F832274041217A97F0C0218D50E
:103D280074EC121803123E1C751000EE2402F50CF8
:103D3800E43FF50D850C82F5831236B51208558AD5
:103D4800088B09EA45097003023E00850A82850B43
:103D580083E064016003023DF5AC08AD09AA0AAB33
:103D68000B120849E9606E85088285098312308242
:103D7800EE2406F50AE43FF50B8E828F83A3A31287
:103D88001A2D8E828F83A3A3A3A3121A2D850A82CC
:103D9800850B83121A2D79188E828F83123E2E126C
:103DA80036B512087374061217A9E9F87416687004
:103DB8000B850A82850B83E4F0A38014E860128ED9
:103DC800828F831236B5850E82850F83EAF0A3EBC6
:103DD800F088108018780E121A16AC08AD09EEFAA1
:103DE800EFFB12084F74021217A9E9F510AA08ABE5
:103DF8000912085BE510700E850C82850D8312365A
:103E0800B51204658009741665107003751000A951
:103E180010023D23EAFEEBFF8C0E8D0FEE2405F514
:103E28000AE43FF50B221248D8850C82850D8322BF
:103E380074EA1218037508007509007E007F007582
:103E48000A00EC2402F510E43DF5118035EC650814
:103E58007003ED65096003023EED88828983A3A3A0
:103E6800E06A7003A3E06B707C88828983A3A3A3B4
:103E7800A31247E3EE28FEEF39FFEA28FAEB39FBF5
:103E8800050A123FBD503A850A0C750D0074037877
:103E98000C121780851082851183123FB01240AD35
:103EA800601FE508450970A58C088D0988828983FB
:103EB80012308088828983A3A3E02EFAA3E03F8092
:103EC800BEE50AC394025003023FAB7508007509AA
:103ED80000EE4F6010EEFAEFFB1212F98A0E8B0F0C
:103EE800EA450F70057900023FAD750B00023F806F
:103EF800850B0C750D007403780C121780851082E1
:103F0800851183E0250CF50CA3E0350DF50DE50CC6
:103F18002406F514E4350DF515851482F583124051
:103F2800B26042E50C2404F512E4350DF513851250
:103F380082F583121A2DE50E2508FAE50F3509FBDF
:103F480012127B74021217A9851282851383E02549
:103F580008F508A3E03509F509851482851583124B
:103F680036B51212FFE50B600D7C087D007900AABA
:103F78000CAB0D121293050BE50BC3950A50030207
:103F88003EF88510828511831247E388828983A3CE
:103F9800A3A3A3A3A3E50EF0A3E50F122C13EEF041
:103FA800A3EFF07901023B12123FB422E0250CF88E
:103FB800A3E0350D229002F6E0F8E50AC3982274D2
:103FC800F01218038A0E8B0F8C0A8D0B750D007575
:103FD8000C0080507916EE2406F508E43FF5098EAA
:103FE800828F83A3A3121A2D8E828F83A3A3A3A3E8
:103FF800121A2D850882850983121A2D850E82854D
:104008000F83A3A31236B512087374061217A9E911
:10401800F50D7416650D706C850882850983E4F0CA
:10402800A3F0050C9002F6E0F8E50CC3985066AAD8
:104038000C8A0875090074037808121780850A82AB
:10404800850B83A3A31240FCE8FEE9FF8E828F83D1
:104058001240B26040EA2401F508E43400F5099002
:1040680002F6E065087002E509601488828983A376
:10407800A3A3A3A3A3A3A31236E46003023FDC799E
:1040880018023FDEE9609B1247DF74101217DF1237
:1040980040A4123D0CA90D7F080218D5E0FAA3E050
:1040A800F5838A8222F9888289831248D8EC4D22C6
:1040B80074F61218037C0080010C900353E0F8ECAE
:1040C800C398501E8C08750900740278081217806E
:1040D8001240F1E06A7003A3E06B70DDE8FAE9FBD7
:1040E80080047A007B000241949002F41240FC881C
:1040F80082898322E02508F8A3E03509F92274F2C1
:104108001218038A088B09750A0080278E828F830C
:10411800A3A3A3A3122C0A60031212FF7C087D003C
:104128007900EEFAEFFB1212938E828F83E4F0A3EC
:10413800F0050A123FBD5027850A0C750D0074035F
:10414800780C121780850882850983A3A3E0250CC3
:10415800FEA3E0350DFF8E828F831236E470AD85A5
:10416800088285098374FFF0A3F00248CC74F61224
:1041780018031208078A828B83E582458370067AC2
:10418800007B008007A3A3A3A31236B57F02021801
:10419800D574F412180389088C828D83E064027048
:1041A8003C124782FEA3E0F9EEF8740268700374CB
:1041B80029697029750A02750B00780A121A167493
:1041C800101217DF121A2D74101217DF121A2DA9E8
:1041D8000812113174061217A9E9F980027901024F
:1041E8002C4774E812180374FB121793E985188298
:1041F800851983F08A168B17ECFEEDFF7510008E7B
:10420800828F83A3A3A3E0A2E4502D741D1217DFAD
:104218001236B51208618A828B83E5824583700362
:10422800024621790AEEFCEFFDAA16AB1712180117
:10423800E9F5106003024624741F1217DFE0F50841
:10424800A3E0F50974211217DFE0F50AA3E0F50BE6
:1042580074231217DFE0F50EA3E0F50F8E828F832B
:10426800E0640260030245C2A31247E38508828521
:104278000983A3858212858313EE2406F50CE43F97
:10428800F50D88828983124661F514E439F51578AD
:1042980014121AA0010000280128C44207000228AD
:1042A80089430328F7420029B8440129E344022935
:1042B80084440329B84404295C45C245E50E450FEA
:1042C80060030245BD850C82850D831247E3E8FA39
:1042D800E9FB8A828B83E0850A82850B8312466C10
:1042E800121A168A828B83A3E0FCA3E0024546E5F6
:1042F8000E450F60030245BD850A82850B83740154
:10430800F0124656850882850983F07C007D008E70
:10431800828F83A3A3A3A3E02401FAA3E03400FBC4
:10432800120705EA4B60408A828B83E02402F885F5
:104338000A82850B83E028F0EA2404F8E43BF98834
:10434800828983E085128285138312467A12466C2D
:10435800121A168A828B83A3124649E5082403FAA7
:10436800E43509FB02454B850A82850B83E024046A
:10437800F07C047D007900AA12AB13121293024656
:1043880024E50E450F60030245BD124656FEA3E024
:10439800FF850A82850B837404F0EE8508828509FF
:1043A80083F0EF851282851383F074031217F9EEF8
:1043B800FAEFFB1207058A0C8B0DEA450D70030214
:1043C80044678A828B83A3A312308074011217E991
:1043D800880E890F780E121A1674051217DF121A32
:1043E8002D7CFF7DFF12070B74041217A98B0FEAAF
:1043F800450F7033850C82850D8312464D121A16AF
:10440800850C82850D83A3121A2D7C027D007A43C8
:104418007B8212050774041217A9E9700A74011245
:1044280017DF74FFF0A3F08E828F83E06402703987
:10443800750C02750D00780C121A168E828F83A3E4
:10444800124649E5082404FAE43509FB12127B7484
:10445800021217A9850A82850B83E0240280097459
:10446800011217DFEEF0A3EFF074011217DF124606
:104478003B74011217DF1246320245B7E50E450FAD
:1044880060030245BD850C82850D831248D1AA16AA
:10449800AB17121137850A82850B837402F08508E1
:1044A80082850983EAF0851282851383EB0245BA77
:1044B800E50E450F60030245BD124656F8A3E0F924
:1044C800850A82850B837402F0E885088285098352
:1044D800F0E98512828513830245BA850C82850D21
:1044E800831236B5121275EAFAF8C3950EE4950FE1
:1044F800405CE8650E450F70047A008021851882BB
:10450800851983E0FCE50E2CFCE4350FFDC3EC981F
:10451800ED94005003E08005E50ECAC39AFAEA85D7
:104528000A82850B83F08A0A750B00780A121A161C
:10453800850C82850D83E0250EFCA3E0350FFDAACE
:1045480008AB0912127B74021217A90246247510CF
:1045580007024624E50E450F705B850C82850D83A6
:104568001247E3850A82850B837407F08882898362
:1045780012463312462BE0851282851383F0E82415
:1045880002FAE439FB8A828B8312463B8A828B8348
:10459800124632A3A3122C12124640F0E82405F862
:1045A80050010988828983124640A312467AA3A340
:1045B800A3A3F0806775100B8062741D1217DF12B9
:1045C80036B51208078A828B83E5824583604A12D2
:1045D80047E3880C890DE8450D603E74251217DF06
:1045E800E0F5107810121A1A780E121A16780A12B4
:1045F8001A167808121A1674071217DFE0F9EEFC7B
:10460800EFFDAA16AB17850C82850D83121801746D
:10461800071217A9E9F510800375100EA910740583
:10462800023978F088828983A322A3E085088285ED
:10463800098322124681F022124681A3A322900206
:10464800FA1248D822E0F50E750F00780E22850C74
:1046580082850D83123B1BE022E0FAA3E0F8E4C850
:10466800F9EA2822F08A828B83E0F50A750B007834
:104678000A2212462B12468122E085088285098388
:10468800A3A32274EE12180374FE1217938A088BE0
:1046980009ECFEEDFF890AAC18AD19EEFAEFFB1232
:1046A80007058A0C8B0DEA450D70030247738518C0
:1046B800828519831236B51208078A828B83E582B0
:1046C8004583700302476EA3A31247E3880E890F40
:1046D800E8450F700302476E74141217DFE0F510F7
:1046E800A3E0F511E50AF50B780B121A1A741912E2
:1046F80017DF121A2D7810121A16741B1217DFE022
:10470800F9AC0CAD0DAA08AB09850E82850F831292
:10471800180174051217A9E9F50B705274FE650AA1
:10472800604C850C82850D83E064027041124782DB
:10473800FAA3E0F9EAF87402687003742969702E24
:10474800851082851183124661F50CE439F50D78E0
:104758000C121A16EEFCEFFDAA08AB0912088B74AE
:10476800021217A98008750B0E8003750B01A90B9F
:1047780074021217A97F0A0218D5A31247E7888284
:104788008983E02274F612180374FE121793740CCE
:104798001217DF1247E3E8851882851983F0740140
:1047A8001217DFE9F0E4F508F5097808121A16750A
:1047B80008027808121A1674041217E98808890979
:1047C8007808121A1679FE12087374061217A9745B
:1047D800021217A90241948E828F831247E722E0C2
:1047E800F8A3E0F92274F7121803EAFEEBFF890830
:1047F800900311124649121137EA5402600BA908B6
:10480800EEFAEFFB1206F9800279017F010218D552
:1048180074F212180374FE121793EAFEEBFF890A6A
:104828007401650A60147402650A60030248C77956
:1048380001120A8FE960030248C7EEFAEFFB12087B
:1048480055EA4B600312085BA818A919880889095A
:104858007808121A167508027509007808121A16CF
:1048680075082D7509827808121A167CFF7DFF7A63
:10487800017B001206FF74061217A980388508828A
:10488800850983A3A3A3A3A3A31248D1EEFAEFFB40
:1048980012112BE4F50CF50D780C121A167402128D
:1048A80017DF121A2D7CFF7DFFAA08AB0912070B30
:1048B80074041217A98A088B09E508450970BE74A3
:1048C800021217A97F060218D5123B1B1248D822DC
:1048D800E0FCA3E0FD2274F41218038A088B09ECAB
:1048E800FEEDFF901647E0F4604B7A097B00121248
:1048F8009FEA4B60408A828B8374B1F0A3E412492B
:1049080040F08A828B83A3A3E508F0A3E509124946
:1049180040A3EEF0A3EFF0740C1217DF1247E38AFE
:10492800828B83A3A3A3A3A3A3A3123D0C90164732
:10493800E0F91212AB022C47F08A828B83A3A3A35F
:10494800A32274F012180374FA1217938909ECFE63
:10495800EDFF7508008A0A8B0B780A121A5A0004B0
:1049680010704B8D49AB49C549DD49FB49134A369F
:104978004A4E4A624A8C4A074B184B2F4B4A4B7097
:104988004B704BA24A740165096003024B6B8E821F
:104998008F83E0F8C394034003024B6BE89017330E
:1049A800024B47740265096003024B6B8E828F834A
:1049B8001252CE901734E8F0A3E9024B4774016510
:1049C800096003024B6B124B984003024B6BE89053
:1049D8000754024B47740165096003024B6B8E82D2
:1049E8008F83E0F8C394054003024B6BE8900755AA
:1049F800024B47740165096003024B6B124B9840E8
:104A080003024B6BE8900756024B47741065096028
:104A180003024B6B750A10750B00780A121A167A86
:104A2800577B0712127B74021217A9024B9174016B
:104A380065096003024B6B124B984003024B6BE80D
:104A4800900767024B47740165096003024B6B8E40
:104A5800828F83E0901737024B477404650960031F
:104A6800024B6B8E828F83780C12165790820978CE
:104A78000C12148A5003024B6B900769780C1216BB
:104A880066024B91E96003024B6B12069FE97005C1
:104A98001210EF80559007FC806174076509600368
:104AA800024B6B750A06750B00780A121A168E826D
:104AB8008F83A3AC82AD8374021217F11212817432
:104AC800021217A97C007D00AA18AB198E828F8369
:104AD800E0F912109BE9FEC3940A4003024B8E12C0
:104AE800069FE9700CEEF91210F579501213BF8089
:104AF8006D74FD2EF582E43407F5837401804074EB
:104B0800016509705E124B985059E8900768802F2C
:104B180074016509704D8E828F83E0F8C3940A5042
:104B280042E890173680187401650970368E828FB6
:104B380083E0F874F928C3940A5028E8901738F0ED
:104B4800804774016509701B9007FBE0F88E828F1F
:104B580083E09007FBF0E87030E06401702B1210DE
:104B6800E380267508188021C3EA9427EB94005047
:104B78001574026509700F8E828F83125DAE12055F
:104B88001FE9F5088003750802A9087406024EBCDF
:104B98008E828F83E0F8C3940222A908800312173B
:104BA800A97F040218D574F012180374B112179370
:104BB8008C0A8D0B90816B74201217F974061216EB
:104BC800A674201217F912109BE9FF745F1217DF01
:104BD800E0F509EFC3940A4003024D3075F006EF83
:104BE800A4F50874411217F97A0E74202508F912F1
:104BF80013B9E97009744D1217DFE0FE80027E00D8
:104C0800901733E064027005750E018003750E007D
:104C18007408650970047422800274212508F50D52
:104C28007C1B7D00790074261217F11212937426EA
:104C38001217F97A1BA90D1213B9E9702D744012D5
:104C480017DFE024F9C3940A5020E50EF50D780D1E
:104C5800121A1A74271217F9EEA2E0E433F9AA0A15
:104C6800AB0B1205C174011217A97C147D007900E1
:104C7800740C1217F1121293740C1217F97A10743B
:104C8800242508F91213B9E970347C1079FF740CE3
:104C98001217F11212F3E97025741C1217DFAC8297
:104CA800AD837A0474252508F91213B9740C121708
:104CB800F9EEA2E0E433F9AA0AAB0B1205A9AC1885
:104CC800AD197A0C74702FF91213B9E97049AA1842
:104CD800AB191210CB7F00EF75F003A4F8A9F0858B
:104CE8001882851983E58228F8E5831254851256BF
:104CF80066601D88828983A3A3E0F50E750F00788E
:104D08000E121A16AA0AAB0B12087974021217A906
:104D18000FEFC3940440C0EEA2E1500C900753E09B
:104D2800F9AA0AAB0B12087F74046509702890175A
:104D380033E0640270207A00900767E060027A012D
:104D4800900754E06004780480027800E84AF9AAE1
:104D58000AAB0B1206757900744F024EBC74F71239
:104D6800180312069FE9704F9007FCE06401701564
:104D78001210EF9007FCE4F07C0AFDF97AFD7B073E
:104D8800121293802A750800A80874FD28FEE434DE
:104D980007FF8E828F83E06401700BA9081210F55B
:104DA8008E828F83E4F00508E508C3940A40D97918
:104DB800501213BF1210E302579D74F012180374B7
:104DC800F0121793EAFEEBFF8C088D09750A0AE9C1
:104DD800600C14600914603B14607D024EB8121018
:104DE800DDE9F50AC3940A4003024EB8E50845090F
:104DF8007003024EB8750C06750D00780C121A1661
:104E0800EEFCEFFDAA08AB0912127B74021217A977
:104E1800024EB8750C00750E06750F00780E121A42
:104E280016EEFCEFFDE50C75F00EA4F8A9F074750C
:104E380028FA740739FB12128D74021217A9E97047
:104E48000B050CE50CC3940A506680CA850C0AE56C
:104E58000AC3940A505A8049750C00AC18AD197AE7
:104E68001075F006E50CA42423F91213B9E9701C97
:104E78007C1079FFAA18AB191212F3E9700EEEFC38
:104E8800EFFDAA18AB19120585E9600B050CE50CB6
:104E9800C3940A501B80C4850C0AE50AC3940A50BF
:104EA8000FE50845096009AA08AB09A90A1210D735
:104EB800A90A74101217A97F080218D574F41218D9
:104EC80003890975081574FF6A700374FF6B7027EE
:104ED8007E00AC097A027B00EEF91210B9E9600392
:104EE8007508000EEEC3940A40E8E50960537A0796
:104EF8007B11120AB3804A120A838A0A8B0BAE0A04
:104F0800AF0BEE4F60387C007D00EE2405FAE43FDD
:104F1800FB8E828F83A3A3A3A3E0F912109BE9F968
:104F2800C3940A500CAC097A027B001210B97508B8
:104F380000E509600CEEFAEFFB1211078003750813
:104F480014024BA274F2121803ECFEEDFF7508155B
:104F5800740E1217DFE0F50AA3E0F50B74FF6A7010
:104F68000374FF6B7021750900AC0AAD0BEEFAEF04
:104F7800FBA9091210BFE960037508000509E509D6
:104F8800C3940A503F80E2120A838A828B83E582A7
:104F98004583602D7C007D00E5822405FAE4358395
:104FA800FBA3A3A3A3E0F912109BE9F9C3940A5049
:104FB80013AC0AAD0BEEFAEFFB1210BF75080080B8
:104FC80003750814A9087F060218D5C082C083900B
:104FD800076DEAF0A3EBF0900753E0FC7D007A261A
:104FE8007B0012051F900753E0F91207E3025AB736
:104FF80074EE12180374EC1217938A088B09EA24CA
:105008000CF510E43509F5118A828B83A385820C8F
:1050180085830DEA2405F50EE43509F50FEA240920
:10502800F50AE43509F50BEA2403FEE43509FF8A9D
:10503800828B83A3A3E024FA70030252BC24FD7080
:10504800030251DC1470030250D614601024FD7062
:10505800030251BF1470030252140252C2125DB40B
:105068006044E0F58388821252CE880C890DE845A9
:105078000D6033851082851183E0F50E780E121AC3
:105088001AEA240BF582E43509F583E0F9125DA8E4
:105098000A0A0AEFFB850C82850D83121801740138
:1050A8001217A90252C2850A82850B83121A2D9003
:1050B80007691216751205BB74021217A9E9700365
:1050C8000252C27901850A82850B8302528C750AC5
:1050D80000850C82850D83E0600302518C850E8269
:1050E800850F83E0A2E0400302518C900807125D0F
:1050F800B7600302518C7C0E7D007900AA18AB19A9
:10510800121293851082851183125A82EA4B60101D
:10511800750A06750B00780A121A16EA2410801B05
:10512800125A7E120A83EA4B70030252C2750A06AB
:10513800750B00780A121A16EA2405FCE43BFD7484
:10514800021217F112127B74021217A9850E8285BA
:105158000F83E0A2E25004D2F08002C2F0A2F0E491
:1051680033F8740C1217DF125C361210D1E9701183
:105178007A027B00900753E0F91212CF79000252AD
:10518800C4750A15125DB470030252C21252E3705C
:10519800030252C2850C82850D83E0FC790112520C
:1051A800D4121801E50A70030252C2FC7903125A9C
:1051B8007E125A390252B7125DB470030252C212FB
:1051C80052E370030252C2850C82850D83E0FC799C
:1051D800020252B47C007D00EA2404FAE43509FB9B
:1051E8008E828F83E0F912109BE9F8C3940A40037A
:1051F8000252C2E508240AFCE43509FD7A0475F078
:1052080006E8A42425F91213B30252C2125A7E905A
:105218000768E06007901736E0F9806B901733E075
:10522800700479058061120A838A0C8B0DA80CA979
:105238000DE84970030252C2E82404F50CE439F57C
:105248000D850882850983A3A3A3A3A3A3A3E0A232
:10525800E05039850C82850D83E0F508602E850ABB
:1052680082850B83A3E054027022740E1217F9E8AA
:105278002405FAE439FBA90812109BE9700E79039A
:105288008E828F83125A821205B5802EAC0EAD0F16
:10529800850C82850D83E0F9125A7E121113125D76
:1052A800B460171252E360127C0079001252D412D3
:1052B80018018006125A7E1210957901741412177B
:1052C800A97F0A0218D5E0F8A3E0F9228E828F831D
:1052D800E0FAA3E0FB888285098322125A47F989FC
:1052E80009E845092274F512180374F2121793EAB3
:1052F800FE8C0A75F006E9A42420F508AC18AD194F
:105308007A0EF91213B9E970467C0679FFAA18AB30
:10531800191212F3E97038740C1217DF125A82EA64
:10532800F8E50A6005EEC8488004EEF4C858F8EAC3
:10533800687001EB6015740C1217DFE8F0A3E4F055
:10534800AC18AD197A0EA9081213B3790180027945
:1053580000740E1217A97F030218D574F2121803ED
:1053680074E6121793890A8A088B09ECFEEDFF741C
:105378000C1217F97A0E75F006E9A42420F9121315
:10538800B9E960030254487C0679FF740C1217F1DE
:105398001212F3E960030254487470250AF50BAC45
:1053A80018AD197A0CF91213B9E96003025444AA2A
:1053B80018AB191210CBE5084509701D7C0C790053
:1053C800AA18AB191212F3E970727C0C7D007900EF
:1053D800AA18AB191212938051AC18AD19AA08ABD0
:1053E800091210C58A0C8B0DA80CA90DE84970226A
:1053F800EE4F604CAC18AD197A007B001210C5EA6C
:10540800F8EBF9EA4B603988828983E508F0A3E56F
:1054180009F01254C1FAEE6A7001EF601FEEF04F06
:10542800700888828983E4F0A3F0AA18AB191210D7
:10543800CBAC18AD197A0CA90B1213B37901800201
:105448007900741A1217A9024FCE74F71218037E46
:1054580000EE75F003A4F8A9F0EC28F8ED125485D5
:10546800E06A7003A3E06B7006E8FAE9FB800B0EB4
:10547800EEC3940440DB7A007B0002579D39F9881B
:105488008289832274F71218037C00EC75F003A458
:10549800F8A9F0EA28F8EB125485E0F4FEA3E0F44A
:1054A800FF88828983EEF0A3EFF01254C1F4F00C68
:1054B800ECC3940440D502579DE82402F582E439F0
:1054C800F583E02274F412180374F4121793EAFEB9
:1054D800EBFF8C088D09900807125DB7704FEE4FEF
:1054E8007003025645EC450970030256451210DD5B
:1054F800E9901739F0C3940A4033750B007C06799C
:10550800FFE50B75F00EA4FAABF0746F2AFA740776
:105518003BFB1212F3E960030255A6050BE50BC32A
:10552800940A40D9750A0AE50A901739F090173994
:10553800E0C3940A400302564575F006E0A4FB90C8
:105548000807125DB7705CEEFCEFFD7A0E74202B35
:10555800F91213B37C0C7D0079FFAA18AB1912124B
:1055680093AC18AD197A0C901739E02470F912131E
:10557800B3750A0E750B00780A121A16EEFCEFFDC9
:10558800901739E01256FE12127B74021217A99076
:105598000807E508F0A3E509F07900025647850BEE
:1055A8000A8084E0C8240612566060197A1B7421A8
:1055B8002BF91213B312564C2406F582E438F583FE
:1055C800E4F0A380D312564C240A12566060107A75
:1055D8001B74222BF91213B312564C240A80DB12C7
:1055E800564C240C12566060107A1074232BF91252
:1055F80013B312564C240C80C112565512566060D3
:10560800307A1074242BF91213B3125655F582E42C
:1056180038F583E02410FCA3E03400FD7A0475F02B
:1056280006901739E0A42425F91213B312565580B1
:10563800899007FBE0600312111912110D790174AA
:105648000C024BA6900807E0F8A3E0C822900807D0
:10565800E0F8A3E0C8240822F582E438F583125D57
:10566800AEEC4D2274F412180374F2121793EAFE8A
:10567800EBFFE9C3940A5004EE4F700479028034BA
:10568800AC18AD197A0E75F006E9A42420F91213A6
:10569800B9E9F508701C750A06750B00780A121A24
:1056A8001674021217F9EEFAEFFB12127B7402124B
:1056B80017A9A908740E024BA674F4121803EAFE7F
:1056C800EBFF750800750A06750B00780A121A16A2
:1056D800EEFCEFFDE5081256FE12128D7402121749
:1056E800A9E96004A908800B0508E508C3940A40E5
:1056F800D4790A024BA975F00EA4F8A9F0746F28A2
:10570800FA740739FB2274F7121803750800E508C4
:1057180075F00EA4F8A9F0746F28FE740739FFEE2F
:10572800FCEFFD7A0E75F006E508A42420F91213A3
:10573800B9E960297C067D0079FFEEFAEFFB1212C9
:10574800937C067D0079FFEE2CFAE43FFB1212935E
:10575800EE240CF582E43FF583E4F0A3F00508E5B8
:1057680008C3940A40A89007FBE0600312111912BD
:10577800110D802174F71218037E007F007C06EF5C
:105788001256FE79FF1212F3E970010E0FEFC3945F
:105798000A40EAEEF97F010218D574F71218037E61
:1057A80000EEF91210F5E9F90EEEC3940A5003E978
:1057B80060EF80E174F312180374CB121793890811
:1057C800901739E06508701B7A017B00900753E059
:1057D800F91212D57A027B00900753E0F91212D51C
:1057E80012112575F006E508A4FF74202FFE742712
:1057F8001217F97A0EEEF91213B9E960030258C4C8
:105808007C0679FF74271217F11212F3E96003027C
:1058180058C47C0E7D0079FF74271217F112129379
:105828007C1B7D0079FF740C1217F11212937C0C0B
:105838007D0079FFAA18AB1912129374271217F971
:105848007A0EEEF91213B3E9FE740C1217F97A1BEB
:1058580074212FF91213B3E9F509740C1217F97AA8
:105868001B74222FF91213B3E9F50A740C1217F9F5
:105878007A1074232FF91213B3E9F50B740C12176D
:10588800F97A1074242FF91213B3E9F50C740C1279
:1058980017F97A0474252FF91213B3E9FFAC18AD80
:1058A800197A0C74702508F91213B3E9F8E509455B
:1058B8000A450B450C4F48CE4EFE80027E00EEF99D
:1058C80074351217A97F050218D574F7121803E961
:1058D800900753F01210E302579D74F2121803EA6E
:1058E800FEEBFF548070030259A1900753E0F912B0
:1058F80012B78A088B09EA4509700302599A7A0196
:10590800E5082405F50AE43509F50BE5082404F84B
:10591800E43509F9880C890D8508828B83E02450C9
:10592800603614600624E16058805D88828983E0CF
:1059380070598508828B83A3A3A3A3A3A3A3121AD8
:105948002D125DA88508828B83A3A3125A82121098
:10595800A774021217A9803388828983E0641E70B5
:105968000F79008508828B83A3A3125A821210A193
:10597800850C82850D83E0F9AA0AAB0B1207DD803E
:105988000AAA081210B3E9FAEA6007AA08AB0912D2
:1059980012A5EEFAEF6480802AEE54026028EE64C5
:1059A80002FE7C007D007A007B001210D1E96004C1
:1059B8007A0180027A027B00900753E0F91212CF35
:1059C800EEFAEFFB8068EEA2E050556401F508EFAF
:1059D800F509125A5712111FE96033125DB4602994
:1059E800125A4F1252CEE8FEE9FFEE4F601B7C00C0
:1059F8007901125A578E828F831218017C0079031D
:105A0800125A57125A39121801121125800C7A01AC
:105A18007B00900753E0F91212CFAA08AB09800E59
:105A280054046006EE6404FA80047A007B00024F96
:105A3800CE90076DE0F8A3125A47F58388822212A8
:105A48005A4FE0F8A3E022E0F5838882A3A32290CE
:105A58000807125D98E0FAA3E0FB227F020218D53E
:105A6800C082C083900753E0F98A828B83A3125ABD
:105A78008212087F80398E828F83E0FAA3E0FB22AE
:105A8800C082C08374FF1217931210E9E9C394020D
:105A9800851882851983400474028002740AF0AC68
:105AA80018AD197A0179051206BD74011217A9D02B
:105AB80083D08202013274F012180374E81217932B
:105AC800EAFEEBFF890A8C088D097C187D007900B5
:105AD800AA18AB19121293851882851983EEF0A3C0
:105AE800EFF0900755E0C0E074021217DFD0E0F045
:105AF800900756E0C0E074031217DFD0E0F090176B
:105B080038E0C0E074171217DFD0E0F0901737E0E4
:105B1800A2E0E433FCE0A2E15004D2F08002C2F03B
:105B2800A2F0E433F8E0A2E45004D2F08002C2F01C
:105B3800A2F0E433FAE0A2E55004D2F08002C2F009
